{"contracts/ReflexBlitzNFT.sol":{"ReflexBlitzNFT":{"abi":[{"inputs":[],"stateMutability":"nonpayable","type":"constructor"},{"inputs":[],"name":"InvalidShortString","type":"error"},{"inputs":[{"internalType":"string","name":"str","type":"string"}],"name":"StringTooLong","type":"error"},{"anonymous":false,"inputs":[{"indexed":true,"internalType":"address","name":"owner","type":"address"},{"indexed":true,"internalType":"address","name":"approved","type":"address"},{"indexed":true,"internalType":"uint256","name":"tokenId","type":"uint256"}],"name":"Approval","type":"event"},{"anonymous":false,"inputs":[{"indexed":true,"internalType":"address","name":"owner","type":"address"},{"indexed":true,"internalType":"address","name":"operator","type":"address"},{"indexed":false,"internalType":"bool","name":"approved","type":"bool"}],"name":"ApprovalForAll","type":"event"},{"anonymous":false,"inputs":[{"indexed":false,"internalType":"uint256","name":"_fromTokenId","type":"uint256"},{"indexed":false,"internalType":"uint256","name":"_toTokenId","type":"uint256"}],"name":"BatchMetadataUpdate","type":"event"},{"anonymous":false,"inputs":[],"name":"EIP712DomainChanged","type":"event"},{"anonymous":false,"inputs":[{"indexed":false,"internalType":"uint256","name":"_tokenId","type":"uint256"}],"name":"MetadataUpdate","type":"event"},{"anonymous":false,"inputs":[{"indexed":true,"internalType":"address","name":"player","type":"address"},{"indexed":true,"internalType":"uint256","name":"tokenId","type":"uint256"},{"indexed":false,"internalType":"uint256","name":"score","type":"uint256"},{"indexed":false,"internalType":"string","name":"rank","type":"string"},{"indexed":false,"internalType":"uint256","name":"nonce","type":"uint256"}],"name":"NFTMintedWithSignature","type":"event"},{"anonymous":false,"inputs":[{"indexed":true,"internalType":"address","name":"previousOwner","type":"address"},{"indexed":true,"internalType":"address","name":"newOwner","type":"address"}],"name":"OwnershipTransferred","type":"event"},{"anonymous":false,"inputs":[{"indexed":false,"internalType":"string[]","name":"newRanks","type":"string[]"},{"indexed":false,"internalType":"uint256[]","name":"newThresholds","type":"uint256[]"}],"name":"RankSettingsUpdated","type":"event"},{"anonymous":false,"inputs":[{"indexed":true,"internalType":"address","name":"newSignerAddress","type":"address"}],"name":"SignerAddressUpdated","type":"event"},{"anonymous":false,"inputs":[{"indexed":true,"internalType":"address","name":"from","type":"address"},{"indexed":true,"internalType":"address","name":"to","type":"address"},{"indexed":true,"internalType":"uint256","name":"tokenId","type":"uint256"}],"name":"Transfer","type":"event"},{"stateMutability":"payable","type":"fallback"},{"inputs":[],"name":"MINT_PRICE","outputs":[{"internalType":"uint256","name":"","type":"uint256"}],"stateMutability":"view","type":"function"},{"inputs":[],"name":"MINT_TYPEHASH","outputs":[{"internalType":"bytes32","name":"","type":"bytes32"}],"stateMutability":"view","type":"function"},{"inputs":[{"internalType":"address","name":"to","type":"address"},{"internalType":"uint256","name":"tokenId","type":"uint256"}],"name":"approve","outputs":[],"stateMutability":"nonpayable","type":"function"},{"inputs":[{"internalType":"address","name":"owner","type":"address"}],"name":"balanceOf","outputs":[{"internalType":"uint256","name":"","type":"uint256"}],"stateMutability":"view","type":"function"},{"inputs":[{"internalType":"uint256","name":"score","type":"uint256"}],"name":"determineRank","outputs":[{"internalType":"string","name":"","type":"string"}],"stateMutability":"view","type":"function"},{"inputs":[],"name":"eip712Domain","outputs":[{"internalType":"bytes1","name":"fields","type":"bytes1"},{"internalType":"string","name":"name","type":"string"},{"internalType":"string","name":"version","type":"string"},{"internalType":"uint256","name":"chainId","type":"uint256"},{"internalType":"address","name":"verifyingContract","type":"address"},{"internalType":"bytes32","name":"salt","type":"bytes32"},{"internalType":"uint256[]","name":"extensions","type":"uint256[]"}],"stateMutability":"view","type":"function"},{"inputs":[],"name":"gameAddress","outputs":[{"internalType":"address","name":"","type":"address"}],"stateMutability":"view","type":"function"},{"inputs":[{"internalType":"uint256","name":"tokenId","type":"uint256"}],"name":"getApproved","outputs":[{"internalType":"address","name":"","type":"address"}],"stateMutability":"view","type":"function"},{"inputs":[{"internalType":"uint256","name":"tokenId","type":"uint256"}],"name":"getTokenScore","outputs":[{"internalType":"uint256","name":"","type":"uint256"}],"stateMutability":"view","type":"function"},{"inputs":[{"internalType":"address","name":"user","type":"address"}],"name":"getTokensByUser","outputs":[{"internalType":"uint256[]","name":"","type":"uint256[]"}],"stateMutability":"view","type":"function"},{"inputs":[{"internalType":"address","name":"owner","type":"address"},{"internalType":"address","name":"operator","type":"address"}],"name":"isApprovedForAll","outputs":[{"internalType":"bool","name":"","type":"bool"}],"stateMutability":"view","type":"function"},{"inputs":[{"internalType":"address","name":"player","type":"address"},{"internalType":"uint256","name":"score","type":"uint256"},{"internalType":"uint256","name":"nonce","type":"uint256"},{"internalType":"uint256","name":"expiry","type":"uint256"},{"internalType":"bytes","name":"signature","type":"bytes"}],"name":"mintWithSignature","outputs":[{"internalType":"uint256","name":"","type":"uint256"}],"stateMutability":"payable","type":"function"},{"inputs":[],"name":"name","outputs":[{"internalType":"string","name":"","type":"string"}],"stateMutability":"view","type":"function"},{"inputs":[],"name":"owner","outputs":[{"internalType":"address","name":"","type":"address"}],"stateMutability":"view","type":"function"},{"inputs":[{"internalType":"uint256","name":"tokenId","type":"uint256"}],"name":"ownerOf","outputs":[{"internalType":"address","name":"","type":"address"}],"stateMutability":"view","type":"function"},{"inputs":[{"internalType":"uint256","name":"","type":"uint256"}],"name":"rankThresholds","outputs":[{"internalType":"uint256","name":"","type":"uint256"}],"stateMutability":"view","type":"function"},{"inputs":[{"internalType":"uint256","name":"","type":"uint256"}],"name":"ranks","outputs":[{"internalType":"string","name":"","type":"string"}],"stateMutability":"view","type":"function"},{"inputs":[],"name":"renounceOwnership","outputs":[],"stateMutability":"nonpayable","type":"function"},{"inputs":[{"internalType":"address","name":"from","type":"address"},{"internalType":"address","name":"to","type":"address"},{"internalType":"uint256","name":"tokenId","type":"uint256"}],"name":"safeTransferFrom","outputs":[],"stateMutability":"nonpayable","type":"function"},{"inputs":[{"internalType":"address","name":"from","type":"address"},{"internalType":"address","name":"to","type":"address"},{"internalType":"uint256","name":"tokenId","type":"uint256"},{"internalType":"bytes","name":"data","type":"bytes"}],"name":"safeTransferFrom","outputs":[],"stateMutability":"nonpayable","type":"function"},{"inputs":[{"internalType":"address","name":"operator","type":"address"},{"internalType":"bool","name":"approved","type":"bool"}],"name":"setApprovalForAll","outputs":[],"stateMutability":"nonpayable","type":"function"},{"inputs":[{"internalType":"address","name":"_gameAddress","type":"address"}],"name":"setGameAddress","outputs":[],"stateMutability":"nonpayable","type":"function"},{"inputs":[{"internalType":"string[]","name":"_newRanks","type":"string[]"},{"internalType":"uint256[]","name":"_newThresholds","type":"uint256[]"}],"name":"setRankSettings","outputs":[],"stateMutability":"nonpayable","type":"function"},{"inputs":[{"internalType":"address","name":"_signerAddress","type":"address"}],"name":"setSignerAddress","outputs":[],"stateMutability":"nonpayable","type":"function"},{"inputs":[],"name":"signerAddress","outputs":[{"internalType":"address","name":"","type":"address"}],"stateMutability":"view","type":"function"},{"inputs":[{"internalType":"bytes4","name":"interfaceId","type":"bytes4"}],"name":"supportsInterface","outputs":[{"internalType":"bool","name":"","type":"bool"}],"stateMutability":"view","type":"function"},{"inputs":[],"name":"symbol","outputs":[{"internalType":"string","name":"","type":"string"}],"stateMutability":"view","type":"function"},{"inputs":[{"internalType":"uint256","name":"","type":"uint256"}],"name":"tokenScores","outputs":[{"internalType":"uint256","name":"","type":"uint256"}],"stateMutability":"view","type":"function"},{"inputs":[{"internalType":"uint256","name":"tokenId","type":"uint256"}],"name":"tokenURI","outputs":[{"internalType":"string","name":"","type":"string"}],"stateMutability":"view","type":"function"},{"inputs":[{"internalType":"address","name":"from","type":"address"},{"internalType":"address","name":"to","type":"address"},{"internalType":"uint256","name":"tokenId","type":"uint256"}],"name":"transferFrom","outputs":[],"stateMutability":"nonpayable","type":"function"},{"inputs":[{"internalType":"address","name":"newOwner","type":"address"}],"name":"transferOwnership","outputs":[],"stateMutability":"nonpayable","type":"function"},{"inputs":[{"internalType":"uint256","name":"","type":"uint256"}],"name":"usedNonces","outputs":[{"internalType":"bool","name":"","type":"bool"}],"stateMutability":"view","type":"function"},{"inputs":[{"internalType":"address","name":"","type":"address"},{"internalType":"uint256","name":"","type":"uint256"}],"name":"userTokens","outputs":[{"internalType":"uint256","name":"","type":"uint256"}],"stateMutability":"view","type":"function"},{"inputs":[],"name":"withdraw","outputs":[],"stateMutability":"nonpayable","type":"function"},{"stateMutability":"payable","type":"receive"}],"evm":{"bytecode":{"linkReferences":{},"object":"6101606040526040518060c001604052806040518060400160405280600281526020017f532b00000000000000000000000000000000000000000000000000000000000081525081526020016040518060400160405280600181526020017f530000000000000000000000000000000000000000000000000000000000000081525081526020016040518060400160405280600181526020017f410000000000000000000000000000000000000000000000000000000000000081525081526020016040518060400160405280600181526020017f420000000000000000000000000000000000000000000000000000000000000081525081526020016040518060400160405280600181526020017f430000000000000000000000000000000000000000000000000000000000000081525081526020016040518060400160405280600181526020017f4400000000000000000000000000000000000000000000000000000000000000815250815250600b90600662000182929190620005cf565b506040518060c0016040528062030d4062ffffff1681526020016203d09062ffffff168152602001620493e062ffffff1681526020016205573062ffffff16815260200162061a8062ffffff1681526020016298968062ffffff16815250600c906006620001f29291906200062f565b503480156200020057600080fd5b506040518060400160405280601b81526020017f5265666c6578426c69747a20416368696576656d656e74204e465400000000008152506040518060400160405280600181526020017f31000000000000000000000000000000000000000000000000000000000000008152506040518060400160405280601781526020017f5265666c6578426c69747a20416368696576656d656e740000000000000000008152506040518060400160405280600381526020017f52424100000000000000000000000000000000000000000000000000000000008152508160009081620002ea91906200098f565b508060019081620002fc91906200098f565b5050506200031f62000313620003d560201b60201c565b620003dd60201b60201c565b62000335600883620004a360201b90919060201c565b610120818152505062000353600982620004a360201b90919060201c565b6101408181525050818051906020012060e08181525050808051906020012061010081815250504660a0818152505062000392620004fb60201b60201c565b608081815250503073ffffffffffffffffffffffffffffffffffffffff1660c08173ffffffffffffffffffffffffffffffffffffffff1681525050505062000c99565b600033905090565b6000600760009054906101000a900473ffffffffffffffffffffffffffffffffffffffff16905081600760006101000a81548173ffffffffffffffffffffffffffffffffffffffff021916908373ffffffffffffffffffffffffffffffffffffffff1602179055508173ffffffffffffffffffffffffffffffffffffffff168173ffffffffffffffffffffffffffffffffffffffff167f8be0079c531659141344cd1fd0a4f28419497f9722a3daafe3b4186f6b6457e060405160405180910390a35050565b6000602083511015620004c957620004c1836200055860201b60201c565b9050620004f5565b82620004db83620005c560201b60201c565b6000019081620004ec91906200098f565b5060ff60001b90505b92915050565b60007f8b73c3c69bb8fe3d512ecc4cf759cc79239f7b179b0ffacaa9a75d522b39400f60e0516101005146306040516020016200053d95949392919062000ae7565b60405160208183030381529060405280519060200120905090565b600080829050601f81511115620005a857826040517f305a27a90000000000000000000000000000000000000000000000000000000081526004016200059f919062000bd3565b60405180910390fd5b805181620005b69062000c29565b60001c1760001b915050919050565b6000819050919050565b8280548282559060005260206000209081019282156200061c579160200282015b828111156200061b5782518290816200060a91906200098f565b5091602001919060010190620005f0565b5b5090506200062b919062000688565b5090565b82805482825590600052602060002090810192821562000675579160200282015b8281111562000674578251829062ffffff1690559160200191906001019062000650565b5b509050620006849190620006b0565b5090565b5b80821115620006ac5760008181620006a29190620006cf565b5060010162000689565b5090565b5b80821115620006cb576000816000905550600101620006b1565b5090565b508054620006dd906200077e565b6000825580601f10620006f1575062000712565b601f016020900490600052602060002090810190620007119190620006b0565b5b50565b600081519050919050565b7f4e487b7100000000000000000000000000000000000000000000000000000000600052604160045260246000fd5b7f4e487b7100000000000000000000000000000000000000000000000000000000600052602260045260246000fd5b600060028204905060018216806200079757607f821691505b602082108103620007ad57620007ac6200074f565b5b50919050565b60008190508160005260206000209050919050565b60006020601f8301049050919050565b600082821b905092915050565b600060088302620008177fffffffffffffffffffffffffffffffffffffffffffffffffffffffffffffffff82620007d8565b620008238683620007d8565b95508019841693508086168417925050509392505050565b6000819050919050565b6000819050919050565b6000620008706200086a62000864846200083b565b62000845565b6200083b565b9050919050565b6000819050919050565b6200088c836200084f565b620008a46200089b8262000877565b848454620007e5565b825550505050565b600090565b620008bb620008ac565b620008c881848462000881565b505050565b5b81811015620008f057620008e4600082620008b1565b600181019050620008ce565b5050565b601f8211156200093f576200090981620007b3565b6200091484620007c8565b8101602085101562000924578190505b6200093c6200093385620007c8565b830182620008cd565b50505b505050565b600082821c905092915050565b6000620009646000198460080262000944565b1980831691505092915050565b60006200097f838362000951565b9150826002028217905092915050565b6200099a8262000715565b67ffffffffffffffff811115620009b657620009b562000720565b5b620009c282546200077e565b620009cf828285620008f4565b600060209050601f83116001811462000a075760008415620009f2578287015190505b620009fe858262000971565b86555062000a6e565b601f19841662000a1786620007b3565b60005b8281101562000a415784890151825560018201915060208501945060208101905062000a1a565b8683101562000a61578489015162000a5d601f89168262000951565b8355505b6001600288020188555050505b505050505050565b6000819050919050565b62000a8b8162000a76565b82525050565b62000a9c816200083b565b82525050565b600073ffffffffffffffffffffffffffffffffffffffff82169050919050565b600062000acf8262000aa2565b9050919050565b62000ae18162000ac2565b82525050565b600060a08201905062000afe600083018862000a80565b62000b0d602083018762000a80565b62000b1c604083018662000a80565b62000b2b606083018562000a91565b62000b3a608083018462000ad6565b9695505050505050565b600082825260208201905092915050565b60005b8381101562000b7557808201518184015260208101905062000b58565b60008484015250505050565b6000601f19601f8301169050919050565b600062000b9f8262000715565b62000bab818562000b44565b935062000bbd81856020860162000b55565b62000bc88162000b81565b840191505092915050565b6000602082019050818103600083015262000bef818462000b92565b905092915050565b600081519050919050565b6000819050602082019050919050565b600062000c20825162000a76565b80915050919050565b600062000c368262000bf7565b8262000c428462000c02565b905062000c4f8162000c12565b9250602082101562000c925762000c8d7fffffffffffffffffffffffffffffffffffffffffffffffffffffffffffffffff83602003600802620007d8565b831692505b5050919050565b60805160a05160c05160e05161010051610120516101405161744162000cf4600039600061125501526000611221015260006138cc015260006138ab01526000612cdf01526000612d3501526000612d5e01526174416000f3fe6080604052600436106101fd5760003560e01c80638199da671161010d578063b37b7b7d116100a0578063df927bbe1161006f578063df927bbe1461077e578063e985e9c5146107bb578063f2fde38b146107f8578063f76fc35e14610821578063f9f411d81461084c57610204565b8063b37b7b7d146106c4578063b88d4fde146106ed578063c002d23d14610716578063c87b56dd1461074157610204565b806395d89b41116100dc57806395d89b41146106155780639983258d14610640578063a168d87314610670578063a22cb4651461069b57610204565b80638199da671461053f57806384b0196e1461057c5780638da5cb5b146105ad5780638f406849146105d857610204565b806343e0ac89116101905780636717e41c1161015f5780636717e41c1461044857806370a0823114610485578063711953ef146104c2578063715018a6146104eb578063803700751461050257610204565b806343e0ac8914610366578063490c68d7146103a35780635b7633d0146103e05780636352211e1461040b57610204565b8063095ea7b3116101cc578063095ea7b3146102d457806323b872dd146102fd5780633ccfd60b1461032657806342842e0e1461033d57610204565b806301ffc9a714610206578063046dc1661461024357806306fdde031461026c578063081812fc1461029757610204565b3661020457005b005b34801561021257600080fd5b5061022d60048036038101906102289190613ce4565b610889565b60405161023a9190613d2c565b60405180910390f35b34801561024f57600080fd5b5061026a60048036038101906102659190613da5565b6108ea565b005b34801561027857600080fd5b50610281610a47565b60405161028e9190613e62565b60405180910390f35b3480156102a357600080fd5b506102be60048036038101906102b99190613eba565b610ad9565b6040516102cb9190613ef6565b60405180910390f35b3480156102e057600080fd5b506102fb60048036038101906102f69190613f11565b610b1f565b005b34801561030957600080fd5b50610324600480360381019061031f9190613f51565b610c36565b005b34801561033257600080fd5b5061033b610c96565b005b34801561034957600080fd5b50610364600480360381019061035f9190613f51565b610d37565b005b34801561037257600080fd5b5061038d60048036038101906103889190613eba565b610d57565b60405161039a9190613fb3565b60405180910390f35b3480156103af57600080fd5b506103ca60048036038101906103c59190613eba565b610d7b565b6040516103d79190613fb3565b60405180910390f35b3480156103ec57600080fd5b506103f5610de0565b6040516104029190613ef6565b60405180910390f35b34801561041757600080fd5b50610432600480360381019061042d9190613eba565b610e06565b60405161043f9190613ef6565b60405180910390f35b34801561045457600080fd5b5061046f600480360381019061046a9190613eba565b610e8c565b60405161047c9190613d2c565b60405180910390f35b34801561049157600080fd5b506104ac60048036038101906104a79190613da5565b610eac565b6040516104b99190613fb3565b60405180910390f35b3480156104ce57600080fd5b506104e960048036038101906104e49190613da5565b610f63565b005b3480156104f757600080fd5b50610500610faf565b005b34801561050e57600080fd5b5061052960048036038101906105249190613da5565b610fc3565b604051610536919061408c565b60405180910390f35b34801561054b57600080fd5b5061056660048036038101906105619190613eba565b61105a565b6040516105739190613e62565b60405180910390f35b34801561058857600080fd5b5061059161120e565b6040516105a49796959493929190614102565b60405180910390f35b3480156105b957600080fd5b506105c2611310565b6040516105cf9190613ef6565b60405180910390f35b3480156105e457600080fd5b506105ff60048036038101906105fa9190613eba565b61133a565b60405161060c9190613fb3565b60405180910390f35b34801561062157600080fd5b5061062a611352565b6040516106379190613e62565b60405180910390f35b61065a600480360381019061065591906142bb565b6113e4565b6040516106679190613fb3565b60405180910390f35b34801561067c57600080fd5b506106856117bb565b6040516106929190613ef6565b60405180910390f35b3480156106a757600080fd5b506106c260048036038101906106bd919061437e565b6117e1565b005b3480156106d057600080fd5b506106eb60048036038101906106e69190614608565b6117f7565b005b3480156106f957600080fd5b50610714600480360381019061070f9190614680565b61199a565b005b34801561072257600080fd5b5061072b6119fc565b6040516107389190613fb3565b60405180910390f35b34801561074d57600080fd5b5061076860048036038101906107639190613eba565b611a08565b6040516107759190613e62565b60405180910390f35b34801561078a57600080fd5b506107a560048036038101906107a09190613eba565b611b1a565b6040516107b29190613e62565b60405180910390f35b3480156107c757600080fd5b506107e260048036038101906107dd9190614703565b611bc6565b6040516107ef9190613d2c565b60405180910390f35b34801561080457600080fd5b5061081f600480360381019061081a9190613da5565b611c5a565b005b34801561082d57600080fd5b50610836611cdd565b6040516108439190614743565b60405180910390f35b34801561085857600080fd5b50610873600480360381019061086e9190613f11565b611d01565b6040516108809190613fb3565b60405180910390f35b6000634906490660e01b7bffffffffffffffffffffffffffffffffffffffffffffffffffffffff1916827bffffffffffffffffffffffffffffffffffffffffffffffffffffffff191614806108e357506108e282611d32565b5b9050919050565b6108f2611e14565b600073ffffffffffffffffffffffffffffffffffffffff168173ffffffffffffffffffffffffffffffffffffffff1603610961576040517f08c379a0000000000000000000000000000000000000000000000000000000008152600401610958906147aa565b60405180910390fd5b6109808173ffffffffffffffffffffffffffffffffffffffff16611e92565b156109c0576040517f08c379a00000000000000000000000000000000000000000000000000000000081526004016109b79061483c565b60405180910390fd5b80601060006101000a81548173ffffffffffffffffffffffffffffffffffffffff021916908373ffffffffffffffffffffffffffffffffffffffff1602179055508073ffffffffffffffffffffffffffffffffffffffff167f67b0833b261bf8dee41032afa09cb41cf516d84e7ade2bd54dad0aa53ae956b760405160405180910390a250565b606060008054610a569061488b565b80601f0160208091040260200160405190810160405280929190818152602001828054610a829061488b565b8015610acf5780601f10610aa457610100808354040283529160200191610acf565b820191906000526020600020905b815481529060010190602001808311610ab257829003601f168201915b5050505050905090565b6000610ae482611eb5565b6004600083815260200190815260200160002060009054906101000a900473ffffffffffffffffffffffffffffffffffffffff169050919050565b6000610b2a82610e06565b90508073ffffffffffffffffffffffffffffffffffffffff168373ffffffffffffffffffffffffffffffffffffffff1603610b9a576040517f08c379a0000000000000000000000000000000000000000000000000000000008152600401610b919061492e565b60405180910390fd5b8073ffffffffffffffffffffffffffffffffffffffff16610bb9611f00565b73ffffffffffffffffffffffffffffffffffffffff161480610be85750610be781610be2611f00565b611bc6565b5b610c27576040517f08c379a0000000000000000000000000000000000000000000000000000000008152600401610c1e906149c0565b60405180910390fd5b610c318383611f08565b505050565b610c47610c41611f00565b82611fc1565b610c86576040517f08c379a0000000000000000000000000000000000000000000000000000000008152600401610c7d90614a52565b60405180910390fd5b610c91838383612056565b505050565b610c9e611e14565b600047905060008111610ce6576040517f08c379a0000000000000000000000000000000000000000000000000000000008152600401610cdd90614abe565b60405180910390fd5b610cee611310565b73ffffffffffffffffffffffffffffffffffffffff166108fc829081150290604051600060405180830381858888f19350505050158015610d33573d6000803e3d6000fd5b5050565b610d528383836040518060200160405280600081525061199a565b505050565b600c8181548110610d6757600080fd5b906000526020600020016000915090505481565b6000610d868261234f565b610dc5576040517f08c379a0000000000000000000000000000000000000000000000000000000008152600401610dbc90614b2a565b60405180910390fd5b600f6000838152602001908152602001600020549050919050565b601060009054906101000a900473ffffffffffffffffffffffffffffffffffffffff1681565b600080610e1283612390565b9050600073ffffffffffffffffffffffffffffffffffffffff168173ffffffffffffffffffffffffffffffffffffffff1603610e83576040517f08c379a0000000000000000000000000000000000000000000000000000000008152600401610e7a90614b96565b60405180910390fd5b80915050919050565b60116020528060005260406000206000915054906101000a900460ff1681565b60008073ffffffffffffffffffffffffffffffffffffffff168273ffffffffffffffffffffffffffffffffffffffff1603610f1c576040517f08c379a0000000000000000000000000000000000000000000000000000000008152600401610f1390614c28565b60405180910390fd5b600360008373ffffffffffffffffffffffffffffffffffffffff1673ffffffffffffffffffffffffffffffffffffffff168152602001908152602001600020549050919050565b610f6b611e14565b80600d60006101000a81548173ffffffffffffffffffffffffffffffffffffffff021916908373ffffffffffffffffffffffffffffffffffffffff16021790555050565b610fb7611e14565b610fc160006123cd565b565b6060600e60008373ffffffffffffffffffffffffffffffffffffffff1673ffffffffffffffffffffffffffffffffffffffff16815260200190815260200160002080548060200260200160405190810160405280929190818152602001828054801561104e57602002820191906000526020600020905b81548152602001906001019080831161103a575b50505050509050919050565b606060005b600c8054905081101561114d57600c81815481106110805761107f614c48565b5b9060005260206000200154831161114057600b81815481106110a5576110a4614c48565b5b9060005260206000200180546110ba9061488b565b80601f01602080910402602001604051908101604052809291908181526020018280546110e69061488b565b80156111335780601f1061110857610100808354040283529160200191611133565b820191906000526020600020905b81548152906001019060200180831161111657829003601f168201915b5050505050915050611209565b808060010191505061105f565b50600b6001600b805490506111629190614ca6565b8154811061117357611172614c48565b5b9060005260206000200180546111889061488b565b80601f01602080910402602001604051908101604052809291908181526020018280546111b49061488b565b80156112015780601f106111d657610100808354040283529160200191611201565b820191906000526020600020905b8154815290600101906020018083116111e457829003601f168201915b505050505090505b919050565b60006060806000806000606061124e60087f000000000000000000000000000000000000000000000000000000000000000061249390919063ffffffff16565b61128260097f000000000000000000000000000000000000000000000000000000000000000061249390919063ffffffff16565b46306000801b600067ffffffffffffffff8111156112a3576112a2614190565b5b6040519080825280602002602001820160405280156112d15781602001602082028036833780820191505090505b507f0f00000000000000000000000000000000000000000000000000000000000000959493929190965096509650965096509650965090919293949596565b6000600760009054906101000a900473ffffffffffffffffffffffffffffffffffffffff16905090565b600f6020528060005260406000206000915090505481565b6060600180546113619061488b565b80601f016020809104026020016040519081016040528092919081815260200182805461138d9061488b565b80156113da5780601f106113af576101008083540402835291602001916113da565b820191906000526020600020905b8154815290600101906020018083116113bd57829003601f168201915b5050505050905090565b600067016345785d8a00003414611430576040517f08c379a000000000000000000000000000000000000000000000000000000000815260040161142790614d4c565b60405180910390fd5b6011600085815260200190815260200160002060009054906101000a900460ff1615611491576040517f08c379a000000000000000000000000000000000000000000000000000000000815260040161148890614dde565b60405180910390fd5b824211156114d4576040517f08c379a00000000000000000000000000000000000000000000000000000000081526004016114cb90614e70565b60405180910390fd5b600073ffffffffffffffffffffffffffffffffffffffff16601060009054906101000a900473ffffffffffffffffffffffffffffffffffffffff1673ffffffffffffffffffffffffffffffffffffffff1603611565576040517f08c379a000000000000000000000000000000000000000000000000000000000815260040161155c90614f02565b60405180910390fd5b60007fdae91518613992eb9e3c834be8549c9ae0e18f5a5df012fca6a52d21037e1cce87878787306040516020016115a296959493929190614f22565b60405160208183030381529060405280519060200120905060006115c582612543565b905060006115d3828661255d565b9050601060009054906101000a900473ffffffffffffffffffffffffffffffffffffffff1673ffffffffffffffffffffffffffffffffffffffff168173ffffffffffffffffffffffffffffffffffffffff1614611665576040517f08c379a000000000000000000000000000000000000000000000000000000000815260040161165c90614ff5565b60405180910390fd5b60016011600089815260200190815260200160002060006101000a81548160ff02191690831515021790555061169b600a612584565b60006116a7600a61259a565b90506116b38a826125a8565b88600f600083815260200190815260200160002081905550600e60008b73ffffffffffffffffffffffffffffffffffffffff1673ffffffffffffffffffffffffffffffffffffffff168152602001908152602001600020819080600181540180825580915050600190039060005260206000200160009091909190915055600061173d828b6127c5565b90506117498282612906565b60006117548b61105a565b9050828c73ffffffffffffffffffffffffffffffffffffffff167fafdfb2ef08fdda205ce9e4173a5a15381d9f9187ec2122b9c46e53b253ee2e398d848e6040516117a193929190615015565b60405180910390a382965050505050505095945050505050565b600d60009054906101000a900473ffffffffffffffffffffffffffffffffffffffff1681565b6117f36117ec611f00565b83836129aa565b5050565b6117ff611e14565b8051825114611843576040517f08c379a000000000000000000000000000000000000000000000000000000000815260040161183a906150c5565b60405180910390fd5b6000825111611887576040517f08c379a000000000000000000000000000000000000000000000000000000000815260040161187e90615131565b60405180910390fd5b60005b600182516118989190614ca6565b81101561192e57816001826118ad9190615151565b815181106118be576118bd614c48565b5b60200260200101518282815181106118d9576118d8614c48565b5b602002602001015110611921576040517f08c379a0000000000000000000000000000000000000000000000000000000008152600401611918906151f7565b60405180910390fd5b808060010191505061188a565b5081600b9080519060200190611945929190613b51565b5080600c908051906020019061195c929190613baa565b507fab994c28c46c4e2d7156bc29c3ce682eb77b03728871a6e80f81b5a734558fb3828260405161198e929190615323565b60405180910390a15050565b6119ab6119a5611f00565b83611fc1565b6119ea576040517f08c379a00000000000000000000000000000000000000000000000000000000081526004016119e190614a52565b60405180910390fd5b6119f684848484612b16565b50505050565b67016345785d8a000081565b6060611a1382611eb5565b6000600660008481526020019081526020016000208054611a339061488b565b80601f0160208091040260200160405190810160405280929190818152602001828054611a5f9061488b565b8015611aac5780601f10611a8157610100808354040283529160200191611aac565b820191906000526020600020905b815481529060010190602001808311611a8f57829003601f168201915b505050505090506000611abd612b72565b90506000815103611ad2578192505050611b15565b600082511115611b07578082604051602001611aef929190615396565b60405160208183030381529060405292505050611b15565b611b1084612b89565b925050505b919050565b600b8181548110611b2a57600080fd5b906000526020600020016000915090508054611b459061488b565b80601f0160208091040260200160405190810160405280929190818152602001828054611b719061488b565b8015611bbe5780601f10611b9357610100808354040283529160200191611bbe565b820191906000526020600020905b815481529060010190602001808311611ba157829003601f168201915b505050505081565b6000600560008473ffffffffffffffffffffffffffffffffffffffff1673ffffffffffffffffffffffffffffffffffffffff16815260200190815260200160002060008373ffffffffffffffffffffffffffffffffffffffff1673ffffffffffffffffffffffffffffffffffffffff16815260200190815260200160002060009054906101000a900460ff16905092915050565b611c62611e14565b600073ffffffffffffffffffffffffffffffffffffffff168173ffffffffffffffffffffffffffffffffffffffff1603611cd1576040517f08c379a0000000000000000000000000000000000000000000000000000000008152600401611cc89061542c565b60405180910390fd5b611cda816123cd565b50565b7fdae91518613992eb9e3c834be8549c9ae0e18f5a5df012fca6a52d21037e1cce81565b600e6020528160005260406000208181548110611d1d57600080fd5b90600052602060002001600091509150505481565b60007f80ac58cd000000000000000000000000000000000000000000000000000000007bffffffffffffffffffffffffffffffffffffffffffffffffffffffff1916827bffffffffffffffffffffffffffffffffffffffffffffffffffffffff19161480611dfd57507f5b5e139f000000000000000000000000000000000000000000000000000000007bffffffffffffffffffffffffffffffffffffffffffffffffffffffff1916827bffffffffffffffffffffffffffffffffffffffffffffffffffffffff1916145b80611e0d5750611e0c82612bf1565b5b9050919050565b611e1c611f00565b73ffffffffffffffffffffffffffffffffffffffff16611e3a611310565b73ffffffffffffffffffffffffffffffffffffffff1614611e90576040517f08c379a0000000000000000000000000000000000000000000000000000000008152600401611e8790615498565b60405180910390fd5b565b6000808273ffffffffffffffffffffffffffffffffffffffff163b119050919050565b611ebe8161234f565b611efd576040517f08c379a0000000000000000000000000000000000000000000000000000000008152600401611ef490614b96565b60405180910390fd5b50565b600033905090565b816004600083815260200190815260200160002060006101000a81548173ffffffffffffffffffffffffffffffffffffffff021916908373ffffffffffffffffffffffffffffffffffffffff160217905550808273ffffffffffffffffffffffffffffffffffffffff16611f7b83610e06565b73ffffffffffffffffffffffffffffffffffffffff167f8c5be1e5ebec7d5bd14f71427d1e84f3dd0314c0f7b2291e5b200ac8c7c3b92560405160405180910390a45050565b600080611fcd83610e06565b90508073ffffffffffffffffffffffffffffffffffffffff168473ffffffffffffffffffffffffffffffffffffffff16148061200f575061200e8185611bc6565b5b8061204d57508373ffffffffffffffffffffffffffffffffffffffff1661203584610ad9565b73ffffffffffffffffffffffffffffffffffffffff16145b91505092915050565b8273ffffffffffffffffffffffffffffffffffffffff1661207682610e06565b73ffffffffffffffffffffffffffffffffffffffff16146120cc576040517f08c379a00000000000000000000000000000000000000000000000000000000081526004016120c39061552a565b60405180910390fd5b600073ffffffffffffffffffffffffffffffffffffffff168273ffffffffffffffffffffffffffffffffffffffff160361213b576040517f08c379a0000000000000000000000000000000000000000000000000000000008152600401612132906155bc565b60405180910390fd5b6121488383836001612c5b565b8273ffffffffffffffffffffffffffffffffffffffff1661216882610e06565b73ffffffffffffffffffffffffffffffffffffffff16146121be576040517f08c379a00000000000000000000000000000000000000000000000000000000081526004016121b59061552a565b60405180910390fd5b6004600082815260200190815260200160002060006101000a81549073ffffffffffffffffffffffffffffffffffffffff02191690556001600360008573ffffffffffffffffffffffffffffffffffffffff1673ffffffffffffffffffffffffffffffffffffffff168152602001908152602001600020600082825403925050819055506001600360008473ffffffffffffffffffffffffffffffffffffffff1673ffffffffffffffffffffffffffffffffffffffff16815260200190815260200160002060008282540192505081905550816002600083815260200190815260200160002060006101000a81548173ffffffffffffffffffffffffffffffffffffffff021916908373ffffffffffffffffffffffffffffffffffffffff160217905550808273ffffffffffffffffffffffffffffffffffffffff168473ffffffffffffffffffffffffffffffffffffffff167fddf252ad1be2c89b69c2b068fc378daa952ba7f163c4a11628f55a4df523b3ef60405160405180910390a461234a8383836001612c61565b505050565b60008073ffffffffffffffffffffffffffffffffffffffff1661237183612390565b73ffffffffffffffffffffffffffffffffffffffff1614159050919050565b60006002600083815260200190815260200160002060009054906101000a900473ffffffffffffffffffffffffffffffffffffffff169050919050565b6000600760009054906101000a900473ffffffffffffffffffffffffffffffffffffffff16905081600760006101000a81548173ffffffffffffffffffffffffffffffffffffffff021916908373ffffffffffffffffffffffffffffffffffffffff1602179055508173ffffffffffffffffffffffffffffffffffffffff168173ffffffffffffffffffffffffffffffffffffffff167f8be0079c531659141344cd1fd0a4f28419497f9722a3daafe3b4186f6b6457e060405160405180910390a35050565b606060ff60001b83146124b0576124a983612c67565b905061253d565b8180546124bc9061488b565b80601f01602080910402602001604051908101604052809291908181526020018280546124e89061488b565b80156125355780601f1061250a57610100808354040283529160200191612535565b820191906000526020600020905b81548152906001019060200180831161251857829003601f168201915b505050505090505b92915050565b6000612556612550612cdb565b83612d92565b9050919050565b600080600061256c8585612dd3565b9150915061257981612e24565b819250505092915050565b6001816000016000828254019250508190555050565b600081600001549050919050565b600073ffffffffffffffffffffffffffffffffffffffff168273ffffffffffffffffffffffffffffffffffffffff1603612617576040517f08c379a000000000000000000000000000000000000000000000000000000000815260040161260e90615628565b60405180910390fd5b6126208161234f565b15612660576040517f08c379a000000000000000000000000000000000000000000000000000000000815260040161265790615694565b60405180910390fd5b61266e600083836001612c5b565b6126778161234f565b156126b7576040517f08c379a00000000000000000000000000000000000000000000000000000000081526004016126ae90615694565b60405180910390fd5b6001600360008473ffffffffffffffffffffffffffffffffffffffff1673ffffffffffffffffffffffffffffffffffffffff16815260200190815260200160002060008282540192505081905550816002600083815260200190815260200160002060006101000a81548173ffffffffffffffffffffffffffffffffffffffff021916908373ffffffffffffffffffffffffffffffffffffffff160217905550808273ffffffffffffffffffffffffffffffffffffffff16600073ffffffffffffffffffffffffffffffffffffffff167fddf252ad1be2c89b69c2b068fc378daa952ba7f163c4a11628f55a4df523b3ef60405160405180910390a46127c1600083836001612c61565b5050565b606060006127d38484612f8a565b905060006127ed6103e8856127e891906156e3565b61346f565b905060006128076103e8866128029190615714565b61346f565b9050600a6103e8866128199190615714565b101561284657806040516020016128309190615791565b6040516020818303038152906040529050612880565b60646103e8866128569190615714565b101561287f578060405160200161286d91906157ff565b60405160208183030381529060405290505b5b60006128d861288e8861346f565b84846128998a61105a565b6128a28961353d565b88886128ad8e61105a565b6040516020016128c4989796959493929190615c49565b60405160208183030381529060405261353d565b9050806040516020016128eb9190615da1565b60405160208183030381529060405294505050505092915050565b61290f8261234f565b61294e576040517f08c379a000000000000000000000000000000000000000000000000000000000815260040161294590615e35565b60405180910390fd5b8060066000848152602001908152602001600020908161296e9190616001565b507ff8e1a15aba9398e019f0b49df1a4fde98ee17ae345cb5f6b5e2c27f5033e8ce78260405161299e9190613fb3565b60405180910390a15050565b8173ffffffffffffffffffffffffffffffffffffffff168373ffffffffffffffffffffffffffffffffffffffff1603612a18576040517f08c379a0000000000000000000000000000000000000000000000000000000008152600401612a0f9061611f565b60405180910390fd5b80600560008573ffffffffffffffffffffffffffffffffffffffff1673ffffffffffffffffffffffffffffffffffffffff16815260200190815260200160002060008473ffffffffffffffffffffffffffffffffffffffff1673ffffffffffffffffffffffffffffffffffffffff16815260200190815260200160002060006101000a81548160ff0219169083151502179055508173ffffffffffffffffffffffffffffffffffffffff168373ffffffffffffffffffffffffffffffffffffffff167f17307eab39ab6107e8899845ad3d59bd9653f200f220920489ca2b5937696c3183604051612b099190613d2c565b60405180910390a3505050565b612b21848484612056565b612b2d848484846136af565b612b6c576040517f08c379a0000000000000000000000000000000000000000000000000000000008152600401612b63906161b1565b60405180910390fd5b50505050565b606060405180602001604052806000815250905090565b6060612b9482611eb5565b6000612b9e612b72565b90506000815111612bbe5760405180602001604052806000815250612be9565b80612bc88461346f565b604051602001612bd9929190615396565b6040516020818303038152906040525b915050919050565b60007f01ffc9a7000000000000000000000000000000000000000000000000000000007bffffffffffffffffffffffffffffffffffffffffffffffffffffffff1916827bffffffffffffffffffffffffffffffffffffffffffffffffffffffff1916149050919050565b50505050565b50505050565b60606000612c7483613836565b90506000602067ffffffffffffffff811115612c9357612c92614190565b5b6040519080825280601f01601f191660200182016040528015612cc55781602001600182028036833780820191505090505b5090508181528360208201528092505050919050565b60007f000000000000000000000000000000000000000000000000000000000000000073ffffffffffffffffffffffffffffffffffffffff163073ffffffffffffffffffffffffffffffffffffffff16148015612d5757507f000000000000000000000000000000000000000000000000000000000000000046145b15612d84577f00000000000000000000000000000000000000000000000000000000000000009050612d8f565b612d8c613886565b90505b90565b60006040517f190100000000000000000000000000000000000000000000000000000000000081528360028201528260228201526042812091505092915050565b6000806041835103612e145760008060006020860151925060408601519150606086015160001a9050612e088782858561391c565b94509450505050612e1d565b60006002915091505b9250929050565b60006004811115612e3857612e376161d1565b5b816004811115612e4b57612e4a6161d1565b5b0315612f875760016004811115612e6557612e646161d1565b5b816004811115612e7857612e776161d1565b5b03612eb8576040517f08c379a0000000000000000000000000000000000000000000000000000000008152600401612eaf9061624c565b60405180910390fd5b60026004811115612ecc57612ecb6161d1565b5b816004811115612edf57612ede6161d1565b5b03612f1f576040517f08c379a0000000000000000000000000000000000000000000000000000000008152600401612f16906162b8565b60405180910390fd5b60036004811115612f3357612f326161d1565b5b816004811115612f4657612f456161d1565b5b03612f86576040517f08c379a0000000000000000000000000000000000000000000000000000000008152600401612f7d9061634a565b60405180910390fd5b5b50565b60608060006103e884612f9d91906156e3565b905060006103e885612faf9190615714565b905060008103612fe857612fc28261346f565b604051602001612fd291906163b6565b60405160208183030381529060405292506130a3565b600a81101561302a57612ffa8261346f565b6130038261346f565b604051602001613014929190616424565b60405160208183030381529060405292506130a2565b606481101561306c5761303c8261346f565b6130458261346f565b60405160200161305692919061649f565b60405160208183030381529060405292506130a1565b6130758261346f565b61307e8261346f565b60405160200161308f9291906164ce565b60405160208183030381529060405292505b5b5b60006130ae8661105a565b905060606040516020016130c190616549565b60405160208183030381529060405280519060200120826040516020016130e8919061655e565b6040516020818303038152906040528051906020012003613140576040518060400160405280600781526020017f234646443730300000000000000000000000000000000000000000000000000081525090506133b5565b60405160200161314f906165c1565b6040516020818303038152906040528051906020012082604051602001613176919061655e565b60405160208183030381529060405280519060200120036131ce576040518060400160405280600781526020017f234330433043300000000000000000000000000000000000000000000000000081525090506133b4565b6040516020016131dd90616622565b6040516020818303038152906040528051906020012082604051602001613204919061655e565b604051602081830303815290604052805190602001200361325c576040518060400160405280600781526020017f234344374633320000000000000000000000000000000000000000000000000081525090506133b3565b60405160200161326b90616683565b6040516020818303038152906040528051906020012082604051602001613292919061655e565b60405160208183030381529060405280519060200120036132ea576040518060400160405280600781526020017f233837434545420000000000000000000000000000000000000000000000000081525090506133b2565b6040516020016132f9906166e4565b6040516020818303038152906040528051906020012082604051602001613320919061655e565b6040516020818303038152906040528051906020012003613378576040518060400160405280600781526020017f233930454539300000000000000000000000000000000000000000000000000081525090506133b1565b6040518060400160405280600781526020017f234444413044440000000000000000000000000000000000000000000000000081525090505b5b5b5b5b60006040518060400160405280600381526020017f313530000000000000000000000000000000000000000000000000000000000081525090506001835103613431576040518060400160405280600381526020017f313532000000000000000000000000000000000000000000000000000000000081525090505b8181848861343e8d61346f565b60405160200161345295949392919061709f565b604051602081830303815290604052965050505050505092915050565b60606000600161347e846139fe565b01905060008167ffffffffffffffff81111561349d5761349c614190565b5b6040519080825280601f01601f1916602001820160405280156134cf5781602001600182028036833780820191505090505b509050600082602001820190505b600115613532578080600190039150507f3031323334353637383961626364656600000000000000000000000000000000600a86061a8153600a8581613526576135256156b4565b5b049450600085036134dd575b819350505050919050565b6060600082510361355f576040518060200160405280600081525090506136aa565b60006040518060600160405280604081526020016173cc604091399050600060036002855161358e9190615151565b61359891906156e3565b60046135a491906171f2565b67ffffffffffffffff8111156135bd576135bc614190565b5b6040519080825280601f01601f1916602001820160405280156135ef5781602001600182028036833780820191505090505b50905060018201602082018586518701602081018051600082525b82841015613665576003840193508351603f8160121c168701518653600186019550603f81600c1c168701518653600186019550603f8160061c168701518653600186019550603f811687015186536001860195505061360a565b80825260038a51066001811461368257600281146136955761369d565b603d6001870353603d600287035361369d565b603d60018703535b5050505050505080925050505b919050565b60006136d08473ffffffffffffffffffffffffffffffffffffffff16611e92565b15613829578373ffffffffffffffffffffffffffffffffffffffff1663150b7a026136f9611f00565b8786866040518563ffffffff1660e01b815260040161371b9493929190617289565b6020604051808303816000875af192505050801561375757506040513d601f19601f8201168201806040525081019061375491906172ea565b60015b6137d9573d8060008114613787576040519150601f19603f3d011682016040523d82523d6000602084013e61378c565b606091505b5060008151036137d1576040517f08c379a00000000000000000000000000000000000000000000000000000000081526004016137c8906161b1565b60405180910390fd5b805181602001fd5b63150b7a0260e01b7bffffffffffffffffffffffffffffffffffffffffffffffffffffffff1916817bffffffffffffffffffffffffffffffffffffffffffffffffffffffff19161491505061382e565b600190505b949350505050565b60008060ff8360001c169050601f81111561387d576040517fb3512b0c00000000000000000000000000000000000000000000000000000000815260040160405180910390fd5b80915050919050565b60007f8b73c3c69bb8fe3d512ecc4cf759cc79239f7b179b0ffacaa9a75d522b39400f7f00000000000000000000000000000000000000000000000000000000000000007f00000000000000000000000000000000000000000000000000000000000000004630604051602001613901959493929190617317565b60405160208183030381529060405280519060200120905090565b6000807f7fffffffffffffffffffffffffffffff5d576e7357a4501ddfe92f46681b20a08360001c11156139575760006003915091506139f5565b60006001878787876040516000815260200160405260405161397c9493929190617386565b6020604051602081039080840390855afa15801561399e573d6000803e3d6000fd5b505050602060405103519050600073ffffffffffffffffffffffffffffffffffffffff168173ffffffffffffffffffffffffffffffffffffffff16036139ec576000600192509250506139f5565b80600092509250505b94509492505050565b600080600090507a184f03e93ff9f4daa797ed6e38ed64bf6a1f0100000000000000008310613a5c577a184f03e93ff9f4daa797ed6e38ed64bf6a1f0100000000000000008381613a5257613a516156b4565b5b0492506040810190505b6d04ee2d6d415b85acef81000000008310613a99576d04ee2d6d415b85acef81000000008381613a8f57613a8e6156b4565b5b0492506020810190505b662386f26fc100008310613ac857662386f26fc100008381613abe57613abd6156b4565b5b0492506010810190505b6305f5e1008310613af1576305f5e1008381613ae757613ae66156b4565b5b0492506008810190505b6127108310613b16576127108381613b0c57613b0b6156b4565b5b0492506004810190505b60648310613b395760648381613b2f57613b2e6156b4565b5b0492506002810190505b600a8310613b48576001810190505b80915050919050565b828054828255906000526020600020908101928215613b99579160200282015b82811115613b98578251829081613b889190616001565b5091602001919060010190613b71565b5b509050613ba69190613bf7565b5090565b828054828255906000526020600020908101928215613be6579160200282015b82811115613be5578251825591602001919060010190613bca565b5b509050613bf39190613c1b565b5090565b5b80821115613c175760008181613c0e9190613c38565b50600101613bf8565b5090565b5b80821115613c34576000816000905550600101613c1c565b5090565b508054613c449061488b565b6000825580601f10613c565750613c75565b601f016020900490600052602060002090810190613c749190613c1b565b5b50565b6000604051905090565b600080fd5b600080fd5b60007fffffffff0000000000000000000000000000000000000000000000000000000082169050919050565b613cc181613c8c565b8114613ccc57600080fd5b50565b600081359050613cde81613cb8565b92915050565b600060208284031215613cfa57613cf9613c82565b5b6000613d0884828501613ccf565b91505092915050565b60008115159050919050565b613d2681613d11565b82525050565b6000602082019050613d416000830184613d1d565b92915050565b600073ffffffffffffffffffffffffffffffffffffffff82169050919050565b6000613d7282613d47565b9050919050565b613d8281613d67565b8114613d8d57600080fd5b50565b600081359050613d9f81613d79565b92915050565b600060208284031215613dbb57613dba613c82565b5b6000613dc984828501613d90565b91505092915050565b600081519050919050565b600082825260208201905092915050565b60005b83811015613e0c578082015181840152602081019050613df1565b60008484015250505050565b6000601f19601f8301169050919050565b6000613e3482613dd2565b613e3e8185613ddd565b9350613e4e818560208601613dee565b613e5781613e18565b840191505092915050565b60006020820190508181036000830152613e7c8184613e29565b905092915050565b6000819050919050565b613e9781613e84565b8114613ea257600080fd5b50565b600081359050613eb481613e8e565b92915050565b600060208284031215613ed057613ecf613c82565b5b6000613ede84828501613ea5565b91505092915050565b613ef081613d67565b82525050565b6000602082019050613f0b6000830184613ee7565b92915050565b60008060408385031215613f2857613f27613c82565b5b6000613f3685828601613d90565b9250506020613f4785828601613ea5565b9150509250929050565b600080600060608486031215613f6a57613f69613c82565b5b6000613f7886828701613d90565b9350506020613f8986828701613d90565b9250506040613f9a86828701613ea5565b9150509250925092565b613fad81613e84565b82525050565b6000602082019050613fc86000830184613fa4565b92915050565b600081519050919050565b600082825260208201905092915050565b6000819050602082019050919050565b61400381613e84565b82525050565b60006140158383613ffa565b60208301905092915050565b6000602082019050919050565b600061403982613fce565b6140438185613fd9565b935061404e83613fea565b8060005b8381101561407f5781516140668882614009565b975061407183614021565b925050600181019050614052565b5085935050505092915050565b600060208201905081810360008301526140a6818461402e565b905092915050565b60007fff0000000000000000000000000000000000000000000000000000000000000082169050919050565b6140e3816140ae565b82525050565b6000819050919050565b6140fc816140e9565b82525050565b600060e082019050614117600083018a6140da565b81810360208301526141298189613e29565b9050818103604083015261413d8188613e29565b905061414c6060830187613fa4565b6141596080830186613ee7565b61416660a08301856140f3565b81810360c0830152614178818461402e565b905098975050505050505050565b600080fd5b600080fd5b7f4e487b7100000000000000000000000000000000000000000000000000000000600052604160045260246000fd5b6141c882613e18565b810181811067ffffffffffffffff821117156141e7576141e6614190565b5b80604052505050565b60006141fa613c78565b905061420682826141bf565b919050565b600067ffffffffffffffff82111561422657614225614190565b5b61422f82613e18565b9050602081019050919050565b82818337600083830152505050565b600061425e6142598461420b565b6141f0565b90508281526020810184848401111561427a5761427961418b565b5b61428584828561423c565b509392505050565b600082601f8301126142a2576142a1614186565b5b81356142b284826020860161424b565b91505092915050565b600080600080600060a086880312156142d7576142d6613c82565b5b60006142e588828901613d90565b95505060206142f688828901613ea5565b945050604061430788828901613ea5565b935050606061431888828901613ea5565b925050608086013567ffffffffffffffff81111561433957614338613c87565b5b6143458882890161428d565b9150509295509295909350565b61435b81613d11565b811461436657600080fd5b50565b60008135905061437881614352565b92915050565b6000806040838503121561439557614394613c82565b5b60006143a385828601613d90565b92505060206143b485828601614369565b9150509250929050565b600067ffffffffffffffff8211156143d9576143d8614190565b5b602082029050602081019050919050565b600080fd5b600067ffffffffffffffff82111561440a57614409614190565b5b61441382613e18565b9050602081019050919050565b600061443361442e846143ef565b6141f0565b90508281526020810184848401111561444f5761444e61418b565b5b61445a84828561423c565b509392505050565b600082601f83011261447757614476614186565b5b8135614487848260208601614420565b91505092915050565b60006144a361449e846143be565b6141f0565b905080838252602082019050602084028301858111156144c6576144c56143ea565b5b835b8181101561450d57803567ffffffffffffffff8111156144eb576144ea614186565b5b8086016144f88982614462565b855260208501945050506020810190506144c8565b5050509392505050565b600082601f83011261452c5761452b614186565b5b813561453c848260208601614490565b91505092915050565b600067ffffffffffffffff8211156145605761455f614190565b5b602082029050602081019050919050565b600061458461457f84614545565b6141f0565b905080838252602082019050602084028301858111156145a7576145a66143ea565b5b835b818110156145d057806145bc8882613ea5565b8452602084019350506020810190506145a9565b5050509392505050565b600082601f8301126145ef576145ee614186565b5b81356145ff848260208601614571565b91505092915050565b6000806040838503121561461f5761461e613c82565b5b600083013567ffffffffffffffff81111561463d5761463c613c87565b5b61464985828601614517565b925050602083013567ffffffffffffffff81111561466a57614669613c87565b5b614676858286016145da565b9150509250929050565b6000806000806080858703121561469a57614699613c82565b5b60006146a887828801613d90565b94505060206146b987828801613d90565b93505060406146ca87828801613ea5565b925050606085013567ffffffffffffffff8111156146eb576146ea613c87565b5b6146f78782880161428d565b91505092959194509250565b6000806040838503121561471a57614719613c82565b5b600061472885828601613d90565b925050602061473985828601613d90565b9150509250929050565b600060208201905061475860008301846140f3565b92915050565b7f5369676e657220616464726573732063616e6e6f74206265207a65726f000000600082015250565b6000614794601d83613ddd565b915061479f8261475e565b602082019050919050565b600060208201905081810360008301526147c381614787565b9050919050565b7f5369676e657220616464726573732063616e6e6f74206265206120636f6e747260008201527f6163740000000000000000000000000000000000000000000000000000000000602082015250565b6000614826602383613ddd565b9150614831826147ca565b604082019050919050565b6000602082019050818103600083015261485581614819565b9050919050565b7f4e487b7100000000000000000000000000000000000000000000000000000000600052602260045260246000fd5b600060028204905060018216806148a357607f821691505b6020821081036148b6576148b561485c565b5b50919050565b7f4552433732313a20617070726f76616c20746f2063757272656e74206f776e6560008201527f7200000000000000000000000000000000000000000000000000000000000000602082015250565b6000614918602183613ddd565b9150614923826148bc565b604082019050919050565b600060208201905081810360008301526149478161490b565b9050919050565b7f4552433732313a20617070726f76652063616c6c6572206973206e6f7420746f60008201527f6b656e206f776e6572206f7220617070726f76656420666f7220616c6c000000602082015250565b60006149aa603d83613ddd565b91506149b58261494e565b604082019050919050565b600060208201905081810360008301526149d98161499d565b9050919050565b7f4552433732313a2063616c6c6572206973206e6f7420746f6b656e206f776e6560008201527f72206f7220617070726f76656400000000000000000000000000000000000000602082015250565b6000614a3c602d83613ddd565b9150614a47826149e0565b604082019050919050565b60006020820190508181036000830152614a6b81614a2f565b9050919050565b7f4e6f2062616c616e636520746f20776974686472617700000000000000000000600082015250565b6000614aa8601683613ddd565b9150614ab382614a72565b602082019050919050565b60006020820190508181036000830152614ad781614a9b565b9050919050565b7f546f6b656e20646f6573206e6f74206578697374000000000000000000000000600082015250565b6000614b14601483613ddd565b9150614b1f82614ade565b602082019050919050565b60006020820190508181036000830152614b4381614b07565b9050919050565b7f4552433732313a20696e76616c696420746f6b656e2049440000000000000000600082015250565b6000614b80601883613ddd565b9150614b8b82614b4a565b602082019050919050565b60006020820190508181036000830152614baf81614b73565b9050919050565b7f4552433732313a2061646472657373207a65726f206973206e6f74206120766160008201527f6c6964206f776e65720000000000000000000000000000000000000000000000602082015250565b6000614c12602983613ddd565b9150614c1d82614bb6565b604082019050919050565b60006020820190508181036000830152614c4181614c05565b9050919050565b7f4e487b7100000000000000000000000000000000000000000000000000000000600052603260045260246000fd5b7f4e487b7100000000000000000000000000000000000000000000000000000000600052601160045260246000fd5b6000614cb182613e84565b9150614cbc83613e84565b9250828203905081811115614cd457614cd3614c77565b5b92915050565b7f5265666c6578426c69747a4e46543a20496e636f7272656374206d696e74207060008201527f7269636500000000000000000000000000000000000000000000000000000000602082015250565b6000614d36602483613ddd565b9150614d4182614cda565b604082019050919050565b60006020820190508181036000830152614d6581614d29565b9050919050565b7f5265666c6578426c69747a4e46543a204e6f6e636520616c726561647920757360008201527f6564000000000000000000000000000000000000000000000000000000000000602082015250565b6000614dc8602283613ddd565b9150614dd382614d6c565b604082019050919050565b60006020820190508181036000830152614df781614dbb565b9050919050565b7f5265666c6578426c69747a4e46543a205369676e61747572652065787069726560008201527f6400000000000000000000000000000000000000000000000000000000000000602082015250565b6000614e5a602183613ddd565b9150614e6582614dfe565b604082019050919050565b60006020820190508181036000830152614e8981614e4d565b9050919050565b7f5265666c6578426c69747a4e46543a205369676e65722061646472657373206e60008201527f6f7420736574206279206f776e65720000000000000000000000000000000000602082015250565b6000614eec602f83613ddd565b9150614ef782614e90565b604082019050919050565b60006020820190508181036000830152614f1b81614edf565b9050919050565b600060c082019050614f3760008301896140f3565b614f446020830188613ee7565b614f516040830187613fa4565b614f5e6060830186613fa4565b614f6b6080830185613fa4565b614f7860a0830184613ee7565b979650505050505050565b7f5265666c6578426c69747a4e46543a20496e76616c6964207369676e6174757260008201527f6500000000000000000000000000000000000000000000000000000000000000602082015250565b6000614fdf602183613ddd565b9150614fea82614f83565b604082019050919050565b6000602082019050818103600083015261500e81614fd2565b9050919050565b600060608201905061502a6000830186613fa4565b818103602083015261503c8185613e29565b905061504b6040830184613fa4565b949350505050565b7f52616e6b7320616e64207468726573686f6c6473206c656e677468206d69736d60008201527f6174636800000000000000000000000000000000000000000000000000000000602082015250565b60006150af602483613ddd565b91506150ba82615053565b604082019050919050565b600060208201905081810360008301526150de816150a2565b9050919050565b7f43616e6e6f742073657420656d7074792072616e6b7300000000000000000000600082015250565b600061511b601683613ddd565b9150615126826150e5565b602082019050919050565b6000602082019050818103600083015261514a8161510e565b9050919050565b600061515c82613e84565b915061516783613e84565b925082820190508082111561517f5761517e614c77565b5b92915050565b7f5468726573686f6c6473206d75737420626520696e20617363656e64696e672060008201527f6f72646572000000000000000000000000000000000000000000000000000000602082015250565b60006151e1602583613ddd565b91506151ec82615185565b604082019050919050565b60006020820190508181036000830152615210816151d4565b9050919050565b600081519050919050565b600082825260208201905092915050565b6000819050602082019050919050565b600082825260208201905092915050565b600061525f82613dd2565b6152698185615243565b9350615279818560208601613dee565b61528281613e18565b840191505092915050565b60006152998383615254565b905092915050565b6000602082019050919050565b60006152b982615217565b6152c38185615222565b9350836020820285016152d585615233565b8060005b8581101561531157848403895281516152f2858261528d565b94506152fd836152a1565b925060208a019950506001810190506152d9565b50829750879550505050505092915050565b6000604082019050818103600083015261533d81856152ae565b90508181036020830152615351818461402e565b90509392505050565b600081905092915050565b600061537082613dd2565b61537a818561535a565b935061538a818560208601613dee565b80840191505092915050565b60006153a28285615365565b91506153ae8284615365565b91508190509392505050565b7f4f776e61626c653a206e6577206f776e657220697320746865207a65726f206160008201527f6464726573730000000000000000000000000000000000000000000000000000602082015250565b6000615416602683613ddd565b9150615421826153ba565b604082019050919050565b6000602082019050818103600083015261544581615409565b9050919050565b7f4f776e61626c653a2063616c6c6572206973206e6f7420746865206f776e6572600082015250565b6000615482602083613ddd565b915061548d8261544c565b602082019050919050565b600060208201905081810360008301526154b181615475565b9050919050565b7f4552433732313a207472616e736665722066726f6d20696e636f72726563742060008201527f6f776e6572000000000000000000000000000000000000000000000000000000602082015250565b6000615514602583613ddd565b915061551f826154b8565b604082019050919050565b6000602082019050818103600083015261554381615507565b9050919050565b7f4552433732313a207472616e7366657220746f20746865207a65726f2061646460008201527f7265737300000000000000000000000000000000000000000000000000000000602082015250565b60006155a6602483613ddd565b91506155b18261554a565b604082019050919050565b600060208201905081810360008301526155d581615599565b9050919050565b7f4552433732313a206d696e7420746f20746865207a65726f2061646472657373600082015250565b6000615612602083613ddd565b915061561d826155dc565b602082019050919050565b6000602082019050818103600083015261564181615605565b9050919050565b7f4552433732313a20746f6b656e20616c7265616479206d696e74656400000000600082015250565b600061567e601c83613ddd565b915061568982615648565b602082019050919050565b600060208201905081810360008301526156ad81615671565b9050919050565b7f4e487b7100000000000000000000000000000000000000000000000000000000600052601260045260246000fd5b60006156ee82613e84565b91506156f983613e84565b925082615709576157086156b4565b5b828204905092915050565b600061571f82613e84565b915061572a83613e84565b92508261573a576157396156b4565b5b828206905092915050565b7f3030000000000000000000000000000000000000000000000000000000000000600082015250565b600061577b60028361535a565b915061578682615745565b600282019050919050565b600061579c8261576e565b91506157a88284615365565b915081905092915050565b7f3000000000000000000000000000000000000000000000000000000000000000600082015250565b60006157e960018361535a565b91506157f4826157b3565b600182019050919050565b600061580a826157dc565b91506158168284615365565b915081905092915050565b7f7b226e616d65223a20225265666c6578426c69747a2052424120230000000000600082015250565b6000615857601b8361535a565b915061586282615821565b601b82019050919050565b7f222c200000000000000000000000000000000000000000000000000000000000600082015250565b60006158a360038361535a565b91506158ae8261586d565b600382019050919050565b7f226465736372697074696f6e223a20225265666c6578426c69747a206163686960008201527f6576656d656e74204e46542e205265616374696f6e2054696d653a2000000000602082015250565b6000615915603c8361535a565b9150615920826158b9565b603c82019050919050565b7f2e00000000000000000000000000000000000000000000000000000000000000600082015250565b600061596160018361535a565b915061596c8261592b565b600182019050919050565b7f206d732e2052616e6b3a20000000000000000000000000000000000000000000600082015250565b60006159ad600b8361535a565b91506159b882615977565b600b82019050919050565b7f2e222c2000000000000000000000000000000000000000000000000000000000600082015250565b60006159f960048361535a565b9150615a04826159c3565b600482019050919050565b7f22696d616765223a2022646174613a696d6167652f7376672b786d6c3b62617360008201527f6536342c00000000000000000000000000000000000000000000000000000000602082015250565b6000615a6b60248361535a565b9150615a7682615a0f565b602482019050919050565b7f2261747472696275746573223a205b0000000000000000000000000000000000600082015250565b6000615ab7600f8361535a565b9150615ac282615a81565b600f82019050919050565b7f7b2274726169745f74797065223a20225265616374696f6e2054696d6520286d60008201527f7329222c202276616c7565223a20220000000000000000000000000000000000602082015250565b6000615b29602f8361535a565b9150615b3482615acd565b602f82019050919050565b7f227d2c2000000000000000000000000000000000000000000000000000000000600082015250565b6000615b7560048361535a565b9150615b8082615b3f565b600482019050919050565b7f7b2274726169745f74797065223a202252616e6b222c202276616c7565223a2060008201527f2200000000000000000000000000000000000000000000000000000000000000602082015250565b6000615be760218361535a565b9150615bf282615b8b565b602182019050919050565b7f227d5d7d00000000000000000000000000000000000000000000000000000000600082015250565b6000615c3360048361535a565b9150615c3e82615bfd565b600482019050919050565b6000615c548261584a565b9150615c60828b615365565b9150615c6b82615896565b9150615c7682615908565b9150615c82828a615365565b9150615c8d82615954565b9150615c998289615365565b9150615ca4826159a0565b9150615cb08288615365565b9150615cbb826159ec565b9150615cc682615a5e565b9150615cd28287615365565b9150615cdd82615896565b9150615ce882615aaa565b9150615cf382615b1c565b9150615cff8286615365565b9150615d0a82615954565b9150615d168285615365565b9150615d2182615b68565b9150615d2c82615bda565b9150615d388284615365565b9150615d4382615c26565b91508190509998505050505050505050565b7f646174613a6170706c69636174696f6e2f6a736f6e3b6261736536342c000000600082015250565b6000615d8b601d8361535a565b9150615d9682615d55565b601d82019050919050565b6000615dac82615d7e565b9150615db88284615365565b915081905092915050565b7f45524337323155524953746f726167653a2055524920736574206f66206e6f6e60008201527f6578697374656e7420746f6b656e000000000000000000000000000000000000602082015250565b6000615e1f602e83613ddd565b9150615e2a82615dc3565b604082019050919050565b60006020820190508181036000830152615e4e81615e12565b9050919050565b60008190508160005260206000209050919050565b60006020601f8301049050919050565b600082821b905092915050565b600060088302615eb77fffffffffffffffffffffffffffffffffffffffffffffffffffffffffffffffff82615e7a565b615ec18683615e7a565b95508019841693508086168417925050509392505050565b6000819050919050565b6000615efe615ef9615ef484613e84565b615ed9565b613e84565b9050919050565b6000819050919050565b615f1883615ee3565b615f2c615f2482615f05565b848454615e87565b825550505050565b600090565b615f41615f34565b615f4c818484615f0f565b505050565b5b81811015615f7057615f65600082615f39565b600181019050615f52565b5050565b601f821115615fb557615f8681615e55565b615f8f84615e6a565b81016020851015615f9e578190505b615fb2615faa85615e6a565b830182615f51565b50505b505050565b600082821c905092915050565b6000615fd860001984600802615fba565b1980831691505092915050565b6000615ff18383615fc7565b9150826002028217905092915050565b61600a82613dd2565b67ffffffffffffffff81111561602357616022614190565b5b61602d825461488b565b616038828285615f74565b600060209050601f83116001811461606b5760008415616059578287015190505b6160638582615fe5565b8655506160cb565b601f19841661607986615e55565b60005b828110156160a15784890151825560018201915060208501945060208101905061607c565b868310156160be57848901516160ba601f891682615fc7565b8355505b6001600288020188555050505b505050505050565b7f4552433732313a20617070726f766520746f2063616c6c657200000000000000600082015250565b6000616109601983613ddd565b9150616114826160d3565b602082019050919050565b60006020820190508181036000830152616138816160fc565b9050919050565b7f4552433732313a207472616e7366657220746f206e6f6e20455243373231526560008201527f63656976657220696d706c656d656e7465720000000000000000000000000000602082015250565b600061619b603283613ddd565b91506161a68261613f565b604082019050919050565b600060208201905081810360008301526161ca8161618e565b9050919050565b7f4e487b7100000000000000000000000000000000000000000000000000000000600052602160045260246000fd5b7f45434453413a20696e76616c6964207369676e61747572650000000000000000600082015250565b6000616236601883613ddd565b915061624182616200565b602082019050919050565b6000602082019050818103600083015261626581616229565b9050919050565b7f45434453413a20696e76616c6964207369676e6174757265206c656e67746800600082015250565b60006162a2601f83613ddd565b91506162ad8261626c565b602082019050919050565b600060208201905081810360008301526162d181616295565b9050919050565b7f45434453413a20696e76616c6964207369676e6174757265202773272076616c60008201527f7565000000000000000000000000000000000000000000000000000000000000602082015250565b6000616334602283613ddd565b915061633f826162d8565b604082019050919050565b6000602082019050818103600083015261636381616327565b9050919050565b7f2e30303000000000000000000000000000000000000000000000000000000000600082015250565b60006163a060048361535a565b91506163ab8261636a565b600482019050919050565b60006163c28284615365565b91506163cd82616393565b915081905092915050565b7f2e30300000000000000000000000000000000000000000000000000000000000600082015250565b600061640e60038361535a565b9150616419826163d8565b600382019050919050565b60006164308285615365565b915061643b82616401565b91506164478284615365565b91508190509392505050565b7f2e30000000000000000000000000000000000000000000000000000000000000600082015250565b600061648960028361535a565b915061649482616453565b600282019050919050565b60006164ab8285615365565b91506164b68261647c565b91506164c28284615365565b91508190509392505050565b60006164da8285615365565b91506164e582615954565b91506164f18284615365565b91508190509392505050565b7f532b000000000000000000000000000000000000000000000000000000000000600082015250565b600061653360028361535a565b915061653e826164fd565b600282019050919050565b600061655482616526565b9150819050919050565b600061656a8284615365565b915081905092915050565b7f5300000000000000000000000000000000000000000000000000000000000000600082015250565b60006165ab60018361535a565b91506165b682616575565b600182019050919050565b60006165cc8261659e565b9150819050919050565b7f4100000000000000000000000000000000000000000000000000000000000000600082015250565b600061660c60018361535a565b9150616617826165d6565b600182019050919050565b600061662d826165ff565b9150819050919050565b7f4200000000000000000000000000000000000000000000000000000000000000600082015250565b600061666d60018361535a565b915061667882616637565b600182019050919050565b600061668e82616660565b9150819050919050565b7f4300000000000000000000000000000000000000000000000000000000000000600082015250565b60006166ce60018361535a565b91506166d982616698565b600182019050919050565b60006166ef826166c1565b9150819050919050565b7f3c73766720786d6c6e733d22687474703a2f2f7777772e77332e6f72672f323060008201527f30302f737667222077696474683d2233353022206865696768743d223335302260208201527f2076696577426f783d223020302033353020333530223e000000000000000000604082015250565b600061677b60578361535a565b9150616786826166f9565b605782019050919050565b7f3c7374796c653e00000000000000000000000000000000000000000000000000600082015250565b60006167c760078361535a565b91506167d282616791565b600782019050919050565b7f2e626173652d74657874207b20666f6e742d66616d696c793a20417269616c2c60008201527f2073616e732d73657269663b20746578742d616e63686f723a206d6964646c6560208201527f3b2066696c6c3a2077686974653b207d00000000000000000000000000000000604082015250565b600061685f60508361535a565b915061686a826167dd565b605082019050919050565b7f2e7469746c652d74657874207b20666f6e742d73697a653a20323070783b207d600082015250565b60006168ab60208361535a565b91506168b682616875565b602082019050919050565b7f2e72616e6b2d74657874207b20666f6e742d73697a653a20343070783b20666f60008201527f6e742d7765696768743a20626f6c643b20646f6d696e616e742d626173656c6960208201527f6e653a2063656e7472616c3b207d000000000000000000000000000000000000604082015250565b6000616943604e8361535a565b915061694e826168c1565b604e82019050919050565b7f2e6c6162656c2d74657874207b20666f6e742d73697a653a20313670783b207d600082015250565b600061698f60208361535a565b915061699a82616959565b602082019050919050565b7f2e76616c75652d74657874207b20666f6e742d73697a653a20333070783b206660008201527f6f6e742d7765696768743a20626f6c643b207d00000000000000000000000000602082015250565b6000616a0160338361535a565b9150616a0c826169a5565b603382019050919050565b7f2e746f6b656e69642d74657874207b20666f6e742d73697a653a20313470783b60008201527f207d000000000000000000000000000000000000000000000000000000000000602082015250565b6000616a7360228361535a565b9150616a7e82616a17565b602282019050919050565b7f2e666f6f7465722d74657874207b20666f6e742d73697a653a20313270783b2060008201527f66696c6c3a20236130616563303b207d00000000000000000000000000000000602082015250565b6000616ae560308361535a565b9150616af082616a89565b603082019050919050565b7f3c2f7374796c653e000000000000000000000000000000000000000000000000600082015250565b6000616b3160088361535a565b9150616b3c82616afb565b600882019050919050565b7f3c726563742077696474683d223130302522206865696768743d22313030252260008201527f2066696c6c3d222331663239333722202f3e0000000000000000000000000000602082015250565b6000616ba360328361535a565b9150616bae82616b47565b603282019050919050565b7f3c7465787420783d223137352220793d2235302220636c6173733d226261736560008201527f2d74657874207469746c652d74657874223e5265666c657820426c69747a204160208201527f6368696576656d656e743c2f746578743e000000000000000000000000000000604082015250565b6000616c3b60518361535a565b9150616c4682616bb9565b605182019050919050565b7f3c636972636c652063783d22313735222063793d223134302220723d2235302260008201527f2066696c6c3d2200000000000000000000000000000000000000000000000000602082015250565b6000616cad60278361535a565b9150616cb882616c51565b602782019050919050565b7f22202f3e00000000000000000000000000000000000000000000000000000000600082015250565b6000616cf960048361535a565b9150616d0482616cc3565b600482019050919050565b7f3c7465787420783d223137352220793d22000000000000000000000000000000600082015250565b6000616d4560118361535a565b9150616d5082616d0f565b601182019050919050565b7f2220636c6173733d22626173652d746578742072616e6b2d74657874223e0000600082015250565b6000616d91601e8361535a565b9150616d9c82616d5b565b601e82019050919050565b7f3c2f746578743e00000000000000000000000000000000000000000000000000600082015250565b6000616ddd60078361535a565b9150616de882616da7565b600782019050919050565b7f3c7465787420783d223137352220793d223231352220636c6173733d2262617360008201527f652d74657874206c6162656c2d74657874223e5265616374696f6e2054696d6560208201527f3c2f746578743e00000000000000000000000000000000000000000000000000604082015250565b6000616e7560478361535a565b9150616e8082616df3565b604782019050919050565b7f3c7465787420783d223137352220793d223234352220636c6173733d2262617360008201527f652d746578742076616c75652d74657874223e00000000000000000000000000602082015250565b6000616ee760338361535a565b9150616ef282616e8b565b603382019050919050565b7f206d733c2f746578743e00000000000000000000000000000000000000000000600082015250565b6000616f33600a8361535a565b9150616f3e82616efd565b600a82019050919050565b7f3c7465787420783d223137352220793d223238352220636c6173733d2262617360008201527f652d7465787420746f6b656e69642d74657874223e546f6b656e202300000000602082015250565b6000616fa5603c8361535a565b9150616fb082616f49565b603c82019050919050565b7f3c7465787420783d223137352220793d223332302220636c6173733d2262617360008201527f652d7465787420666f6f7465722d74657874223e4d696e746564206f6e204d6f60208201527f6e616420546573746e65743c2f746578743e0000000000000000000000000000604082015250565b600061703d60528361535a565b915061704882616fbb565b605282019050919050565b7f3c2f7376673e0000000000000000000000000000000000000000000000000000600082015250565b600061708960068361535a565b915061709482617053565b600682019050919050565b60006170aa8261676e565b91506170b5826167ba565b91506170c082616852565b91506170cb8261689e565b91506170d682616936565b91506170e182616982565b91506170ec826169f4565b91506170f782616a66565b915061710282616ad8565b915061710d82616b24565b915061711882616b96565b915061712382616c2e565b915061712e82616ca0565b915061713a8288615365565b915061714582616cec565b915061715082616d38565b915061715c8287615365565b915061716782616d84565b91506171738286615365565b915061717e82616dd0565b915061718982616e68565b915061719482616eda565b91506171a08285615365565b91506171ab82616f26565b91506171b682616f98565b91506171c28284615365565b91506171cd82616dd0565b91506171d882617030565b91506171e38261707c565b91508190509695505050505050565b60006171fd82613e84565b915061720883613e84565b925082820261721681613e84565b9150828204841483151761722d5761722c614c77565b5b5092915050565b600081519050919050565b600082825260208201905092915050565b600061725b82617234565b617265818561723f565b9350617275818560208601613dee565b61727e81613e18565b840191505092915050565b600060808201905061729e6000830187613ee7565b6172ab6020830186613ee7565b6172b86040830185613fa4565b81810360608301526172ca8184617250565b905095945050505050565b6000815190506172e481613cb8565b92915050565b600060208284031215617300576172ff613c82565b5b600061730e848285016172d5565b91505092915050565b600060a08201905061732c60008301886140f3565b61733960208301876140f3565b61734660408301866140f3565b6173536060830185613fa4565b6173606080830184613ee7565b9695505050505050565b600060ff82169050919050565b6173808161736a565b82525050565b600060808201905061739b60008301876140f3565b6173a86020830186617377565b6173b560408301856140f3565b6173c260608301846140f3565b9594505050505056fe4142434445464748494a4b4c4d4e4f505152535455565758595a6162636465666768696a6b6c6d6e6f707172737475767778797a303132333435363738392b2fa26469706673582212204ad7a2260251b16cbf7b9f14e0f8b28481567aa07adb6609be14d936560aac3864736f6c63430008180033","opcodes":"PUSH2 0x160 PUSH1 0x40 MSTORE PUSH1 0x40 MLOAD DUP1 PUSH1 0xC0 ADD PUSH1 0x40 MSTORE DUP1 PUSH1 0x40 MLOAD DUP1 PUSH1 0x40 ADD PUSH1 0x40 MSTORE DUP1 PUSH1 0x2 DUP2 MSTORE PUSH1 0x20 ADD PUSH32 0x532B000000000000000000000000000000000000000000000000000000000000 DUP2 MSTORE POP DUP2 MSTORE PUSH1 0x20 ADD PUSH1 0x40 MLOAD DUP1 PUSH1 0x40 ADD PUSH1 0x40 MSTORE DUP1 PUSH1 0x1 DUP2 MSTORE PUSH1 0x20 ADD PUSH32 0x5300000000000000000000000000000000000000000000000000000000000000 DUP2 MSTORE POP DUP2 MSTORE PUSH1 0x20 ADD PUSH1 0x40 MLOAD DUP1 PUSH1 0x40 ADD PUSH1 0x40 MSTORE DUP1 PUSH1 0x1 DUP2 MSTORE PUSH1 0x20 ADD PUSH32 0x4100000000000000000000000000000000000000000000000000000000000000 DUP2 MSTORE POP DUP2 MSTORE PUSH1 0x20 ADD PUSH1 0x40 MLOAD DUP1 PUSH1 0x40 ADD PUSH1 0x40 MSTORE DUP1 PUSH1 0x1 DUP2 MSTORE PUSH1 0x20 ADD PUSH32 0x4200000000000000000000000000000000000000000000000000000000000000 DUP2 MSTORE POP DUP2 MSTORE PUSH1 0x20 ADD PUSH1 0x40 MLOAD DUP1 PUSH1 0x40 ADD PUSH1 0x40 MSTORE DUP1 PUSH1 0x1 DUP2 MSTORE PUSH1 0x20 ADD PUSH32 0x4300000000000000000000000000000000000000000000000000000000000000 DUP2 MSTORE POP DUP2 MSTORE PUSH1 0x20 ADD PUSH1 0x40 MLOAD DUP1 PUSH1 0x40 ADD PUSH1 0x40 MSTORE DUP1 PUSH1 0x1 DUP2 MSTORE PUSH1 0x20 ADD PUSH32 0x4400000000000000000000000000000000000000000000000000000000000000 DUP2 MSTORE POP DUP2 MSTORE POP PUSH1 0xB SWAP1 PUSH1 0x6 PUSH3 0x182 SWAP3 SWAP2 SWAP1 PUSH3 0x5CF JUMP JUMPDEST POP PUSH1 0x40 MLOAD DUP1 PUSH1 0xC0 ADD PUSH1 0x40 MSTORE DUP1 PUSH3 0x30D40 PUSH3 0xFFFFFF AND DUP2 MSTORE PUSH1 0x20 ADD PUSH3 0x3D090 PUSH3 0xFFFFFF AND DUP2 MSTORE PUSH1 0x20 ADD PUSH3 0x493E0 PUSH3 0xFFFFFF AND DUP2 MSTORE PUSH1 0x20 ADD PUSH3 0x55730 PUSH3 0xFFFFFF AND DUP2 MSTORE PUSH1 0x20 ADD PUSH3 0x61A80 PUSH3 0xFFFFFF AND DUP2 MSTORE PUSH1 0x20 ADD PUSH3 0x989680 PUSH3 0xFFFFFF AND DUP2 MSTORE POP PUSH1 0xC SWAP1 PUSH1 0x6 PUSH3 0x1F2 SWAP3 SWAP2 SWAP1 PUSH3 0x62F JUMP JUMPDEST POP CALLVALUE DUP1 ISZERO PUSH3 0x200 JUMPI PUSH1 0x0 DUP1 REVERT JUMPDEST POP PUSH1 0x40 MLOAD DUP1 PUSH1 0x40 ADD PUSH1 0x40 MSTORE DUP1 PUSH1 0x1B DUP2 MSTORE PUSH1 0x20 ADD PUSH32 0x5265666C6578426C69747A20416368696576656D656E74204E46540000000000 DUP2 MSTORE POP PUSH1 0x40 MLOAD DUP1 PUSH1 0x40 ADD PUSH1 0x40 MSTORE DUP1 PUSH1 0x1 DUP2 MSTORE PUSH1 0x20 ADD PUSH32 0x3100000000000000000000000000000000000000000000000000000000000000 DUP2 MSTORE POP PUSH1 0x40 MLOAD DUP1 PUSH1 0x40 ADD PUSH1 0x40 MSTORE DUP1 PUSH1 0x17 DUP2 MSTORE PUSH1 0x20 ADD PUSH32 0x5265666C6578426C69747A20416368696576656D656E74000000000000000000 DUP2 MSTORE POP PUSH1 0x40 MLOAD DUP1 PUSH1 0x40 ADD PUSH1 0x40 MSTORE DUP1 PUSH1 0x3 DUP2 MSTORE PUSH1 0x20 ADD PUSH32 0x5242410000000000000000000000000000000000000000000000000000000000 DUP2 MSTORE POP DUP2 PUSH1 0x0 SWAP1 DUP2 PUSH3 0x2EA SWAP2 SWAP1 PUSH3 0x98F JUMP JUMPDEST POP DUP1 PUSH1 0x1 SWAP1 DUP2 PUSH3 0x2FC SWAP2 SWAP1 PUSH3 0x98F JUMP JUMPDEST POP POP POP PUSH3 0x31F PUSH3 0x313 PUSH3 0x3D5 PUSH1 0x20 SHL PUSH1 0x20 SHR JUMP JUMPDEST PUSH3 0x3DD PUSH1 0x20 SHL PUSH1 0x20 SHR JUMP JUMPDEST PUSH3 0x335 PUSH1 0x8 DUP4 PUSH3 0x4A3 PUSH1 0x20 SHL SWAP1 SWAP2 SWAP1 PUSH1 0x20 SHR JUMP JUMPDEST PUSH2 0x120 DUP2 DUP2 MSTORE POP POP PUSH3 0x353 PUSH1 0x9 DUP3 PUSH3 0x4A3 PUSH1 0x20 SHL SWAP1 SWAP2 SWAP1 PUSH1 0x20 SHR JUMP JUMPDEST PUSH2 0x140 DUP2 DUP2 MSTORE POP POP DUP2 DUP1 MLOAD SWAP1 PUSH1 0x20 ADD KECCAK256 PUSH1 0xE0 DUP2 DUP2 MSTORE POP POP DUP1 DUP1 MLOAD SWAP1 PUSH1 0x20 ADD KECCAK256 PUSH2 0x100 DUP2 DUP2 MSTORE POP POP CHAINID PUSH1 0xA0 DUP2 DUP2 MSTORE POP POP PUSH3 0x392 PUSH3 0x4FB PUSH1 0x20 SHL PUSH1 0x20 SHR JUMP JUMPDEST PUSH1 0x80 DUP2 DUP2 MSTORE POP POP ADDRESS PUSH20 0xFFFFFFFFFFFFFFFFFFFFFFFFFFFFFFFFFFFFFFFF AND PUSH1 0xC0 DUP2 PUSH20 0xFFFFFFFFFFFFFFFFFFFFFFFFFFFFFFFFFFFFFFFF AND DUP2 MSTORE POP POP POP POP PUSH3 0xC99 JUMP JUMPDEST PUSH1 0x0 CALLER SWAP1 POP SWAP1 JUMP JUMPDEST PUSH1 0x0 PUSH1 0x7 PUSH1 0x0 SWAP1 SLOAD SWAP1 PUSH2 0x100 EXP SWAP1 DIV PUSH20 0xFFFFFFFFFFFFFFFFFFFFFFFFFFFFFFFFFFFFFFFF AND SWAP1 POP DUP2 PUSH1 0x7 PUSH1 0x0 PUSH2 0x100 EXP DUP2 SLOAD DUP2 PUSH20 0xFFFFFFFFFFFFFFFFFFFFFFFFFFFFFFFFFFFFFFFF MUL NOT AND SWAP1 DUP4 PUSH20 0xFFFFFFFFFFFFFFFFFFFFFFFFFFFFFFFFFFFFFFFF AND MUL OR SWAP1 SSTORE POP DUP2 PUSH20 0xFFFFFFFFFFFFFFFFFFFFFFFFFFFFFFFFFFFFFFFF AND DUP2 PUSH20 0xFFFFFFFFFFFFFFFFFFFFFFFFFFFFFFFFFFFFFFFF AND PUSH32 0x8BE0079C531659141344CD1FD0A4F28419497F9722A3DAAFE3B4186F6B6457E0 PUSH1 0x40 MLOAD PUSH1 0x40 MLOAD DUP1 SWAP2 SUB SWAP1 LOG3 POP POP JUMP JUMPDEST PUSH1 0x0 PUSH1 0x20 DUP4 MLOAD LT ISZERO PUSH3 0x4C9 JUMPI PUSH3 0x4C1 DUP4 PUSH3 0x558 PUSH1 0x20 SHL PUSH1 0x20 SHR JUMP JUMPDEST SWAP1 POP PUSH3 0x4F5 JUMP JUMPDEST DUP3 PUSH3 0x4DB DUP4 PUSH3 0x5C5 PUSH1 0x20 SHL PUSH1 0x20 SHR JUMP JUMPDEST PUSH1 0x0 ADD SWAP1 DUP2 PUSH3 0x4EC SWAP2 SWAP1 PUSH3 0x98F JUMP JUMPDEST POP PUSH1 0xFF PUSH1 0x0 SHL SWAP1 POP JUMPDEST SWAP3 SWAP2 POP POP JUMP JUMPDEST PUSH1 0x0 PUSH32 0x8B73C3C69BB8FE3D512ECC4CF759CC79239F7B179B0FFACAA9A75D522B39400F PUSH1 0xE0 MLOAD PUSH2 0x100 MLOAD CHAINID ADDRESS PUSH1 0x40 MLOAD PUSH1 0x20 ADD PUSH3 0x53D SWAP6 SWAP5 SWAP4 SWAP3 SWAP2 SWAP1 PUSH3 0xAE7 JUMP JUMPDEST PUSH1 0x40 MLOAD PUSH1 0x20 DUP2 DUP4 SUB SUB DUP2 MSTORE SWAP1 PUSH1 0x40 MSTORE DUP1 MLOAD SWAP1 PUSH1 0x20 ADD KECCAK256 SWAP1 POP SWAP1 JUMP JUMPDEST PUSH1 0x0 DUP1 DUP3 SWAP1 POP PUSH1 0x1F DUP2 MLOAD GT ISZERO PUSH3 0x5A8 JUMPI DUP3 PUSH1 0x40 MLOAD PUSH32 0x305A27A900000000000000000000000000000000000000000000000000000000 DUP2 MSTORE PUSH1 0x4 ADD PUSH3 0x59F SWAP2 SWAP1 PUSH3 0xBD3 JUMP JUMPDEST PUSH1 0x40 MLOAD DUP1 SWAP2 SUB SWAP1 REVERT JUMPDEST DUP1 MLOAD DUP2 PUSH3 0x5B6 SWAP1 PUSH3 0xC29 JUMP JUMPDEST PUSH1 0x0 SHR OR PUSH1 0x0 SHL SWAP2 POP POP SWAP2 SWAP1 POP JUMP JUMPDEST PUSH1 0x0 DUP2 SWAP1 POP SWAP2 SWAP1 POP JUMP JUMPDEST DUP3 DUP1 SLOAD DUP3 DUP3 SSTORE SWAP1 PUSH1 0x0 MSTORE PUSH1 0x20 PUSH1 0x0 KECCAK256 SWAP1 DUP2 ADD SWAP3 DUP3 ISZERO PUSH3 0x61C JUMPI SWAP2 PUSH1 0x20 MUL DUP3 ADD JUMPDEST DUP3 DUP2 GT ISZERO PUSH3 0x61B JUMPI DUP3 MLOAD DUP3 SWAP1 DUP2 PUSH3 0x60A SWAP2 SWAP1 PUSH3 0x98F JUMP JUMPDEST POP SWAP2 PUSH1 0x20 ADD SWAP2 SWAP1 PUSH1 0x1 ADD SWAP1 PUSH3 0x5F0 JUMP JUMPDEST JUMPDEST POP SWAP1 POP PUSH3 0x62B SWAP2 SWAP1 PUSH3 0x688 JUMP JUMPDEST POP SWAP1 JUMP JUMPDEST DUP3 DUP1 SLOAD DUP3 DUP3 SSTORE SWAP1 PUSH1 0x0 MSTORE PUSH1 0x20 PUSH1 0x0 KECCAK256 SWAP1 DUP2 ADD SWAP3 DUP3 ISZERO PUSH3 0x675 JUMPI SWAP2 PUSH1 0x20 MUL DUP3 ADD JUMPDEST DUP3 DUP2 GT ISZERO PUSH3 0x674 JUMPI DUP3 MLOAD DUP3 SWAP1 PUSH3 0xFFFFFF AND SWAP1 SSTORE SWAP2 PUSH1 0x20 ADD SWAP2 SWAP1 PUSH1 0x1 ADD SWAP1 PUSH3 0x650 JUMP JUMPDEST JUMPDEST POP SWAP1 POP PUSH3 0x684 SWAP2 SWAP1 PUSH3 0x6B0 JUMP JUMPDEST POP SWAP1 JUMP JUMPDEST JUMPDEST DUP1 DUP3 GT ISZERO PUSH3 0x6AC JUMPI PUSH1 0x0 DUP2 DUP2 PUSH3 0x6A2 SWAP2 SWAP1 PUSH3 0x6CF JUMP JUMPDEST POP PUSH1 0x1 ADD PUSH3 0x689 JUMP JUMPDEST POP SWAP1 JUMP JUMPDEST JUMPDEST DUP1 DUP3 GT ISZERO PUSH3 0x6CB JUMPI PUSH1 0x0 DUP2 PUSH1 0x0 SWAP1 SSTORE POP PUSH1 0x1 ADD PUSH3 0x6B1 JUMP JUMPDEST POP SWAP1 JUMP JUMPDEST POP DUP1 SLOAD PUSH3 0x6DD SWAP1 PUSH3 0x77E JUMP JUMPDEST PUSH1 0x0 DUP3 SSTORE DUP1 PUSH1 0x1F LT PUSH3 0x6F1 JUMPI POP PUSH3 0x712 JUMP JUMPDEST PUSH1 0x1F ADD PUSH1 0x20 SWAP1 DIV SWAP1 PUSH1 0x0 MSTORE PUSH1 0x20 PUSH1 0x0 KECCAK256 SWAP1 DUP2 ADD SWAP1 PUSH3 0x711 SWAP2 SWAP1 PUSH3 0x6B0 JUMP JUMPDEST JUMPDEST POP JUMP JUMPDEST PUSH1 0x0 DUP2 MLOAD SWAP1 POP SWAP2 SWAP1 POP JUMP JUMPDEST PUSH32 0x4E487B7100000000000000000000000000000000000000000000000000000000 PUSH1 0x0 MSTORE PUSH1 0x41 PUSH1 0x4 MSTORE PUSH1 0x24 PUSH1 0x0 REVERT JUMPDEST PUSH32 0x4E487B7100000000000000000000000000000000000000000000000000000000 PUSH1 0x0 MSTORE PUSH1 0x22 PUSH1 0x4 MSTORE PUSH1 0x24 PUSH1 0x0 REVERT JUMPDEST PUSH1 0x0 PUSH1 0x2 DUP3 DIV SWAP1 POP PUSH1 0x1 DUP3 AND DUP1 PUSH3 0x797 JUMPI PUSH1 0x7F DUP3 AND SWAP2 POP JUMPDEST PUSH1 0x20 DUP3 LT DUP2 SUB PUSH3 0x7AD JUMPI PUSH3 0x7AC PUSH3 0x74F JUMP JUMPDEST JUMPDEST POP SWAP2 SWAP1 POP JUMP JUMPDEST PUSH1 0x0 DUP2 SWAP1 POP DUP2 PUSH1 0x0 MSTORE PUSH1 0x20 PUSH1 0x0 KECCAK256 SWAP1 POP SWAP2 SWAP1 POP JUMP JUMPDEST PUSH1 0x0 PUSH1 0x20 PUSH1 0x1F DUP4 ADD DIV SWAP1 POP SWAP2 SWAP1 POP JUMP JUMPDEST PUSH1 0x0 DUP3 DUP3 SHL SWAP1 POP SWAP3 SWAP2 POP POP JUMP JUMPDEST PUSH1 0x0 PUSH1 0x8 DUP4 MUL PUSH3 0x817 PUSH32 0xFFFFFFFFFFFFFFFFFFFFFFFFFFFFFFFFFFFFFFFFFFFFFFFFFFFFFFFFFFFFFFFF DUP3 PUSH3 0x7D8 JUMP JUMPDEST PUSH3 0x823 DUP7 DUP4 PUSH3 0x7D8 JUMP JUMPDEST SWAP6 POP DUP1 NOT DUP5 AND SWAP4 POP DUP1 DUP7 AND DUP5 OR SWAP3 POP POP POP SWAP4 SWAP3 POP POP POP JUMP JUMPDEST PUSH1 0x0 DUP2 SWAP1 POP SWAP2 SWAP1 POP JUMP JUMPDEST PUSH1 0x0 DUP2 SWAP1 POP SWAP2 SWAP1 POP JUMP JUMPDEST PUSH1 0x0 PUSH3 0x870 PUSH3 0x86A PUSH3 0x864 DUP5 PUSH3 0x83B JUMP JUMPDEST PUSH3 0x845 JUMP JUMPDEST PUSH3 0x83B JUMP JUMPDEST SWAP1 POP SWAP2 SWAP1 POP JUMP JUMPDEST PUSH1 0x0 DUP2 SWAP1 POP SWAP2 SWAP1 POP JUMP JUMPDEST PUSH3 0x88C DUP4 PUSH3 0x84F JUMP JUMPDEST PUSH3 0x8A4 PUSH3 0x89B DUP3 PUSH3 0x877 JUMP JUMPDEST DUP5 DUP5 SLOAD PUSH3 0x7E5 JUMP JUMPDEST DUP3 SSTORE POP POP POP POP JUMP JUMPDEST PUSH1 0x0 SWAP1 JUMP JUMPDEST PUSH3 0x8BB PUSH3 0x8AC JUMP JUMPDEST PUSH3 0x8C8 DUP2 DUP5 DUP5 PUSH3 0x881 JUMP JUMPDEST POP POP POP JUMP JUMPDEST JUMPDEST DUP2 DUP2 LT ISZERO PUSH3 0x8F0 JUMPI PUSH3 0x8E4 PUSH1 0x0 DUP3 PUSH3 0x8B1 JUMP JUMPDEST PUSH1 0x1 DUP2 ADD SWAP1 POP PUSH3 0x8CE JUMP JUMPDEST POP POP JUMP JUMPDEST PUSH1 0x1F DUP3 GT ISZERO PUSH3 0x93F JUMPI PUSH3 0x909 DUP2 PUSH3 0x7B3 JUMP JUMPDEST PUSH3 0x914 DUP5 PUSH3 0x7C8 JUMP JUMPDEST DUP2 ADD PUSH1 0x20 DUP6 LT ISZERO PUSH3 0x924 JUMPI DUP2 SWAP1 POP JUMPDEST PUSH3 0x93C PUSH3 0x933 DUP6 PUSH3 0x7C8 JUMP JUMPDEST DUP4 ADD DUP3 PUSH3 0x8CD JUMP JUMPDEST POP POP JUMPDEST POP POP POP JUMP JUMPDEST PUSH1 0x0 DUP3 DUP3 SHR SWAP1 POP SWAP3 SWAP2 POP POP JUMP JUMPDEST PUSH1 0x0 PUSH3 0x964 PUSH1 0x0 NOT DUP5 PUSH1 0x8 MUL PUSH3 0x944 JUMP JUMPDEST NOT DUP1 DUP4 AND SWAP2 POP POP SWAP3 SWAP2 POP POP JUMP JUMPDEST PUSH1 0x0 PUSH3 0x97F DUP4 DUP4 PUSH3 0x951 JUMP JUMPDEST SWAP2 POP DUP3 PUSH1 0x2 MUL DUP3 OR SWAP1 POP SWAP3 SWAP2 POP POP JUMP JUMPDEST PUSH3 0x99A DUP3 PUSH3 0x715 JUMP JUMPDEST PUSH8 0xFFFFFFFFFFFFFFFF DUP2 GT ISZERO PUSH3 0x9B6 JUMPI PUSH3 0x9B5 PUSH3 0x720 JUMP JUMPDEST JUMPDEST PUSH3 0x9C2 DUP3 SLOAD PUSH3 0x77E JUMP JUMPDEST PUSH3 0x9CF DUP3 DUP3 DUP6 PUSH3 0x8F4 JUMP JUMPDEST PUSH1 0x0 PUSH1 0x20 SWAP1 POP PUSH1 0x1F DUP4 GT PUSH1 0x1 DUP2 EQ PUSH3 0xA07 JUMPI PUSH1 0x0 DUP5 ISZERO PUSH3 0x9F2 JUMPI DUP3 DUP8 ADD MLOAD SWAP1 POP JUMPDEST PUSH3 0x9FE DUP6 DUP3 PUSH3 0x971 JUMP JUMPDEST DUP7 SSTORE POP PUSH3 0xA6E JUMP JUMPDEST PUSH1 0x1F NOT DUP5 AND PUSH3 0xA17 DUP7 PUSH3 0x7B3 JUMP JUMPDEST PUSH1 0x0 JUMPDEST DUP3 DUP2 LT ISZERO PUSH3 0xA41 JUMPI DUP5 DUP10 ADD MLOAD DUP3 SSTORE PUSH1 0x1 DUP3 ADD SWAP2 POP PUSH1 0x20 DUP6 ADD SWAP5 POP PUSH1 0x20 DUP2 ADD SWAP1 POP PUSH3 0xA1A JUMP JUMPDEST DUP7 DUP4 LT ISZERO PUSH3 0xA61 JUMPI DUP5 DUP10 ADD MLOAD PUSH3 0xA5D PUSH1 0x1F DUP10 AND DUP3 PUSH3 0x951 JUMP JUMPDEST DUP4 SSTORE POP JUMPDEST PUSH1 0x1 PUSH1 0x2 DUP9 MUL ADD DUP9 SSTORE POP POP POP JUMPDEST POP POP POP POP POP POP JUMP JUMPDEST PUSH1 0x0 DUP2 SWAP1 POP SWAP2 SWAP1 POP JUMP JUMPDEST PUSH3 0xA8B DUP2 PUSH3 0xA76 JUMP JUMPDEST DUP3 MSTORE POP POP JUMP JUMPDEST PUSH3 0xA9C DUP2 PUSH3 0x83B JUMP JUMPDEST DUP3 MSTORE POP POP JUMP JUMPDEST PUSH1 0x0 PUSH20 0xFFFFFFFFFFFFFFFFFFFFFFFFFFFFFFFFFFFFFFFF DUP3 AND SWAP1 POP SWAP2 SWAP1 POP JUMP JUMPDEST PUSH1 0x0 PUSH3 0xACF DUP3 PUSH3 0xAA2 JUMP JUMPDEST SWAP1 POP SWAP2 SWAP1 POP JUMP JUMPDEST PUSH3 0xAE1 DUP2 PUSH3 0xAC2 JUMP JUMPDEST DUP3 MSTORE POP POP JUMP JUMPDEST PUSH1 0x0 PUSH1 0xA0 DUP3 ADD SWAP1 POP PUSH3 0xAFE PUSH1 0x0 DUP4 ADD DUP9 PUSH3 0xA80 JUMP JUMPDEST PUSH3 0xB0D PUSH1 0x20 DUP4 ADD DUP8 PUSH3 0xA80 JUMP JUMPDEST PUSH3 0xB1C PUSH1 0x40 DUP4 ADD DUP7 PUSH3 0xA80 JUMP JUMPDEST PUSH3 0xB2B PUSH1 0x60 DUP4 ADD DUP6 PUSH3 0xA91 JUMP JUMPDEST PUSH3 0xB3A PUSH1 0x80 DUP4 ADD DUP5 PUSH3 0xAD6 JUMP JUMPDEST SWAP7 SWAP6 POP POP POP POP POP POP JUMP JUMPDEST PUSH1 0x0 DUP3 DUP3 MSTORE PUSH1 0x20 DUP3 ADD SWAP1 POP SWAP3 SWAP2 POP POP JUMP JUMPDEST PUSH1 0x0 JUMPDEST DUP4 DUP2 LT ISZERO PUSH3 0xB75 JUMPI DUP1 DUP3 ADD MLOAD DUP2 DUP5 ADD MSTORE PUSH1 0x20 DUP2 ADD SWAP1 POP PUSH3 0xB58 JUMP JUMPDEST PUSH1 0x0 DUP5 DUP5 ADD MSTORE POP POP POP POP JUMP JUMPDEST PUSH1 0x0 PUSH1 0x1F NOT PUSH1 0x1F DUP4 ADD AND SWAP1 POP SWAP2 SWAP1 POP JUMP JUMPDEST PUSH1 0x0 PUSH3 0xB9F DUP3 PUSH3 0x715 JUMP JUMPDEST PUSH3 0xBAB DUP2 DUP6 PUSH3 0xB44 JUMP JUMPDEST SWAP4 POP PUSH3 0xBBD DUP2 DUP6 PUSH1 0x20 DUP7 ADD PUSH3 0xB55 JUMP JUMPDEST PUSH3 0xBC8 DUP2 PUSH3 0xB81 JUMP JUMPDEST DUP5 ADD SWAP2 POP POP SWAP3 SWAP2 POP POP JUMP JUMPDEST PUSH1 0x0 PUSH1 0x20 DUP3 ADD SWAP1 POP DUP2 DUP2 SUB PUSH1 0x0 DUP4 ADD MSTORE PUSH3 0xBEF DUP2 DUP5 PUSH3 0xB92 JUMP JUMPDEST SWAP1 POP SWAP3 SWAP2 POP POP JUMP JUMPDEST PUSH1 0x0 DUP2 MLOAD SWAP1 POP SWAP2 SWAP1 POP JUMP JUMPDEST PUSH1 0x0 DUP2 SWAP1 POP PUSH1 0x20 DUP3 ADD SWAP1 POP SWAP2 SWAP1 POP JUMP JUMPDEST PUSH1 0x0 PUSH3 0xC20 DUP3 MLOAD PUSH3 0xA76 JUMP JUMPDEST DUP1 SWAP2 POP POP SWAP2 SWAP1 POP JUMP JUMPDEST PUSH1 0x0 PUSH3 0xC36 DUP3 PUSH3 0xBF7 JUMP JUMPDEST DUP3 PUSH3 0xC42 DUP5 PUSH3 0xC02 JUMP JUMPDEST SWAP1 POP PUSH3 0xC4F DUP2 PUSH3 0xC12 JUMP JUMPDEST SWAP3 POP PUSH1 0x20 DUP3 LT ISZERO PUSH3 0xC92 JUMPI PUSH3 0xC8D PUSH32 0xFFFFFFFFFFFFFFFFFFFFFFFFFFFFFFFFFFFFFFFFFFFFFFFFFFFFFFFFFFFFFFFF DUP4 PUSH1 0x20 SUB PUSH1 0x8 MUL PUSH3 0x7D8 JUMP JUMPDEST DUP4 AND SWAP3 POP JUMPDEST POP POP SWAP2 SWAP1 POP JUMP JUMPDEST PUSH1 0x80 MLOAD PUSH1 0xA0 MLOAD PUSH1 0xC0 MLOAD PUSH1 0xE0 MLOAD PUSH2 0x100 MLOAD PUSH2 0x120 MLOAD PUSH2 0x140 MLOAD PUSH2 0x7441 PUSH3 0xCF4 PUSH1 0x0 CODECOPY PUSH1 0x0 PUSH2 0x1255 ADD MSTORE PUSH1 0x0 PUSH2 0x1221 ADD MSTORE PUSH1 0x0 PUSH2 0x38CC ADD MSTORE PUSH1 0x0 PUSH2 0x38AB ADD MSTORE PUSH1 0x0 PUSH2 0x2CDF ADD MSTORE PUSH1 0x0 PUSH2 0x2D35 ADD MSTORE PUSH1 0x0 PUSH2 0x2D5E ADD MSTORE PUSH2 0x7441 PUSH1 0x0 RETURN INVALID PUSH1 0x80 PUSH1 0x40 MSTORE PUSH1 0x4 CALLDATASIZE LT PUSH2 0x1FD JUMPI PUSH1 0x0 CALLDATALOAD PUSH1 0xE0 SHR DUP1 PUSH4 0x8199DA67 GT PUSH2 0x10D JUMPI DUP1 PUSH4 0xB37B7B7D GT PUSH2 0xA0 JUMPI DUP1 PUSH4 0xDF927BBE GT PUSH2 0x6F JUMPI DUP1 PUSH4 0xDF927BBE EQ PUSH2 0x77E JUMPI DUP1 PUSH4 0xE985E9C5 EQ PUSH2 0x7BB JUMPI DUP1 PUSH4 0xF2FDE38B EQ PUSH2 0x7F8 JUMPI DUP1 PUSH4 0xF76FC35E EQ PUSH2 0x821 JUMPI DUP1 PUSH4 0xF9F411D8 EQ PUSH2 0x84C JUMPI PUSH2 0x204 JUMP JUMPDEST DUP1 PUSH4 0xB37B7B7D EQ PUSH2 0x6C4 JUMPI DUP1 PUSH4 0xB88D4FDE EQ PUSH2 0x6ED JUMPI DUP1 PUSH4 0xC002D23D EQ PUSH2 0x716 JUMPI DUP1 PUSH4 0xC87B56DD EQ PUSH2 0x741 JUMPI PUSH2 0x204 JUMP JUMPDEST DUP1 PUSH4 0x95D89B41 GT PUSH2 0xDC JUMPI DUP1 PUSH4 0x95D89B41 EQ PUSH2 0x615 JUMPI DUP1 PUSH4 0x9983258D EQ PUSH2 0x640 JUMPI DUP1 PUSH4 0xA168D873 EQ PUSH2 0x670 JUMPI DUP1 PUSH4 0xA22CB465 EQ PUSH2 0x69B JUMPI PUSH2 0x204 JUMP JUMPDEST DUP1 PUSH4 0x8199DA67 EQ PUSH2 0x53F JUMPI DUP1 PUSH4 0x84B0196E EQ PUSH2 0x57C JUMPI DUP1 PUSH4 0x8DA5CB5B EQ PUSH2 0x5AD JUMPI DUP1 PUSH4 0x8F406849 EQ PUSH2 0x5D8 JUMPI PUSH2 0x204 JUMP JUMPDEST DUP1 PUSH4 0x43E0AC89 GT PUSH2 0x190 JUMPI DUP1 PUSH4 0x6717E41C GT PUSH2 0x15F JUMPI DUP1 PUSH4 0x6717E41C EQ PUSH2 0x448 JUMPI DUP1 PUSH4 0x70A08231 EQ PUSH2 0x485 JUMPI DUP1 PUSH4 0x711953EF EQ PUSH2 0x4C2 JUMPI DUP1 PUSH4 0x715018A6 EQ PUSH2 0x4EB JUMPI DUP1 PUSH4 0x80370075 EQ PUSH2 0x502 JUMPI PUSH2 0x204 JUMP JUMPDEST DUP1 PUSH4 0x43E0AC89 EQ PUSH2 0x366 JUMPI DUP1 PUSH4 0x490C68D7 EQ PUSH2 0x3A3 JUMPI DUP1 PUSH4 0x5B7633D0 EQ PUSH2 0x3E0 JUMPI DUP1 PUSH4 0x6352211E EQ PUSH2 0x40B JUMPI PUSH2 0x204 JUMP JUMPDEST DUP1 PUSH4 0x95EA7B3 GT PUSH2 0x1CC JUMPI DUP1 PUSH4 0x95EA7B3 EQ PUSH2 0x2D4 JUMPI DUP1 PUSH4 0x23B872DD EQ PUSH2 0x2FD JUMPI DUP1 PUSH4 0x3CCFD60B EQ PUSH2 0x326 JUMPI DUP1 PUSH4 0x42842E0E EQ PUSH2 0x33D JUMPI PUSH2 0x204 JUMP JUMPDEST DUP1 PUSH4 0x1FFC9A7 EQ PUSH2 0x206 JUMPI DUP1 PUSH4 0x46DC166 EQ PUSH2 0x243 JUMPI DUP1 PUSH4 0x6FDDE03 EQ PUSH2 0x26C JUMPI DUP1 PUSH4 0x81812FC EQ PUSH2 0x297 JUMPI PUSH2 0x204 JUMP JUMPDEST CALLDATASIZE PUSH2 0x204 JUMPI STOP JUMPDEST STOP JUMPDEST CALLVALUE DUP1 ISZERO PUSH2 0x212 JUMPI PUSH1 0x0 DUP1 REVERT JUMPDEST POP PUSH2 0x22D PUSH1 0x4 DUP1 CALLDATASIZE SUB DUP2 ADD SWAP1 PUSH2 0x228 SWAP2 SWAP1 PUSH2 0x3CE4 JUMP JUMPDEST PUSH2 0x889 JUMP JUMPDEST PUSH1 0x40 MLOAD PUSH2 0x23A SWAP2 SWAP1 PUSH2 0x3D2C JUMP JUMPDEST PUSH1 0x40 MLOAD DUP1 SWAP2 SUB SWAP1 RETURN JUMPDEST CALLVALUE DUP1 ISZERO PUSH2 0x24F JUMPI PUSH1 0x0 DUP1 REVERT JUMPDEST POP PUSH2 0x26A PUSH1 0x4 DUP1 CALLDATASIZE SUB DUP2 ADD SWAP1 PUSH2 0x265 SWAP2 SWAP1 PUSH2 0x3DA5 JUMP JUMPDEST PUSH2 0x8EA JUMP JUMPDEST STOP JUMPDEST CALLVALUE DUP1 ISZERO PUSH2 0x278 JUMPI PUSH1 0x0 DUP1 REVERT JUMPDEST POP PUSH2 0x281 PUSH2 0xA47 JUMP JUMPDEST PUSH1 0x40 MLOAD PUSH2 0x28E SWAP2 SWAP1 PUSH2 0x3E62 JUMP JUMPDEST PUSH1 0x40 MLOAD DUP1 SWAP2 SUB SWAP1 RETURN JUMPDEST CALLVALUE DUP1 ISZERO PUSH2 0x2A3 JUMPI PUSH1 0x0 DUP1 REVERT JUMPDEST POP PUSH2 0x2BE PUSH1 0x4 DUP1 CALLDATASIZE SUB DUP2 ADD SWAP1 PUSH2 0x2B9 SWAP2 SWAP1 PUSH2 0x3EBA JUMP JUMPDEST PUSH2 0xAD9 JUMP JUMPDEST PUSH1 0x40 MLOAD PUSH2 0x2CB SWAP2 SWAP1 PUSH2 0x3EF6 JUMP JUMPDEST PUSH1 0x40 MLOAD DUP1 SWAP2 SUB SWAP1 RETURN JUMPDEST CALLVALUE DUP1 ISZERO PUSH2 0x2E0 JUMPI PUSH1 0x0 DUP1 REVERT JUMPDEST POP PUSH2 0x2FB PUSH1 0x4 DUP1 CALLDATASIZE SUB DUP2 ADD SWAP1 PUSH2 0x2F6 SWAP2 SWAP1 PUSH2 0x3F11 JUMP JUMPDEST PUSH2 0xB1F JUMP JUMPDEST STOP JUMPDEST CALLVALUE DUP1 ISZERO PUSH2 0x309 JUMPI PUSH1 0x0 DUP1 REVERT JUMPDEST POP PUSH2 0x324 PUSH1 0x4 DUP1 CALLDATASIZE SUB DUP2 ADD SWAP1 PUSH2 0x31F SWAP2 SWAP1 PUSH2 0x3F51 JUMP JUMPDEST PUSH2 0xC36 JUMP JUMPDEST STOP JUMPDEST CALLVALUE DUP1 ISZERO PUSH2 0x332 JUMPI PUSH1 0x0 DUP1 REVERT JUMPDEST POP PUSH2 0x33B PUSH2 0xC96 JUMP JUMPDEST STOP JUMPDEST CALLVALUE DUP1 ISZERO PUSH2 0x349 JUMPI PUSH1 0x0 DUP1 REVERT JUMPDEST POP PUSH2 0x364 PUSH1 0x4 DUP1 CALLDATASIZE SUB DUP2 ADD SWAP1 PUSH2 0x35F SWAP2 SWAP1 PUSH2 0x3F51 JUMP JUMPDEST PUSH2 0xD37 JUMP JUMPDEST STOP JUMPDEST CALLVALUE DUP1 ISZERO PUSH2 0x372 JUMPI PUSH1 0x0 DUP1 REVERT JUMPDEST POP PUSH2 0x38D PUSH1 0x4 DUP1 CALLDATASIZE SUB DUP2 ADD SWAP1 PUSH2 0x388 SWAP2 SWAP1 PUSH2 0x3EBA JUMP JUMPDEST PUSH2 0xD57 JUMP JUMPDEST PUSH1 0x40 MLOAD PUSH2 0x39A SWAP2 SWAP1 PUSH2 0x3FB3 JUMP JUMPDEST PUSH1 0x40 MLOAD DUP1 SWAP2 SUB SWAP1 RETURN JUMPDEST CALLVALUE DUP1 ISZERO PUSH2 0x3AF JUMPI PUSH1 0x0 DUP1 REVERT JUMPDEST POP PUSH2 0x3CA PUSH1 0x4 DUP1 CALLDATASIZE SUB DUP2 ADD SWAP1 PUSH2 0x3C5 SWAP2 SWAP1 PUSH2 0x3EBA JUMP JUMPDEST PUSH2 0xD7B JUMP JUMPDEST PUSH1 0x40 MLOAD PUSH2 0x3D7 SWAP2 SWAP1 PUSH2 0x3FB3 JUMP JUMPDEST PUSH1 0x40 MLOAD DUP1 SWAP2 SUB SWAP1 RETURN JUMPDEST CALLVALUE DUP1 ISZERO PUSH2 0x3EC JUMPI PUSH1 0x0 DUP1 REVERT JUMPDEST POP PUSH2 0x3F5 PUSH2 0xDE0 JUMP JUMPDEST PUSH1 0x40 MLOAD PUSH2 0x402 SWAP2 SWAP1 PUSH2 0x3EF6 JUMP JUMPDEST PUSH1 0x40 MLOAD DUP1 SWAP2 SUB SWAP1 RETURN JUMPDEST CALLVALUE DUP1 ISZERO PUSH2 0x417 JUMPI PUSH1 0x0 DUP1 REVERT JUMPDEST POP PUSH2 0x432 PUSH1 0x4 DUP1 CALLDATASIZE SUB DUP2 ADD SWAP1 PUSH2 0x42D SWAP2 SWAP1 PUSH2 0x3EBA JUMP JUMPDEST PUSH2 0xE06 JUMP JUMPDEST PUSH1 0x40 MLOAD PUSH2 0x43F SWAP2 SWAP1 PUSH2 0x3EF6 JUMP JUMPDEST PUSH1 0x40 MLOAD DUP1 SWAP2 SUB SWAP1 RETURN JUMPDEST CALLVALUE DUP1 ISZERO PUSH2 0x454 JUMPI PUSH1 0x0 DUP1 REVERT JUMPDEST POP PUSH2 0x46F PUSH1 0x4 DUP1 CALLDATASIZE SUB DUP2 ADD SWAP1 PUSH2 0x46A SWAP2 SWAP1 PUSH2 0x3EBA JUMP JUMPDEST PUSH2 0xE8C JUMP JUMPDEST PUSH1 0x40 MLOAD PUSH2 0x47C SWAP2 SWAP1 PUSH2 0x3D2C JUMP JUMPDEST PUSH1 0x40 MLOAD DUP1 SWAP2 SUB SWAP1 RETURN JUMPDEST CALLVALUE DUP1 ISZERO PUSH2 0x491 JUMPI PUSH1 0x0 DUP1 REVERT JUMPDEST POP PUSH2 0x4AC PUSH1 0x4 DUP1 CALLDATASIZE SUB DUP2 ADD SWAP1 PUSH2 0x4A7 SWAP2 SWAP1 PUSH2 0x3DA5 JUMP JUMPDEST PUSH2 0xEAC JUMP JUMPDEST PUSH1 0x40 MLOAD PUSH2 0x4B9 SWAP2 SWAP1 PUSH2 0x3FB3 JUMP JUMPDEST PUSH1 0x40 MLOAD DUP1 SWAP2 SUB SWAP1 RETURN JUMPDEST CALLVALUE DUP1 ISZERO PUSH2 0x4CE JUMPI PUSH1 0x0 DUP1 REVERT JUMPDEST POP PUSH2 0x4E9 PUSH1 0x4 DUP1 CALLDATASIZE SUB DUP2 ADD SWAP1 PUSH2 0x4E4 SWAP2 SWAP1 PUSH2 0x3DA5 JUMP JUMPDEST PUSH2 0xF63 JUMP JUMPDEST STOP JUMPDEST CALLVALUE DUP1 ISZERO PUSH2 0x4F7 JUMPI PUSH1 0x0 DUP1 REVERT JUMPDEST POP PUSH2 0x500 PUSH2 0xFAF JUMP JUMPDEST STOP JUMPDEST CALLVALUE DUP1 ISZERO PUSH2 0x50E JUMPI PUSH1 0x0 DUP1 REVERT JUMPDEST POP PUSH2 0x529 PUSH1 0x4 DUP1 CALLDATASIZE SUB DUP2 ADD SWAP1 PUSH2 0x524 SWAP2 SWAP1 PUSH2 0x3DA5 JUMP JUMPDEST PUSH2 0xFC3 JUMP JUMPDEST PUSH1 0x40 MLOAD PUSH2 0x536 SWAP2 SWAP1 PUSH2 0x408C JUMP JUMPDEST PUSH1 0x40 MLOAD DUP1 SWAP2 SUB SWAP1 RETURN JUMPDEST CALLVALUE DUP1 ISZERO PUSH2 0x54B JUMPI PUSH1 0x0 DUP1 REVERT JUMPDEST POP PUSH2 0x566 PUSH1 0x4 DUP1 CALLDATASIZE SUB DUP2 ADD SWAP1 PUSH2 0x561 SWAP2 SWAP1 PUSH2 0x3EBA JUMP JUMPDEST PUSH2 0x105A JUMP JUMPDEST PUSH1 0x40 MLOAD PUSH2 0x573 SWAP2 SWAP1 PUSH2 0x3E62 JUMP JUMPDEST PUSH1 0x40 MLOAD DUP1 SWAP2 SUB SWAP1 RETURN JUMPDEST CALLVALUE DUP1 ISZERO PUSH2 0x588 JUMPI PUSH1 0x0 DUP1 REVERT JUMPDEST POP PUSH2 0x591 PUSH2 0x120E JUMP JUMPDEST PUSH1 0x40 MLOAD PUSH2 0x5A4 SWAP8 SWAP7 SWAP6 SWAP5 SWAP4 SWAP3 SWAP2 SWAP1 PUSH2 0x4102 JUMP JUMPDEST PUSH1 0x40 MLOAD DUP1 SWAP2 SUB SWAP1 RETURN JUMPDEST CALLVALUE DUP1 ISZERO PUSH2 0x5B9 JUMPI PUSH1 0x0 DUP1 REVERT JUMPDEST POP PUSH2 0x5C2 PUSH2 0x1310 JUMP JUMPDEST PUSH1 0x40 MLOAD PUSH2 0x5CF SWAP2 SWAP1 PUSH2 0x3EF6 JUMP JUMPDEST PUSH1 0x40 MLOAD DUP1 SWAP2 SUB SWAP1 RETURN JUMPDEST CALLVALUE DUP1 ISZERO PUSH2 0x5E4 JUMPI PUSH1 0x0 DUP1 REVERT JUMPDEST POP PUSH2 0x5FF PUSH1 0x4 DUP1 CALLDATASIZE SUB DUP2 ADD SWAP1 PUSH2 0x5FA SWAP2 SWAP1 PUSH2 0x3EBA JUMP JUMPDEST PUSH2 0x133A JUMP JUMPDEST PUSH1 0x40 MLOAD PUSH2 0x60C SWAP2 SWAP1 PUSH2 0x3FB3 JUMP JUMPDEST PUSH1 0x40 MLOAD DUP1 SWAP2 SUB SWAP1 RETURN JUMPDEST CALLVALUE DUP1 ISZERO PUSH2 0x621 JUMPI PUSH1 0x0 DUP1 REVERT JUMPDEST POP PUSH2 0x62A PUSH2 0x1352 JUMP JUMPDEST PUSH1 0x40 MLOAD PUSH2 0x637 SWAP2 SWAP1 PUSH2 0x3E62 JUMP JUMPDEST PUSH1 0x40 MLOAD DUP1 SWAP2 SUB SWAP1 RETURN JUMPDEST PUSH2 0x65A PUSH1 0x4 DUP1 CALLDATASIZE SUB DUP2 ADD SWAP1 PUSH2 0x655 SWAP2 SWAP1 PUSH2 0x42BB JUMP JUMPDEST PUSH2 0x13E4 JUMP JUMPDEST PUSH1 0x40 MLOAD PUSH2 0x667 SWAP2 SWAP1 PUSH2 0x3FB3 JUMP JUMPDEST PUSH1 0x40 MLOAD DUP1 SWAP2 SUB SWAP1 RETURN JUMPDEST CALLVALUE DUP1 ISZERO PUSH2 0x67C JUMPI PUSH1 0x0 DUP1 REVERT JUMPDEST POP PUSH2 0x685 PUSH2 0x17BB JUMP JUMPDEST PUSH1 0x40 MLOAD PUSH2 0x692 SWAP2 SWAP1 PUSH2 0x3EF6 JUMP JUMPDEST PUSH1 0x40 MLOAD DUP1 SWAP2 SUB SWAP1 RETURN JUMPDEST CALLVALUE DUP1 ISZERO PUSH2 0x6A7 JUMPI PUSH1 0x0 DUP1 REVERT JUMPDEST POP PUSH2 0x6C2 PUSH1 0x4 DUP1 CALLDATASIZE SUB DUP2 ADD SWAP1 PUSH2 0x6BD SWAP2 SWAP1 PUSH2 0x437E JUMP JUMPDEST PUSH2 0x17E1 JUMP JUMPDEST STOP JUMPDEST CALLVALUE DUP1 ISZERO PUSH2 0x6D0 JUMPI PUSH1 0x0 DUP1 REVERT JUMPDEST POP PUSH2 0x6EB PUSH1 0x4 DUP1 CALLDATASIZE SUB DUP2 ADD SWAP1 PUSH2 0x6E6 SWAP2 SWAP1 PUSH2 0x4608 JUMP JUMPDEST PUSH2 0x17F7 JUMP JUMPDEST STOP JUMPDEST CALLVALUE DUP1 ISZERO PUSH2 0x6F9 JUMPI PUSH1 0x0 DUP1 REVERT JUMPDEST POP PUSH2 0x714 PUSH1 0x4 DUP1 CALLDATASIZE SUB DUP2 ADD SWAP1 PUSH2 0x70F SWAP2 SWAP1 PUSH2 0x4680 JUMP JUMPDEST PUSH2 0x199A JUMP JUMPDEST STOP JUMPDEST CALLVALUE DUP1 ISZERO PUSH2 0x722 JUMPI PUSH1 0x0 DUP1 REVERT JUMPDEST POP PUSH2 0x72B PUSH2 0x19FC JUMP JUMPDEST PUSH1 0x40 MLOAD PUSH2 0x738 SWAP2 SWAP1 PUSH2 0x3FB3 JUMP JUMPDEST PUSH1 0x40 MLOAD DUP1 SWAP2 SUB SWAP1 RETURN JUMPDEST CALLVALUE DUP1 ISZERO PUSH2 0x74D JUMPI PUSH1 0x0 DUP1 REVERT JUMPDEST POP PUSH2 0x768 PUSH1 0x4 DUP1 CALLDATASIZE SUB DUP2 ADD SWAP1 PUSH2 0x763 SWAP2 SWAP1 PUSH2 0x3EBA JUMP JUMPDEST PUSH2 0x1A08 JUMP JUMPDEST PUSH1 0x40 MLOAD PUSH2 0x775 SWAP2 SWAP1 PUSH2 0x3E62 JUMP JUMPDEST PUSH1 0x40 MLOAD DUP1 SWAP2 SUB SWAP1 RETURN JUMPDEST CALLVALUE DUP1 ISZERO PUSH2 0x78A JUMPI PUSH1 0x0 DUP1 REVERT JUMPDEST POP PUSH2 0x7A5 PUSH1 0x4 DUP1 CALLDATASIZE SUB DUP2 ADD SWAP1 PUSH2 0x7A0 SWAP2 SWAP1 PUSH2 0x3EBA JUMP JUMPDEST PUSH2 0x1B1A JUMP JUMPDEST PUSH1 0x40 MLOAD PUSH2 0x7B2 SWAP2 SWAP1 PUSH2 0x3E62 JUMP JUMPDEST PUSH1 0x40 MLOAD DUP1 SWAP2 SUB SWAP1 RETURN JUMPDEST CALLVALUE DUP1 ISZERO PUSH2 0x7C7 JUMPI PUSH1 0x0 DUP1 REVERT JUMPDEST POP PUSH2 0x7E2 PUSH1 0x4 DUP1 CALLDATASIZE SUB DUP2 ADD SWAP1 PUSH2 0x7DD SWAP2 SWAP1 PUSH2 0x4703 JUMP JUMPDEST PUSH2 0x1BC6 JUMP JUMPDEST PUSH1 0x40 MLOAD PUSH2 0x7EF SWAP2 SWAP1 PUSH2 0x3D2C JUMP JUMPDEST PUSH1 0x40 MLOAD DUP1 SWAP2 SUB SWAP1 RETURN JUMPDEST CALLVALUE DUP1 ISZERO PUSH2 0x804 JUMPI PUSH1 0x0 DUP1 REVERT JUMPDEST POP PUSH2 0x81F PUSH1 0x4 DUP1 CALLDATASIZE SUB DUP2 ADD SWAP1 PUSH2 0x81A SWAP2 SWAP1 PUSH2 0x3DA5 JUMP JUMPDEST PUSH2 0x1C5A JUMP JUMPDEST STOP JUMPDEST CALLVALUE DUP1 ISZERO PUSH2 0x82D JUMPI PUSH1 0x0 DUP1 REVERT JUMPDEST POP PUSH2 0x836 PUSH2 0x1CDD JUMP JUMPDEST PUSH1 0x40 MLOAD PUSH2 0x843 SWAP2 SWAP1 PUSH2 0x4743 JUMP JUMPDEST PUSH1 0x40 MLOAD DUP1 SWAP2 SUB SWAP1 RETURN JUMPDEST CALLVALUE DUP1 ISZERO PUSH2 0x858 JUMPI PUSH1 0x0 DUP1 REVERT JUMPDEST POP PUSH2 0x873 PUSH1 0x4 DUP1 CALLDATASIZE SUB DUP2 ADD SWAP1 PUSH2 0x86E SWAP2 SWAP1 PUSH2 0x3F11 JUMP JUMPDEST PUSH2 0x1D01 JUMP JUMPDEST PUSH1 0x40 MLOAD PUSH2 0x880 SWAP2 SWAP1 PUSH2 0x3FB3 JUMP JUMPDEST PUSH1 0x40 MLOAD DUP1 SWAP2 SUB SWAP1 RETURN JUMPDEST PUSH1 0x0 PUSH4 0x49064906 PUSH1 0xE0 SHL PUSH28 0xFFFFFFFFFFFFFFFFFFFFFFFFFFFFFFFFFFFFFFFFFFFFFFFFFFFFFFFF NOT AND DUP3 PUSH28 0xFFFFFFFFFFFFFFFFFFFFFFFFFFFFFFFFFFFFFFFFFFFFFFFFFFFFFFFF NOT AND EQ DUP1 PUSH2 0x8E3 JUMPI POP PUSH2 0x8E2 DUP3 PUSH2 0x1D32 JUMP JUMPDEST JUMPDEST SWAP1 POP SWAP2 SWAP1 POP JUMP JUMPDEST PUSH2 0x8F2 PUSH2 0x1E14 JUMP JUMPDEST PUSH1 0x0 PUSH20 0xFFFFFFFFFFFFFFFFFFFFFFFFFFFFFFFFFFFFFFFF AND DUP2 PUSH20 0xFFFFFFFFFFFFFFFFFFFFFFFFFFFFFFFFFFFFFFFF AND SUB PUSH2 0x961 JUMPI PUSH1 0x40 MLOAD PUSH32 0x8C379A000000000000000000000000000000000000000000000000000000000 DUP2 MSTORE PUSH1 0x4 ADD PUSH2 0x958 SWAP1 PUSH2 0x47AA JUMP JUMPDEST PUSH1 0x40 MLOAD DUP1 SWAP2 SUB SWAP1 REVERT JUMPDEST PUSH2 0x980 DUP2 PUSH20 0xFFFFFFFFFFFFFFFFFFFFFFFFFFFFFFFFFFFFFFFF AND PUSH2 0x1E92 JUMP JUMPDEST ISZERO PUSH2 0x9C0 JUMPI PUSH1 0x40 MLOAD PUSH32 0x8C379A000000000000000000000000000000000000000000000000000000000 DUP2 MSTORE PUSH1 0x4 ADD PUSH2 0x9B7 SWAP1 PUSH2 0x483C JUMP JUMPDEST PUSH1 0x40 MLOAD DUP1 SWAP2 SUB SWAP1 REVERT JUMPDEST DUP1 PUSH1 0x10 PUSH1 0x0 PUSH2 0x100 EXP DUP2 SLOAD DUP2 PUSH20 0xFFFFFFFFFFFFFFFFFFFFFFFFFFFFFFFFFFFFFFFF MUL NOT AND SWAP1 DUP4 PUSH20 0xFFFFFFFFFFFFFFFFFFFFFFFFFFFFFFFFFFFFFFFF AND MUL OR SWAP1 SSTORE POP DUP1 PUSH20 0xFFFFFFFFFFFFFFFFFFFFFFFFFFFFFFFFFFFFFFFF AND PUSH32 0x67B0833B261BF8DEE41032AFA09CB41CF516D84E7ADE2BD54DAD0AA53AE956B7 PUSH1 0x40 MLOAD PUSH1 0x40 MLOAD DUP1 SWAP2 SUB SWAP1 LOG2 POP JUMP JUMPDEST PUSH1 0x60 PUSH1 0x0 DUP1 SLOAD PUSH2 0xA56 SWAP1 PUSH2 0x488B JUMP JUMPDEST DUP1 PUSH1 0x1F ADD PUSH1 0x20 DUP1 SWAP2 DIV MUL PUSH1 0x20 ADD PUSH1 0x40 MLOAD SWAP1 DUP2 ADD PUSH1 0x40 MSTORE DUP1 SWAP3 SWAP2 SWAP1 DUP2 DUP2 MSTORE PUSH1 0x20 ADD DUP3 DUP1 SLOAD PUSH2 0xA82 SWAP1 PUSH2 0x488B JUMP JUMPDEST DUP1 ISZERO PUSH2 0xACF JUMPI DUP1 PUSH1 0x1F LT PUSH2 0xAA4 JUMPI PUSH2 0x100 DUP1 DUP4 SLOAD DIV MUL DUP4 MSTORE SWAP2 PUSH1 0x20 ADD SWAP2 PUSH2 0xACF JUMP JUMPDEST DUP3 ADD SWAP2 SWAP1 PUSH1 0x0 MSTORE PUSH1 0x20 PUSH1 0x0 KECCAK256 SWAP1 JUMPDEST DUP2 SLOAD DUP2 MSTORE SWAP1 PUSH1 0x1 ADD SWAP1 PUSH1 0x20 ADD DUP1 DUP4 GT PUSH2 0xAB2 JUMPI DUP3 SWAP1 SUB PUSH1 0x1F AND DUP3 ADD SWAP2 JUMPDEST POP POP POP POP POP SWAP1 POP SWAP1 JUMP JUMPDEST PUSH1 0x0 PUSH2 0xAE4 DUP3 PUSH2 0x1EB5 JUMP JUMPDEST PUSH1 0x4 PUSH1 0x0 DUP4 DUP2 MSTORE PUSH1 0x20 ADD SWAP1 DUP2 MSTORE PUSH1 0x20 ADD PUSH1 0x0 KECCAK256 PUSH1 0x0 SWAP1 SLOAD SWAP1 PUSH2 0x100 EXP SWAP1 DIV PUSH20 0xFFFFFFFFFFFFFFFFFFFFFFFFFFFFFFFFFFFFFFFF AND SWAP1 POP SWAP2 SWAP1 POP JUMP JUMPDEST PUSH1 0x0 PUSH2 0xB2A DUP3 PUSH2 0xE06 JUMP JUMPDEST SWAP1 POP DUP1 PUSH20 0xFFFFFFFFFFFFFFFFFFFFFFFFFFFFFFFFFFFFFFFF AND DUP4 PUSH20 0xFFFFFFFFFFFFFFFFFFFFFFFFFFFFFFFFFFFFFFFF AND SUB PUSH2 0xB9A JUMPI PUSH1 0x40 MLOAD PUSH32 0x8C379A000000000000000000000000000000000000000000000000000000000 DUP2 MSTORE PUSH1 0x4 ADD PUSH2 0xB91 SWAP1 PUSH2 0x492E JUMP JUMPDEST PUSH1 0x40 MLOAD DUP1 SWAP2 SUB SWAP1 REVERT JUMPDEST DUP1 PUSH20 0xFFFFFFFFFFFFFFFFFFFFFFFFFFFFFFFFFFFFFFFF AND PUSH2 0xBB9 PUSH2 0x1F00 JUMP JUMPDEST PUSH20 0xFFFFFFFFFFFFFFFFFFFFFFFFFFFFFFFFFFFFFFFF AND EQ DUP1 PUSH2 0xBE8 JUMPI POP PUSH2 0xBE7 DUP2 PUSH2 0xBE2 PUSH2 0x1F00 JUMP JUMPDEST PUSH2 0x1BC6 JUMP JUMPDEST JUMPDEST PUSH2 0xC27 JUMPI PUSH1 0x40 MLOAD PUSH32 0x8C379A000000000000000000000000000000000000000000000000000000000 DUP2 MSTORE PUSH1 0x4 ADD PUSH2 0xC1E SWAP1 PUSH2 0x49C0 JUMP JUMPDEST PUSH1 0x40 MLOAD DUP1 SWAP2 SUB SWAP1 REVERT JUMPDEST PUSH2 0xC31 DUP4 DUP4 PUSH2 0x1F08 JUMP JUMPDEST POP POP POP JUMP JUMPDEST PUSH2 0xC47 PUSH2 0xC41 PUSH2 0x1F00 JUMP JUMPDEST DUP3 PUSH2 0x1FC1 JUMP JUMPDEST PUSH2 0xC86 JUMPI PUSH1 0x40 MLOAD PUSH32 0x8C379A000000000000000000000000000000000000000000000000000000000 DUP2 MSTORE PUSH1 0x4 ADD PUSH2 0xC7D SWAP1 PUSH2 0x4A52 JUMP JUMPDEST PUSH1 0x40 MLOAD DUP1 SWAP2 SUB SWAP1 REVERT JUMPDEST PUSH2 0xC91 DUP4 DUP4 DUP4 PUSH2 0x2056 JUMP JUMPDEST POP POP POP JUMP JUMPDEST PUSH2 0xC9E PUSH2 0x1E14 JUMP JUMPDEST PUSH1 0x0 SELFBALANCE SWAP1 POP PUSH1 0x0 DUP2 GT PUSH2 0xCE6 JUMPI PUSH1 0x40 MLOAD PUSH32 0x8C379A000000000000000000000000000000000000000000000000000000000 DUP2 MSTORE PUSH1 0x4 ADD PUSH2 0xCDD SWAP1 PUSH2 0x4ABE JUMP JUMPDEST PUSH1 0x40 MLOAD DUP1 SWAP2 SUB SWAP1 REVERT JUMPDEST PUSH2 0xCEE PUSH2 0x1310 JUMP JUMPDEST PUSH20 0xFFFFFFFFFFFFFFFFFFFFFFFFFFFFFFFFFFFFFFFF AND PUSH2 0x8FC DUP3 SWAP1 DUP2 ISZERO MUL SWAP1 PUSH1 0x40 MLOAD PUSH1 0x0 PUSH1 0x40 MLOAD DUP1 DUP4 SUB DUP2 DUP6 DUP9 DUP9 CALL SWAP4 POP POP POP POP ISZERO DUP1 ISZERO PUSH2 0xD33 JUMPI RETURNDATASIZE PUSH1 0x0 DUP1 RETURNDATACOPY RETURNDATASIZE PUSH1 0x0 REVERT JUMPDEST POP POP JUMP JUMPDEST PUSH2 0xD52 DUP4 DUP4 DUP4 PUSH1 0x40 MLOAD DUP1 PUSH1 0x20 ADD PUSH1 0x40 MSTORE DUP1 PUSH1 0x0 DUP2 MSTORE POP PUSH2 0x199A JUMP JUMPDEST POP POP POP JUMP JUMPDEST PUSH1 0xC DUP2 DUP2 SLOAD DUP2 LT PUSH2 0xD67 JUMPI PUSH1 0x0 DUP1 REVERT JUMPDEST SWAP1 PUSH1 0x0 MSTORE PUSH1 0x20 PUSH1 0x0 KECCAK256 ADD PUSH1 0x0 SWAP2 POP SWAP1 POP SLOAD DUP2 JUMP JUMPDEST PUSH1 0x0 PUSH2 0xD86 DUP3 PUSH2 0x234F JUMP JUMPDEST PUSH2 0xDC5 JUMPI PUSH1 0x40 MLOAD PUSH32 0x8C379A000000000000000000000000000000000000000000000000000000000 DUP2 MSTORE PUSH1 0x4 ADD PUSH2 0xDBC SWAP1 PUSH2 0x4B2A JUMP JUMPDEST PUSH1 0x40 MLOAD DUP1 SWAP2 SUB SWAP1 REVERT JUMPDEST PUSH1 0xF PUSH1 0x0 DUP4 DUP2 MSTORE PUSH1 0x20 ADD SWAP1 DUP2 MSTORE PUSH1 0x20 ADD PUSH1 0x0 KECCAK256 SLOAD SWAP1 POP SWAP2 SWAP1 POP JUMP JUMPDEST PUSH1 0x10 PUSH1 0x0 SWAP1 SLOAD SWAP1 PUSH2 0x100 EXP SWAP1 DIV PUSH20 0xFFFFFFFFFFFFFFFFFFFFFFFFFFFFFFFFFFFFFFFF AND DUP2 JUMP JUMPDEST PUSH1 0x0 DUP1 PUSH2 0xE12 DUP4 PUSH2 0x2390 JUMP JUMPDEST SWAP1 POP PUSH1 0x0 PUSH20 0xFFFFFFFFFFFFFFFFFFFFFFFFFFFFFFFFFFFFFFFF AND DUP2 PUSH20 0xFFFFFFFFFFFFFFFFFFFFFFFFFFFFFFFFFFFFFFFF AND SUB PUSH2 0xE83 JUMPI PUSH1 0x40 MLOAD PUSH32 0x8C379A000000000000000000000000000000000000000000000000000000000 DUP2 MSTORE PUSH1 0x4 ADD PUSH2 0xE7A SWAP1 PUSH2 0x4B96 JUMP JUMPDEST PUSH1 0x40 MLOAD DUP1 SWAP2 SUB SWAP1 REVERT JUMPDEST DUP1 SWAP2 POP POP SWAP2 SWAP1 POP JUMP JUMPDEST PUSH1 0x11 PUSH1 0x20 MSTORE DUP1 PUSH1 0x0 MSTORE PUSH1 0x40 PUSH1 0x0 KECCAK256 PUSH1 0x0 SWAP2 POP SLOAD SWAP1 PUSH2 0x100 EXP SWAP1 DIV PUSH1 0xFF AND DUP2 JUMP JUMPDEST PUSH1 0x0 DUP1 PUSH20 0xFFFFFFFFFFFFFFFFFFFFFFFFFFFFFFFFFFFFFFFF AND DUP3 PUSH20 0xFFFFFFFFFFFFFFFFFFFFFFFFFFFFFFFFFFFFFFFF AND SUB PUSH2 0xF1C JUMPI PUSH1 0x40 MLOAD PUSH32 0x8C379A000000000000000000000000000000000000000000000000000000000 DUP2 MSTORE PUSH1 0x4 ADD PUSH2 0xF13 SWAP1 PUSH2 0x4C28 JUMP JUMPDEST PUSH1 0x40 MLOAD DUP1 SWAP2 SUB SWAP1 REVERT JUMPDEST PUSH1 0x3 PUSH1 0x0 DUP4 PUSH20 0xFFFFFFFFFFFFFFFFFFFFFFFFFFFFFFFFFFFFFFFF AND PUSH20 0xFFFFFFFFFFFFFFFFFFFFFFFFFFFFFFFFFFFFFFFF AND DUP2 MSTORE PUSH1 0x20 ADD SWAP1 DUP2 MSTORE PUSH1 0x20 ADD PUSH1 0x0 KECCAK256 SLOAD SWAP1 POP SWAP2 SWAP1 POP JUMP JUMPDEST PUSH2 0xF6B PUSH2 0x1E14 JUMP JUMPDEST DUP1 PUSH1 0xD PUSH1 0x0 PUSH2 0x100 EXP DUP2 SLOAD DUP2 PUSH20 0xFFFFFFFFFFFFFFFFFFFFFFFFFFFFFFFFFFFFFFFF MUL NOT AND SWAP1 DUP4 PUSH20 0xFFFFFFFFFFFFFFFFFFFFFFFFFFFFFFFFFFFFFFFF AND MUL OR SWAP1 SSTORE POP POP JUMP JUMPDEST PUSH2 0xFB7 PUSH2 0x1E14 JUMP JUMPDEST PUSH2 0xFC1 PUSH1 0x0 PUSH2 0x23CD JUMP JUMPDEST JUMP JUMPDEST PUSH1 0x60 PUSH1 0xE PUSH1 0x0 DUP4 PUSH20 0xFFFFFFFFFFFFFFFFFFFFFFFFFFFFFFFFFFFFFFFF AND PUSH20 0xFFFFFFFFFFFFFFFFFFFFFFFFFFFFFFFFFFFFFFFF AND DUP2 MSTORE PUSH1 0x20 ADD SWAP1 DUP2 MSTORE PUSH1 0x20 ADD PUSH1 0x0 KECCAK256 DUP1 SLOAD DUP1 PUSH1 0x20 MUL PUSH1 0x20 ADD PUSH1 0x40 MLOAD SWAP1 DUP2 ADD PUSH1 0x40 MSTORE DUP1 SWAP3 SWAP2 SWAP1 DUP2 DUP2 MSTORE PUSH1 0x20 ADD DUP3 DUP1 SLOAD DUP1 ISZERO PUSH2 0x104E JUMPI PUSH1 0x20 MUL DUP3 ADD SWAP2 SWAP1 PUSH1 0x0 MSTORE PUSH1 0x20 PUSH1 0x0 KECCAK256 SWAP1 JUMPDEST DUP2 SLOAD DUP2 MSTORE PUSH1 0x20 ADD SWAP1 PUSH1 0x1 ADD SWAP1 DUP1 DUP4 GT PUSH2 0x103A JUMPI JUMPDEST POP POP POP POP POP SWAP1 POP SWAP2 SWAP1 POP JUMP JUMPDEST PUSH1 0x60 PUSH1 0x0 JUMPDEST PUSH1 0xC DUP1 SLOAD SWAP1 POP DUP2 LT ISZERO PUSH2 0x114D JUMPI PUSH1 0xC DUP2 DUP2 SLOAD DUP2 LT PUSH2 0x1080 JUMPI PUSH2 0x107F PUSH2 0x4C48 JUMP JUMPDEST JUMPDEST SWAP1 PUSH1 0x0 MSTORE PUSH1 0x20 PUSH1 0x0 KECCAK256 ADD SLOAD DUP4 GT PUSH2 0x1140 JUMPI PUSH1 0xB DUP2 DUP2 SLOAD DUP2 LT PUSH2 0x10A5 JUMPI PUSH2 0x10A4 PUSH2 0x4C48 JUMP JUMPDEST JUMPDEST SWAP1 PUSH1 0x0 MSTORE PUSH1 0x20 PUSH1 0x0 KECCAK256 ADD DUP1 SLOAD PUSH2 0x10BA SWAP1 PUSH2 0x488B JUMP JUMPDEST DUP1 PUSH1 0x1F ADD PUSH1 0x20 DUP1 SWAP2 DIV MUL PUSH1 0x20 ADD PUSH1 0x40 MLOAD SWAP1 DUP2 ADD PUSH1 0x40 MSTORE DUP1 SWAP3 SWAP2 SWAP1 DUP2 DUP2 MSTORE PUSH1 0x20 ADD DUP3 DUP1 SLOAD PUSH2 0x10E6 SWAP1 PUSH2 0x488B JUMP JUMPDEST DUP1 ISZERO PUSH2 0x1133 JUMPI DUP1 PUSH1 0x1F LT PUSH2 0x1108 JUMPI PUSH2 0x100 DUP1 DUP4 SLOAD DIV MUL DUP4 MSTORE SWAP2 PUSH1 0x20 ADD SWAP2 PUSH2 0x1133 JUMP JUMPDEST DUP3 ADD SWAP2 SWAP1 PUSH1 0x0 MSTORE PUSH1 0x20 PUSH1 0x0 KECCAK256 SWAP1 JUMPDEST DUP2 SLOAD DUP2 MSTORE SWAP1 PUSH1 0x1 ADD SWAP1 PUSH1 0x20 ADD DUP1 DUP4 GT PUSH2 0x1116 JUMPI DUP3 SWAP1 SUB PUSH1 0x1F AND DUP3 ADD SWAP2 JUMPDEST POP POP POP POP POP SWAP2 POP POP PUSH2 0x1209 JUMP JUMPDEST DUP1 DUP1 PUSH1 0x1 ADD SWAP2 POP POP PUSH2 0x105F JUMP JUMPDEST POP PUSH1 0xB PUSH1 0x1 PUSH1 0xB DUP1 SLOAD SWAP1 POP PUSH2 0x1162 SWAP2 SWAP1 PUSH2 0x4CA6 JUMP JUMPDEST DUP2 SLOAD DUP2 LT PUSH2 0x1173 JUMPI PUSH2 0x1172 PUSH2 0x4C48 JUMP JUMPDEST JUMPDEST SWAP1 PUSH1 0x0 MSTORE PUSH1 0x20 PUSH1 0x0 KECCAK256 ADD DUP1 SLOAD PUSH2 0x1188 SWAP1 PUSH2 0x488B JUMP JUMPDEST DUP1 PUSH1 0x1F ADD PUSH1 0x20 DUP1 SWAP2 DIV MUL PUSH1 0x20 ADD PUSH1 0x40 MLOAD SWAP1 DUP2 ADD PUSH1 0x40 MSTORE DUP1 SWAP3 SWAP2 SWAP1 DUP2 DUP2 MSTORE PUSH1 0x20 ADD DUP3 DUP1 SLOAD PUSH2 0x11B4 SWAP1 PUSH2 0x488B JUMP JUMPDEST DUP1 ISZERO PUSH2 0x1201 JUMPI DUP1 PUSH1 0x1F LT PUSH2 0x11D6 JUMPI PUSH2 0x100 DUP1 DUP4 SLOAD DIV MUL DUP4 MSTORE SWAP2 PUSH1 0x20 ADD SWAP2 PUSH2 0x1201 JUMP JUMPDEST DUP3 ADD SWAP2 SWAP1 PUSH1 0x0 MSTORE PUSH1 0x20 PUSH1 0x0 KECCAK256 SWAP1 JUMPDEST DUP2 SLOAD DUP2 MSTORE SWAP1 PUSH1 0x1 ADD SWAP1 PUSH1 0x20 ADD DUP1 DUP4 GT PUSH2 0x11E4 JUMPI DUP3 SWAP1 SUB PUSH1 0x1F AND DUP3 ADD SWAP2 JUMPDEST POP POP POP POP POP SWAP1 POP JUMPDEST SWAP2 SWAP1 POP JUMP JUMPDEST PUSH1 0x0 PUSH1 0x60 DUP1 PUSH1 0x0 DUP1 PUSH1 0x0 PUSH1 0x60 PUSH2 0x124E PUSH1 0x8 PUSH32 0x0 PUSH2 0x2493 SWAP1 SWAP2 SWAP1 PUSH4 0xFFFFFFFF AND JUMP JUMPDEST PUSH2 0x1282 PUSH1 0x9 PUSH32 0x0 PUSH2 0x2493 SWAP1 SWAP2 SWAP1 PUSH4 0xFFFFFFFF AND JUMP JUMPDEST CHAINID ADDRESS PUSH1 0x0 DUP1 SHL PUSH1 0x0 PUSH8 0xFFFFFFFFFFFFFFFF DUP2 GT ISZERO PUSH2 0x12A3 JUMPI PUSH2 0x12A2 PUSH2 0x4190 JUMP JUMPDEST JUMPDEST PUSH1 0x40 MLOAD SWAP1 DUP1 DUP3 MSTORE DUP1 PUSH1 0x20 MUL PUSH1 0x20 ADD DUP3 ADD PUSH1 0x40 MSTORE DUP1 ISZERO PUSH2 0x12D1 JUMPI DUP2 PUSH1 0x20 ADD PUSH1 0x20 DUP3 MUL DUP1 CALLDATASIZE DUP4 CALLDATACOPY DUP1 DUP3 ADD SWAP2 POP POP SWAP1 POP JUMPDEST POP PUSH32 0xF00000000000000000000000000000000000000000000000000000000000000 SWAP6 SWAP5 SWAP4 SWAP3 SWAP2 SWAP1 SWAP7 POP SWAP7 POP SWAP7 POP SWAP7 POP SWAP7 POP SWAP7 POP SWAP7 POP SWAP1 SWAP2 SWAP3 SWAP4 SWAP5 SWAP6 SWAP7 JUMP JUMPDEST PUSH1 0x0 PUSH1 0x7 PUSH1 0x0 SWAP1 SLOAD SWAP1 PUSH2 0x100 EXP SWAP1 DIV PUSH20 0xFFFFFFFFFFFFFFFFFFFFFFFFFFFFFFFFFFFFFFFF AND SWAP1 POP SWAP1 JUMP JUMPDEST PUSH1 0xF PUSH1 0x20 MSTORE DUP1 PUSH1 0x0 MSTORE PUSH1 0x40 PUSH1 0x0 KECCAK256 PUSH1 0x0 SWAP2 POP SWAP1 POP SLOAD DUP2 JUMP JUMPDEST PUSH1 0x60 PUSH1 0x1 DUP1 SLOAD PUSH2 0x1361 SWAP1 PUSH2 0x488B JUMP JUMPDEST DUP1 PUSH1 0x1F ADD PUSH1 0x20 DUP1 SWAP2 DIV MUL PUSH1 0x20 ADD PUSH1 0x40 MLOAD SWAP1 DUP2 ADD PUSH1 0x40 MSTORE DUP1 SWAP3 SWAP2 SWAP1 DUP2 DUP2 MSTORE PUSH1 0x20 ADD DUP3 DUP1 SLOAD PUSH2 0x138D SWAP1 PUSH2 0x488B JUMP JUMPDEST DUP1 ISZERO PUSH2 0x13DA JUMPI DUP1 PUSH1 0x1F LT PUSH2 0x13AF JUMPI PUSH2 0x100 DUP1 DUP4 SLOAD DIV MUL DUP4 MSTORE SWAP2 PUSH1 0x20 ADD SWAP2 PUSH2 0x13DA JUMP JUMPDEST DUP3 ADD SWAP2 SWAP1 PUSH1 0x0 MSTORE PUSH1 0x20 PUSH1 0x0 KECCAK256 SWAP1 JUMPDEST DUP2 SLOAD DUP2 MSTORE SWAP1 PUSH1 0x1 ADD SWAP1 PUSH1 0x20 ADD DUP1 DUP4 GT PUSH2 0x13BD JUMPI DUP3 SWAP1 SUB PUSH1 0x1F AND DUP3 ADD SWAP2 JUMPDEST POP POP POP POP POP SWAP1 POP SWAP1 JUMP JUMPDEST PUSH1 0x0 PUSH8 0x16345785D8A0000 CALLVALUE EQ PUSH2 0x1430 JUMPI PUSH1 0x40 MLOAD PUSH32 0x8C379A000000000000000000000000000000000000000000000000000000000 DUP2 MSTORE PUSH1 0x4 ADD PUSH2 0x1427 SWAP1 PUSH2 0x4D4C JUMP JUMPDEST PUSH1 0x40 MLOAD DUP1 SWAP2 SUB SWAP1 REVERT JUMPDEST PUSH1 0x11 PUSH1 0x0 DUP6 DUP2 MSTORE PUSH1 0x20 ADD SWAP1 DUP2 MSTORE PUSH1 0x20 ADD PUSH1 0x0 KECCAK256 PUSH1 0x0 SWAP1 SLOAD SWAP1 PUSH2 0x100 EXP SWAP1 DIV PUSH1 0xFF AND ISZERO PUSH2 0x1491 JUMPI PUSH1 0x40 MLOAD PUSH32 0x8C379A000000000000000000000000000000000000000000000000000000000 DUP2 MSTORE PUSH1 0x4 ADD PUSH2 0x1488 SWAP1 PUSH2 0x4DDE JUMP JUMPDEST PUSH1 0x40 MLOAD DUP1 SWAP2 SUB SWAP1 REVERT JUMPDEST DUP3 TIMESTAMP GT ISZERO PUSH2 0x14D4 JUMPI PUSH1 0x40 MLOAD PUSH32 0x8C379A000000000000000000000000000000000000000000000000000000000 DUP2 MSTORE PUSH1 0x4 ADD PUSH2 0x14CB SWAP1 PUSH2 0x4E70 JUMP JUMPDEST PUSH1 0x40 MLOAD DUP1 SWAP2 SUB SWAP1 REVERT JUMPDEST PUSH1 0x0 PUSH20 0xFFFFFFFFFFFFFFFFFFFFFFFFFFFFFFFFFFFFFFFF AND PUSH1 0x10 PUSH1 0x0 SWAP1 SLOAD SWAP1 PUSH2 0x100 EXP SWAP1 DIV PUSH20 0xFFFFFFFFFFFFFFFFFFFFFFFFFFFFFFFFFFFFFFFF AND PUSH20 0xFFFFFFFFFFFFFFFFFFFFFFFFFFFFFFFFFFFFFFFF AND SUB PUSH2 0x1565 JUMPI PUSH1 0x40 MLOAD PUSH32 0x8C379A000000000000000000000000000000000000000000000000000000000 DUP2 MSTORE PUSH1 0x4 ADD PUSH2 0x155C SWAP1 PUSH2 0x4F02 JUMP JUMPDEST PUSH1 0x40 MLOAD DUP1 SWAP2 SUB SWAP1 REVERT JUMPDEST PUSH1 0x0 PUSH32 0xDAE91518613992EB9E3C834BE8549C9AE0E18F5A5DF012FCA6A52D21037E1CCE DUP8 DUP8 DUP8 DUP8 ADDRESS PUSH1 0x40 MLOAD PUSH1 0x20 ADD PUSH2 0x15A2 SWAP7 SWAP6 SWAP5 SWAP4 SWAP3 SWAP2 SWAP1 PUSH2 0x4F22 JUMP JUMPDEST PUSH1 0x40 MLOAD PUSH1 0x20 DUP2 DUP4 SUB SUB DUP2 MSTORE SWAP1 PUSH1 0x40 MSTORE DUP1 MLOAD SWAP1 PUSH1 0x20 ADD KECCAK256 SWAP1 POP PUSH1 0x0 PUSH2 0x15C5 DUP3 PUSH2 0x2543 JUMP JUMPDEST SWAP1 POP PUSH1 0x0 PUSH2 0x15D3 DUP3 DUP7 PUSH2 0x255D JUMP JUMPDEST SWAP1 POP PUSH1 0x10 PUSH1 0x0 SWAP1 SLOAD SWAP1 PUSH2 0x100 EXP SWAP1 DIV PUSH20 0xFFFFFFFFFFFFFFFFFFFFFFFFFFFFFFFFFFFFFFFF AND PUSH20 0xFFFFFFFFFFFFFFFFFFFFFFFFFFFFFFFFFFFFFFFF AND DUP2 PUSH20 0xFFFFFFFFFFFFFFFFFFFFFFFFFFFFFFFFFFFFFFFF AND EQ PUSH2 0x1665 JUMPI PUSH1 0x40 MLOAD PUSH32 0x8C379A000000000000000000000000000000000000000000000000000000000 DUP2 MSTORE PUSH1 0x4 ADD PUSH2 0x165C SWAP1 PUSH2 0x4FF5 JUMP JUMPDEST PUSH1 0x40 MLOAD DUP1 SWAP2 SUB SWAP1 REVERT JUMPDEST PUSH1 0x1 PUSH1 0x11 PUSH1 0x0 DUP10 DUP2 MSTORE PUSH1 0x20 ADD SWAP1 DUP2 MSTORE PUSH1 0x20 ADD PUSH1 0x0 KECCAK256 PUSH1 0x0 PUSH2 0x100 EXP DUP2 SLOAD DUP2 PUSH1 0xFF MUL NOT AND SWAP1 DUP4 ISZERO ISZERO MUL OR SWAP1 SSTORE POP PUSH2 0x169B PUSH1 0xA PUSH2 0x2584 JUMP JUMPDEST PUSH1 0x0 PUSH2 0x16A7 PUSH1 0xA PUSH2 0x259A JUMP JUMPDEST SWAP1 POP PUSH2 0x16B3 DUP11 DUP3 PUSH2 0x25A8 JUMP JUMPDEST DUP9 PUSH1 0xF PUSH1 0x0 DUP4 DUP2 MSTORE PUSH1 0x20 ADD SWAP1 DUP2 MSTORE PUSH1 0x20 ADD PUSH1 0x0 KECCAK256 DUP2 SWAP1 SSTORE POP PUSH1 0xE PUSH1 0x0 DUP12 PUSH20 0xFFFFFFFFFFFFFFFFFFFFFFFFFFFFFFFFFFFFFFFF AND PUSH20 0xFFFFFFFFFFFFFFFFFFFFFFFFFFFFFFFFFFFFFFFF AND DUP2 MSTORE PUSH1 0x20 ADD SWAP1 DUP2 MSTORE PUSH1 0x20 ADD PUSH1 0x0 KECCAK256 DUP2 SWAP1 DUP1 PUSH1 0x1 DUP2 SLOAD ADD DUP1 DUP3 SSTORE DUP1 SWAP2 POP POP PUSH1 0x1 SWAP1 SUB SWAP1 PUSH1 0x0 MSTORE PUSH1 0x20 PUSH1 0x0 KECCAK256 ADD PUSH1 0x0 SWAP1 SWAP2 SWAP1 SWAP2 SWAP1 SWAP2 POP SSTORE PUSH1 0x0 PUSH2 0x173D DUP3 DUP12 PUSH2 0x27C5 JUMP JUMPDEST SWAP1 POP PUSH2 0x1749 DUP3 DUP3 PUSH2 0x2906 JUMP JUMPDEST PUSH1 0x0 PUSH2 0x1754 DUP12 PUSH2 0x105A JUMP JUMPDEST SWAP1 POP DUP3 DUP13 PUSH20 0xFFFFFFFFFFFFFFFFFFFFFFFFFFFFFFFFFFFFFFFF AND PUSH32 0xAFDFB2EF08FDDA205CE9E4173A5A15381D9F9187EC2122B9C46E53B253EE2E39 DUP14 DUP5 DUP15 PUSH1 0x40 MLOAD PUSH2 0x17A1 SWAP4 SWAP3 SWAP2 SWAP1 PUSH2 0x5015 JUMP JUMPDEST PUSH1 0x40 MLOAD DUP1 SWAP2 SUB SWAP1 LOG3 DUP3 SWAP7 POP POP POP POP POP POP POP SWAP6 SWAP5 POP POP POP POP POP JUMP JUMPDEST PUSH1 0xD PUSH1 0x0 SWAP1 SLOAD SWAP1 PUSH2 0x100 EXP SWAP1 DIV PUSH20 0xFFFFFFFFFFFFFFFFFFFFFFFFFFFFFFFFFFFFFFFF AND DUP2 JUMP JUMPDEST PUSH2 0x17F3 PUSH2 0x17EC PUSH2 0x1F00 JUMP JUMPDEST DUP4 DUP4 PUSH2 0x29AA JUMP JUMPDEST POP POP JUMP JUMPDEST PUSH2 0x17FF PUSH2 0x1E14 JUMP JUMPDEST DUP1 MLOAD DUP3 MLOAD EQ PUSH2 0x1843 JUMPI PUSH1 0x40 MLOAD PUSH32 0x8C379A000000000000000000000000000000000000000000000000000000000 DUP2 MSTORE PUSH1 0x4 ADD PUSH2 0x183A SWAP1 PUSH2 0x50C5 JUMP JUMPDEST PUSH1 0x40 MLOAD DUP1 SWAP2 SUB SWAP1 REVERT JUMPDEST PUSH1 0x0 DUP3 MLOAD GT PUSH2 0x1887 JUMPI PUSH1 0x40 MLOAD PUSH32 0x8C379A000000000000000000000000000000000000000000000000000000000 DUP2 MSTORE PUSH1 0x4 ADD PUSH2 0x187E SWAP1 PUSH2 0x5131 JUMP JUMPDEST PUSH1 0x40 MLOAD DUP1 SWAP2 SUB SWAP1 REVERT JUMPDEST PUSH1 0x0 JUMPDEST PUSH1 0x1 DUP3 MLOAD PUSH2 0x1898 SWAP2 SWAP1 PUSH2 0x4CA6 JUMP JUMPDEST DUP2 LT ISZERO PUSH2 0x192E JUMPI DUP2 PUSH1 0x1 DUP3 PUSH2 0x18AD SWAP2 SWAP1 PUSH2 0x5151 JUMP JUMPDEST DUP2 MLOAD DUP2 LT PUSH2 0x18BE JUMPI PUSH2 0x18BD PUSH2 0x4C48 JUMP JUMPDEST JUMPDEST PUSH1 0x20 MUL PUSH1 0x20 ADD ADD MLOAD DUP3 DUP3 DUP2 MLOAD DUP2 LT PUSH2 0x18D9 JUMPI PUSH2 0x18D8 PUSH2 0x4C48 JUMP JUMPDEST JUMPDEST PUSH1 0x20 MUL PUSH1 0x20 ADD ADD MLOAD LT PUSH2 0x1921 JUMPI PUSH1 0x40 MLOAD PUSH32 0x8C379A000000000000000000000000000000000000000000000000000000000 DUP2 MSTORE PUSH1 0x4 ADD PUSH2 0x1918 SWAP1 PUSH2 0x51F7 JUMP JUMPDEST PUSH1 0x40 MLOAD DUP1 SWAP2 SUB SWAP1 REVERT JUMPDEST DUP1 DUP1 PUSH1 0x1 ADD SWAP2 POP POP PUSH2 0x188A JUMP JUMPDEST POP DUP2 PUSH1 0xB SWAP1 DUP1 MLOAD SWAP1 PUSH1 0x20 ADD SWAP1 PUSH2 0x1945 SWAP3 SWAP2 SWAP1 PUSH2 0x3B51 JUMP JUMPDEST POP DUP1 PUSH1 0xC SWAP1 DUP1 MLOAD SWAP1 PUSH1 0x20 ADD SWAP1 PUSH2 0x195C SWAP3 SWAP2 SWAP1 PUSH2 0x3BAA JUMP JUMPDEST POP PUSH32 0xAB994C28C46C4E2D7156BC29C3CE682EB77B03728871A6E80F81B5A734558FB3 DUP3 DUP3 PUSH1 0x40 MLOAD PUSH2 0x198E SWAP3 SWAP2 SWAP1 PUSH2 0x5323 JUMP JUMPDEST PUSH1 0x40 MLOAD DUP1 SWAP2 SUB SWAP1 LOG1 POP POP JUMP JUMPDEST PUSH2 0x19AB PUSH2 0x19A5 PUSH2 0x1F00 JUMP JUMPDEST DUP4 PUSH2 0x1FC1 JUMP JUMPDEST PUSH2 0x19EA JUMPI PUSH1 0x40 MLOAD PUSH32 0x8C379A000000000000000000000000000000000000000000000000000000000 DUP2 MSTORE PUSH1 0x4 ADD PUSH2 0x19E1 SWAP1 PUSH2 0x4A52 JUMP JUMPDEST PUSH1 0x40 MLOAD DUP1 SWAP2 SUB SWAP1 REVERT JUMPDEST PUSH2 0x19F6 DUP5 DUP5 DUP5 DUP5 PUSH2 0x2B16 JUMP JUMPDEST POP POP POP POP JUMP JUMPDEST PUSH8 0x16345785D8A0000 DUP2 JUMP JUMPDEST PUSH1 0x60 PUSH2 0x1A13 DUP3 PUSH2 0x1EB5 JUMP JUMPDEST PUSH1 0x0 PUSH1 0x6 PUSH1 0x0 DUP5 DUP2 MSTORE PUSH1 0x20 ADD SWAP1 DUP2 MSTORE PUSH1 0x20 ADD PUSH1 0x0 KECCAK256 DUP1 SLOAD PUSH2 0x1A33 SWAP1 PUSH2 0x488B JUMP JUMPDEST DUP1 PUSH1 0x1F ADD PUSH1 0x20 DUP1 SWAP2 DIV MUL PUSH1 0x20 ADD PUSH1 0x40 MLOAD SWAP1 DUP2 ADD PUSH1 0x40 MSTORE DUP1 SWAP3 SWAP2 SWAP1 DUP2 DUP2 MSTORE PUSH1 0x20 ADD DUP3 DUP1 SLOAD PUSH2 0x1A5F SWAP1 PUSH2 0x488B JUMP JUMPDEST DUP1 ISZERO PUSH2 0x1AAC JUMPI DUP1 PUSH1 0x1F LT PUSH2 0x1A81 JUMPI PUSH2 0x100 DUP1 DUP4 SLOAD DIV MUL DUP4 MSTORE SWAP2 PUSH1 0x20 ADD SWAP2 PUSH2 0x1AAC JUMP JUMPDEST DUP3 ADD SWAP2 SWAP1 PUSH1 0x0 MSTORE PUSH1 0x20 PUSH1 0x0 KECCAK256 SWAP1 JUMPDEST DUP2 SLOAD DUP2 MSTORE SWAP1 PUSH1 0x1 ADD SWAP1 PUSH1 0x20 ADD DUP1 DUP4 GT PUSH2 0x1A8F JUMPI DUP3 SWAP1 SUB PUSH1 0x1F AND DUP3 ADD SWAP2 JUMPDEST POP POP POP POP POP SWAP1 POP PUSH1 0x0 PUSH2 0x1ABD PUSH2 0x2B72 JUMP JUMPDEST SWAP1 POP PUSH1 0x0 DUP2 MLOAD SUB PUSH2 0x1AD2 JUMPI DUP2 SWAP3 POP POP POP PUSH2 0x1B15 JUMP JUMPDEST PUSH1 0x0 DUP3 MLOAD GT ISZERO PUSH2 0x1B07 JUMPI DUP1 DUP3 PUSH1 0x40 MLOAD PUSH1 0x20 ADD PUSH2 0x1AEF SWAP3 SWAP2 SWAP1 PUSH2 0x5396 JUMP JUMPDEST PUSH1 0x40 MLOAD PUSH1 0x20 DUP2 DUP4 SUB SUB DUP2 MSTORE SWAP1 PUSH1 0x40 MSTORE SWAP3 POP POP POP PUSH2 0x1B15 JUMP JUMPDEST PUSH2 0x1B10 DUP5 PUSH2 0x2B89 JUMP JUMPDEST SWAP3 POP POP POP JUMPDEST SWAP2 SWAP1 POP JUMP JUMPDEST PUSH1 0xB DUP2 DUP2 SLOAD DUP2 LT PUSH2 0x1B2A JUMPI PUSH1 0x0 DUP1 REVERT JUMPDEST SWAP1 PUSH1 0x0 MSTORE PUSH1 0x20 PUSH1 0x0 KECCAK256 ADD PUSH1 0x0 SWAP2 POP SWAP1 POP DUP1 SLOAD PUSH2 0x1B45 SWAP1 PUSH2 0x488B JUMP JUMPDEST DUP1 PUSH1 0x1F ADD PUSH1 0x20 DUP1 SWAP2 DIV MUL PUSH1 0x20 ADD PUSH1 0x40 MLOAD SWAP1 DUP2 ADD PUSH1 0x40 MSTORE DUP1 SWAP3 SWAP2 SWAP1 DUP2 DUP2 MSTORE PUSH1 0x20 ADD DUP3 DUP1 SLOAD PUSH2 0x1B71 SWAP1 PUSH2 0x488B JUMP JUMPDEST DUP1 ISZERO PUSH2 0x1BBE JUMPI DUP1 PUSH1 0x1F LT PUSH2 0x1B93 JUMPI PUSH2 0x100 DUP1 DUP4 SLOAD DIV MUL DUP4 MSTORE SWAP2 PUSH1 0x20 ADD SWAP2 PUSH2 0x1BBE JUMP JUMPDEST DUP3 ADD SWAP2 SWAP1 PUSH1 0x0 MSTORE PUSH1 0x20 PUSH1 0x0 KECCAK256 SWAP1 JUMPDEST DUP2 SLOAD DUP2 MSTORE SWAP1 PUSH1 0x1 ADD SWAP1 PUSH1 0x20 ADD DUP1 DUP4 GT PUSH2 0x1BA1 JUMPI DUP3 SWAP1 SUB PUSH1 0x1F AND DUP3 ADD SWAP2 JUMPDEST POP POP POP POP POP DUP2 JUMP JUMPDEST PUSH1 0x0 PUSH1 0x5 PUSH1 0x0 DUP5 PUSH20 0xFFFFFFFFFFFFFFFFFFFFFFFFFFFFFFFFFFFFFFFF AND PUSH20 0xFFFFFFFFFFFFFFFFFFFFFFFFFFFFFFFFFFFFFFFF AND DUP2 MSTORE PUSH1 0x20 ADD SWAP1 DUP2 MSTORE PUSH1 0x20 ADD PUSH1 0x0 KECCAK256 PUSH1 0x0 DUP4 PUSH20 0xFFFFFFFFFFFFFFFFFFFFFFFFFFFFFFFFFFFFFFFF AND PUSH20 0xFFFFFFFFFFFFFFFFFFFFFFFFFFFFFFFFFFFFFFFF AND DUP2 MSTORE PUSH1 0x20 ADD SWAP1 DUP2 MSTORE PUSH1 0x20 ADD PUSH1 0x0 KECCAK256 PUSH1 0x0 SWAP1 SLOAD SWAP1 PUSH2 0x100 EXP SWAP1 DIV PUSH1 0xFF AND SWAP1 POP SWAP3 SWAP2 POP POP JUMP JUMPDEST PUSH2 0x1C62 PUSH2 0x1E14 JUMP JUMPDEST PUSH1 0x0 PUSH20 0xFFFFFFFFFFFFFFFFFFFFFFFFFFFFFFFFFFFFFFFF AND DUP2 PUSH20 0xFFFFFFFFFFFFFFFFFFFFFFFFFFFFFFFFFFFFFFFF AND SUB PUSH2 0x1CD1 JUMPI PUSH1 0x40 MLOAD PUSH32 0x8C379A000000000000000000000000000000000000000000000000000000000 DUP2 MSTORE PUSH1 0x4 ADD PUSH2 0x1CC8 SWAP1 PUSH2 0x542C JUMP JUMPDEST PUSH1 0x40 MLOAD DUP1 SWAP2 SUB SWAP1 REVERT JUMPDEST PUSH2 0x1CDA DUP2 PUSH2 0x23CD JUMP JUMPDEST POP JUMP JUMPDEST PUSH32 0xDAE91518613992EB9E3C834BE8549C9AE0E18F5A5DF012FCA6A52D21037E1CCE DUP2 JUMP JUMPDEST PUSH1 0xE PUSH1 0x20 MSTORE DUP2 PUSH1 0x0 MSTORE PUSH1 0x40 PUSH1 0x0 KECCAK256 DUP2 DUP2 SLOAD DUP2 LT PUSH2 0x1D1D JUMPI PUSH1 0x0 DUP1 REVERT JUMPDEST SWAP1 PUSH1 0x0 MSTORE PUSH1 0x20 PUSH1 0x0 KECCAK256 ADD PUSH1 0x0 SWAP2 POP SWAP2 POP POP SLOAD DUP2 JUMP JUMPDEST PUSH1 0x0 PUSH32 0x80AC58CD00000000000000000000000000000000000000000000000000000000 PUSH28 0xFFFFFFFFFFFFFFFFFFFFFFFFFFFFFFFFFFFFFFFFFFFFFFFFFFFFFFFF NOT AND DUP3 PUSH28 0xFFFFFFFFFFFFFFFFFFFFFFFFFFFFFFFFFFFFFFFFFFFFFFFFFFFFFFFF NOT AND EQ DUP1 PUSH2 0x1DFD JUMPI POP PUSH32 0x5B5E139F00000000000000000000000000000000000000000000000000000000 PUSH28 0xFFFFFFFFFFFFFFFFFFFFFFFFFFFFFFFFFFFFFFFFFFFFFFFFFFFFFFFF NOT AND DUP3 PUSH28 0xFFFFFFFFFFFFFFFFFFFFFFFFFFFFFFFFFFFFFFFFFFFFFFFFFFFFFFFF NOT AND EQ JUMPDEST DUP1 PUSH2 0x1E0D JUMPI POP PUSH2 0x1E0C DUP3 PUSH2 0x2BF1 JUMP JUMPDEST JUMPDEST SWAP1 POP SWAP2 SWAP1 POP JUMP JUMPDEST PUSH2 0x1E1C PUSH2 0x1F00 JUMP JUMPDEST PUSH20 0xFFFFFFFFFFFFFFFFFFFFFFFFFFFFFFFFFFFFFFFF AND PUSH2 0x1E3A PUSH2 0x1310 JUMP JUMPDEST PUSH20 0xFFFFFFFFFFFFFFFFFFFFFFFFFFFFFFFFFFFFFFFF AND EQ PUSH2 0x1E90 JUMPI PUSH1 0x40 MLOAD PUSH32 0x8C379A000000000000000000000000000000000000000000000000000000000 DUP2 MSTORE PUSH1 0x4 ADD PUSH2 0x1E87 SWAP1 PUSH2 0x5498 JUMP JUMPDEST PUSH1 0x40 MLOAD DUP1 SWAP2 SUB SWAP1 REVERT JUMPDEST JUMP JUMPDEST PUSH1 0x0 DUP1 DUP3 PUSH20 0xFFFFFFFFFFFFFFFFFFFFFFFFFFFFFFFFFFFFFFFF AND EXTCODESIZE GT SWAP1 POP SWAP2 SWAP1 POP JUMP JUMPDEST PUSH2 0x1EBE DUP2 PUSH2 0x234F JUMP JUMPDEST PUSH2 0x1EFD JUMPI PUSH1 0x40 MLOAD PUSH32 0x8C379A000000000000000000000000000000000000000000000000000000000 DUP2 MSTORE PUSH1 0x4 ADD PUSH2 0x1EF4 SWAP1 PUSH2 0x4B96 JUMP JUMPDEST PUSH1 0x40 MLOAD DUP1 SWAP2 SUB SWAP1 REVERT JUMPDEST POP JUMP JUMPDEST PUSH1 0x0 CALLER SWAP1 POP SWAP1 JUMP JUMPDEST DUP2 PUSH1 0x4 PUSH1 0x0 DUP4 DUP2 MSTORE PUSH1 0x20 ADD SWAP1 DUP2 MSTORE PUSH1 0x20 ADD PUSH1 0x0 KECCAK256 PUSH1 0x0 PUSH2 0x100 EXP DUP2 SLOAD DUP2 PUSH20 0xFFFFFFFFFFFFFFFFFFFFFFFFFFFFFFFFFFFFFFFF MUL NOT AND SWAP1 DUP4 PUSH20 0xFFFFFFFFFFFFFFFFFFFFFFFFFFFFFFFFFFFFFFFF AND MUL OR SWAP1 SSTORE POP DUP1 DUP3 PUSH20 0xFFFFFFFFFFFFFFFFFFFFFFFFFFFFFFFFFFFFFFFF AND PUSH2 0x1F7B DUP4 PUSH2 0xE06 JUMP JUMPDEST PUSH20 0xFFFFFFFFFFFFFFFFFFFFFFFFFFFFFFFFFFFFFFFF AND PUSH32 0x8C5BE1E5EBEC7D5BD14F71427D1E84F3DD0314C0F7B2291E5B200AC8C7C3B925 PUSH1 0x40 MLOAD PUSH1 0x40 MLOAD DUP1 SWAP2 SUB SWAP1 LOG4 POP POP JUMP JUMPDEST PUSH1 0x0 DUP1 PUSH2 0x1FCD DUP4 PUSH2 0xE06 JUMP JUMPDEST SWAP1 POP DUP1 PUSH20 0xFFFFFFFFFFFFFFFFFFFFFFFFFFFFFFFFFFFFFFFF AND DUP5 PUSH20 0xFFFFFFFFFFFFFFFFFFFFFFFFFFFFFFFFFFFFFFFF AND EQ DUP1 PUSH2 0x200F JUMPI POP PUSH2 0x200E DUP2 DUP6 PUSH2 0x1BC6 JUMP JUMPDEST JUMPDEST DUP1 PUSH2 0x204D JUMPI POP DUP4 PUSH20 0xFFFFFFFFFFFFFFFFFFFFFFFFFFFFFFFFFFFFFFFF AND PUSH2 0x2035 DUP5 PUSH2 0xAD9 JUMP JUMPDEST PUSH20 0xFFFFFFFFFFFFFFFFFFFFFFFFFFFFFFFFFFFFFFFF AND EQ JUMPDEST SWAP2 POP POP SWAP3 SWAP2 POP POP JUMP JUMPDEST DUP3 PUSH20 0xFFFFFFFFFFFFFFFFFFFFFFFFFFFFFFFFFFFFFFFF AND PUSH2 0x2076 DUP3 PUSH2 0xE06 JUMP JUMPDEST PUSH20 0xFFFFFFFFFFFFFFFFFFFFFFFFFFFFFFFFFFFFFFFF AND EQ PUSH2 0x20CC JUMPI PUSH1 0x40 MLOAD PUSH32 0x8C379A000000000000000000000000000000000000000000000000000000000 DUP2 MSTORE PUSH1 0x4 ADD PUSH2 0x20C3 SWAP1 PUSH2 0x552A JUMP JUMPDEST PUSH1 0x40 MLOAD DUP1 SWAP2 SUB SWAP1 REVERT JUMPDEST PUSH1 0x0 PUSH20 0xFFFFFFFFFFFFFFFFFFFFFFFFFFFFFFFFFFFFFFFF AND DUP3 PUSH20 0xFFFFFFFFFFFFFFFFFFFFFFFFFFFFFFFFFFFFFFFF AND SUB PUSH2 0x213B JUMPI PUSH1 0x40 MLOAD PUSH32 0x8C379A000000000000000000000000000000000000000000000000000000000 DUP2 MSTORE PUSH1 0x4 ADD PUSH2 0x2132 SWAP1 PUSH2 0x55BC JUMP JUMPDEST PUSH1 0x40 MLOAD DUP1 SWAP2 SUB SWAP1 REVERT JUMPDEST PUSH2 0x2148 DUP4 DUP4 DUP4 PUSH1 0x1 PUSH2 0x2C5B JUMP JUMPDEST DUP3 PUSH20 0xFFFFFFFFFFFFFFFFFFFFFFFFFFFFFFFFFFFFFFFF AND PUSH2 0x2168 DUP3 PUSH2 0xE06 JUMP JUMPDEST PUSH20 0xFFFFFFFFFFFFFFFFFFFFFFFFFFFFFFFFFFFFFFFF AND EQ PUSH2 0x21BE JUMPI PUSH1 0x40 MLOAD PUSH32 0x8C379A000000000000000000000000000000000000000000000000000000000 DUP2 MSTORE PUSH1 0x4 ADD PUSH2 0x21B5 SWAP1 PUSH2 0x552A JUMP JUMPDEST PUSH1 0x40 MLOAD DUP1 SWAP2 SUB SWAP1 REVERT JUMPDEST PUSH1 0x4 PUSH1 0x0 DUP3 DUP2 MSTORE PUSH1 0x20 ADD SWAP1 DUP2 MSTORE PUSH1 0x20 ADD PUSH1 0x0 KECCAK256 PUSH1 0x0 PUSH2 0x100 EXP DUP2 SLOAD SWAP1 PUSH20 0xFFFFFFFFFFFFFFFFFFFFFFFFFFFFFFFFFFFFFFFF MUL NOT AND SWAP1 SSTORE PUSH1 0x1 PUSH1 0x3 PUSH1 0x0 DUP6 PUSH20 0xFFFFFFFFFFFFFFFFFFFFFFFFFFFFFFFFFFFFFFFF AND PUSH20 0xFFFFFFFFFFFFFFFFFFFFFFFFFFFFFFFFFFFFFFFF AND DUP2 MSTORE PUSH1 0x20 ADD SWAP1 DUP2 MSTORE PUSH1 0x20 ADD PUSH1 0x0 KECCAK256 PUSH1 0x0 DUP3 DUP3 SLOAD SUB SWAP3 POP POP DUP2 SWAP1 SSTORE POP PUSH1 0x1 PUSH1 0x3 PUSH1 0x0 DUP5 PUSH20 0xFFFFFFFFFFFFFFFFFFFFFFFFFFFFFFFFFFFFFFFF AND PUSH20 0xFFFFFFFFFFFFFFFFFFFFFFFFFFFFFFFFFFFFFFFF AND DUP2 MSTORE PUSH1 0x20 ADD SWAP1 DUP2 MSTORE PUSH1 0x20 ADD PUSH1 0x0 KECCAK256 PUSH1 0x0 DUP3 DUP3 SLOAD ADD SWAP3 POP POP DUP2 SWAP1 SSTORE POP DUP2 PUSH1 0x2 PUSH1 0x0 DUP4 DUP2 MSTORE PUSH1 0x20 ADD SWAP1 DUP2 MSTORE PUSH1 0x20 ADD PUSH1 0x0 KECCAK256 PUSH1 0x0 PUSH2 0x100 EXP DUP2 SLOAD DUP2 PUSH20 0xFFFFFFFFFFFFFFFFFFFFFFFFFFFFFFFFFFFFFFFF MUL NOT AND SWAP1 DUP4 PUSH20 0xFFFFFFFFFFFFFFFFFFFFFFFFFFFFFFFFFFFFFFFF AND MUL OR SWAP1 SSTORE POP DUP1 DUP3 PUSH20 0xFFFFFFFFFFFFFFFFFFFFFFFFFFFFFFFFFFFFFFFF AND DUP5 PUSH20 0xFFFFFFFFFFFFFFFFFFFFFFFFFFFFFFFFFFFFFFFF AND PUSH32 0xDDF252AD1BE2C89B69C2B068FC378DAA952BA7F163C4A11628F55A4DF523B3EF PUSH1 0x40 MLOAD PUSH1 0x40 MLOAD DUP1 SWAP2 SUB SWAP1 LOG4 PUSH2 0x234A DUP4 DUP4 DUP4 PUSH1 0x1 PUSH2 0x2C61 JUMP JUMPDEST POP POP POP JUMP JUMPDEST PUSH1 0x0 DUP1 PUSH20 0xFFFFFFFFFFFFFFFFFFFFFFFFFFFFFFFFFFFFFFFF AND PUSH2 0x2371 DUP4 PUSH2 0x2390 JUMP JUMPDEST PUSH20 0xFFFFFFFFFFFFFFFFFFFFFFFFFFFFFFFFFFFFFFFF AND EQ ISZERO SWAP1 POP SWAP2 SWAP1 POP JUMP JUMPDEST PUSH1 0x0 PUSH1 0x2 PUSH1 0x0 DUP4 DUP2 MSTORE PUSH1 0x20 ADD SWAP1 DUP2 MSTORE PUSH1 0x20 ADD PUSH1 0x0 KECCAK256 PUSH1 0x0 SWAP1 SLOAD SWAP1 PUSH2 0x100 EXP SWAP1 DIV PUSH20 0xFFFFFFFFFFFFFFFFFFFFFFFFFFFFFFFFFFFFFFFF AND SWAP1 POP SWAP2 SWAP1 POP JUMP JUMPDEST PUSH1 0x0 PUSH1 0x7 PUSH1 0x0 SWAP1 SLOAD SWAP1 PUSH2 0x100 EXP SWAP1 DIV PUSH20 0xFFFFFFFFFFFFFFFFFFFFFFFFFFFFFFFFFFFFFFFF AND SWAP1 POP DUP2 PUSH1 0x7 PUSH1 0x0 PUSH2 0x100 EXP DUP2 SLOAD DUP2 PUSH20 0xFFFFFFFFFFFFFFFFFFFFFFFFFFFFFFFFFFFFFFFF MUL NOT AND SWAP1 DUP4 PUSH20 0xFFFFFFFFFFFFFFFFFFFFFFFFFFFFFFFFFFFFFFFF AND MUL OR SWAP1 SSTORE POP DUP2 PUSH20 0xFFFFFFFFFFFFFFFFFFFFFFFFFFFFFFFFFFFFFFFF AND DUP2 PUSH20 0xFFFFFFFFFFFFFFFFFFFFFFFFFFFFFFFFFFFFFFFF AND PUSH32 0x8BE0079C531659141344CD1FD0A4F28419497F9722A3DAAFE3B4186F6B6457E0 PUSH1 0x40 MLOAD PUSH1 0x40 MLOAD DUP1 SWAP2 SUB SWAP1 LOG3 POP POP JUMP JUMPDEST PUSH1 0x60 PUSH1 0xFF PUSH1 0x0 SHL DUP4 EQ PUSH2 0x24B0 JUMPI PUSH2 0x24A9 DUP4 PUSH2 0x2C67 JUMP JUMPDEST SWAP1 POP PUSH2 0x253D JUMP JUMPDEST DUP2 DUP1 SLOAD PUSH2 0x24BC SWAP1 PUSH2 0x488B JUMP JUMPDEST DUP1 PUSH1 0x1F ADD PUSH1 0x20 DUP1 SWAP2 DIV MUL PUSH1 0x20 ADD PUSH1 0x40 MLOAD SWAP1 DUP2 ADD PUSH1 0x40 MSTORE DUP1 SWAP3 SWAP2 SWAP1 DUP2 DUP2 MSTORE PUSH1 0x20 ADD DUP3 DUP1 SLOAD PUSH2 0x24E8 SWAP1 PUSH2 0x488B JUMP JUMPDEST DUP1 ISZERO PUSH2 0x2535 JUMPI DUP1 PUSH1 0x1F LT PUSH2 0x250A JUMPI PUSH2 0x100 DUP1 DUP4 SLOAD DIV MUL DUP4 MSTORE SWAP2 PUSH1 0x20 ADD SWAP2 PUSH2 0x2535 JUMP JUMPDEST DUP3 ADD SWAP2 SWAP1 PUSH1 0x0 MSTORE PUSH1 0x20 PUSH1 0x0 KECCAK256 SWAP1 JUMPDEST DUP2 SLOAD DUP2 MSTORE SWAP1 PUSH1 0x1 ADD SWAP1 PUSH1 0x20 ADD DUP1 DUP4 GT PUSH2 0x2518 JUMPI DUP3 SWAP1 SUB PUSH1 0x1F AND DUP3 ADD SWAP2 JUMPDEST POP POP POP POP POP SWAP1 POP JUMPDEST SWAP3 SWAP2 POP POP JUMP JUMPDEST PUSH1 0x0 PUSH2 0x2556 PUSH2 0x2550 PUSH2 0x2CDB JUMP JUMPDEST DUP4 PUSH2 0x2D92 JUMP JUMPDEST SWAP1 POP SWAP2 SWAP1 POP JUMP JUMPDEST PUSH1 0x0 DUP1 PUSH1 0x0 PUSH2 0x256C DUP6 DUP6 PUSH2 0x2DD3 JUMP JUMPDEST SWAP2 POP SWAP2 POP PUSH2 0x2579 DUP2 PUSH2 0x2E24 JUMP JUMPDEST DUP2 SWAP3 POP POP POP SWAP3 SWAP2 POP POP JUMP JUMPDEST PUSH1 0x1 DUP2 PUSH1 0x0 ADD PUSH1 0x0 DUP3 DUP3 SLOAD ADD SWAP3 POP POP DUP2 SWAP1 SSTORE POP POP JUMP JUMPDEST PUSH1 0x0 DUP2 PUSH1 0x0 ADD SLOAD SWAP1 POP SWAP2 SWAP1 POP JUMP JUMPDEST PUSH1 0x0 PUSH20 0xFFFFFFFFFFFFFFFFFFFFFFFFFFFFFFFFFFFFFFFF AND DUP3 PUSH20 0xFFFFFFFFFFFFFFFFFFFFFFFFFFFFFFFFFFFFFFFF AND SUB PUSH2 0x2617 JUMPI PUSH1 0x40 MLOAD PUSH32 0x8C379A000000000000000000000000000000000000000000000000000000000 DUP2 MSTORE PUSH1 0x4 ADD PUSH2 0x260E SWAP1 PUSH2 0x5628 JUMP JUMPDEST PUSH1 0x40 MLOAD DUP1 SWAP2 SUB SWAP1 REVERT JUMPDEST PUSH2 0x2620 DUP2 PUSH2 0x234F JUMP JUMPDEST ISZERO PUSH2 0x2660 JUMPI PUSH1 0x40 MLOAD PUSH32 0x8C379A000000000000000000000000000000000000000000000000000000000 DUP2 MSTORE PUSH1 0x4 ADD PUSH2 0x2657 SWAP1 PUSH2 0x5694 JUMP JUMPDEST PUSH1 0x40 MLOAD DUP1 SWAP2 SUB SWAP1 REVERT JUMPDEST PUSH2 0x266E PUSH1 0x0 DUP4 DUP4 PUSH1 0x1 PUSH2 0x2C5B JUMP JUMPDEST PUSH2 0x2677 DUP2 PUSH2 0x234F JUMP JUMPDEST ISZERO PUSH2 0x26B7 JUMPI PUSH1 0x40 MLOAD PUSH32 0x8C379A000000000000000000000000000000000000000000000000000000000 DUP2 MSTORE PUSH1 0x4 ADD PUSH2 0x26AE SWAP1 PUSH2 0x5694 JUMP JUMPDEST PUSH1 0x40 MLOAD DUP1 SWAP2 SUB SWAP1 REVERT JUMPDEST PUSH1 0x1 PUSH1 0x3 PUSH1 0x0 DUP5 PUSH20 0xFFFFFFFFFFFFFFFFFFFFFFFFFFFFFFFFFFFFFFFF AND PUSH20 0xFFFFFFFFFFFFFFFFFFFFFFFFFFFFFFFFFFFFFFFF AND DUP2 MSTORE PUSH1 0x20 ADD SWAP1 DUP2 MSTORE PUSH1 0x20 ADD PUSH1 0x0 KECCAK256 PUSH1 0x0 DUP3 DUP3 SLOAD ADD SWAP3 POP POP DUP2 SWAP1 SSTORE POP DUP2 PUSH1 0x2 PUSH1 0x0 DUP4 DUP2 MSTORE PUSH1 0x20 ADD SWAP1 DUP2 MSTORE PUSH1 0x20 ADD PUSH1 0x0 KECCAK256 PUSH1 0x0 PUSH2 0x100 EXP DUP2 SLOAD DUP2 PUSH20 0xFFFFFFFFFFFFFFFFFFFFFFFFFFFFFFFFFFFFFFFF MUL NOT AND SWAP1 DUP4 PUSH20 0xFFFFFFFFFFFFFFFFFFFFFFFFFFFFFFFFFFFFFFFF AND MUL OR SWAP1 SSTORE POP DUP1 DUP3 PUSH20 0xFFFFFFFFFFFFFFFFFFFFFFFFFFFFFFFFFFFFFFFF AND PUSH1 0x0 PUSH20 0xFFFFFFFFFFFFFFFFFFFFFFFFFFFFFFFFFFFFFFFF AND PUSH32 0xDDF252AD1BE2C89B69C2B068FC378DAA952BA7F163C4A11628F55A4DF523B3EF PUSH1 0x40 MLOAD PUSH1 0x40 MLOAD DUP1 SWAP2 SUB SWAP1 LOG4 PUSH2 0x27C1 PUSH1 0x0 DUP4 DUP4 PUSH1 0x1 PUSH2 0x2C61 JUMP JUMPDEST POP POP JUMP JUMPDEST PUSH1 0x60 PUSH1 0x0 PUSH2 0x27D3 DUP5 DUP5 PUSH2 0x2F8A JUMP JUMPDEST SWAP1 POP PUSH1 0x0 PUSH2 0x27ED PUSH2 0x3E8 DUP6 PUSH2 0x27E8 SWAP2 SWAP1 PUSH2 0x56E3 JUMP JUMPDEST PUSH2 0x346F JUMP JUMPDEST SWAP1 POP PUSH1 0x0 PUSH2 0x2807 PUSH2 0x3E8 DUP7 PUSH2 0x2802 SWAP2 SWAP1 PUSH2 0x5714 JUMP JUMPDEST PUSH2 0x346F JUMP JUMPDEST SWAP1 POP PUSH1 0xA PUSH2 0x3E8 DUP7 PUSH2 0x2819 SWAP2 SWAP1 PUSH2 0x5714 JUMP JUMPDEST LT ISZERO PUSH2 0x2846 JUMPI DUP1 PUSH1 0x40 MLOAD PUSH1 0x20 ADD PUSH2 0x2830 SWAP2 SWAP1 PUSH2 0x5791 JUMP JUMPDEST PUSH1 0x40 MLOAD PUSH1 0x20 DUP2 DUP4 SUB SUB DUP2 MSTORE SWAP1 PUSH1 0x40 MSTORE SWAP1 POP PUSH2 0x2880 JUMP JUMPDEST PUSH1 0x64 PUSH2 0x3E8 DUP7 PUSH2 0x2856 SWAP2 SWAP1 PUSH2 0x5714 JUMP JUMPDEST LT ISZERO PUSH2 0x287F JUMPI DUP1 PUSH1 0x40 MLOAD PUSH1 0x20 ADD PUSH2 0x286D SWAP2 SWAP1 PUSH2 0x57FF JUMP JUMPDEST PUSH1 0x40 MLOAD PUSH1 0x20 DUP2 DUP4 SUB SUB DUP2 MSTORE SWAP1 PUSH1 0x40 MSTORE SWAP1 POP JUMPDEST JUMPDEST PUSH1 0x0 PUSH2 0x28D8 PUSH2 0x288E DUP9 PUSH2 0x346F JUMP JUMPDEST DUP5 DUP5 PUSH2 0x2899 DUP11 PUSH2 0x105A JUMP JUMPDEST PUSH2 0x28A2 DUP10 PUSH2 0x353D JUMP JUMPDEST DUP9 DUP9 PUSH2 0x28AD DUP15 PUSH2 0x105A JUMP JUMPDEST PUSH1 0x40 MLOAD PUSH1 0x20 ADD PUSH2 0x28C4 SWAP9 SWAP8 SWAP7 SWAP6 SWAP5 SWAP4 SWAP3 SWAP2 SWAP1 PUSH2 0x5C49 JUMP JUMPDEST PUSH1 0x40 MLOAD PUSH1 0x20 DUP2 DUP4 SUB SUB DUP2 MSTORE SWAP1 PUSH1 0x40 MSTORE PUSH2 0x353D JUMP JUMPDEST SWAP1 POP DUP1 PUSH1 0x40 MLOAD PUSH1 0x20 ADD PUSH2 0x28EB SWAP2 SWAP1 PUSH2 0x5DA1 JUMP JUMPDEST PUSH1 0x40 MLOAD PUSH1 0x20 DUP2 DUP4 SUB SUB DUP2 MSTORE SWAP1 PUSH1 0x40 MSTORE SWAP5 POP POP POP POP POP SWAP3 SWAP2 POP POP JUMP JUMPDEST PUSH2 0x290F DUP3 PUSH2 0x234F JUMP JUMPDEST PUSH2 0x294E JUMPI PUSH1 0x40 MLOAD PUSH32 0x8C379A000000000000000000000000000000000000000000000000000000000 DUP2 MSTORE PUSH1 0x4 ADD PUSH2 0x2945 SWAP1 PUSH2 0x5E35 JUMP JUMPDEST PUSH1 0x40 MLOAD DUP1 SWAP2 SUB SWAP1 REVERT JUMPDEST DUP1 PUSH1 0x6 PUSH1 0x0 DUP5 DUP2 MSTORE PUSH1 0x20 ADD SWAP1 DUP2 MSTORE PUSH1 0x20 ADD PUSH1 0x0 KECCAK256 SWAP1 DUP2 PUSH2 0x296E SWAP2 SWAP1 PUSH2 0x6001 JUMP JUMPDEST POP PUSH32 0xF8E1A15ABA9398E019F0B49DF1A4FDE98EE17AE345CB5F6B5E2C27F5033E8CE7 DUP3 PUSH1 0x40 MLOAD PUSH2 0x299E SWAP2 SWAP1 PUSH2 0x3FB3 JUMP JUMPDEST PUSH1 0x40 MLOAD DUP1 SWAP2 SUB SWAP1 LOG1 POP POP JUMP JUMPDEST DUP2 PUSH20 0xFFFFFFFFFFFFFFFFFFFFFFFFFFFFFFFFFFFFFFFF AND DUP4 PUSH20 0xFFFFFFFFFFFFFFFFFFFFFFFFFFFFFFFFFFFFFFFF AND SUB PUSH2 0x2A18 JUMPI PUSH1 0x40 MLOAD PUSH32 0x8C379A000000000000000000000000000000000000000000000000000000000 DUP2 MSTORE PUSH1 0x4 ADD PUSH2 0x2A0F SWAP1 PUSH2 0x611F JUMP JUMPDEST PUSH1 0x40 MLOAD DUP1 SWAP2 SUB SWAP1 REVERT JUMPDEST DUP1 PUSH1 0x5 PUSH1 0x0 DUP6 PUSH20 0xFFFFFFFFFFFFFFFFFFFFFFFFFFFFFFFFFFFFFFFF AND PUSH20 0xFFFFFFFFFFFFFFFFFFFFFFFFFFFFFFFFFFFFFFFF AND DUP2 MSTORE PUSH1 0x20 ADD SWAP1 DUP2 MSTORE PUSH1 0x20 ADD PUSH1 0x0 KECCAK256 PUSH1 0x0 DUP5 PUSH20 0xFFFFFFFFFFFFFFFFFFFFFFFFFFFFFFFFFFFFFFFF AND PUSH20 0xFFFFFFFFFFFFFFFFFFFFFFFFFFFFFFFFFFFFFFFF AND DUP2 MSTORE PUSH1 0x20 ADD SWAP1 DUP2 MSTORE PUSH1 0x20 ADD PUSH1 0x0 KECCAK256 PUSH1 0x0 PUSH2 0x100 EXP DUP2 SLOAD DUP2 PUSH1 0xFF MUL NOT AND SWAP1 DUP4 ISZERO ISZERO MUL OR SWAP1 SSTORE POP DUP2 PUSH20 0xFFFFFFFFFFFFFFFFFFFFFFFFFFFFFFFFFFFFFFFF AND DUP4 PUSH20 0xFFFFFFFFFFFFFFFFFFFFFFFFFFFFFFFFFFFFFFFF AND PUSH32 0x17307EAB39AB6107E8899845AD3D59BD9653F200F220920489CA2B5937696C31 DUP4 PUSH1 0x40 MLOAD PUSH2 0x2B09 SWAP2 SWAP1 PUSH2 0x3D2C JUMP JUMPDEST PUSH1 0x40 MLOAD DUP1 SWAP2 SUB SWAP1 LOG3 POP POP POP JUMP JUMPDEST PUSH2 0x2B21 DUP5 DUP5 DUP5 PUSH2 0x2056 JUMP JUMPDEST PUSH2 0x2B2D DUP5 DUP5 DUP5 DUP5 PUSH2 0x36AF JUMP JUMPDEST PUSH2 0x2B6C JUMPI PUSH1 0x40 MLOAD PUSH32 0x8C379A000000000000000000000000000000000000000000000000000000000 DUP2 MSTORE PUSH1 0x4 ADD PUSH2 0x2B63 SWAP1 PUSH2 0x61B1 JUMP JUMPDEST PUSH1 0x40 MLOAD DUP1 SWAP2 SUB SWAP1 REVERT JUMPDEST POP POP POP POP JUMP JUMPDEST PUSH1 0x60 PUSH1 0x40 MLOAD DUP1 PUSH1 0x20 ADD PUSH1 0x40 MSTORE DUP1 PUSH1 0x0 DUP2 MSTORE POP SWAP1 POP SWAP1 JUMP JUMPDEST PUSH1 0x60 PUSH2 0x2B94 DUP3 PUSH2 0x1EB5 JUMP JUMPDEST PUSH1 0x0 PUSH2 0x2B9E PUSH2 0x2B72 JUMP JUMPDEST SWAP1 POP PUSH1 0x0 DUP2 MLOAD GT PUSH2 0x2BBE JUMPI PUSH1 0x40 MLOAD DUP1 PUSH1 0x20 ADD PUSH1 0x40 MSTORE DUP1 PUSH1 0x0 DUP2 MSTORE POP PUSH2 0x2BE9 JUMP JUMPDEST DUP1 PUSH2 0x2BC8 DUP5 PUSH2 0x346F JUMP JUMPDEST PUSH1 0x40 MLOAD PUSH1 0x20 ADD PUSH2 0x2BD9 SWAP3 SWAP2 SWAP1 PUSH2 0x5396 JUMP JUMPDEST PUSH1 0x40 MLOAD PUSH1 0x20 DUP2 DUP4 SUB SUB DUP2 MSTORE SWAP1 PUSH1 0x40 MSTORE JUMPDEST SWAP2 POP POP SWAP2 SWAP1 POP JUMP JUMPDEST PUSH1 0x0 PUSH32 0x1FFC9A700000000000000000000000000000000000000000000000000000000 PUSH28 0xFFFFFFFFFFFFFFFFFFFFFFFFFFFFFFFFFFFFFFFFFFFFFFFFFFFFFFFF NOT AND DUP3 PUSH28 0xFFFFFFFFFFFFFFFFFFFFFFFFFFFFFFFFFFFFFFFFFFFFFFFFFFFFFFFF NOT AND EQ SWAP1 POP SWAP2 SWAP1 POP JUMP JUMPDEST POP POP POP POP JUMP JUMPDEST POP POP POP POP JUMP JUMPDEST PUSH1 0x60 PUSH1 0x0 PUSH2 0x2C74 DUP4 PUSH2 0x3836 JUMP JUMPDEST SWAP1 POP PUSH1 0x0 PUSH1 0x20 PUSH8 0xFFFFFFFFFFFFFFFF DUP2 GT ISZERO PUSH2 0x2C93 JUMPI PUSH2 0x2C92 PUSH2 0x4190 JUMP JUMPDEST JUMPDEST PUSH1 0x40 MLOAD SWAP1 DUP1 DUP3 MSTORE DUP1 PUSH1 0x1F ADD PUSH1 0x1F NOT AND PUSH1 0x20 ADD DUP3 ADD PUSH1 0x40 MSTORE DUP1 ISZERO PUSH2 0x2CC5 JUMPI DUP2 PUSH1 0x20 ADD PUSH1 0x1 DUP3 MUL DUP1 CALLDATASIZE DUP4 CALLDATACOPY DUP1 DUP3 ADD SWAP2 POP POP SWAP1 POP JUMPDEST POP SWAP1 POP DUP2 DUP2 MSTORE DUP4 PUSH1 0x20 DUP3 ADD MSTORE DUP1 SWAP3 POP POP POP SWAP2 SWAP1 POP JUMP JUMPDEST PUSH1 0x0 PUSH32 0x0 PUSH20 0xFFFFFFFFFFFFFFFFFFFFFFFFFFFFFFFFFFFFFFFF AND ADDRESS PUSH20 0xFFFFFFFFFFFFFFFFFFFFFFFFFFFFFFFFFFFFFFFF AND EQ DUP1 ISZERO PUSH2 0x2D57 JUMPI POP PUSH32 0x0 CHAINID EQ JUMPDEST ISZERO PUSH2 0x2D84 JUMPI PUSH32 0x0 SWAP1 POP PUSH2 0x2D8F JUMP JUMPDEST PUSH2 0x2D8C PUSH2 0x3886 JUMP JUMPDEST SWAP1 POP JUMPDEST SWAP1 JUMP JUMPDEST PUSH1 0x0 PUSH1 0x40 MLOAD PUSH32 0x1901000000000000000000000000000000000000000000000000000000000000 DUP2 MSTORE DUP4 PUSH1 0x2 DUP3 ADD MSTORE DUP3 PUSH1 0x22 DUP3 ADD MSTORE PUSH1 0x42 DUP2 KECCAK256 SWAP2 POP POP SWAP3 SWAP2 POP POP JUMP JUMPDEST PUSH1 0x0 DUP1 PUSH1 0x41 DUP4 MLOAD SUB PUSH2 0x2E14 JUMPI PUSH1 0x0 DUP1 PUSH1 0x0 PUSH1 0x20 DUP7 ADD MLOAD SWAP3 POP PUSH1 0x40 DUP7 ADD MLOAD SWAP2 POP PUSH1 0x60 DUP7 ADD MLOAD PUSH1 0x0 BYTE SWAP1 POP PUSH2 0x2E08 DUP8 DUP3 DUP6 DUP6 PUSH2 0x391C JUMP JUMPDEST SWAP5 POP SWAP5 POP POP POP POP PUSH2 0x2E1D JUMP JUMPDEST PUSH1 0x0 PUSH1 0x2 SWAP2 POP SWAP2 POP JUMPDEST SWAP3 POP SWAP3 SWAP1 POP JUMP JUMPDEST PUSH1 0x0 PUSH1 0x4 DUP2 GT ISZERO PUSH2 0x2E38 JUMPI PUSH2 0x2E37 PUSH2 0x61D1 JUMP JUMPDEST JUMPDEST DUP2 PUSH1 0x4 DUP2 GT ISZERO PUSH2 0x2E4B JUMPI PUSH2 0x2E4A PUSH2 0x61D1 JUMP JUMPDEST JUMPDEST SUB ISZERO PUSH2 0x2F87 JUMPI PUSH1 0x1 PUSH1 0x4 DUP2 GT ISZERO PUSH2 0x2E65 JUMPI PUSH2 0x2E64 PUSH2 0x61D1 JUMP JUMPDEST JUMPDEST DUP2 PUSH1 0x4 DUP2 GT ISZERO PUSH2 0x2E78 JUMPI PUSH2 0x2E77 PUSH2 0x61D1 JUMP JUMPDEST JUMPDEST SUB PUSH2 0x2EB8 JUMPI PUSH1 0x40 MLOAD PUSH32 0x8C379A000000000000000000000000000000000000000000000000000000000 DUP2 MSTORE PUSH1 0x4 ADD PUSH2 0x2EAF SWAP1 PUSH2 0x624C JUMP JUMPDEST PUSH1 0x40 MLOAD DUP1 SWAP2 SUB SWAP1 REVERT JUMPDEST PUSH1 0x2 PUSH1 0x4 DUP2 GT ISZERO PUSH2 0x2ECC JUMPI PUSH2 0x2ECB PUSH2 0x61D1 JUMP JUMPDEST JUMPDEST DUP2 PUSH1 0x4 DUP2 GT ISZERO PUSH2 0x2EDF JUMPI PUSH2 0x2EDE PUSH2 0x61D1 JUMP JUMPDEST JUMPDEST SUB PUSH2 0x2F1F JUMPI PUSH1 0x40 MLOAD PUSH32 0x8C379A000000000000000000000000000000000000000000000000000000000 DUP2 MSTORE PUSH1 0x4 ADD PUSH2 0x2F16 SWAP1 PUSH2 0x62B8 JUMP JUMPDEST PUSH1 0x40 MLOAD DUP1 SWAP2 SUB SWAP1 REVERT JUMPDEST PUSH1 0x3 PUSH1 0x4 DUP2 GT ISZERO PUSH2 0x2F33 JUMPI PUSH2 0x2F32 PUSH2 0x61D1 JUMP JUMPDEST JUMPDEST DUP2 PUSH1 0x4 DUP2 GT ISZERO PUSH2 0x2F46 JUMPI PUSH2 0x2F45 PUSH2 0x61D1 JUMP JUMPDEST JUMPDEST SUB PUSH2 0x2F86 JUMPI PUSH1 0x40 MLOAD PUSH32 0x8C379A000000000000000000000000000000000000000000000000000000000 DUP2 MSTORE PUSH1 0x4 ADD PUSH2 0x2F7D SWAP1 PUSH2 0x634A JUMP JUMPDEST PUSH1 0x40 MLOAD DUP1 SWAP2 SUB SWAP1 REVERT JUMPDEST JUMPDEST POP JUMP JUMPDEST PUSH1 0x60 DUP1 PUSH1 0x0 PUSH2 0x3E8 DUP5 PUSH2 0x2F9D SWAP2 SWAP1 PUSH2 0x56E3 JUMP JUMPDEST SWAP1 POP PUSH1 0x0 PUSH2 0x3E8 DUP6 PUSH2 0x2FAF SWAP2 SWAP1 PUSH2 0x5714 JUMP JUMPDEST SWAP1 POP PUSH1 0x0 DUP2 SUB PUSH2 0x2FE8 JUMPI PUSH2 0x2FC2 DUP3 PUSH2 0x346F JUMP JUMPDEST PUSH1 0x40 MLOAD PUSH1 0x20 ADD PUSH2 0x2FD2 SWAP2 SWAP1 PUSH2 0x63B6 JUMP JUMPDEST PUSH1 0x40 MLOAD PUSH1 0x20 DUP2 DUP4 SUB SUB DUP2 MSTORE SWAP1 PUSH1 0x40 MSTORE SWAP3 POP PUSH2 0x30A3 JUMP JUMPDEST PUSH1 0xA DUP2 LT ISZERO PUSH2 0x302A JUMPI PUSH2 0x2FFA DUP3 PUSH2 0x346F JUMP JUMPDEST PUSH2 0x3003 DUP3 PUSH2 0x346F JUMP JUMPDEST PUSH1 0x40 MLOAD PUSH1 0x20 ADD PUSH2 0x3014 SWAP3 SWAP2 SWAP1 PUSH2 0x6424 JUMP JUMPDEST PUSH1 0x40 MLOAD PUSH1 0x20 DUP2 DUP4 SUB SUB DUP2 MSTORE SWAP1 PUSH1 0x40 MSTORE SWAP3 POP PUSH2 0x30A2 JUMP JUMPDEST PUSH1 0x64 DUP2 LT ISZERO PUSH2 0x306C JUMPI PUSH2 0x303C DUP3 PUSH2 0x346F JUMP JUMPDEST PUSH2 0x3045 DUP3 PUSH2 0x346F JUMP JUMPDEST PUSH1 0x40 MLOAD PUSH1 0x20 ADD PUSH2 0x3056 SWAP3 SWAP2 SWAP1 PUSH2 0x649F JUMP JUMPDEST PUSH1 0x40 MLOAD PUSH1 0x20 DUP2 DUP4 SUB SUB DUP2 MSTORE SWAP1 PUSH1 0x40 MSTORE SWAP3 POP PUSH2 0x30A1 JUMP JUMPDEST PUSH2 0x3075 DUP3 PUSH2 0x346F JUMP JUMPDEST PUSH2 0x307E DUP3 PUSH2 0x346F JUMP JUMPDEST PUSH1 0x40 MLOAD PUSH1 0x20 ADD PUSH2 0x308F SWAP3 SWAP2 SWAP1 PUSH2 0x64CE JUMP JUMPDEST PUSH1 0x40 MLOAD PUSH1 0x20 DUP2 DUP4 SUB SUB DUP2 MSTORE SWAP1 PUSH1 0x40 MSTORE SWAP3 POP JUMPDEST JUMPDEST JUMPDEST PUSH1 0x0 PUSH2 0x30AE DUP7 PUSH2 0x105A JUMP JUMPDEST SWAP1 POP PUSH1 0x60 PUSH1 0x40 MLOAD PUSH1 0x20 ADD PUSH2 0x30C1 SWAP1 PUSH2 0x6549 JUMP JUMPDEST PUSH1 0x40 MLOAD PUSH1 0x20 DUP2 DUP4 SUB SUB DUP2 MSTORE SWAP1 PUSH1 0x40 MSTORE DUP1 MLOAD SWAP1 PUSH1 0x20 ADD KECCAK256 DUP3 PUSH1 0x40 MLOAD PUSH1 0x20 ADD PUSH2 0x30E8 SWAP2 SWAP1 PUSH2 0x655E JUMP JUMPDEST PUSH1 0x40 MLOAD PUSH1 0x20 DUP2 DUP4 SUB SUB DUP2 MSTORE SWAP1 PUSH1 0x40 MSTORE DUP1 MLOAD SWAP1 PUSH1 0x20 ADD KECCAK256 SUB PUSH2 0x3140 JUMPI PUSH1 0x40 MLOAD DUP1 PUSH1 0x40 ADD PUSH1 0x40 MSTORE DUP1 PUSH1 0x7 DUP2 MSTORE PUSH1 0x20 ADD PUSH32 0x2346464437303000000000000000000000000000000000000000000000000000 DUP2 MSTORE POP SWAP1 POP PUSH2 0x33B5 JUMP JUMPDEST PUSH1 0x40 MLOAD PUSH1 0x20 ADD PUSH2 0x314F SWAP1 PUSH2 0x65C1 JUMP JUMPDEST PUSH1 0x40 MLOAD PUSH1 0x20 DUP2 DUP4 SUB SUB DUP2 MSTORE SWAP1 PUSH1 0x40 MSTORE DUP1 MLOAD SWAP1 PUSH1 0x20 ADD KECCAK256 DUP3 PUSH1 0x40 MLOAD PUSH1 0x20 ADD PUSH2 0x3176 SWAP2 SWAP1 PUSH2 0x655E JUMP JUMPDEST PUSH1 0x40 MLOAD PUSH1 0x20 DUP2 DUP4 SUB SUB DUP2 MSTORE SWAP1 PUSH1 0x40 MSTORE DUP1 MLOAD SWAP1 PUSH1 0x20 ADD KECCAK256 SUB PUSH2 0x31CE JUMPI PUSH1 0x40 MLOAD DUP1 PUSH1 0x40 ADD PUSH1 0x40 MSTORE DUP1 PUSH1 0x7 DUP2 MSTORE PUSH1 0x20 ADD PUSH32 0x2343304330433000000000000000000000000000000000000000000000000000 DUP2 MSTORE POP SWAP1 POP PUSH2 0x33B4 JUMP JUMPDEST PUSH1 0x40 MLOAD PUSH1 0x20 ADD PUSH2 0x31DD SWAP1 PUSH2 0x6622 JUMP JUMPDEST PUSH1 0x40 MLOAD PUSH1 0x20 DUP2 DUP4 SUB SUB DUP2 MSTORE SWAP1 PUSH1 0x40 MSTORE DUP1 MLOAD SWAP1 PUSH1 0x20 ADD KECCAK256 DUP3 PUSH1 0x40 MLOAD PUSH1 0x20 ADD PUSH2 0x3204 SWAP2 SWAP1 PUSH2 0x655E JUMP JUMPDEST PUSH1 0x40 MLOAD PUSH1 0x20 DUP2 DUP4 SUB SUB DUP2 MSTORE SWAP1 PUSH1 0x40 MSTORE DUP1 MLOAD SWAP1 PUSH1 0x20 ADD KECCAK256 SUB PUSH2 0x325C JUMPI PUSH1 0x40 MLOAD DUP1 PUSH1 0x40 ADD PUSH1 0x40 MSTORE DUP1 PUSH1 0x7 DUP2 MSTORE PUSH1 0x20 ADD PUSH32 0x2343443746333200000000000000000000000000000000000000000000000000 DUP2 MSTORE POP SWAP1 POP PUSH2 0x33B3 JUMP JUMPDEST PUSH1 0x40 MLOAD PUSH1 0x20 ADD PUSH2 0x326B SWAP1 PUSH2 0x6683 JUMP JUMPDEST PUSH1 0x40 MLOAD PUSH1 0x20 DUP2 DUP4 SUB SUB DUP2 MSTORE SWAP1 PUSH1 0x40 MSTORE DUP1 MLOAD SWAP1 PUSH1 0x20 ADD KECCAK256 DUP3 PUSH1 0x40 MLOAD PUSH1 0x20 ADD PUSH2 0x3292 SWAP2 SWAP1 PUSH2 0x655E JUMP JUMPDEST PUSH1 0x40 MLOAD PUSH1 0x20 DUP2 DUP4 SUB SUB DUP2 MSTORE SWAP1 PUSH1 0x40 MSTORE DUP1 MLOAD SWAP1 PUSH1 0x20 ADD KECCAK256 SUB PUSH2 0x32EA JUMPI PUSH1 0x40 MLOAD DUP1 PUSH1 0x40 ADD PUSH1 0x40 MSTORE DUP1 PUSH1 0x7 DUP2 MSTORE PUSH1 0x20 ADD PUSH32 0x2338374345454200000000000000000000000000000000000000000000000000 DUP2 MSTORE POP SWAP1 POP PUSH2 0x33B2 JUMP JUMPDEST PUSH1 0x40 MLOAD PUSH1 0x20 ADD PUSH2 0x32F9 SWAP1 PUSH2 0x66E4 JUMP JUMPDEST PUSH1 0x40 MLOAD PUSH1 0x20 DUP2 DUP4 SUB SUB DUP2 MSTORE SWAP1 PUSH1 0x40 MSTORE DUP1 MLOAD SWAP1 PUSH1 0x20 ADD KECCAK256 DUP3 PUSH1 0x40 MLOAD PUSH1 0x20 ADD PUSH2 0x3320 SWAP2 SWAP1 PUSH2 0x655E JUMP JUMPDEST PUSH1 0x40 MLOAD PUSH1 0x20 DUP2 DUP4 SUB SUB DUP2 MSTORE SWAP1 PUSH1 0x40 MSTORE DUP1 MLOAD SWAP1 PUSH1 0x20 ADD KECCAK256 SUB PUSH2 0x3378 JUMPI PUSH1 0x40 MLOAD DUP1 PUSH1 0x40 ADD PUSH1 0x40 MSTORE DUP1 PUSH1 0x7 DUP2 MSTORE PUSH1 0x20 ADD PUSH32 0x2339304545393000000000000000000000000000000000000000000000000000 DUP2 MSTORE POP SWAP1 POP PUSH2 0x33B1 JUMP JUMPDEST PUSH1 0x40 MLOAD DUP1 PUSH1 0x40 ADD PUSH1 0x40 MSTORE DUP1 PUSH1 0x7 DUP2 MSTORE PUSH1 0x20 ADD PUSH32 0x2344444130444400000000000000000000000000000000000000000000000000 DUP2 MSTORE POP SWAP1 POP JUMPDEST JUMPDEST JUMPDEST JUMPDEST JUMPDEST PUSH1 0x0 PUSH1 0x40 MLOAD DUP1 PUSH1 0x40 ADD PUSH1 0x40 MSTORE DUP1 PUSH1 0x3 DUP2 MSTORE PUSH1 0x20 ADD PUSH32 0x3135300000000000000000000000000000000000000000000000000000000000 DUP2 MSTORE POP SWAP1 POP PUSH1 0x1 DUP4 MLOAD SUB PUSH2 0x3431 JUMPI PUSH1 0x40 MLOAD DUP1 PUSH1 0x40 ADD PUSH1 0x40 MSTORE DUP1 PUSH1 0x3 DUP2 MSTORE PUSH1 0x20 ADD PUSH32 0x3135320000000000000000000000000000000000000000000000000000000000 DUP2 MSTORE POP SWAP1 POP JUMPDEST DUP2 DUP2 DUP5 DUP9 PUSH2 0x343E DUP14 PUSH2 0x346F JUMP JUMPDEST PUSH1 0x40 MLOAD PUSH1 0x20 ADD PUSH2 0x3452 SWAP6 SWAP5 SWAP4 SWAP3 SWAP2 SWAP1 PUSH2 0x709F JUMP JUMPDEST PUSH1 0x40 MLOAD PUSH1 0x20 DUP2 DUP4 SUB SUB DUP2 MSTORE SWAP1 PUSH1 0x40 MSTORE SWAP7 POP POP POP POP POP POP POP SWAP3 SWAP2 POP POP JUMP JUMPDEST PUSH1 0x60 PUSH1 0x0 PUSH1 0x1 PUSH2 0x347E DUP5 PUSH2 0x39FE JUMP JUMPDEST ADD SWAP1 POP PUSH1 0x0 DUP2 PUSH8 0xFFFFFFFFFFFFFFFF DUP2 GT ISZERO PUSH2 0x349D JUMPI PUSH2 0x349C PUSH2 0x4190 JUMP JUMPDEST JUMPDEST PUSH1 0x40 MLOAD SWAP1 DUP1 DUP3 MSTORE DUP1 PUSH1 0x1F ADD PUSH1 0x1F NOT AND PUSH1 0x20 ADD DUP3 ADD PUSH1 0x40 MSTORE DUP1 ISZERO PUSH2 0x34CF JUMPI DUP2 PUSH1 0x20 ADD PUSH1 0x1 DUP3 MUL DUP1 CALLDATASIZE DUP4 CALLDATACOPY DUP1 DUP3 ADD SWAP2 POP POP SWAP1 POP JUMPDEST POP SWAP1 POP PUSH1 0x0 DUP3 PUSH1 0x20 ADD DUP3 ADD SWAP1 POP JUMPDEST PUSH1 0x1 ISZERO PUSH2 0x3532 JUMPI DUP1 DUP1 PUSH1 0x1 SWAP1 SUB SWAP2 POP POP PUSH32 0x3031323334353637383961626364656600000000000000000000000000000000 PUSH1 0xA DUP7 MOD BYTE DUP2 MSTORE8 PUSH1 0xA DUP6 DUP2 PUSH2 0x3526 JUMPI PUSH2 0x3525 PUSH2 0x56B4 JUMP JUMPDEST JUMPDEST DIV SWAP5 POP PUSH1 0x0 DUP6 SUB PUSH2 0x34DD JUMPI JUMPDEST DUP2 SWAP4 POP POP POP POP SWAP2 SWAP1 POP JUMP JUMPDEST PUSH1 0x60 PUSH1 0x0 DUP3 MLOAD SUB PUSH2 0x355F JUMPI PUSH1 0x40 MLOAD DUP1 PUSH1 0x20 ADD PUSH1 0x40 MSTORE DUP1 PUSH1 0x0 DUP2 MSTORE POP SWAP1 POP PUSH2 0x36AA JUMP JUMPDEST PUSH1 0x0 PUSH1 0x40 MLOAD DUP1 PUSH1 0x60 ADD PUSH1 0x40 MSTORE DUP1 PUSH1 0x40 DUP2 MSTORE PUSH1 0x20 ADD PUSH2 0x73CC PUSH1 0x40 SWAP2 CODECOPY SWAP1 POP PUSH1 0x0 PUSH1 0x3 PUSH1 0x2 DUP6 MLOAD PUSH2 0x358E SWAP2 SWAP1 PUSH2 0x5151 JUMP JUMPDEST PUSH2 0x3598 SWAP2 SWAP1 PUSH2 0x56E3 JUMP JUMPDEST PUSH1 0x4 PUSH2 0x35A4 SWAP2 SWAP1 PUSH2 0x71F2 JUMP JUMPDEST PUSH8 0xFFFFFFFFFFFFFFFF DUP2 GT ISZERO PUSH2 0x35BD JUMPI PUSH2 0x35BC PUSH2 0x4190 JUMP JUMPDEST JUMPDEST PUSH1 0x40 MLOAD SWAP1 DUP1 DUP3 MSTORE DUP1 PUSH1 0x1F ADD PUSH1 0x1F NOT AND PUSH1 0x20 ADD DUP3 ADD PUSH1 0x40 MSTORE DUP1 ISZERO PUSH2 0x35EF JUMPI DUP2 PUSH1 0x20 ADD PUSH1 0x1 DUP3 MUL DUP1 CALLDATASIZE DUP4 CALLDATACOPY DUP1 DUP3 ADD SWAP2 POP POP SWAP1 POP JUMPDEST POP SWAP1 POP PUSH1 0x1 DUP3 ADD PUSH1 0x20 DUP3 ADD DUP6 DUP7 MLOAD DUP8 ADD PUSH1 0x20 DUP2 ADD DUP1 MLOAD PUSH1 0x0 DUP3 MSTORE JUMPDEST DUP3 DUP5 LT ISZERO PUSH2 0x3665 JUMPI PUSH1 0x3 DUP5 ADD SWAP4 POP DUP4 MLOAD PUSH1 0x3F DUP2 PUSH1 0x12 SHR AND DUP8 ADD MLOAD DUP7 MSTORE8 PUSH1 0x1 DUP7 ADD SWAP6 POP PUSH1 0x3F DUP2 PUSH1 0xC SHR AND DUP8 ADD MLOAD DUP7 MSTORE8 PUSH1 0x1 DUP7 ADD SWAP6 POP PUSH1 0x3F DUP2 PUSH1 0x6 SHR AND DUP8 ADD MLOAD DUP7 MSTORE8 PUSH1 0x1 DUP7 ADD SWAP6 POP PUSH1 0x3F DUP2 AND DUP8 ADD MLOAD DUP7 MSTORE8 PUSH1 0x1 DUP7 ADD SWAP6 POP POP PUSH2 0x360A JUMP JUMPDEST DUP1 DUP3 MSTORE PUSH1 0x3 DUP11 MLOAD MOD PUSH1 0x1 DUP2 EQ PUSH2 0x3682 JUMPI PUSH1 0x2 DUP2 EQ PUSH2 0x3695 JUMPI PUSH2 0x369D JUMP JUMPDEST PUSH1 0x3D PUSH1 0x1 DUP8 SUB MSTORE8 PUSH1 0x3D PUSH1 0x2 DUP8 SUB MSTORE8 PUSH2 0x369D JUMP JUMPDEST PUSH1 0x3D PUSH1 0x1 DUP8 SUB MSTORE8 JUMPDEST POP POP POP POP POP POP POP DUP1 SWAP3 POP POP POP JUMPDEST SWAP2 SWAP1 POP JUMP JUMPDEST PUSH1 0x0 PUSH2 0x36D0 DUP5 PUSH20 0xFFFFFFFFFFFFFFFFFFFFFFFFFFFFFFFFFFFFFFFF AND PUSH2 0x1E92 JUMP JUMPDEST ISZERO PUSH2 0x3829 JUMPI DUP4 PUSH20 0xFFFFFFFFFFFFFFFFFFFFFFFFFFFFFFFFFFFFFFFF AND PUSH4 0x150B7A02 PUSH2 0x36F9 PUSH2 0x1F00 JUMP JUMPDEST DUP8 DUP7 DUP7 PUSH1 0x40 MLOAD DUP6 PUSH4 0xFFFFFFFF AND PUSH1 0xE0 SHL DUP2 MSTORE PUSH1 0x4 ADD PUSH2 0x371B SWAP5 SWAP4 SWAP3 SWAP2 SWAP1 PUSH2 0x7289 JUMP JUMPDEST PUSH1 0x20 PUSH1 0x40 MLOAD DUP1 DUP4 SUB DUP2 PUSH1 0x0 DUP8 GAS CALL SWAP3 POP POP POP DUP1 ISZERO PUSH2 0x3757 JUMPI POP PUSH1 0x40 MLOAD RETURNDATASIZE PUSH1 0x1F NOT PUSH1 0x1F DUP3 ADD AND DUP3 ADD DUP1 PUSH1 0x40 MSTORE POP DUP2 ADD SWAP1 PUSH2 0x3754 SWAP2 SWAP1 PUSH2 0x72EA JUMP JUMPDEST PUSH1 0x1 JUMPDEST PUSH2 0x37D9 JUMPI RETURNDATASIZE DUP1 PUSH1 0x0 DUP2 EQ PUSH2 0x3787 JUMPI PUSH1 0x40 MLOAD SWAP2 POP PUSH1 0x1F NOT PUSH1 0x3F RETURNDATASIZE ADD AND DUP3 ADD PUSH1 0x40 MSTORE RETURNDATASIZE DUP3 MSTORE RETURNDATASIZE PUSH1 0x0 PUSH1 0x20 DUP5 ADD RETURNDATACOPY PUSH2 0x378C JUMP JUMPDEST PUSH1 0x60 SWAP2 POP JUMPDEST POP PUSH1 0x0 DUP2 MLOAD SUB PUSH2 0x37D1 JUMPI PUSH1 0x40 MLOAD PUSH32 0x8C379A000000000000000000000000000000000000000000000000000000000 DUP2 MSTORE PUSH1 0x4 ADD PUSH2 0x37C8 SWAP1 PUSH2 0x61B1 JUMP JUMPDEST PUSH1 0x40 MLOAD DUP1 SWAP2 SUB SWAP1 REVERT JUMPDEST DUP1 MLOAD DUP2 PUSH1 0x20 ADD REVERT JUMPDEST PUSH4 0x150B7A02 PUSH1 0xE0 SHL PUSH28 0xFFFFFFFFFFFFFFFFFFFFFFFFFFFFFFFFFFFFFFFFFFFFFFFFFFFFFFFF NOT AND DUP2 PUSH28 0xFFFFFFFFFFFFFFFFFFFFFFFFFFFFFFFFFFFFFFFFFFFFFFFFFFFFFFFF NOT AND EQ SWAP2 POP POP PUSH2 0x382E JUMP JUMPDEST PUSH1 0x1 SWAP1 POP JUMPDEST SWAP5 SWAP4 POP POP POP POP JUMP JUMPDEST PUSH1 0x0 DUP1 PUSH1 0xFF DUP4 PUSH1 0x0 SHR AND SWAP1 POP PUSH1 0x1F DUP2 GT ISZERO PUSH2 0x387D JUMPI PUSH1 0x40 MLOAD PUSH32 0xB3512B0C00000000000000000000000000000000000000000000000000000000 DUP2 MSTORE PUSH1 0x4 ADD PUSH1 0x40 MLOAD DUP1 SWAP2 SUB SWAP1 REVERT JUMPDEST DUP1 SWAP2 POP POP SWAP2 SWAP1 POP JUMP JUMPDEST PUSH1 0x0 PUSH32 0x8B73C3C69BB8FE3D512ECC4CF759CC79239F7B179B0FFACAA9A75D522B39400F PUSH32 0x0 PUSH32 0x0 CHAINID ADDRESS PUSH1 0x40 MLOAD PUSH1 0x20 ADD PUSH2 0x3901 SWAP6 SWAP5 SWAP4 SWAP3 SWAP2 SWAP1 PUSH2 0x7317 JUMP JUMPDEST PUSH1 0x40 MLOAD PUSH1 0x20 DUP2 DUP4 SUB SUB DUP2 MSTORE SWAP1 PUSH1 0x40 MSTORE DUP1 MLOAD SWAP1 PUSH1 0x20 ADD KECCAK256 SWAP1 POP SWAP1 JUMP JUMPDEST PUSH1 0x0 DUP1 PUSH32 0x7FFFFFFFFFFFFFFFFFFFFFFFFFFFFFFF5D576E7357A4501DDFE92F46681B20A0 DUP4 PUSH1 0x0 SHR GT ISZERO PUSH2 0x3957 JUMPI PUSH1 0x0 PUSH1 0x3 SWAP2 POP SWAP2 POP PUSH2 0x39F5 JUMP JUMPDEST PUSH1 0x0 PUSH1 0x1 DUP8 DUP8 DUP8 DUP8 PUSH1 0x40 MLOAD PUSH1 0x0 DUP2 MSTORE PUSH1 0x20 ADD PUSH1 0x40 MSTORE PUSH1 0x40 MLOAD PUSH2 0x397C SWAP5 SWAP4 SWAP3 SWAP2 SWAP1 PUSH2 0x7386 JUMP JUMPDEST PUSH1 0x20 PUSH1 0x40 MLOAD PUSH1 0x20 DUP2 SUB SWAP1 DUP1 DUP5 SUB SWAP1 DUP6 GAS STATICCALL ISZERO DUP1 ISZERO PUSH2 0x399E JUMPI RETURNDATASIZE PUSH1 0x0 DUP1 RETURNDATACOPY RETURNDATASIZE PUSH1 0x0 REVERT JUMPDEST POP POP POP PUSH1 0x20 PUSH1 0x40 MLOAD SUB MLOAD SWAP1 POP PUSH1 0x0 PUSH20 0xFFFFFFFFFFFFFFFFFFFFFFFFFFFFFFFFFFFFFFFF AND DUP2 PUSH20 0xFFFFFFFFFFFFFFFFFFFFFFFFFFFFFFFFFFFFFFFF AND SUB PUSH2 0x39EC JUMPI PUSH1 0x0 PUSH1 0x1 SWAP3 POP SWAP3 POP POP PUSH2 0x39F5 JUMP JUMPDEST DUP1 PUSH1 0x0 SWAP3 POP SWAP3 POP POP JUMPDEST SWAP5 POP SWAP5 SWAP3 POP POP POP JUMP JUMPDEST PUSH1 0x0 DUP1 PUSH1 0x0 SWAP1 POP PUSH27 0x184F03E93FF9F4DAA797ED6E38ED64BF6A1F010000000000000000 DUP4 LT PUSH2 0x3A5C JUMPI PUSH27 0x184F03E93FF9F4DAA797ED6E38ED64BF6A1F010000000000000000 DUP4 DUP2 PUSH2 0x3A52 JUMPI PUSH2 0x3A51 PUSH2 0x56B4 JUMP JUMPDEST JUMPDEST DIV SWAP3 POP PUSH1 0x40 DUP2 ADD SWAP1 POP JUMPDEST PUSH14 0x4EE2D6D415B85ACEF8100000000 DUP4 LT PUSH2 0x3A99 JUMPI PUSH14 0x4EE2D6D415B85ACEF8100000000 DUP4 DUP2 PUSH2 0x3A8F JUMPI PUSH2 0x3A8E PUSH2 0x56B4 JUMP JUMPDEST JUMPDEST DIV SWAP3 POP PUSH1 0x20 DUP2 ADD SWAP1 POP JUMPDEST PUSH7 0x2386F26FC10000 DUP4 LT PUSH2 0x3AC8 JUMPI PUSH7 0x2386F26FC10000 DUP4 DUP2 PUSH2 0x3ABE JUMPI PUSH2 0x3ABD PUSH2 0x56B4 JUMP JUMPDEST JUMPDEST DIV SWAP3 POP PUSH1 0x10 DUP2 ADD SWAP1 POP JUMPDEST PUSH4 0x5F5E100 DUP4 LT PUSH2 0x3AF1 JUMPI PUSH4 0x5F5E100 DUP4 DUP2 PUSH2 0x3AE7 JUMPI PUSH2 0x3AE6 PUSH2 0x56B4 JUMP JUMPDEST JUMPDEST DIV SWAP3 POP PUSH1 0x8 DUP2 ADD SWAP1 POP JUMPDEST PUSH2 0x2710 DUP4 LT PUSH2 0x3B16 JUMPI PUSH2 0x2710 DUP4 DUP2 PUSH2 0x3B0C JUMPI PUSH2 0x3B0B PUSH2 0x56B4 JUMP JUMPDEST JUMPDEST DIV SWAP3 POP PUSH1 0x4 DUP2 ADD SWAP1 POP JUMPDEST PUSH1 0x64 DUP4 LT PUSH2 0x3B39 JUMPI PUSH1 0x64 DUP4 DUP2 PUSH2 0x3B2F JUMPI PUSH2 0x3B2E PUSH2 0x56B4 JUMP JUMPDEST JUMPDEST DIV SWAP3 POP PUSH1 0x2 DUP2 ADD SWAP1 POP JUMPDEST PUSH1 0xA DUP4 LT PUSH2 0x3B48 JUMPI PUSH1 0x1 DUP2 ADD SWAP1 POP JUMPDEST DUP1 SWAP2 POP POP SWAP2 SWAP1 POP JUMP JUMPDEST DUP3 DUP1 SLOAD DUP3 DUP3 SSTORE SWAP1 PUSH1 0x0 MSTORE PUSH1 0x20 PUSH1 0x0 KECCAK256 SWAP1 DUP2 ADD SWAP3 DUP3 ISZERO PUSH2 0x3B99 JUMPI SWAP2 PUSH1 0x20 MUL DUP3 ADD JUMPDEST DUP3 DUP2 GT ISZERO PUSH2 0x3B98 JUMPI DUP3 MLOAD DUP3 SWAP1 DUP2 PUSH2 0x3B88 SWAP2 SWAP1 PUSH2 0x6001 JUMP JUMPDEST POP SWAP2 PUSH1 0x20 ADD SWAP2 SWAP1 PUSH1 0x1 ADD SWAP1 PUSH2 0x3B71 JUMP JUMPDEST JUMPDEST POP SWAP1 POP PUSH2 0x3BA6 SWAP2 SWAP1 PUSH2 0x3BF7 JUMP JUMPDEST POP SWAP1 JUMP JUMPDEST DUP3 DUP1 SLOAD DUP3 DUP3 SSTORE SWAP1 PUSH1 0x0 MSTORE PUSH1 0x20 PUSH1 0x0 KECCAK256 SWAP1 DUP2 ADD SWAP3 DUP3 ISZERO PUSH2 0x3BE6 JUMPI SWAP2 PUSH1 0x20 MUL DUP3 ADD JUMPDEST DUP3 DUP2 GT ISZERO PUSH2 0x3BE5 JUMPI DUP3 MLOAD DUP3 SSTORE SWAP2 PUSH1 0x20 ADD SWAP2 SWAP1 PUSH1 0x1 ADD SWAP1 PUSH2 0x3BCA JUMP JUMPDEST JUMPDEST POP SWAP1 POP PUSH2 0x3BF3 SWAP2 SWAP1 PUSH2 0x3C1B JUMP JUMPDEST POP SWAP1 JUMP JUMPDEST JUMPDEST DUP1 DUP3 GT ISZERO PUSH2 0x3C17 JUMPI PUSH1 0x0 DUP2 DUP2 PUSH2 0x3C0E SWAP2 SWAP1 PUSH2 0x3C38 JUMP JUMPDEST POP PUSH1 0x1 ADD PUSH2 0x3BF8 JUMP JUMPDEST POP SWAP1 JUMP JUMPDEST JUMPDEST DUP1 DUP3 GT ISZERO PUSH2 0x3C34 JUMPI PUSH1 0x0 DUP2 PUSH1 0x0 SWAP1 SSTORE POP PUSH1 0x1 ADD PUSH2 0x3C1C JUMP JUMPDEST POP SWAP1 JUMP JUMPDEST POP DUP1 SLOAD PUSH2 0x3C44 SWAP1 PUSH2 0x488B JUMP JUMPDEST PUSH1 0x0 DUP3 SSTORE DUP1 PUSH1 0x1F LT PUSH2 0x3C56 JUMPI POP PUSH2 0x3C75 JUMP JUMPDEST PUSH1 0x1F ADD PUSH1 0x20 SWAP1 DIV SWAP1 PUSH1 0x0 MSTORE PUSH1 0x20 PUSH1 0x0 KECCAK256 SWAP1 DUP2 ADD SWAP1 PUSH2 0x3C74 SWAP2 SWAP1 PUSH2 0x3C1B JUMP JUMPDEST JUMPDEST POP JUMP JUMPDEST PUSH1 0x0 PUSH1 0x40 MLOAD SWAP1 POP SWAP1 JUMP JUMPDEST PUSH1 0x0 DUP1 REVERT JUMPDEST PUSH1 0x0 DUP1 REVERT JUMPDEST PUSH1 0x0 PUSH32 0xFFFFFFFF00000000000000000000000000000000000000000000000000000000 DUP3 AND SWAP1 POP SWAP2 SWAP1 POP JUMP JUMPDEST PUSH2 0x3CC1 DUP2 PUSH2 0x3C8C JUMP JUMPDEST DUP2 EQ PUSH2 0x3CCC JUMPI PUSH1 0x0 DUP1 REVERT JUMPDEST POP JUMP JUMPDEST PUSH1 0x0 DUP2 CALLDATALOAD SWAP1 POP PUSH2 0x3CDE DUP2 PUSH2 0x3CB8 JUMP JUMPDEST SWAP3 SWAP2 POP POP JUMP JUMPDEST PUSH1 0x0 PUSH1 0x20 DUP3 DUP5 SUB SLT ISZERO PUSH2 0x3CFA JUMPI PUSH2 0x3CF9 PUSH2 0x3C82 JUMP JUMPDEST JUMPDEST PUSH1 0x0 PUSH2 0x3D08 DUP5 DUP3 DUP6 ADD PUSH2 0x3CCF JUMP JUMPDEST SWAP2 POP POP SWAP3 SWAP2 POP POP JUMP JUMPDEST PUSH1 0x0 DUP2 ISZERO ISZERO SWAP1 POP SWAP2 SWAP1 POP JUMP JUMPDEST PUSH2 0x3D26 DUP2 PUSH2 0x3D11 JUMP JUMPDEST DUP3 MSTORE POP POP JUMP JUMPDEST PUSH1 0x0 PUSH1 0x20 DUP3 ADD SWAP1 POP PUSH2 0x3D41 PUSH1 0x0 DUP4 ADD DUP5 PUSH2 0x3D1D JUMP JUMPDEST SWAP3 SWAP2 POP POP JUMP JUMPDEST PUSH1 0x0 PUSH20 0xFFFFFFFFFFFFFFFFFFFFFFFFFFFFFFFFFFFFFFFF DUP3 AND SWAP1 POP SWAP2 SWAP1 POP JUMP JUMPDEST PUSH1 0x0 PUSH2 0x3D72 DUP3 PUSH2 0x3D47 JUMP JUMPDEST SWAP1 POP SWAP2 SWAP1 POP JUMP JUMPDEST PUSH2 0x3D82 DUP2 PUSH2 0x3D67 JUMP JUMPDEST DUP2 EQ PUSH2 0x3D8D JUMPI PUSH1 0x0 DUP1 REVERT JUMPDEST POP JUMP JUMPDEST PUSH1 0x0 DUP2 CALLDATALOAD SWAP1 POP PUSH2 0x3D9F DUP2 PUSH2 0x3D79 JUMP JUMPDEST SWAP3 SWAP2 POP POP JUMP JUMPDEST PUSH1 0x0 PUSH1 0x20 DUP3 DUP5 SUB SLT ISZERO PUSH2 0x3DBB JUMPI PUSH2 0x3DBA PUSH2 0x3C82 JUMP JUMPDEST JUMPDEST PUSH1 0x0 PUSH2 0x3DC9 DUP5 DUP3 DUP6 ADD PUSH2 0x3D90 JUMP JUMPDEST SWAP2 POP POP SWAP3 SWAP2 POP POP JUMP JUMPDEST PUSH1 0x0 DUP2 MLOAD SWAP1 POP SWAP2 SWAP1 POP JUMP JUMPDEST PUSH1 0x0 DUP3 DUP3 MSTORE PUSH1 0x20 DUP3 ADD SWAP1 POP SWAP3 SWAP2 POP POP JUMP JUMPDEST PUSH1 0x0 JUMPDEST DUP4 DUP2 LT ISZERO PUSH2 0x3E0C JUMPI DUP1 DUP3 ADD MLOAD DUP2 DUP5 ADD MSTORE PUSH1 0x20 DUP2 ADD SWAP1 POP PUSH2 0x3DF1 JUMP JUMPDEST PUSH1 0x0 DUP5 DUP5 ADD MSTORE POP POP POP POP JUMP JUMPDEST PUSH1 0x0 PUSH1 0x1F NOT PUSH1 0x1F DUP4 ADD AND SWAP1 POP SWAP2 SWAP1 POP JUMP JUMPDEST PUSH1 0x0 PUSH2 0x3E34 DUP3 PUSH2 0x3DD2 JUMP JUMPDEST PUSH2 0x3E3E DUP2 DUP6 PUSH2 0x3DDD JUMP JUMPDEST SWAP4 POP PUSH2 0x3E4E DUP2 DUP6 PUSH1 0x20 DUP7 ADD PUSH2 0x3DEE JUMP JUMPDEST PUSH2 0x3E57 DUP2 PUSH2 0x3E18 JUMP JUMPDEST DUP5 ADD SWAP2 POP POP SWAP3 SWAP2 POP POP JUMP JUMPDEST PUSH1 0x0 PUSH1 0x20 DUP3 ADD SWAP1 POP DUP2 DUP2 SUB PUSH1 0x0 DUP4 ADD MSTORE PUSH2 0x3E7C DUP2 DUP5 PUSH2 0x3E29 JUMP JUMPDEST SWAP1 POP SWAP3 SWAP2 POP POP JUMP JUMPDEST PUSH1 0x0 DUP2 SWAP1 POP SWAP2 SWAP1 POP JUMP JUMPDEST PUSH2 0x3E97 DUP2 PUSH2 0x3E84 JUMP JUMPDEST DUP2 EQ PUSH2 0x3EA2 JUMPI PUSH1 0x0 DUP1 REVERT JUMPDEST POP JUMP JUMPDEST PUSH1 0x0 DUP2 CALLDATALOAD SWAP1 POP PUSH2 0x3EB4 DUP2 PUSH2 0x3E8E JUMP JUMPDEST SWAP3 SWAP2 POP POP JUMP JUMPDEST PUSH1 0x0 PUSH1 0x20 DUP3 DUP5 SUB SLT ISZERO PUSH2 0x3ED0 JUMPI PUSH2 0x3ECF PUSH2 0x3C82 JUMP JUMPDEST JUMPDEST PUSH1 0x0 PUSH2 0x3EDE DUP5 DUP3 DUP6 ADD PUSH2 0x3EA5 JUMP JUMPDEST SWAP2 POP POP SWAP3 SWAP2 POP POP JUMP JUMPDEST PUSH2 0x3EF0 DUP2 PUSH2 0x3D67 JUMP JUMPDEST DUP3 MSTORE POP POP JUMP JUMPDEST PUSH1 0x0 PUSH1 0x20 DUP3 ADD SWAP1 POP PUSH2 0x3F0B PUSH1 0x0 DUP4 ADD DUP5 PUSH2 0x3EE7 JUMP JUMPDEST SWAP3 SWAP2 POP POP JUMP JUMPDEST PUSH1 0x0 DUP1 PUSH1 0x40 DUP4 DUP6 SUB SLT ISZERO PUSH2 0x3F28 JUMPI PUSH2 0x3F27 PUSH2 0x3C82 JUMP JUMPDEST JUMPDEST PUSH1 0x0 PUSH2 0x3F36 DUP6 DUP3 DUP7 ADD PUSH2 0x3D90 JUMP JUMPDEST SWAP3 POP POP PUSH1 0x20 PUSH2 0x3F47 DUP6 DUP3 DUP7 ADD PUSH2 0x3EA5 JUMP JUMPDEST SWAP2 POP POP SWAP3 POP SWAP3 SWAP1 POP JUMP JUMPDEST PUSH1 0x0 DUP1 PUSH1 0x0 PUSH1 0x60 DUP5 DUP7 SUB SLT ISZERO PUSH2 0x3F6A JUMPI PUSH2 0x3F69 PUSH2 0x3C82 JUMP JUMPDEST JUMPDEST PUSH1 0x0 PUSH2 0x3F78 DUP7 DUP3 DUP8 ADD PUSH2 0x3D90 JUMP JUMPDEST SWAP4 POP POP PUSH1 0x20 PUSH2 0x3F89 DUP7 DUP3 DUP8 ADD PUSH2 0x3D90 JUMP JUMPDEST SWAP3 POP POP PUSH1 0x40 PUSH2 0x3F9A DUP7 DUP3 DUP8 ADD PUSH2 0x3EA5 JUMP JUMPDEST SWAP2 POP POP SWAP3 POP SWAP3 POP SWAP3 JUMP JUMPDEST PUSH2 0x3FAD DUP2 PUSH2 0x3E84 JUMP JUMPDEST DUP3 MSTORE POP POP JUMP JUMPDEST PUSH1 0x0 PUSH1 0x20 DUP3 ADD SWAP1 POP PUSH2 0x3FC8 PUSH1 0x0 DUP4 ADD DUP5 PUSH2 0x3FA4 JUMP JUMPDEST SWAP3 SWAP2 POP POP JUMP JUMPDEST PUSH1 0x0 DUP2 MLOAD SWAP1 POP SWAP2 SWAP1 POP JUMP JUMPDEST PUSH1 0x0 DUP3 DUP3 MSTORE PUSH1 0x20 DUP3 ADD SWAP1 POP SWAP3 SWAP2 POP POP JUMP JUMPDEST PUSH1 0x0 DUP2 SWAP1 POP PUSH1 0x20 DUP3 ADD SWAP1 POP SWAP2 SWAP1 POP JUMP JUMPDEST PUSH2 0x4003 DUP2 PUSH2 0x3E84 JUMP JUMPDEST DUP3 MSTORE POP POP JUMP JUMPDEST PUSH1 0x0 PUSH2 0x4015 DUP4 DUP4 PUSH2 0x3FFA JUMP JUMPDEST PUSH1 0x20 DUP4 ADD SWAP1 POP SWAP3 SWAP2 POP POP JUMP JUMPDEST PUSH1 0x0 PUSH1 0x20 DUP3 ADD SWAP1 POP SWAP2 SWAP1 POP JUMP JUMPDEST PUSH1 0x0 PUSH2 0x4039 DUP3 PUSH2 0x3FCE JUMP JUMPDEST PUSH2 0x4043 DUP2 DUP6 PUSH2 0x3FD9 JUMP JUMPDEST SWAP4 POP PUSH2 0x404E DUP4 PUSH2 0x3FEA JUMP JUMPDEST DUP1 PUSH1 0x0 JUMPDEST DUP4 DUP2 LT ISZERO PUSH2 0x407F JUMPI DUP2 MLOAD PUSH2 0x4066 DUP9 DUP3 PUSH2 0x4009 JUMP JUMPDEST SWAP8 POP PUSH2 0x4071 DUP4 PUSH2 0x4021 JUMP JUMPDEST SWAP3 POP POP PUSH1 0x1 DUP2 ADD SWAP1 POP PUSH2 0x4052 JUMP JUMPDEST POP DUP6 SWAP4 POP POP POP POP SWAP3 SWAP2 POP POP JUMP JUMPDEST PUSH1 0x0 PUSH1 0x20 DUP3 ADD SWAP1 POP DUP2 DUP2 SUB PUSH1 0x0 DUP4 ADD MSTORE PUSH2 0x40A6 DUP2 DUP5 PUSH2 0x402E JUMP JUMPDEST SWAP1 POP SWAP3 SWAP2 POP POP JUMP JUMPDEST PUSH1 0x0 PUSH32 0xFF00000000000000000000000000000000000000000000000000000000000000 DUP3 AND SWAP1 POP SWAP2 SWAP1 POP JUMP JUMPDEST PUSH2 0x40E3 DUP2 PUSH2 0x40AE JUMP JUMPDEST DUP3 MSTORE POP POP JUMP JUMPDEST PUSH1 0x0 DUP2 SWAP1 POP SWAP2 SWAP1 POP JUMP JUMPDEST PUSH2 0x40FC DUP2 PUSH2 0x40E9 JUMP JUMPDEST DUP3 MSTORE POP POP JUMP JUMPDEST PUSH1 0x0 PUSH1 0xE0 DUP3 ADD SWAP1 POP PUSH2 0x4117 PUSH1 0x0 DUP4 ADD DUP11 PUSH2 0x40DA JUMP JUMPDEST DUP2 DUP2 SUB PUSH1 0x20 DUP4 ADD MSTORE PUSH2 0x4129 DUP2 DUP10 PUSH2 0x3E29 JUMP JUMPDEST SWAP1 POP DUP2 DUP2 SUB PUSH1 0x40 DUP4 ADD MSTORE PUSH2 0x413D DUP2 DUP9 PUSH2 0x3E29 JUMP JUMPDEST SWAP1 POP PUSH2 0x414C PUSH1 0x60 DUP4 ADD DUP8 PUSH2 0x3FA4 JUMP JUMPDEST PUSH2 0x4159 PUSH1 0x80 DUP4 ADD DUP7 PUSH2 0x3EE7 JUMP JUMPDEST PUSH2 0x4166 PUSH1 0xA0 DUP4 ADD DUP6 PUSH2 0x40F3 JUMP JUMPDEST DUP2 DUP2 SUB PUSH1 0xC0 DUP4 ADD MSTORE PUSH2 0x4178 DUP2 DUP5 PUSH2 0x402E JUMP JUMPDEST SWAP1 POP SWAP9 SWAP8 POP POP POP POP POP POP POP POP JUMP JUMPDEST PUSH1 0x0 DUP1 REVERT JUMPDEST PUSH1 0x0 DUP1 REVERT JUMPDEST PUSH32 0x4E487B7100000000000000000000000000000000000000000000000000000000 PUSH1 0x0 MSTORE PUSH1 0x41 PUSH1 0x4 MSTORE PUSH1 0x24 PUSH1 0x0 REVERT JUMPDEST PUSH2 0x41C8 DUP3 PUSH2 0x3E18 JUMP JUMPDEST DUP2 ADD DUP2 DUP2 LT PUSH8 0xFFFFFFFFFFFFFFFF DUP3 GT OR ISZERO PUSH2 0x41E7 JUMPI PUSH2 0x41E6 PUSH2 0x4190 JUMP JUMPDEST JUMPDEST DUP1 PUSH1 0x40 MSTORE POP POP POP JUMP JUMPDEST PUSH1 0x0 PUSH2 0x41FA PUSH2 0x3C78 JUMP JUMPDEST SWAP1 POP PUSH2 0x4206 DUP3 DUP3 PUSH2 0x41BF JUMP JUMPDEST SWAP2 SWAP1 POP JUMP JUMPDEST PUSH1 0x0 PUSH8 0xFFFFFFFFFFFFFFFF DUP3 GT ISZERO PUSH2 0x4226 JUMPI PUSH2 0x4225 PUSH2 0x4190 JUMP JUMPDEST JUMPDEST PUSH2 0x422F DUP3 PUSH2 0x3E18 JUMP JUMPDEST SWAP1 POP PUSH1 0x20 DUP2 ADD SWAP1 POP SWAP2 SWAP1 POP JUMP JUMPDEST DUP3 DUP2 DUP4 CALLDATACOPY PUSH1 0x0 DUP4 DUP4 ADD MSTORE POP POP POP JUMP JUMPDEST PUSH1 0x0 PUSH2 0x425E PUSH2 0x4259 DUP5 PUSH2 0x420B JUMP JUMPDEST PUSH2 0x41F0 JUMP JUMPDEST SWAP1 POP DUP3 DUP2 MSTORE PUSH1 0x20 DUP2 ADD DUP5 DUP5 DUP5 ADD GT ISZERO PUSH2 0x427A JUMPI PUSH2 0x4279 PUSH2 0x418B JUMP JUMPDEST JUMPDEST PUSH2 0x4285 DUP5 DUP3 DUP6 PUSH2 0x423C JUMP JUMPDEST POP SWAP4 SWAP3 POP POP POP JUMP JUMPDEST PUSH1 0x0 DUP3 PUSH1 0x1F DUP4 ADD SLT PUSH2 0x42A2 JUMPI PUSH2 0x42A1 PUSH2 0x4186 JUMP JUMPDEST JUMPDEST DUP2 CALLDATALOAD PUSH2 0x42B2 DUP5 DUP3 PUSH1 0x20 DUP7 ADD PUSH2 0x424B JUMP JUMPDEST SWAP2 POP POP SWAP3 SWAP2 POP POP JUMP JUMPDEST PUSH1 0x0 DUP1 PUSH1 0x0 DUP1 PUSH1 0x0 PUSH1 0xA0 DUP7 DUP9 SUB SLT ISZERO PUSH2 0x42D7 JUMPI PUSH2 0x42D6 PUSH2 0x3C82 JUMP JUMPDEST JUMPDEST PUSH1 0x0 PUSH2 0x42E5 DUP9 DUP3 DUP10 ADD PUSH2 0x3D90 JUMP JUMPDEST SWAP6 POP POP PUSH1 0x20 PUSH2 0x42F6 DUP9 DUP3 DUP10 ADD PUSH2 0x3EA5 JUMP JUMPDEST SWAP5 POP POP PUSH1 0x40 PUSH2 0x4307 DUP9 DUP3 DUP10 ADD PUSH2 0x3EA5 JUMP JUMPDEST SWAP4 POP POP PUSH1 0x60 PUSH2 0x4318 DUP9 DUP3 DUP10 ADD PUSH2 0x3EA5 JUMP JUMPDEST SWAP3 POP POP PUSH1 0x80 DUP7 ADD CALLDATALOAD PUSH8 0xFFFFFFFFFFFFFFFF DUP2 GT ISZERO PUSH2 0x4339 JUMPI PUSH2 0x4338 PUSH2 0x3C87 JUMP JUMPDEST JUMPDEST PUSH2 0x4345 DUP9 DUP3 DUP10 ADD PUSH2 0x428D JUMP JUMPDEST SWAP2 POP POP SWAP3 SWAP6 POP SWAP3 SWAP6 SWAP1 SWAP4 POP JUMP JUMPDEST PUSH2 0x435B DUP2 PUSH2 0x3D11 JUMP JUMPDEST DUP2 EQ PUSH2 0x4366 JUMPI PUSH1 0x0 DUP1 REVERT JUMPDEST POP JUMP JUMPDEST PUSH1 0x0 DUP2 CALLDATALOAD SWAP1 POP PUSH2 0x4378 DUP2 PUSH2 0x4352 JUMP JUMPDEST SWAP3 SWAP2 POP POP JUMP JUMPDEST PUSH1 0x0 DUP1 PUSH1 0x40 DUP4 DUP6 SUB SLT ISZERO PUSH2 0x4395 JUMPI PUSH2 0x4394 PUSH2 0x3C82 JUMP JUMPDEST JUMPDEST PUSH1 0x0 PUSH2 0x43A3 DUP6 DUP3 DUP7 ADD PUSH2 0x3D90 JUMP JUMPDEST SWAP3 POP POP PUSH1 0x20 PUSH2 0x43B4 DUP6 DUP3 DUP7 ADD PUSH2 0x4369 JUMP JUMPDEST SWAP2 POP POP SWAP3 POP SWAP3 SWAP1 POP JUMP JUMPDEST PUSH1 0x0 PUSH8 0xFFFFFFFFFFFFFFFF DUP3 GT ISZERO PUSH2 0x43D9 JUMPI PUSH2 0x43D8 PUSH2 0x4190 JUMP JUMPDEST JUMPDEST PUSH1 0x20 DUP3 MUL SWAP1 POP PUSH1 0x20 DUP2 ADD SWAP1 POP SWAP2 SWAP1 POP JUMP JUMPDEST PUSH1 0x0 DUP1 REVERT JUMPDEST PUSH1 0x0 PUSH8 0xFFFFFFFFFFFFFFFF DUP3 GT ISZERO PUSH2 0x440A JUMPI PUSH2 0x4409 PUSH2 0x4190 JUMP JUMPDEST JUMPDEST PUSH2 0x4413 DUP3 PUSH2 0x3E18 JUMP JUMPDEST SWAP1 POP PUSH1 0x20 DUP2 ADD SWAP1 POP SWAP2 SWAP1 POP JUMP JUMPDEST PUSH1 0x0 PUSH2 0x4433 PUSH2 0x442E DUP5 PUSH2 0x43EF JUMP JUMPDEST PUSH2 0x41F0 JUMP JUMPDEST SWAP1 POP DUP3 DUP2 MSTORE PUSH1 0x20 DUP2 ADD DUP5 DUP5 DUP5 ADD GT ISZERO PUSH2 0x444F JUMPI PUSH2 0x444E PUSH2 0x418B JUMP JUMPDEST JUMPDEST PUSH2 0x445A DUP5 DUP3 DUP6 PUSH2 0x423C JUMP JUMPDEST POP SWAP4 SWAP3 POP POP POP JUMP JUMPDEST PUSH1 0x0 DUP3 PUSH1 0x1F DUP4 ADD SLT PUSH2 0x4477 JUMPI PUSH2 0x4476 PUSH2 0x4186 JUMP JUMPDEST JUMPDEST DUP2 CALLDATALOAD PUSH2 0x4487 DUP5 DUP3 PUSH1 0x20 DUP7 ADD PUSH2 0x4420 JUMP JUMPDEST SWAP2 POP POP SWAP3 SWAP2 POP POP JUMP JUMPDEST PUSH1 0x0 PUSH2 0x44A3 PUSH2 0x449E DUP5 PUSH2 0x43BE JUMP JUMPDEST PUSH2 0x41F0 JUMP JUMPDEST SWAP1 POP DUP1 DUP4 DUP3 MSTORE PUSH1 0x20 DUP3 ADD SWAP1 POP PUSH1 0x20 DUP5 MUL DUP4 ADD DUP6 DUP2 GT ISZERO PUSH2 0x44C6 JUMPI PUSH2 0x44C5 PUSH2 0x43EA JUMP JUMPDEST JUMPDEST DUP4 JUMPDEST DUP2 DUP2 LT ISZERO PUSH2 0x450D JUMPI DUP1 CALLDATALOAD PUSH8 0xFFFFFFFFFFFFFFFF DUP2 GT ISZERO PUSH2 0x44EB JUMPI PUSH2 0x44EA PUSH2 0x4186 JUMP JUMPDEST JUMPDEST DUP1 DUP7 ADD PUSH2 0x44F8 DUP10 DUP3 PUSH2 0x4462 JUMP JUMPDEST DUP6 MSTORE PUSH1 0x20 DUP6 ADD SWAP5 POP POP POP PUSH1 0x20 DUP2 ADD SWAP1 POP PUSH2 0x44C8 JUMP JUMPDEST POP POP POP SWAP4 SWAP3 POP POP POP JUMP JUMPDEST PUSH1 0x0 DUP3 PUSH1 0x1F DUP4 ADD SLT PUSH2 0x452C JUMPI PUSH2 0x452B PUSH2 0x4186 JUMP JUMPDEST JUMPDEST DUP2 CALLDATALOAD PUSH2 0x453C DUP5 DUP3 PUSH1 0x20 DUP7 ADD PUSH2 0x4490 JUMP JUMPDEST SWAP2 POP POP SWAP3 SWAP2 POP POP JUMP JUMPDEST PUSH1 0x0 PUSH8 0xFFFFFFFFFFFFFFFF DUP3 GT ISZERO PUSH2 0x4560 JUMPI PUSH2 0x455F PUSH2 0x4190 JUMP JUMPDEST JUMPDEST PUSH1 0x20 DUP3 MUL SWAP1 POP PUSH1 0x20 DUP2 ADD SWAP1 POP SWAP2 SWAP1 POP JUMP JUMPDEST PUSH1 0x0 PUSH2 0x4584 PUSH2 0x457F DUP5 PUSH2 0x4545 JUMP JUMPDEST PUSH2 0x41F0 JUMP JUMPDEST SWAP1 POP DUP1 DUP4 DUP3 MSTORE PUSH1 0x20 DUP3 ADD SWAP1 POP PUSH1 0x20 DUP5 MUL DUP4 ADD DUP6 DUP2 GT ISZERO PUSH2 0x45A7 JUMPI PUSH2 0x45A6 PUSH2 0x43EA JUMP JUMPDEST JUMPDEST DUP4 JUMPDEST DUP2 DUP2 LT ISZERO PUSH2 0x45D0 JUMPI DUP1 PUSH2 0x45BC DUP9 DUP3 PUSH2 0x3EA5 JUMP JUMPDEST DUP5 MSTORE PUSH1 0x20 DUP5 ADD SWAP4 POP POP PUSH1 0x20 DUP2 ADD SWAP1 POP PUSH2 0x45A9 JUMP JUMPDEST POP POP POP SWAP4 SWAP3 POP POP POP JUMP JUMPDEST PUSH1 0x0 DUP3 PUSH1 0x1F DUP4 ADD SLT PUSH2 0x45EF JUMPI PUSH2 0x45EE PUSH2 0x4186 JUMP JUMPDEST JUMPDEST DUP2 CALLDATALOAD PUSH2 0x45FF DUP5 DUP3 PUSH1 0x20 DUP7 ADD PUSH2 0x4571 JUMP JUMPDEST SWAP2 POP POP SWAP3 SWAP2 POP POP JUMP JUMPDEST PUSH1 0x0 DUP1 PUSH1 0x40 DUP4 DUP6 SUB SLT ISZERO PUSH2 0x461F JUMPI PUSH2 0x461E PUSH2 0x3C82 JUMP JUMPDEST JUMPDEST PUSH1 0x0 DUP4 ADD CALLDATALOAD PUSH8 0xFFFFFFFFFFFFFFFF DUP2 GT ISZERO PUSH2 0x463D JUMPI PUSH2 0x463C PUSH2 0x3C87 JUMP JUMPDEST JUMPDEST PUSH2 0x4649 DUP6 DUP3 DUP7 ADD PUSH2 0x4517 JUMP JUMPDEST SWAP3 POP POP PUSH1 0x20 DUP4 ADD CALLDATALOAD PUSH8 0xFFFFFFFFFFFFFFFF DUP2 GT ISZERO PUSH2 0x466A JUMPI PUSH2 0x4669 PUSH2 0x3C87 JUMP JUMPDEST JUMPDEST PUSH2 0x4676 DUP6 DUP3 DUP7 ADD PUSH2 0x45DA JUMP JUMPDEST SWAP2 POP POP SWAP3 POP SWAP3 SWAP1 POP JUMP JUMPDEST PUSH1 0x0 DUP1 PUSH1 0x0 DUP1 PUSH1 0x80 DUP6 DUP8 SUB SLT ISZERO PUSH2 0x469A JUMPI PUSH2 0x4699 PUSH2 0x3C82 JUMP JUMPDEST JUMPDEST PUSH1 0x0 PUSH2 0x46A8 DUP8 DUP3 DUP9 ADD PUSH2 0x3D90 JUMP JUMPDEST SWAP5 POP POP PUSH1 0x20 PUSH2 0x46B9 DUP8 DUP3 DUP9 ADD PUSH2 0x3D90 JUMP JUMPDEST SWAP4 POP POP PUSH1 0x40 PUSH2 0x46CA DUP8 DUP3 DUP9 ADD PUSH2 0x3EA5 JUMP JUMPDEST SWAP3 POP POP PUSH1 0x60 DUP6 ADD CALLDATALOAD PUSH8 0xFFFFFFFFFFFFFFFF DUP2 GT ISZERO PUSH2 0x46EB JUMPI PUSH2 0x46EA PUSH2 0x3C87 JUMP JUMPDEST JUMPDEST PUSH2 0x46F7 DUP8 DUP3 DUP9 ADD PUSH2 0x428D JUMP JUMPDEST SWAP2 POP POP SWAP3 SWAP6 SWAP2 SWAP5 POP SWAP3 POP JUMP JUMPDEST PUSH1 0x0 DUP1 PUSH1 0x40 DUP4 DUP6 SUB SLT ISZERO PUSH2 0x471A JUMPI PUSH2 0x4719 PUSH2 0x3C82 JUMP JUMPDEST JUMPDEST PUSH1 0x0 PUSH2 0x4728 DUP6 DUP3 DUP7 ADD PUSH2 0x3D90 JUMP JUMPDEST SWAP3 POP POP PUSH1 0x20 PUSH2 0x4739 DUP6 DUP3 DUP7 ADD PUSH2 0x3D90 JUMP JUMPDEST SWAP2 POP POP SWAP3 POP SWAP3 SWAP1 POP JUMP JUMPDEST PUSH1 0x0 PUSH1 0x20 DUP3 ADD SWAP1 POP PUSH2 0x4758 PUSH1 0x0 DUP4 ADD DUP5 PUSH2 0x40F3 JUMP JUMPDEST SWAP3 SWAP2 POP POP JUMP JUMPDEST PUSH32 0x5369676E657220616464726573732063616E6E6F74206265207A65726F000000 PUSH1 0x0 DUP3 ADD MSTORE POP JUMP JUMPDEST PUSH1 0x0 PUSH2 0x4794 PUSH1 0x1D DUP4 PUSH2 0x3DDD JUMP JUMPDEST SWAP2 POP PUSH2 0x479F DUP3 PUSH2 0x475E JUMP JUMPDEST PUSH1 0x20 DUP3 ADD SWAP1 POP SWAP2 SWAP1 POP JUMP JUMPDEST PUSH1 0x0 PUSH1 0x20 DUP3 ADD SWAP1 POP DUP2 DUP2 SUB PUSH1 0x0 DUP4 ADD MSTORE PUSH2 0x47C3 DUP2 PUSH2 0x4787 JUMP JUMPDEST SWAP1 POP SWAP2 SWAP1 POP JUMP JUMPDEST PUSH32 0x5369676E657220616464726573732063616E6E6F74206265206120636F6E7472 PUSH1 0x0 DUP3 ADD MSTORE PUSH32 0x6163740000000000000000000000000000000000000000000000000000000000 PUSH1 0x20 DUP3 ADD MSTORE POP JUMP JUMPDEST PUSH1 0x0 PUSH2 0x4826 PUSH1 0x23 DUP4 PUSH2 0x3DDD JUMP JUMPDEST SWAP2 POP PUSH2 0x4831 DUP3 PUSH2 0x47CA JUMP JUMPDEST PUSH1 0x40 DUP3 ADD SWAP1 POP SWAP2 SWAP1 POP JUMP JUMPDEST PUSH1 0x0 PUSH1 0x20 DUP3 ADD SWAP1 POP DUP2 DUP2 SUB PUSH1 0x0 DUP4 ADD MSTORE PUSH2 0x4855 DUP2 PUSH2 0x4819 JUMP JUMPDEST SWAP1 POP SWAP2 SWAP1 POP JUMP JUMPDEST PUSH32 0x4E487B7100000000000000000000000000000000000000000000000000000000 PUSH1 0x0 MSTORE PUSH1 0x22 PUSH1 0x4 MSTORE PUSH1 0x24 PUSH1 0x0 REVERT JUMPDEST PUSH1 0x0 PUSH1 0x2 DUP3 DIV SWAP1 POP PUSH1 0x1 DUP3 AND DUP1 PUSH2 0x48A3 JUMPI PUSH1 0x7F DUP3 AND SWAP2 POP JUMPDEST PUSH1 0x20 DUP3 LT DUP2 SUB PUSH2 0x48B6 JUMPI PUSH2 0x48B5 PUSH2 0x485C JUMP JUMPDEST JUMPDEST POP SWAP2 SWAP1 POP JUMP JUMPDEST PUSH32 0x4552433732313A20617070726F76616C20746F2063757272656E74206F776E65 PUSH1 0x0 DUP3 ADD MSTORE PUSH32 0x7200000000000000000000000000000000000000000000000000000000000000 PUSH1 0x20 DUP3 ADD MSTORE POP JUMP JUMPDEST PUSH1 0x0 PUSH2 0x4918 PUSH1 0x21 DUP4 PUSH2 0x3DDD JUMP JUMPDEST SWAP2 POP PUSH2 0x4923 DUP3 PUSH2 0x48BC JUMP JUMPDEST PUSH1 0x40 DUP3 ADD SWAP1 POP SWAP2 SWAP1 POP JUMP JUMPDEST PUSH1 0x0 PUSH1 0x20 DUP3 ADD SWAP1 POP DUP2 DUP2 SUB PUSH1 0x0 DUP4 ADD MSTORE PUSH2 0x4947 DUP2 PUSH2 0x490B JUMP JUMPDEST SWAP1 POP SWAP2 SWAP1 POP JUMP JUMPDEST PUSH32 0x4552433732313A20617070726F76652063616C6C6572206973206E6F7420746F PUSH1 0x0 DUP3 ADD MSTORE PUSH32 0x6B656E206F776E6572206F7220617070726F76656420666F7220616C6C000000 PUSH1 0x20 DUP3 ADD MSTORE POP JUMP JUMPDEST PUSH1 0x0 PUSH2 0x49AA PUSH1 0x3D DUP4 PUSH2 0x3DDD JUMP JUMPDEST SWAP2 POP PUSH2 0x49B5 DUP3 PUSH2 0x494E JUMP JUMPDEST PUSH1 0x40 DUP3 ADD SWAP1 POP SWAP2 SWAP1 POP JUMP JUMPDEST PUSH1 0x0 PUSH1 0x20 DUP3 ADD SWAP1 POP DUP2 DUP2 SUB PUSH1 0x0 DUP4 ADD MSTORE PUSH2 0x49D9 DUP2 PUSH2 0x499D JUMP JUMPDEST SWAP1 POP SWAP2 SWAP1 POP JUMP JUMPDEST PUSH32 0x4552433732313A2063616C6C6572206973206E6F7420746F6B656E206F776E65 PUSH1 0x0 DUP3 ADD MSTORE PUSH32 0x72206F7220617070726F76656400000000000000000000000000000000000000 PUSH1 0x20 DUP3 ADD MSTORE POP JUMP JUMPDEST PUSH1 0x0 PUSH2 0x4A3C PUSH1 0x2D DUP4 PUSH2 0x3DDD JUMP JUMPDEST SWAP2 POP PUSH2 0x4A47 DUP3 PUSH2 0x49E0 JUMP JUMPDEST PUSH1 0x40 DUP3 ADD SWAP1 POP SWAP2 SWAP1 POP JUMP JUMPDEST PUSH1 0x0 PUSH1 0x20 DUP3 ADD SWAP1 POP DUP2 DUP2 SUB PUSH1 0x0 DUP4 ADD MSTORE PUSH2 0x4A6B DUP2 PUSH2 0x4A2F JUMP JUMPDEST SWAP1 POP SWAP2 SWAP1 POP JUMP JUMPDEST PUSH32 0x4E6F2062616C616E636520746F20776974686472617700000000000000000000 PUSH1 0x0 DUP3 ADD MSTORE POP JUMP JUMPDEST PUSH1 0x0 PUSH2 0x4AA8 PUSH1 0x16 DUP4 PUSH2 0x3DDD JUMP JUMPDEST SWAP2 POP PUSH2 0x4AB3 DUP3 PUSH2 0x4A72 JUMP JUMPDEST PUSH1 0x20 DUP3 ADD SWAP1 POP SWAP2 SWAP1 POP JUMP JUMPDEST PUSH1 0x0 PUSH1 0x20 DUP3 ADD SWAP1 POP DUP2 DUP2 SUB PUSH1 0x0 DUP4 ADD MSTORE PUSH2 0x4AD7 DUP2 PUSH2 0x4A9B JUMP JUMPDEST SWAP1 POP SWAP2 SWAP1 POP JUMP JUMPDEST PUSH32 0x546F6B656E20646F6573206E6F74206578697374000000000000000000000000 PUSH1 0x0 DUP3 ADD MSTORE POP JUMP JUMPDEST PUSH1 0x0 PUSH2 0x4B14 PUSH1 0x14 DUP4 PUSH2 0x3DDD JUMP JUMPDEST SWAP2 POP PUSH2 0x4B1F DUP3 PUSH2 0x4ADE JUMP JUMPDEST PUSH1 0x20 DUP3 ADD SWAP1 POP SWAP2 SWAP1 POP JUMP JUMPDEST PUSH1 0x0 PUSH1 0x20 DUP3 ADD SWAP1 POP DUP2 DUP2 SUB PUSH1 0x0 DUP4 ADD MSTORE PUSH2 0x4B43 DUP2 PUSH2 0x4B07 JUMP JUMPDEST SWAP1 POP SWAP2 SWAP1 POP JUMP JUMPDEST PUSH32 0x4552433732313A20696E76616C696420746F6B656E2049440000000000000000 PUSH1 0x0 DUP3 ADD MSTORE POP JUMP JUMPDEST PUSH1 0x0 PUSH2 0x4B80 PUSH1 0x18 DUP4 PUSH2 0x3DDD JUMP JUMPDEST SWAP2 POP PUSH2 0x4B8B DUP3 PUSH2 0x4B4A JUMP JUMPDEST PUSH1 0x20 DUP3 ADD SWAP1 POP SWAP2 SWAP1 POP JUMP JUMPDEST PUSH1 0x0 PUSH1 0x20 DUP3 ADD SWAP1 POP DUP2 DUP2 SUB PUSH1 0x0 DUP4 ADD MSTORE PUSH2 0x4BAF DUP2 PUSH2 0x4B73 JUMP JUMPDEST SWAP1 POP SWAP2 SWAP1 POP JUMP JUMPDEST PUSH32 0x4552433732313A2061646472657373207A65726F206973206E6F742061207661 PUSH1 0x0 DUP3 ADD MSTORE PUSH32 0x6C6964206F776E65720000000000000000000000000000000000000000000000 PUSH1 0x20 DUP3 ADD MSTORE POP JUMP JUMPDEST PUSH1 0x0 PUSH2 0x4C12 PUSH1 0x29 DUP4 PUSH2 0x3DDD JUMP JUMPDEST SWAP2 POP PUSH2 0x4C1D DUP3 PUSH2 0x4BB6 JUMP JUMPDEST PUSH1 0x40 DUP3 ADD SWAP1 POP SWAP2 SWAP1 POP JUMP JUMPDEST PUSH1 0x0 PUSH1 0x20 DUP3 ADD SWAP1 POP DUP2 DUP2 SUB PUSH1 0x0 DUP4 ADD MSTORE PUSH2 0x4C41 DUP2 PUSH2 0x4C05 JUMP JUMPDEST SWAP1 POP SWAP2 SWAP1 POP JUMP JUMPDEST PUSH32 0x4E487B7100000000000000000000000000000000000000000000000000000000 PUSH1 0x0 MSTORE PUSH1 0x32 PUSH1 0x4 MSTORE PUSH1 0x24 PUSH1 0x0 REVERT JUMPDEST PUSH32 0x4E487B7100000000000000000000000000000000000000000000000000000000 PUSH1 0x0 MSTORE PUSH1 0x11 PUSH1 0x4 MSTORE PUSH1 0x24 PUSH1 0x0 REVERT JUMPDEST PUSH1 0x0 PUSH2 0x4CB1 DUP3 PUSH2 0x3E84 JUMP JUMPDEST SWAP2 POP PUSH2 0x4CBC DUP4 PUSH2 0x3E84 JUMP JUMPDEST SWAP3 POP DUP3 DUP3 SUB SWAP1 POP DUP2 DUP2 GT ISZERO PUSH2 0x4CD4 JUMPI PUSH2 0x4CD3 PUSH2 0x4C77 JUMP JUMPDEST JUMPDEST SWAP3 SWAP2 POP POP JUMP JUMPDEST PUSH32 0x5265666C6578426C69747A4E46543A20496E636F7272656374206D696E742070 PUSH1 0x0 DUP3 ADD MSTORE PUSH32 0x7269636500000000000000000000000000000000000000000000000000000000 PUSH1 0x20 DUP3 ADD MSTORE POP JUMP JUMPDEST PUSH1 0x0 PUSH2 0x4D36 PUSH1 0x24 DUP4 PUSH2 0x3DDD JUMP JUMPDEST SWAP2 POP PUSH2 0x4D41 DUP3 PUSH2 0x4CDA JUMP JUMPDEST PUSH1 0x40 DUP3 ADD SWAP1 POP SWAP2 SWAP1 POP JUMP JUMPDEST PUSH1 0x0 PUSH1 0x20 DUP3 ADD SWAP1 POP DUP2 DUP2 SUB PUSH1 0x0 DUP4 ADD MSTORE PUSH2 0x4D65 DUP2 PUSH2 0x4D29 JUMP JUMPDEST SWAP1 POP SWAP2 SWAP1 POP JUMP JUMPDEST PUSH32 0x5265666C6578426C69747A4E46543A204E6F6E636520616C7265616479207573 PUSH1 0x0 DUP3 ADD MSTORE PUSH32 0x6564000000000000000000000000000000000000000000000000000000000000 PUSH1 0x20 DUP3 ADD MSTORE POP JUMP JUMPDEST PUSH1 0x0 PUSH2 0x4DC8 PUSH1 0x22 DUP4 PUSH2 0x3DDD JUMP JUMPDEST SWAP2 POP PUSH2 0x4DD3 DUP3 PUSH2 0x4D6C JUMP JUMPDEST PUSH1 0x40 DUP3 ADD SWAP1 POP SWAP2 SWAP1 POP JUMP JUMPDEST PUSH1 0x0 PUSH1 0x20 DUP3 ADD SWAP1 POP DUP2 DUP2 SUB PUSH1 0x0 DUP4 ADD MSTORE PUSH2 0x4DF7 DUP2 PUSH2 0x4DBB JUMP JUMPDEST SWAP1 POP SWAP2 SWAP1 POP JUMP JUMPDEST PUSH32 0x5265666C6578426C69747A4E46543A205369676E617475726520657870697265 PUSH1 0x0 DUP3 ADD MSTORE PUSH32 0x6400000000000000000000000000000000000000000000000000000000000000 PUSH1 0x20 DUP3 ADD MSTORE POP JUMP JUMPDEST PUSH1 0x0 PUSH2 0x4E5A PUSH1 0x21 DUP4 PUSH2 0x3DDD JUMP JUMPDEST SWAP2 POP PUSH2 0x4E65 DUP3 PUSH2 0x4DFE JUMP JUMPDEST PUSH1 0x40 DUP3 ADD SWAP1 POP SWAP2 SWAP1 POP JUMP JUMPDEST PUSH1 0x0 PUSH1 0x20 DUP3 ADD SWAP1 POP DUP2 DUP2 SUB PUSH1 0x0 DUP4 ADD MSTORE PUSH2 0x4E89 DUP2 PUSH2 0x4E4D JUMP JUMPDEST SWAP1 POP SWAP2 SWAP1 POP JUMP JUMPDEST PUSH32 0x5265666C6578426C69747A4E46543A205369676E65722061646472657373206E PUSH1 0x0 DUP3 ADD MSTORE PUSH32 0x6F7420736574206279206F776E65720000000000000000000000000000000000 PUSH1 0x20 DUP3 ADD MSTORE POP JUMP JUMPDEST PUSH1 0x0 PUSH2 0x4EEC PUSH1 0x2F DUP4 PUSH2 0x3DDD JUMP JUMPDEST SWAP2 POP PUSH2 0x4EF7 DUP3 PUSH2 0x4E90 JUMP JUMPDEST PUSH1 0x40 DUP3 ADD SWAP1 POP SWAP2 SWAP1 POP JUMP JUMPDEST PUSH1 0x0 PUSH1 0x20 DUP3 ADD SWAP1 POP DUP2 DUP2 SUB PUSH1 0x0 DUP4 ADD MSTORE PUSH2 0x4F1B DUP2 PUSH2 0x4EDF JUMP JUMPDEST SWAP1 POP SWAP2 SWAP1 POP JUMP JUMPDEST PUSH1 0x0 PUSH1 0xC0 DUP3 ADD SWAP1 POP PUSH2 0x4F37 PUSH1 0x0 DUP4 ADD DUP10 PUSH2 0x40F3 JUMP JUMPDEST PUSH2 0x4F44 PUSH1 0x20 DUP4 ADD DUP9 PUSH2 0x3EE7 JUMP JUMPDEST PUSH2 0x4F51 PUSH1 0x40 DUP4 ADD DUP8 PUSH2 0x3FA4 JUMP JUMPDEST PUSH2 0x4F5E PUSH1 0x60 DUP4 ADD DUP7 PUSH2 0x3FA4 JUMP JUMPDEST PUSH2 0x4F6B PUSH1 0x80 DUP4 ADD DUP6 PUSH2 0x3FA4 JUMP JUMPDEST PUSH2 0x4F78 PUSH1 0xA0 DUP4 ADD DUP5 PUSH2 0x3EE7 JUMP JUMPDEST SWAP8 SWAP7 POP POP POP POP POP POP POP JUMP JUMPDEST PUSH32 0x5265666C6578426C69747A4E46543A20496E76616C6964207369676E61747572 PUSH1 0x0 DUP3 ADD MSTORE PUSH32 0x6500000000000000000000000000000000000000000000000000000000000000 PUSH1 0x20 DUP3 ADD MSTORE POP JUMP JUMPDEST PUSH1 0x0 PUSH2 0x4FDF PUSH1 0x21 DUP4 PUSH2 0x3DDD JUMP JUMPDEST SWAP2 POP PUSH2 0x4FEA DUP3 PUSH2 0x4F83 JUMP JUMPDEST PUSH1 0x40 DUP3 ADD SWAP1 POP SWAP2 SWAP1 POP JUMP JUMPDEST PUSH1 0x0 PUSH1 0x20 DUP3 ADD SWAP1 POP DUP2 DUP2 SUB PUSH1 0x0 DUP4 ADD MSTORE PUSH2 0x500E DUP2 PUSH2 0x4FD2 JUMP JUMPDEST SWAP1 POP SWAP2 SWAP1 POP JUMP JUMPDEST PUSH1 0x0 PUSH1 0x60 DUP3 ADD SWAP1 POP PUSH2 0x502A PUSH1 0x0 DUP4 ADD DUP7 PUSH2 0x3FA4 JUMP JUMPDEST DUP2 DUP2 SUB PUSH1 0x20 DUP4 ADD MSTORE PUSH2 0x503C DUP2 DUP6 PUSH2 0x3E29 JUMP JUMPDEST SWAP1 POP PUSH2 0x504B PUSH1 0x40 DUP4 ADD DUP5 PUSH2 0x3FA4 JUMP JUMPDEST SWAP5 SWAP4 POP POP POP POP JUMP JUMPDEST PUSH32 0x52616E6B7320616E64207468726573686F6C6473206C656E677468206D69736D PUSH1 0x0 DUP3 ADD MSTORE PUSH32 0x6174636800000000000000000000000000000000000000000000000000000000 PUSH1 0x20 DUP3 ADD MSTORE POP JUMP JUMPDEST PUSH1 0x0 PUSH2 0x50AF PUSH1 0x24 DUP4 PUSH2 0x3DDD JUMP JUMPDEST SWAP2 POP PUSH2 0x50BA DUP3 PUSH2 0x5053 JUMP JUMPDEST PUSH1 0x40 DUP3 ADD SWAP1 POP SWAP2 SWAP1 POP JUMP JUMPDEST PUSH1 0x0 PUSH1 0x20 DUP3 ADD SWAP1 POP DUP2 DUP2 SUB PUSH1 0x0 DUP4 ADD MSTORE PUSH2 0x50DE DUP2 PUSH2 0x50A2 JUMP JUMPDEST SWAP1 POP SWAP2 SWAP1 POP JUMP JUMPDEST PUSH32 0x43616E6E6F742073657420656D7074792072616E6B7300000000000000000000 PUSH1 0x0 DUP3 ADD MSTORE POP JUMP JUMPDEST PUSH1 0x0 PUSH2 0x511B PUSH1 0x16 DUP4 PUSH2 0x3DDD JUMP JUMPDEST SWAP2 POP PUSH2 0x5126 DUP3 PUSH2 0x50E5 JUMP JUMPDEST PUSH1 0x20 DUP3 ADD SWAP1 POP SWAP2 SWAP1 POP JUMP JUMPDEST PUSH1 0x0 PUSH1 0x20 DUP3 ADD SWAP1 POP DUP2 DUP2 SUB PUSH1 0x0 DUP4 ADD MSTORE PUSH2 0x514A DUP2 PUSH2 0x510E JUMP JUMPDEST SWAP1 POP SWAP2 SWAP1 POP JUMP JUMPDEST PUSH1 0x0 PUSH2 0x515C DUP3 PUSH2 0x3E84 JUMP JUMPDEST SWAP2 POP PUSH2 0x5167 DUP4 PUSH2 0x3E84 JUMP JUMPDEST SWAP3 POP DUP3 DUP3 ADD SWAP1 POP DUP1 DUP3 GT ISZERO PUSH2 0x517F JUMPI PUSH2 0x517E PUSH2 0x4C77 JUMP JUMPDEST JUMPDEST SWAP3 SWAP2 POP POP JUMP JUMPDEST PUSH32 0x5468726573686F6C6473206D75737420626520696E20617363656E64696E6720 PUSH1 0x0 DUP3 ADD MSTORE PUSH32 0x6F72646572000000000000000000000000000000000000000000000000000000 PUSH1 0x20 DUP3 ADD MSTORE POP JUMP JUMPDEST PUSH1 0x0 PUSH2 0x51E1 PUSH1 0x25 DUP4 PUSH2 0x3DDD JUMP JUMPDEST SWAP2 POP PUSH2 0x51EC DUP3 PUSH2 0x5185 JUMP JUMPDEST PUSH1 0x40 DUP3 ADD SWAP1 POP SWAP2 SWAP1 POP JUMP JUMPDEST PUSH1 0x0 PUSH1 0x20 DUP3 ADD SWAP1 POP DUP2 DUP2 SUB PUSH1 0x0 DUP4 ADD MSTORE PUSH2 0x5210 DUP2 PUSH2 0x51D4 JUMP JUMPDEST SWAP1 POP SWAP2 SWAP1 POP JUMP JUMPDEST PUSH1 0x0 DUP2 MLOAD SWAP1 POP SWAP2 SWAP1 POP JUMP JUMPDEST PUSH1 0x0 DUP3 DUP3 MSTORE PUSH1 0x20 DUP3 ADD SWAP1 POP SWAP3 SWAP2 POP POP JUMP JUMPDEST PUSH1 0x0 DUP2 SWAP1 POP PUSH1 0x20 DUP3 ADD SWAP1 POP SWAP2 SWAP1 POP JUMP JUMPDEST PUSH1 0x0 DUP3 DUP3 MSTORE PUSH1 0x20 DUP3 ADD SWAP1 POP SWAP3 SWAP2 POP POP JUMP JUMPDEST PUSH1 0x0 PUSH2 0x525F DUP3 PUSH2 0x3DD2 JUMP JUMPDEST PUSH2 0x5269 DUP2 DUP6 PUSH2 0x5243 JUMP JUMPDEST SWAP4 POP PUSH2 0x5279 DUP2 DUP6 PUSH1 0x20 DUP7 ADD PUSH2 0x3DEE JUMP JUMPDEST PUSH2 0x5282 DUP2 PUSH2 0x3E18 JUMP JUMPDEST DUP5 ADD SWAP2 POP POP SWAP3 SWAP2 POP POP JUMP JUMPDEST PUSH1 0x0 PUSH2 0x5299 DUP4 DUP4 PUSH2 0x5254 JUMP JUMPDEST SWAP1 POP SWAP3 SWAP2 POP POP JUMP JUMPDEST PUSH1 0x0 PUSH1 0x20 DUP3 ADD SWAP1 POP SWAP2 SWAP1 POP JUMP JUMPDEST PUSH1 0x0 PUSH2 0x52B9 DUP3 PUSH2 0x5217 JUMP JUMPDEST PUSH2 0x52C3 DUP2 DUP6 PUSH2 0x5222 JUMP JUMPDEST SWAP4 POP DUP4 PUSH1 0x20 DUP3 MUL DUP6 ADD PUSH2 0x52D5 DUP6 PUSH2 0x5233 JUMP JUMPDEST DUP1 PUSH1 0x0 JUMPDEST DUP6 DUP2 LT ISZERO PUSH2 0x5311 JUMPI DUP5 DUP5 SUB DUP10 MSTORE DUP2 MLOAD PUSH2 0x52F2 DUP6 DUP3 PUSH2 0x528D JUMP JUMPDEST SWAP5 POP PUSH2 0x52FD DUP4 PUSH2 0x52A1 JUMP JUMPDEST SWAP3 POP PUSH1 0x20 DUP11 ADD SWAP10 POP POP PUSH1 0x1 DUP2 ADD SWAP1 POP PUSH2 0x52D9 JUMP JUMPDEST POP DUP3 SWAP8 POP DUP8 SWAP6 POP POP POP POP POP POP SWAP3 SWAP2 POP POP JUMP JUMPDEST PUSH1 0x0 PUSH1 0x40 DUP3 ADD SWAP1 POP DUP2 DUP2 SUB PUSH1 0x0 DUP4 ADD MSTORE PUSH2 0x533D DUP2 DUP6 PUSH2 0x52AE JUMP JUMPDEST SWAP1 POP DUP2 DUP2 SUB PUSH1 0x20 DUP4 ADD MSTORE PUSH2 0x5351 DUP2 DUP5 PUSH2 0x402E JUMP JUMPDEST SWAP1 POP SWAP4 SWAP3 POP POP POP JUMP JUMPDEST PUSH1 0x0 DUP2 SWAP1 POP SWAP3 SWAP2 POP POP JUMP JUMPDEST PUSH1 0x0 PUSH2 0x5370 DUP3 PUSH2 0x3DD2 JUMP JUMPDEST PUSH2 0x537A DUP2 DUP6 PUSH2 0x535A JUMP JUMPDEST SWAP4 POP PUSH2 0x538A DUP2 DUP6 PUSH1 0x20 DUP7 ADD PUSH2 0x3DEE JUMP JUMPDEST DUP1 DUP5 ADD SWAP2 POP POP SWAP3 SWAP2 POP POP JUMP JUMPDEST PUSH1 0x0 PUSH2 0x53A2 DUP3 DUP6 PUSH2 0x5365 JUMP JUMPDEST SWAP2 POP PUSH2 0x53AE DUP3 DUP5 PUSH2 0x5365 JUMP JUMPDEST SWAP2 POP DUP2 SWAP1 POP SWAP4 SWAP3 POP POP POP JUMP JUMPDEST PUSH32 0x4F776E61626C653A206E6577206F776E657220697320746865207A65726F2061 PUSH1 0x0 DUP3 ADD MSTORE PUSH32 0x6464726573730000000000000000000000000000000000000000000000000000 PUSH1 0x20 DUP3 ADD MSTORE POP JUMP JUMPDEST PUSH1 0x0 PUSH2 0x5416 PUSH1 0x26 DUP4 PUSH2 0x3DDD JUMP JUMPDEST SWAP2 POP PUSH2 0x5421 DUP3 PUSH2 0x53BA JUMP JUMPDEST PUSH1 0x40 DUP3 ADD SWAP1 POP SWAP2 SWAP1 POP JUMP JUMPDEST PUSH1 0x0 PUSH1 0x20 DUP3 ADD SWAP1 POP DUP2 DUP2 SUB PUSH1 0x0 DUP4 ADD MSTORE PUSH2 0x5445 DUP2 PUSH2 0x5409 JUMP JUMPDEST SWAP1 POP SWAP2 SWAP1 POP JUMP JUMPDEST PUSH32 0x4F776E61626C653A2063616C6C6572206973206E6F7420746865206F776E6572 PUSH1 0x0 DUP3 ADD MSTORE POP JUMP JUMPDEST PUSH1 0x0 PUSH2 0x5482 PUSH1 0x20 DUP4 PUSH2 0x3DDD JUMP JUMPDEST SWAP2 POP PUSH2 0x548D DUP3 PUSH2 0x544C JUMP JUMPDEST PUSH1 0x20 DUP3 ADD SWAP1 POP SWAP2 SWAP1 POP JUMP JUMPDEST PUSH1 0x0 PUSH1 0x20 DUP3 ADD SWAP1 POP DUP2 DUP2 SUB PUSH1 0x0 DUP4 ADD MSTORE PUSH2 0x54B1 DUP2 PUSH2 0x5475 JUMP JUMPDEST SWAP1 POP SWAP2 SWAP1 POP JUMP JUMPDEST PUSH32 0x4552433732313A207472616E736665722066726F6D20696E636F727265637420 PUSH1 0x0 DUP3 ADD MSTORE PUSH32 0x6F776E6572000000000000000000000000000000000000000000000000000000 PUSH1 0x20 DUP3 ADD MSTORE POP JUMP JUMPDEST PUSH1 0x0 PUSH2 0x5514 PUSH1 0x25 DUP4 PUSH2 0x3DDD JUMP JUMPDEST SWAP2 POP PUSH2 0x551F DUP3 PUSH2 0x54B8 JUMP JUMPDEST PUSH1 0x40 DUP3 ADD SWAP1 POP SWAP2 SWAP1 POP JUMP JUMPDEST PUSH1 0x0 PUSH1 0x20 DUP3 ADD SWAP1 POP DUP2 DUP2 SUB PUSH1 0x0 DUP4 ADD MSTORE PUSH2 0x5543 DUP2 PUSH2 0x5507 JUMP JUMPDEST SWAP1 POP SWAP2 SWAP1 POP JUMP JUMPDEST PUSH32 0x4552433732313A207472616E7366657220746F20746865207A65726F20616464 PUSH1 0x0 DUP3 ADD MSTORE PUSH32 0x7265737300000000000000000000000000000000000000000000000000000000 PUSH1 0x20 DUP3 ADD MSTORE POP JUMP JUMPDEST PUSH1 0x0 PUSH2 0x55A6 PUSH1 0x24 DUP4 PUSH2 0x3DDD JUMP JUMPDEST SWAP2 POP PUSH2 0x55B1 DUP3 PUSH2 0x554A JUMP JUMPDEST PUSH1 0x40 DUP3 ADD SWAP1 POP SWAP2 SWAP1 POP JUMP JUMPDEST PUSH1 0x0 PUSH1 0x20 DUP3 ADD SWAP1 POP DUP2 DUP2 SUB PUSH1 0x0 DUP4 ADD MSTORE PUSH2 0x55D5 DUP2 PUSH2 0x5599 JUMP JUMPDEST SWAP1 POP SWAP2 SWAP1 POP JUMP JUMPDEST PUSH32 0x4552433732313A206D696E7420746F20746865207A65726F2061646472657373 PUSH1 0x0 DUP3 ADD MSTORE POP JUMP JUMPDEST PUSH1 0x0 PUSH2 0x5612 PUSH1 0x20 DUP4 PUSH2 0x3DDD JUMP JUMPDEST SWAP2 POP PUSH2 0x561D DUP3 PUSH2 0x55DC JUMP JUMPDEST PUSH1 0x20 DUP3 ADD SWAP1 POP SWAP2 SWAP1 POP JUMP JUMPDEST PUSH1 0x0 PUSH1 0x20 DUP3 ADD SWAP1 POP DUP2 DUP2 SUB PUSH1 0x0 DUP4 ADD MSTORE PUSH2 0x5641 DUP2 PUSH2 0x5605 JUMP JUMPDEST SWAP1 POP SWAP2 SWAP1 POP JUMP JUMPDEST PUSH32 0x4552433732313A20746F6B656E20616C7265616479206D696E74656400000000 PUSH1 0x0 DUP3 ADD MSTORE POP JUMP JUMPDEST PUSH1 0x0 PUSH2 0x567E PUSH1 0x1C DUP4 PUSH2 0x3DDD JUMP JUMPDEST SWAP2 POP PUSH2 0x5689 DUP3 PUSH2 0x5648 JUMP JUMPDEST PUSH1 0x20 DUP3 ADD SWAP1 POP SWAP2 SWAP1 POP JUMP JUMPDEST PUSH1 0x0 PUSH1 0x20 DUP3 ADD SWAP1 POP DUP2 DUP2 SUB PUSH1 0x0 DUP4 ADD MSTORE PUSH2 0x56AD DUP2 PUSH2 0x5671 JUMP JUMPDEST SWAP1 POP SWAP2 SWAP1 POP JUMP JUMPDEST PUSH32 0x4E487B7100000000000000000000000000000000000000000000000000000000 PUSH1 0x0 MSTORE PUSH1 0x12 PUSH1 0x4 MSTORE PUSH1 0x24 PUSH1 0x0 REVERT JUMPDEST PUSH1 0x0 PUSH2 0x56EE DUP3 PUSH2 0x3E84 JUMP JUMPDEST SWAP2 POP PUSH2 0x56F9 DUP4 PUSH2 0x3E84 JUMP JUMPDEST SWAP3 POP DUP3 PUSH2 0x5709 JUMPI PUSH2 0x5708 PUSH2 0x56B4 JUMP JUMPDEST JUMPDEST DUP3 DUP3 DIV SWAP1 POP SWAP3 SWAP2 POP POP JUMP JUMPDEST PUSH1 0x0 PUSH2 0x571F DUP3 PUSH2 0x3E84 JUMP JUMPDEST SWAP2 POP PUSH2 0x572A DUP4 PUSH2 0x3E84 JUMP JUMPDEST SWAP3 POP DUP3 PUSH2 0x573A JUMPI PUSH2 0x5739 PUSH2 0x56B4 JUMP JUMPDEST JUMPDEST DUP3 DUP3 MOD SWAP1 POP SWAP3 SWAP2 POP POP JUMP JUMPDEST PUSH32 0x3030000000000000000000000000000000000000000000000000000000000000 PUSH1 0x0 DUP3 ADD MSTORE POP JUMP JUMPDEST PUSH1 0x0 PUSH2 0x577B PUSH1 0x2 DUP4 PUSH2 0x535A JUMP JUMPDEST SWAP2 POP PUSH2 0x5786 DUP3 PUSH2 0x5745 JUMP JUMPDEST PUSH1 0x2 DUP3 ADD SWAP1 POP SWAP2 SWAP1 POP JUMP JUMPDEST PUSH1 0x0 PUSH2 0x579C DUP3 PUSH2 0x576E JUMP JUMPDEST SWAP2 POP PUSH2 0x57A8 DUP3 DUP5 PUSH2 0x5365 JUMP JUMPDEST SWAP2 POP DUP2 SWAP1 POP SWAP3 SWAP2 POP POP JUMP JUMPDEST PUSH32 0x3000000000000000000000000000000000000000000000000000000000000000 PUSH1 0x0 DUP3 ADD MSTORE POP JUMP JUMPDEST PUSH1 0x0 PUSH2 0x57E9 PUSH1 0x1 DUP4 PUSH2 0x535A JUMP JUMPDEST SWAP2 POP PUSH2 0x57F4 DUP3 PUSH2 0x57B3 JUMP JUMPDEST PUSH1 0x1 DUP3 ADD SWAP1 POP SWAP2 SWAP1 POP JUMP JUMPDEST PUSH1 0x0 PUSH2 0x580A DUP3 PUSH2 0x57DC JUMP JUMPDEST SWAP2 POP PUSH2 0x5816 DUP3 DUP5 PUSH2 0x5365 JUMP JUMPDEST SWAP2 POP DUP2 SWAP1 POP SWAP3 SWAP2 POP POP JUMP JUMPDEST PUSH32 0x7B226E616D65223A20225265666C6578426C69747A2052424120230000000000 PUSH1 0x0 DUP3 ADD MSTORE POP JUMP JUMPDEST PUSH1 0x0 PUSH2 0x5857 PUSH1 0x1B DUP4 PUSH2 0x535A JUMP JUMPDEST SWAP2 POP PUSH2 0x5862 DUP3 PUSH2 0x5821 JUMP JUMPDEST PUSH1 0x1B DUP3 ADD SWAP1 POP SWAP2 SWAP1 POP JUMP JUMPDEST PUSH32 0x222C200000000000000000000000000000000000000000000000000000000000 PUSH1 0x0 DUP3 ADD MSTORE POP JUMP JUMPDEST PUSH1 0x0 PUSH2 0x58A3 PUSH1 0x3 DUP4 PUSH2 0x535A JUMP JUMPDEST SWAP2 POP PUSH2 0x58AE DUP3 PUSH2 0x586D JUMP JUMPDEST PUSH1 0x3 DUP3 ADD SWAP1 POP SWAP2 SWAP1 POP JUMP JUMPDEST PUSH32 0x226465736372697074696F6E223A20225265666C6578426C69747A2061636869 PUSH1 0x0 DUP3 ADD MSTORE PUSH32 0x6576656D656E74204E46542E205265616374696F6E2054696D653A2000000000 PUSH1 0x20 DUP3 ADD MSTORE POP JUMP JUMPDEST PUSH1 0x0 PUSH2 0x5915 PUSH1 0x3C DUP4 PUSH2 0x535A JUMP JUMPDEST SWAP2 POP PUSH2 0x5920 DUP3 PUSH2 0x58B9 JUMP JUMPDEST PUSH1 0x3C DUP3 ADD SWAP1 POP SWAP2 SWAP1 POP JUMP JUMPDEST PUSH32 0x2E00000000000000000000000000000000000000000000000000000000000000 PUSH1 0x0 DUP3 ADD MSTORE POP JUMP JUMPDEST PUSH1 0x0 PUSH2 0x5961 PUSH1 0x1 DUP4 PUSH2 0x535A JUMP JUMPDEST SWAP2 POP PUSH2 0x596C DUP3 PUSH2 0x592B JUMP JUMPDEST PUSH1 0x1 DUP3 ADD SWAP1 POP SWAP2 SWAP1 POP JUMP JUMPDEST PUSH32 0x206D732E2052616E6B3A20000000000000000000000000000000000000000000 PUSH1 0x0 DUP3 ADD MSTORE POP JUMP JUMPDEST PUSH1 0x0 PUSH2 0x59AD PUSH1 0xB DUP4 PUSH2 0x535A JUMP JUMPDEST SWAP2 POP PUSH2 0x59B8 DUP3 PUSH2 0x5977 JUMP JUMPDEST PUSH1 0xB DUP3 ADD SWAP1 POP SWAP2 SWAP1 POP JUMP JUMPDEST PUSH32 0x2E222C2000000000000000000000000000000000000000000000000000000000 PUSH1 0x0 DUP3 ADD MSTORE POP JUMP JUMPDEST PUSH1 0x0 PUSH2 0x59F9 PUSH1 0x4 DUP4 PUSH2 0x535A JUMP JUMPDEST SWAP2 POP PUSH2 0x5A04 DUP3 PUSH2 0x59C3 JUMP JUMPDEST PUSH1 0x4 DUP3 ADD SWAP1 POP SWAP2 SWAP1 POP JUMP JUMPDEST PUSH32 0x22696D616765223A2022646174613A696D6167652F7376672B786D6C3B626173 PUSH1 0x0 DUP3 ADD MSTORE PUSH32 0x6536342C00000000000000000000000000000000000000000000000000000000 PUSH1 0x20 DUP3 ADD MSTORE POP JUMP JUMPDEST PUSH1 0x0 PUSH2 0x5A6B PUSH1 0x24 DUP4 PUSH2 0x535A JUMP JUMPDEST SWAP2 POP PUSH2 0x5A76 DUP3 PUSH2 0x5A0F JUMP JUMPDEST PUSH1 0x24 DUP3 ADD SWAP1 POP SWAP2 SWAP1 POP JUMP JUMPDEST PUSH32 0x2261747472696275746573223A205B0000000000000000000000000000000000 PUSH1 0x0 DUP3 ADD MSTORE POP JUMP JUMPDEST PUSH1 0x0 PUSH2 0x5AB7 PUSH1 0xF DUP4 PUSH2 0x535A JUMP JUMPDEST SWAP2 POP PUSH2 0x5AC2 DUP3 PUSH2 0x5A81 JUMP JUMPDEST PUSH1 0xF DUP3 ADD SWAP1 POP SWAP2 SWAP1 POP JUMP JUMPDEST PUSH32 0x7B2274726169745F74797065223A20225265616374696F6E2054696D6520286D PUSH1 0x0 DUP3 ADD MSTORE PUSH32 0x7329222C202276616C7565223A20220000000000000000000000000000000000 PUSH1 0x20 DUP3 ADD MSTORE POP JUMP JUMPDEST PUSH1 0x0 PUSH2 0x5B29 PUSH1 0x2F DUP4 PUSH2 0x535A JUMP JUMPDEST SWAP2 POP PUSH2 0x5B34 DUP3 PUSH2 0x5ACD JUMP JUMPDEST PUSH1 0x2F DUP3 ADD SWAP1 POP SWAP2 SWAP1 POP JUMP JUMPDEST PUSH32 0x227D2C2000000000000000000000000000000000000000000000000000000000 PUSH1 0x0 DUP3 ADD MSTORE POP JUMP JUMPDEST PUSH1 0x0 PUSH2 0x5B75 PUSH1 0x4 DUP4 PUSH2 0x535A JUMP JUMPDEST SWAP2 POP PUSH2 0x5B80 DUP3 PUSH2 0x5B3F JUMP JUMPDEST PUSH1 0x4 DUP3 ADD SWAP1 POP SWAP2 SWAP1 POP JUMP JUMPDEST PUSH32 0x7B2274726169745F74797065223A202252616E6B222C202276616C7565223A20 PUSH1 0x0 DUP3 ADD MSTORE PUSH32 0x2200000000000000000000000000000000000000000000000000000000000000 PUSH1 0x20 DUP3 ADD MSTORE POP JUMP JUMPDEST PUSH1 0x0 PUSH2 0x5BE7 PUSH1 0x21 DUP4 PUSH2 0x535A JUMP JUMPDEST SWAP2 POP PUSH2 0x5BF2 DUP3 PUSH2 0x5B8B JUMP JUMPDEST PUSH1 0x21 DUP3 ADD SWAP1 POP SWAP2 SWAP1 POP JUMP JUMPDEST PUSH32 0x227D5D7D00000000000000000000000000000000000000000000000000000000 PUSH1 0x0 DUP3 ADD MSTORE POP JUMP JUMPDEST PUSH1 0x0 PUSH2 0x5C33 PUSH1 0x4 DUP4 PUSH2 0x535A JUMP JUMPDEST SWAP2 POP PUSH2 0x5C3E DUP3 PUSH2 0x5BFD JUMP JUMPDEST PUSH1 0x4 DUP3 ADD SWAP1 POP SWAP2 SWAP1 POP JUMP JUMPDEST PUSH1 0x0 PUSH2 0x5C54 DUP3 PUSH2 0x584A JUMP JUMPDEST SWAP2 POP PUSH2 0x5C60 DUP3 DUP12 PUSH2 0x5365 JUMP JUMPDEST SWAP2 POP PUSH2 0x5C6B DUP3 PUSH2 0x5896 JUMP JUMPDEST SWAP2 POP PUSH2 0x5C76 DUP3 PUSH2 0x5908 JUMP JUMPDEST SWAP2 POP PUSH2 0x5C82 DUP3 DUP11 PUSH2 0x5365 JUMP JUMPDEST SWAP2 POP PUSH2 0x5C8D DUP3 PUSH2 0x5954 JUMP JUMPDEST SWAP2 POP PUSH2 0x5C99 DUP3 DUP10 PUSH2 0x5365 JUMP JUMPDEST SWAP2 POP PUSH2 0x5CA4 DUP3 PUSH2 0x59A0 JUMP JUMPDEST SWAP2 POP PUSH2 0x5CB0 DUP3 DUP9 PUSH2 0x5365 JUMP JUMPDEST SWAP2 POP PUSH2 0x5CBB DUP3 PUSH2 0x59EC JUMP JUMPDEST SWAP2 POP PUSH2 0x5CC6 DUP3 PUSH2 0x5A5E JUMP JUMPDEST SWAP2 POP PUSH2 0x5CD2 DUP3 DUP8 PUSH2 0x5365 JUMP JUMPDEST SWAP2 POP PUSH2 0x5CDD DUP3 PUSH2 0x5896 JUMP JUMPDEST SWAP2 POP PUSH2 0x5CE8 DUP3 PUSH2 0x5AAA JUMP JUMPDEST SWAP2 POP PUSH2 0x5CF3 DUP3 PUSH2 0x5B1C JUMP JUMPDEST SWAP2 POP PUSH2 0x5CFF DUP3 DUP7 PUSH2 0x5365 JUMP JUMPDEST SWAP2 POP PUSH2 0x5D0A DUP3 PUSH2 0x5954 JUMP JUMPDEST SWAP2 POP PUSH2 0x5D16 DUP3 DUP6 PUSH2 0x5365 JUMP JUMPDEST SWAP2 POP PUSH2 0x5D21 DUP3 PUSH2 0x5B68 JUMP JUMPDEST SWAP2 POP PUSH2 0x5D2C DUP3 PUSH2 0x5BDA JUMP JUMPDEST SWAP2 POP PUSH2 0x5D38 DUP3 DUP5 PUSH2 0x5365 JUMP JUMPDEST SWAP2 POP PUSH2 0x5D43 DUP3 PUSH2 0x5C26 JUMP JUMPDEST SWAP2 POP DUP2 SWAP1 POP SWAP10 SWAP9 POP POP POP POP POP POP POP POP POP JUMP JUMPDEST PUSH32 0x646174613A6170706C69636174696F6E2F6A736F6E3B6261736536342C000000 PUSH1 0x0 DUP3 ADD MSTORE POP JUMP JUMPDEST PUSH1 0x0 PUSH2 0x5D8B PUSH1 0x1D DUP4 PUSH2 0x535A JUMP JUMPDEST SWAP2 POP PUSH2 0x5D96 DUP3 PUSH2 0x5D55 JUMP JUMPDEST PUSH1 0x1D DUP3 ADD SWAP1 POP SWAP2 SWAP1 POP JUMP JUMPDEST PUSH1 0x0 PUSH2 0x5DAC DUP3 PUSH2 0x5D7E JUMP JUMPDEST SWAP2 POP PUSH2 0x5DB8 DUP3 DUP5 PUSH2 0x5365 JUMP JUMPDEST SWAP2 POP DUP2 SWAP1 POP SWAP3 SWAP2 POP POP JUMP JUMPDEST PUSH32 0x45524337323155524953746F726167653A2055524920736574206F66206E6F6E PUSH1 0x0 DUP3 ADD MSTORE PUSH32 0x6578697374656E7420746F6B656E000000000000000000000000000000000000 PUSH1 0x20 DUP3 ADD MSTORE POP JUMP JUMPDEST PUSH1 0x0 PUSH2 0x5E1F PUSH1 0x2E DUP4 PUSH2 0x3DDD JUMP JUMPDEST SWAP2 POP PUSH2 0x5E2A DUP3 PUSH2 0x5DC3 JUMP JUMPDEST PUSH1 0x40 DUP3 ADD SWAP1 POP SWAP2 SWAP1 POP JUMP JUMPDEST PUSH1 0x0 PUSH1 0x20 DUP3 ADD SWAP1 POP DUP2 DUP2 SUB PUSH1 0x0 DUP4 ADD MSTORE PUSH2 0x5E4E DUP2 PUSH2 0x5E12 JUMP JUMPDEST SWAP1 POP SWAP2 SWAP1 POP JUMP JUMPDEST PUSH1 0x0 DUP2 SWAP1 POP DUP2 PUSH1 0x0 MSTORE PUSH1 0x20 PUSH1 0x0 KECCAK256 SWAP1 POP SWAP2 SWAP1 POP JUMP JUMPDEST PUSH1 0x0 PUSH1 0x20 PUSH1 0x1F DUP4 ADD DIV SWAP1 POP SWAP2 SWAP1 POP JUMP JUMPDEST PUSH1 0x0 DUP3 DUP3 SHL SWAP1 POP SWAP3 SWAP2 POP POP JUMP JUMPDEST PUSH1 0x0 PUSH1 0x8 DUP4 MUL PUSH2 0x5EB7 PUSH32 0xFFFFFFFFFFFFFFFFFFFFFFFFFFFFFFFFFFFFFFFFFFFFFFFFFFFFFFFFFFFFFFFF DUP3 PUSH2 0x5E7A JUMP JUMPDEST PUSH2 0x5EC1 DUP7 DUP4 PUSH2 0x5E7A JUMP JUMPDEST SWAP6 POP DUP1 NOT DUP5 AND SWAP4 POP DUP1 DUP7 AND DUP5 OR SWAP3 POP POP POP SWAP4 SWAP3 POP POP POP JUMP JUMPDEST PUSH1 0x0 DUP2 SWAP1 POP SWAP2 SWAP1 POP JUMP JUMPDEST PUSH1 0x0 PUSH2 0x5EFE PUSH2 0x5EF9 PUSH2 0x5EF4 DUP5 PUSH2 0x3E84 JUMP JUMPDEST PUSH2 0x5ED9 JUMP JUMPDEST PUSH2 0x3E84 JUMP JUMPDEST SWAP1 POP SWAP2 SWAP1 POP JUMP JUMPDEST PUSH1 0x0 DUP2 SWAP1 POP SWAP2 SWAP1 POP JUMP JUMPDEST PUSH2 0x5F18 DUP4 PUSH2 0x5EE3 JUMP JUMPDEST PUSH2 0x5F2C PUSH2 0x5F24 DUP3 PUSH2 0x5F05 JUMP JUMPDEST DUP5 DUP5 SLOAD PUSH2 0x5E87 JUMP JUMPDEST DUP3 SSTORE POP POP POP POP JUMP JUMPDEST PUSH1 0x0 SWAP1 JUMP JUMPDEST PUSH2 0x5F41 PUSH2 0x5F34 JUMP JUMPDEST PUSH2 0x5F4C DUP2 DUP5 DUP5 PUSH2 0x5F0F JUMP JUMPDEST POP POP POP JUMP JUMPDEST JUMPDEST DUP2 DUP2 LT ISZERO PUSH2 0x5F70 JUMPI PUSH2 0x5F65 PUSH1 0x0 DUP3 PUSH2 0x5F39 JUMP JUMPDEST PUSH1 0x1 DUP2 ADD SWAP1 POP PUSH2 0x5F52 JUMP JUMPDEST POP POP JUMP JUMPDEST PUSH1 0x1F DUP3 GT ISZERO PUSH2 0x5FB5 JUMPI PUSH2 0x5F86 DUP2 PUSH2 0x5E55 JUMP JUMPDEST PUSH2 0x5F8F DUP5 PUSH2 0x5E6A JUMP JUMPDEST DUP2 ADD PUSH1 0x20 DUP6 LT ISZERO PUSH2 0x5F9E JUMPI DUP2 SWAP1 POP JUMPDEST PUSH2 0x5FB2 PUSH2 0x5FAA DUP6 PUSH2 0x5E6A JUMP JUMPDEST DUP4 ADD DUP3 PUSH2 0x5F51 JUMP JUMPDEST POP POP JUMPDEST POP POP POP JUMP JUMPDEST PUSH1 0x0 DUP3 DUP3 SHR SWAP1 POP SWAP3 SWAP2 POP POP JUMP JUMPDEST PUSH1 0x0 PUSH2 0x5FD8 PUSH1 0x0 NOT DUP5 PUSH1 0x8 MUL PUSH2 0x5FBA JUMP JUMPDEST NOT DUP1 DUP4 AND SWAP2 POP POP SWAP3 SWAP2 POP POP JUMP JUMPDEST PUSH1 0x0 PUSH2 0x5FF1 DUP4 DUP4 PUSH2 0x5FC7 JUMP JUMPDEST SWAP2 POP DUP3 PUSH1 0x2 MUL DUP3 OR SWAP1 POP SWAP3 SWAP2 POP POP JUMP JUMPDEST PUSH2 0x600A DUP3 PUSH2 0x3DD2 JUMP JUMPDEST PUSH8 0xFFFFFFFFFFFFFFFF DUP2 GT ISZERO PUSH2 0x6023 JUMPI PUSH2 0x6022 PUSH2 0x4190 JUMP JUMPDEST JUMPDEST PUSH2 0x602D DUP3 SLOAD PUSH2 0x488B JUMP JUMPDEST PUSH2 0x6038 DUP3 DUP3 DUP6 PUSH2 0x5F74 JUMP JUMPDEST PUSH1 0x0 PUSH1 0x20 SWAP1 POP PUSH1 0x1F DUP4 GT PUSH1 0x1 DUP2 EQ PUSH2 0x606B JUMPI PUSH1 0x0 DUP5 ISZERO PUSH2 0x6059 JUMPI DUP3 DUP8 ADD MLOAD SWAP1 POP JUMPDEST PUSH2 0x6063 DUP6 DUP3 PUSH2 0x5FE5 JUMP JUMPDEST DUP7 SSTORE POP PUSH2 0x60CB JUMP JUMPDEST PUSH1 0x1F NOT DUP5 AND PUSH2 0x6079 DUP7 PUSH2 0x5E55 JUMP JUMPDEST PUSH1 0x0 JUMPDEST DUP3 DUP2 LT ISZERO PUSH2 0x60A1 JUMPI DUP5 DUP10 ADD MLOAD DUP3 SSTORE PUSH1 0x1 DUP3 ADD SWAP2 POP PUSH1 0x20 DUP6 ADD SWAP5 POP PUSH1 0x20 DUP2 ADD SWAP1 POP PUSH2 0x607C JUMP JUMPDEST DUP7 DUP4 LT ISZERO PUSH2 0x60BE JUMPI DUP5 DUP10 ADD MLOAD PUSH2 0x60BA PUSH1 0x1F DUP10 AND DUP3 PUSH2 0x5FC7 JUMP JUMPDEST DUP4 SSTORE POP JUMPDEST PUSH1 0x1 PUSH1 0x2 DUP9 MUL ADD DUP9 SSTORE POP POP POP JUMPDEST POP POP POP POP POP POP JUMP JUMPDEST PUSH32 0x4552433732313A20617070726F766520746F2063616C6C657200000000000000 PUSH1 0x0 DUP3 ADD MSTORE POP JUMP JUMPDEST PUSH1 0x0 PUSH2 0x6109 PUSH1 0x19 DUP4 PUSH2 0x3DDD JUMP JUMPDEST SWAP2 POP PUSH2 0x6114 DUP3 PUSH2 0x60D3 JUMP JUMPDEST PUSH1 0x20 DUP3 ADD SWAP1 POP SWAP2 SWAP1 POP JUMP JUMPDEST PUSH1 0x0 PUSH1 0x20 DUP3 ADD SWAP1 POP DUP2 DUP2 SUB PUSH1 0x0 DUP4 ADD MSTORE PUSH2 0x6138 DUP2 PUSH2 0x60FC JUMP JUMPDEST SWAP1 POP SWAP2 SWAP1 POP JUMP JUMPDEST PUSH32 0x4552433732313A207472616E7366657220746F206E6F6E204552433732315265 PUSH1 0x0 DUP3 ADD MSTORE PUSH32 0x63656976657220696D706C656D656E7465720000000000000000000000000000 PUSH1 0x20 DUP3 ADD MSTORE POP JUMP JUMPDEST PUSH1 0x0 PUSH2 0x619B PUSH1 0x32 DUP4 PUSH2 0x3DDD JUMP JUMPDEST SWAP2 POP PUSH2 0x61A6 DUP3 PUSH2 0x613F JUMP JUMPDEST PUSH1 0x40 DUP3 ADD SWAP1 POP SWAP2 SWAP1 POP JUMP JUMPDEST PUSH1 0x0 PUSH1 0x20 DUP3 ADD SWAP1 POP DUP2 DUP2 SUB PUSH1 0x0 DUP4 ADD MSTORE PUSH2 0x61CA DUP2 PUSH2 0x618E JUMP JUMPDEST SWAP1 POP SWAP2 SWAP1 POP JUMP JUMPDEST PUSH32 0x4E487B7100000000000000000000000000000000000000000000000000000000 PUSH1 0x0 MSTORE PUSH1 0x21 PUSH1 0x4 MSTORE PUSH1 0x24 PUSH1 0x0 REVERT JUMPDEST PUSH32 0x45434453413A20696E76616C6964207369676E61747572650000000000000000 PUSH1 0x0 DUP3 ADD MSTORE POP JUMP JUMPDEST PUSH1 0x0 PUSH2 0x6236 PUSH1 0x18 DUP4 PUSH2 0x3DDD JUMP JUMPDEST SWAP2 POP PUSH2 0x6241 DUP3 PUSH2 0x6200 JUMP JUMPDEST PUSH1 0x20 DUP3 ADD SWAP1 POP SWAP2 SWAP1 POP JUMP JUMPDEST PUSH1 0x0 PUSH1 0x20 DUP3 ADD SWAP1 POP DUP2 DUP2 SUB PUSH1 0x0 DUP4 ADD MSTORE PUSH2 0x6265 DUP2 PUSH2 0x6229 JUMP JUMPDEST SWAP1 POP SWAP2 SWAP1 POP JUMP JUMPDEST PUSH32 0x45434453413A20696E76616C6964207369676E6174757265206C656E67746800 PUSH1 0x0 DUP3 ADD MSTORE POP JUMP JUMPDEST PUSH1 0x0 PUSH2 0x62A2 PUSH1 0x1F DUP4 PUSH2 0x3DDD JUMP JUMPDEST SWAP2 POP PUSH2 0x62AD DUP3 PUSH2 0x626C JUMP JUMPDEST PUSH1 0x20 DUP3 ADD SWAP1 POP SWAP2 SWAP1 POP JUMP JUMPDEST PUSH1 0x0 PUSH1 0x20 DUP3 ADD SWAP1 POP DUP2 DUP2 SUB PUSH1 0x0 DUP4 ADD MSTORE PUSH2 0x62D1 DUP2 PUSH2 0x6295 JUMP JUMPDEST SWAP1 POP SWAP2 SWAP1 POP JUMP JUMPDEST PUSH32 0x45434453413A20696E76616C6964207369676E6174757265202773272076616C PUSH1 0x0 DUP3 ADD MSTORE PUSH32 0x7565000000000000000000000000000000000000000000000000000000000000 PUSH1 0x20 DUP3 ADD MSTORE POP JUMP JUMPDEST PUSH1 0x0 PUSH2 0x6334 PUSH1 0x22 DUP4 PUSH2 0x3DDD JUMP JUMPDEST SWAP2 POP PUSH2 0x633F DUP3 PUSH2 0x62D8 JUMP JUMPDEST PUSH1 0x40 DUP3 ADD SWAP1 POP SWAP2 SWAP1 POP JUMP JUMPDEST PUSH1 0x0 PUSH1 0x20 DUP3 ADD SWAP1 POP DUP2 DUP2 SUB PUSH1 0x0 DUP4 ADD MSTORE PUSH2 0x6363 DUP2 PUSH2 0x6327 JUMP JUMPDEST SWAP1 POP SWAP2 SWAP1 POP JUMP JUMPDEST PUSH32 0x2E30303000000000000000000000000000000000000000000000000000000000 PUSH1 0x0 DUP3 ADD MSTORE POP JUMP JUMPDEST PUSH1 0x0 PUSH2 0x63A0 PUSH1 0x4 DUP4 PUSH2 0x535A JUMP JUMPDEST SWAP2 POP PUSH2 0x63AB DUP3 PUSH2 0x636A JUMP JUMPDEST PUSH1 0x4 DUP3 ADD SWAP1 POP SWAP2 SWAP1 POP JUMP JUMPDEST PUSH1 0x0 PUSH2 0x63C2 DUP3 DUP5 PUSH2 0x5365 JUMP JUMPDEST SWAP2 POP PUSH2 0x63CD DUP3 PUSH2 0x6393 JUMP JUMPDEST SWAP2 POP DUP2 SWAP1 POP SWAP3 SWAP2 POP POP JUMP JUMPDEST PUSH32 0x2E30300000000000000000000000000000000000000000000000000000000000 PUSH1 0x0 DUP3 ADD MSTORE POP JUMP JUMPDEST PUSH1 0x0 PUSH2 0x640E PUSH1 0x3 DUP4 PUSH2 0x535A JUMP JUMPDEST SWAP2 POP PUSH2 0x6419 DUP3 PUSH2 0x63D8 JUMP JUMPDEST PUSH1 0x3 DUP3 ADD SWAP1 POP SWAP2 SWAP1 POP JUMP JUMPDEST PUSH1 0x0 PUSH2 0x6430 DUP3 DUP6 PUSH2 0x5365 JUMP JUMPDEST SWAP2 POP PUSH2 0x643B DUP3 PUSH2 0x6401 JUMP JUMPDEST SWAP2 POP PUSH2 0x6447 DUP3 DUP5 PUSH2 0x5365 JUMP JUMPDEST SWAP2 POP DUP2 SWAP1 POP SWAP4 SWAP3 POP POP POP JUMP JUMPDEST PUSH32 0x2E30000000000000000000000000000000000000000000000000000000000000 PUSH1 0x0 DUP3 ADD MSTORE POP JUMP JUMPDEST PUSH1 0x0 PUSH2 0x6489 PUSH1 0x2 DUP4 PUSH2 0x535A JUMP JUMPDEST SWAP2 POP PUSH2 0x6494 DUP3 PUSH2 0x6453 JUMP JUMPDEST PUSH1 0x2 DUP3 ADD SWAP1 POP SWAP2 SWAP1 POP JUMP JUMPDEST PUSH1 0x0 PUSH2 0x64AB DUP3 DUP6 PUSH2 0x5365 JUMP JUMPDEST SWAP2 POP PUSH2 0x64B6 DUP3 PUSH2 0x647C JUMP JUMPDEST SWAP2 POP PUSH2 0x64C2 DUP3 DUP5 PUSH2 0x5365 JUMP JUMPDEST SWAP2 POP DUP2 SWAP1 POP SWAP4 SWAP3 POP POP POP JUMP JUMPDEST PUSH1 0x0 PUSH2 0x64DA DUP3 DUP6 PUSH2 0x5365 JUMP JUMPDEST SWAP2 POP PUSH2 0x64E5 DUP3 PUSH2 0x5954 JUMP JUMPDEST SWAP2 POP PUSH2 0x64F1 DUP3 DUP5 PUSH2 0x5365 JUMP JUMPDEST SWAP2 POP DUP2 SWAP1 POP SWAP4 SWAP3 POP POP POP JUMP JUMPDEST PUSH32 0x532B000000000000000000000000000000000000000000000000000000000000 PUSH1 0x0 DUP3 ADD MSTORE POP JUMP JUMPDEST PUSH1 0x0 PUSH2 0x6533 PUSH1 0x2 DUP4 PUSH2 0x535A JUMP JUMPDEST SWAP2 POP PUSH2 0x653E DUP3 PUSH2 0x64FD JUMP JUMPDEST PUSH1 0x2 DUP3 ADD SWAP1 POP SWAP2 SWAP1 POP JUMP JUMPDEST PUSH1 0x0 PUSH2 0x6554 DUP3 PUSH2 0x6526 JUMP JUMPDEST SWAP2 POP DUP2 SWAP1 POP SWAP2 SWAP1 POP JUMP JUMPDEST PUSH1 0x0 PUSH2 0x656A DUP3 DUP5 PUSH2 0x5365 JUMP JUMPDEST SWAP2 POP DUP2 SWAP1 POP SWAP3 SWAP2 POP POP JUMP JUMPDEST PUSH32 0x5300000000000000000000000000000000000000000000000000000000000000 PUSH1 0x0 DUP3 ADD MSTORE POP JUMP JUMPDEST PUSH1 0x0 PUSH2 0x65AB PUSH1 0x1 DUP4 PUSH2 0x535A JUMP JUMPDEST SWAP2 POP PUSH2 0x65B6 DUP3 PUSH2 0x6575 JUMP JUMPDEST PUSH1 0x1 DUP3 ADD SWAP1 POP SWAP2 SWAP1 POP JUMP JUMPDEST PUSH1 0x0 PUSH2 0x65CC DUP3 PUSH2 0x659E JUMP JUMPDEST SWAP2 POP DUP2 SWAP1 POP SWAP2 SWAP1 POP JUMP JUMPDEST PUSH32 0x4100000000000000000000000000000000000000000000000000000000000000 PUSH1 0x0 DUP3 ADD MSTORE POP JUMP JUMPDEST PUSH1 0x0 PUSH2 0x660C PUSH1 0x1 DUP4 PUSH2 0x535A JUMP JUMPDEST SWAP2 POP PUSH2 0x6617 DUP3 PUSH2 0x65D6 JUMP JUMPDEST PUSH1 0x1 DUP3 ADD SWAP1 POP SWAP2 SWAP1 POP JUMP JUMPDEST PUSH1 0x0 PUSH2 0x662D DUP3 PUSH2 0x65FF JUMP JUMPDEST SWAP2 POP DUP2 SWAP1 POP SWAP2 SWAP1 POP JUMP JUMPDEST PUSH32 0x4200000000000000000000000000000000000000000000000000000000000000 PUSH1 0x0 DUP3 ADD MSTORE POP JUMP JUMPDEST PUSH1 0x0 PUSH2 0x666D PUSH1 0x1 DUP4 PUSH2 0x535A JUMP JUMPDEST SWAP2 POP PUSH2 0x6678 DUP3 PUSH2 0x6637 JUMP JUMPDEST PUSH1 0x1 DUP3 ADD SWAP1 POP SWAP2 SWAP1 POP JUMP JUMPDEST PUSH1 0x0 PUSH2 0x668E DUP3 PUSH2 0x6660 JUMP JUMPDEST SWAP2 POP DUP2 SWAP1 POP SWAP2 SWAP1 POP JUMP JUMPDEST PUSH32 0x4300000000000000000000000000000000000000000000000000000000000000 PUSH1 0x0 DUP3 ADD MSTORE POP JUMP JUMPDEST PUSH1 0x0 PUSH2 0x66CE PUSH1 0x1 DUP4 PUSH2 0x535A JUMP JUMPDEST SWAP2 POP PUSH2 0x66D9 DUP3 PUSH2 0x6698 JUMP JUMPDEST PUSH1 0x1 DUP3 ADD SWAP1 POP SWAP2 SWAP1 POP JUMP JUMPDEST PUSH1 0x0 PUSH2 0x66EF DUP3 PUSH2 0x66C1 JUMP JUMPDEST SWAP2 POP DUP2 SWAP1 POP SWAP2 SWAP1 POP JUMP JUMPDEST PUSH32 0x3C73766720786D6C6E733D22687474703A2F2F7777772E77332E6F72672F3230 PUSH1 0x0 DUP3 ADD MSTORE PUSH32 0x30302F737667222077696474683D2233353022206865696768743D2233353022 PUSH1 0x20 DUP3 ADD MSTORE PUSH32 0x2076696577426F783D223020302033353020333530223E000000000000000000 PUSH1 0x40 DUP3 ADD MSTORE POP JUMP JUMPDEST PUSH1 0x0 PUSH2 0x677B PUSH1 0x57 DUP4 PUSH2 0x535A JUMP JUMPDEST SWAP2 POP PUSH2 0x6786 DUP3 PUSH2 0x66F9 JUMP JUMPDEST PUSH1 0x57 DUP3 ADD SWAP1 POP SWAP2 SWAP1 POP JUMP JUMPDEST PUSH32 0x3C7374796C653E00000000000000000000000000000000000000000000000000 PUSH1 0x0 DUP3 ADD MSTORE POP JUMP JUMPDEST PUSH1 0x0 PUSH2 0x67C7 PUSH1 0x7 DUP4 PUSH2 0x535A JUMP JUMPDEST SWAP2 POP PUSH2 0x67D2 DUP3 PUSH2 0x6791 JUMP JUMPDEST PUSH1 0x7 DUP3 ADD SWAP1 POP SWAP2 SWAP1 POP JUMP JUMPDEST PUSH32 0x2E626173652D74657874207B20666F6E742D66616D696C793A20417269616C2C PUSH1 0x0 DUP3 ADD MSTORE PUSH32 0x2073616E732D73657269663B20746578742D616E63686F723A206D6964646C65 PUSH1 0x20 DUP3 ADD MSTORE PUSH32 0x3B2066696C6C3A2077686974653B207D00000000000000000000000000000000 PUSH1 0x40 DUP3 ADD MSTORE POP JUMP JUMPDEST PUSH1 0x0 PUSH2 0x685F PUSH1 0x50 DUP4 PUSH2 0x535A JUMP JUMPDEST SWAP2 POP PUSH2 0x686A DUP3 PUSH2 0x67DD JUMP JUMPDEST PUSH1 0x50 DUP3 ADD SWAP1 POP SWAP2 SWAP1 POP JUMP JUMPDEST PUSH32 0x2E7469746C652D74657874207B20666F6E742D73697A653A20323070783B207D PUSH1 0x0 DUP3 ADD MSTORE POP JUMP JUMPDEST PUSH1 0x0 PUSH2 0x68AB PUSH1 0x20 DUP4 PUSH2 0x535A JUMP JUMPDEST SWAP2 POP PUSH2 0x68B6 DUP3 PUSH2 0x6875 JUMP JUMPDEST PUSH1 0x20 DUP3 ADD SWAP1 POP SWAP2 SWAP1 POP JUMP JUMPDEST PUSH32 0x2E72616E6B2D74657874207B20666F6E742D73697A653A20343070783B20666F PUSH1 0x0 DUP3 ADD MSTORE PUSH32 0x6E742D7765696768743A20626F6C643B20646F6D696E616E742D626173656C69 PUSH1 0x20 DUP3 ADD MSTORE PUSH32 0x6E653A2063656E7472616C3B207D000000000000000000000000000000000000 PUSH1 0x40 DUP3 ADD MSTORE POP JUMP JUMPDEST PUSH1 0x0 PUSH2 0x6943 PUSH1 0x4E DUP4 PUSH2 0x535A JUMP JUMPDEST SWAP2 POP PUSH2 0x694E DUP3 PUSH2 0x68C1 JUMP JUMPDEST PUSH1 0x4E DUP3 ADD SWAP1 POP SWAP2 SWAP1 POP JUMP JUMPDEST PUSH32 0x2E6C6162656C2D74657874207B20666F6E742D73697A653A20313670783B207D PUSH1 0x0 DUP3 ADD MSTORE POP JUMP JUMPDEST PUSH1 0x0 PUSH2 0x698F PUSH1 0x20 DUP4 PUSH2 0x535A JUMP JUMPDEST SWAP2 POP PUSH2 0x699A DUP3 PUSH2 0x6959 JUMP JUMPDEST PUSH1 0x20 DUP3 ADD SWAP1 POP SWAP2 SWAP1 POP JUMP JUMPDEST PUSH32 0x2E76616C75652D74657874207B20666F6E742D73697A653A20333070783B2066 PUSH1 0x0 DUP3 ADD MSTORE PUSH32 0x6F6E742D7765696768743A20626F6C643B207D00000000000000000000000000 PUSH1 0x20 DUP3 ADD MSTORE POP JUMP JUMPDEST PUSH1 0x0 PUSH2 0x6A01 PUSH1 0x33 DUP4 PUSH2 0x535A JUMP JUMPDEST SWAP2 POP PUSH2 0x6A0C DUP3 PUSH2 0x69A5 JUMP JUMPDEST PUSH1 0x33 DUP3 ADD SWAP1 POP SWAP2 SWAP1 POP JUMP JUMPDEST PUSH32 0x2E746F6B656E69642D74657874207B20666F6E742D73697A653A20313470783B PUSH1 0x0 DUP3 ADD MSTORE PUSH32 0x207D000000000000000000000000000000000000000000000000000000000000 PUSH1 0x20 DUP3 ADD MSTORE POP JUMP JUMPDEST PUSH1 0x0 PUSH2 0x6A73 PUSH1 0x22 DUP4 PUSH2 0x535A JUMP JUMPDEST SWAP2 POP PUSH2 0x6A7E DUP3 PUSH2 0x6A17 JUMP JUMPDEST PUSH1 0x22 DUP3 ADD SWAP1 POP SWAP2 SWAP1 POP JUMP JUMPDEST PUSH32 0x2E666F6F7465722D74657874207B20666F6E742D73697A653A20313270783B20 PUSH1 0x0 DUP3 ADD MSTORE PUSH32 0x66696C6C3A20236130616563303B207D00000000000000000000000000000000 PUSH1 0x20 DUP3 ADD MSTORE POP JUMP JUMPDEST PUSH1 0x0 PUSH2 0x6AE5 PUSH1 0x30 DUP4 PUSH2 0x535A JUMP JUMPDEST SWAP2 POP PUSH2 0x6AF0 DUP3 PUSH2 0x6A89 JUMP JUMPDEST PUSH1 0x30 DUP3 ADD SWAP1 POP SWAP2 SWAP1 POP JUMP JUMPDEST PUSH32 0x3C2F7374796C653E000000000000000000000000000000000000000000000000 PUSH1 0x0 DUP3 ADD MSTORE POP JUMP JUMPDEST PUSH1 0x0 PUSH2 0x6B31 PUSH1 0x8 DUP4 PUSH2 0x535A JUMP JUMPDEST SWAP2 POP PUSH2 0x6B3C DUP3 PUSH2 0x6AFB JUMP JUMPDEST PUSH1 0x8 DUP3 ADD SWAP1 POP SWAP2 SWAP1 POP JUMP JUMPDEST PUSH32 0x3C726563742077696474683D223130302522206865696768743D223130302522 PUSH1 0x0 DUP3 ADD MSTORE PUSH32 0x2066696C6C3D222331663239333722202F3E0000000000000000000000000000 PUSH1 0x20 DUP3 ADD MSTORE POP JUMP JUMPDEST PUSH1 0x0 PUSH2 0x6BA3 PUSH1 0x32 DUP4 PUSH2 0x535A JUMP JUMPDEST SWAP2 POP PUSH2 0x6BAE DUP3 PUSH2 0x6B47 JUMP JUMPDEST PUSH1 0x32 DUP3 ADD SWAP1 POP SWAP2 SWAP1 POP JUMP JUMPDEST PUSH32 0x3C7465787420783D223137352220793D2235302220636C6173733D2262617365 PUSH1 0x0 DUP3 ADD MSTORE PUSH32 0x2D74657874207469746C652D74657874223E5265666C657820426C69747A2041 PUSH1 0x20 DUP3 ADD MSTORE PUSH32 0x6368696576656D656E743C2F746578743E000000000000000000000000000000 PUSH1 0x40 DUP3 ADD MSTORE POP JUMP JUMPDEST PUSH1 0x0 PUSH2 0x6C3B PUSH1 0x51 DUP4 PUSH2 0x535A JUMP JUMPDEST SWAP2 POP PUSH2 0x6C46 DUP3 PUSH2 0x6BB9 JUMP JUMPDEST PUSH1 0x51 DUP3 ADD SWAP1 POP SWAP2 SWAP1 POP JUMP JUMPDEST PUSH32 0x3C636972636C652063783D22313735222063793D223134302220723D22353022 PUSH1 0x0 DUP3 ADD MSTORE PUSH32 0x2066696C6C3D2200000000000000000000000000000000000000000000000000 PUSH1 0x20 DUP3 ADD MSTORE POP JUMP JUMPDEST PUSH1 0x0 PUSH2 0x6CAD PUSH1 0x27 DUP4 PUSH2 0x535A JUMP JUMPDEST SWAP2 POP PUSH2 0x6CB8 DUP3 PUSH2 0x6C51 JUMP JUMPDEST PUSH1 0x27 DUP3 ADD SWAP1 POP SWAP2 SWAP1 POP JUMP JUMPDEST PUSH32 0x22202F3E00000000000000000000000000000000000000000000000000000000 PUSH1 0x0 DUP3 ADD MSTORE POP JUMP JUMPDEST PUSH1 0x0 PUSH2 0x6CF9 PUSH1 0x4 DUP4 PUSH2 0x535A JUMP JUMPDEST SWAP2 POP PUSH2 0x6D04 DUP3 PUSH2 0x6CC3 JUMP JUMPDEST PUSH1 0x4 DUP3 ADD SWAP1 POP SWAP2 SWAP1 POP JUMP JUMPDEST PUSH32 0x3C7465787420783D223137352220793D22000000000000000000000000000000 PUSH1 0x0 DUP3 ADD MSTORE POP JUMP JUMPDEST PUSH1 0x0 PUSH2 0x6D45 PUSH1 0x11 DUP4 PUSH2 0x535A JUMP JUMPDEST SWAP2 POP PUSH2 0x6D50 DUP3 PUSH2 0x6D0F JUMP JUMPDEST PUSH1 0x11 DUP3 ADD SWAP1 POP SWAP2 SWAP1 POP JUMP JUMPDEST PUSH32 0x2220636C6173733D22626173652D746578742072616E6B2D74657874223E0000 PUSH1 0x0 DUP3 ADD MSTORE POP JUMP JUMPDEST PUSH1 0x0 PUSH2 0x6D91 PUSH1 0x1E DUP4 PUSH2 0x535A JUMP JUMPDEST SWAP2 POP PUSH2 0x6D9C DUP3 PUSH2 0x6D5B JUMP JUMPDEST PUSH1 0x1E DUP3 ADD SWAP1 POP SWAP2 SWAP1 POP JUMP JUMPDEST PUSH32 0x3C2F746578743E00000000000000000000000000000000000000000000000000 PUSH1 0x0 DUP3 ADD MSTORE POP JUMP JUMPDEST PUSH1 0x0 PUSH2 0x6DDD PUSH1 0x7 DUP4 PUSH2 0x535A JUMP JUMPDEST SWAP2 POP PUSH2 0x6DE8 DUP3 PUSH2 0x6DA7 JUMP JUMPDEST PUSH1 0x7 DUP3 ADD SWAP1 POP SWAP2 SWAP1 POP JUMP JUMPDEST PUSH32 0x3C7465787420783D223137352220793D223231352220636C6173733D22626173 PUSH1 0x0 DUP3 ADD MSTORE PUSH32 0x652D74657874206C6162656C2D74657874223E5265616374696F6E2054696D65 PUSH1 0x20 DUP3 ADD MSTORE PUSH32 0x3C2F746578743E00000000000000000000000000000000000000000000000000 PUSH1 0x40 DUP3 ADD MSTORE POP JUMP JUMPDEST PUSH1 0x0 PUSH2 0x6E75 PUSH1 0x47 DUP4 PUSH2 0x535A JUMP JUMPDEST SWAP2 POP PUSH2 0x6E80 DUP3 PUSH2 0x6DF3 JUMP JUMPDEST PUSH1 0x47 DUP3 ADD SWAP1 POP SWAP2 SWAP1 POP JUMP JUMPDEST PUSH32 0x3C7465787420783D223137352220793D223234352220636C6173733D22626173 PUSH1 0x0 DUP3 ADD MSTORE PUSH32 0x652D746578742076616C75652D74657874223E00000000000000000000000000 PUSH1 0x20 DUP3 ADD MSTORE POP JUMP JUMPDEST PUSH1 0x0 PUSH2 0x6EE7 PUSH1 0x33 DUP4 PUSH2 0x535A JUMP JUMPDEST SWAP2 POP PUSH2 0x6EF2 DUP3 PUSH2 0x6E8B JUMP JUMPDEST PUSH1 0x33 DUP3 ADD SWAP1 POP SWAP2 SWAP1 POP JUMP JUMPDEST PUSH32 0x206D733C2F746578743E00000000000000000000000000000000000000000000 PUSH1 0x0 DUP3 ADD MSTORE POP JUMP JUMPDEST PUSH1 0x0 PUSH2 0x6F33 PUSH1 0xA DUP4 PUSH2 0x535A JUMP JUMPDEST SWAP2 POP PUSH2 0x6F3E DUP3 PUSH2 0x6EFD JUMP JUMPDEST PUSH1 0xA DUP3 ADD SWAP1 POP SWAP2 SWAP1 POP JUMP JUMPDEST PUSH32 0x3C7465787420783D223137352220793D223238352220636C6173733D22626173 PUSH1 0x0 DUP3 ADD MSTORE PUSH32 0x652D7465787420746F6B656E69642D74657874223E546F6B656E202300000000 PUSH1 0x20 DUP3 ADD MSTORE POP JUMP JUMPDEST PUSH1 0x0 PUSH2 0x6FA5 PUSH1 0x3C DUP4 PUSH2 0x535A JUMP JUMPDEST SWAP2 POP PUSH2 0x6FB0 DUP3 PUSH2 0x6F49 JUMP JUMPDEST PUSH1 0x3C DUP3 ADD SWAP1 POP SWAP2 SWAP1 POP JUMP JUMPDEST PUSH32 0x3C7465787420783D223137352220793D223332302220636C6173733D22626173 PUSH1 0x0 DUP3 ADD MSTORE PUSH32 0x652D7465787420666F6F7465722D74657874223E4D696E746564206F6E204D6F PUSH1 0x20 DUP3 ADD MSTORE PUSH32 0x6E616420546573746E65743C2F746578743E0000000000000000000000000000 PUSH1 0x40 DUP3 ADD MSTORE POP JUMP JUMPDEST PUSH1 0x0 PUSH2 0x703D PUSH1 0x52 DUP4 PUSH2 0x535A JUMP JUMPDEST SWAP2 POP PUSH2 0x7048 DUP3 PUSH2 0x6FBB JUMP JUMPDEST PUSH1 0x52 DUP3 ADD SWAP1 POP SWAP2 SWAP1 POP JUMP JUMPDEST PUSH32 0x3C2F7376673E0000000000000000000000000000000000000000000000000000 PUSH1 0x0 DUP3 ADD MSTORE POP JUMP JUMPDEST PUSH1 0x0 PUSH2 0x7089 PUSH1 0x6 DUP4 PUSH2 0x535A JUMP JUMPDEST SWAP2 POP PUSH2 0x7094 DUP3 PUSH2 0x7053 JUMP JUMPDEST PUSH1 0x6 DUP3 ADD SWAP1 POP SWAP2 SWAP1 POP JUMP JUMPDEST PUSH1 0x0 PUSH2 0x70AA DUP3 PUSH2 0x676E JUMP JUMPDEST SWAP2 POP PUSH2 0x70B5 DUP3 PUSH2 0x67BA JUMP JUMPDEST SWAP2 POP PUSH2 0x70C0 DUP3 PUSH2 0x6852 JUMP JUMPDEST SWAP2 POP PUSH2 0x70CB DUP3 PUSH2 0x689E JUMP JUMPDEST SWAP2 POP PUSH2 0x70D6 DUP3 PUSH2 0x6936 JUMP JUMPDEST SWAP2 POP PUSH2 0x70E1 DUP3 PUSH2 0x6982 JUMP JUMPDEST SWAP2 POP PUSH2 0x70EC DUP3 PUSH2 0x69F4 JUMP JUMPDEST SWAP2 POP PUSH2 0x70F7 DUP3 PUSH2 0x6A66 JUMP JUMPDEST SWAP2 POP PUSH2 0x7102 DUP3 PUSH2 0x6AD8 JUMP JUMPDEST SWAP2 POP PUSH2 0x710D DUP3 PUSH2 0x6B24 JUMP JUMPDEST SWAP2 POP PUSH2 0x7118 DUP3 PUSH2 0x6B96 JUMP JUMPDEST SWAP2 POP PUSH2 0x7123 DUP3 PUSH2 0x6C2E JUMP JUMPDEST SWAP2 POP PUSH2 0x712E DUP3 PUSH2 0x6CA0 JUMP JUMPDEST SWAP2 POP PUSH2 0x713A DUP3 DUP9 PUSH2 0x5365 JUMP JUMPDEST SWAP2 POP PUSH2 0x7145 DUP3 PUSH2 0x6CEC JUMP JUMPDEST SWAP2 POP PUSH2 0x7150 DUP3 PUSH2 0x6D38 JUMP JUMPDEST SWAP2 POP PUSH2 0x715C DUP3 DUP8 PUSH2 0x5365 JUMP JUMPDEST SWAP2 POP PUSH2 0x7167 DUP3 PUSH2 0x6D84 JUMP JUMPDEST SWAP2 POP PUSH2 0x7173 DUP3 DUP7 PUSH2 0x5365 JUMP JUMPDEST SWAP2 POP PUSH2 0x717E DUP3 PUSH2 0x6DD0 JUMP JUMPDEST SWAP2 POP PUSH2 0x7189 DUP3 PUSH2 0x6E68 JUMP JUMPDEST SWAP2 POP PUSH2 0x7194 DUP3 PUSH2 0x6EDA JUMP JUMPDEST SWAP2 POP PUSH2 0x71A0 DUP3 DUP6 PUSH2 0x5365 JUMP JUMPDEST SWAP2 POP PUSH2 0x71AB DUP3 PUSH2 0x6F26 JUMP JUMPDEST SWAP2 POP PUSH2 0x71B6 DUP3 PUSH2 0x6F98 JUMP JUMPDEST SWAP2 POP PUSH2 0x71C2 DUP3 DUP5 PUSH2 0x5365 JUMP JUMPDEST SWAP2 POP PUSH2 0x71CD DUP3 PUSH2 0x6DD0 JUMP JUMPDEST SWAP2 POP PUSH2 0x71D8 DUP3 PUSH2 0x7030 JUMP JUMPDEST SWAP2 POP PUSH2 0x71E3 DUP3 PUSH2 0x707C JUMP JUMPDEST SWAP2 POP DUP2 SWAP1 POP SWAP7 SWAP6 POP POP POP POP POP POP JUMP JUMPDEST PUSH1 0x0 PUSH2 0x71FD DUP3 PUSH2 0x3E84 JUMP JUMPDEST SWAP2 POP PUSH2 0x7208 DUP4 PUSH2 0x3E84 JUMP JUMPDEST SWAP3 POP DUP3 DUP3 MUL PUSH2 0x7216 DUP2 PUSH2 0x3E84 JUMP JUMPDEST SWAP2 POP DUP3 DUP3 DIV DUP5 EQ DUP4 ISZERO OR PUSH2 0x722D JUMPI PUSH2 0x722C PUSH2 0x4C77 JUMP JUMPDEST JUMPDEST POP SWAP3 SWAP2 POP POP JUMP JUMPDEST PUSH1 0x0 DUP2 MLOAD SWAP1 POP SWAP2 SWAP1 POP JUMP JUMPDEST PUSH1 0x0 DUP3 DUP3 MSTORE PUSH1 0x20 DUP3 ADD SWAP1 POP SWAP3 SWAP2 POP POP JUMP JUMPDEST PUSH1 0x0 PUSH2 0x725B DUP3 PUSH2 0x7234 JUMP JUMPDEST PUSH2 0x7265 DUP2 DUP6 PUSH2 0x723F JUMP JUMPDEST SWAP4 POP PUSH2 0x7275 DUP2 DUP6 PUSH1 0x20 DUP7 ADD PUSH2 0x3DEE JUMP JUMPDEST PUSH2 0x727E DUP2 PUSH2 0x3E18 JUMP JUMPDEST DUP5 ADD SWAP2 POP POP SWAP3 SWAP2 POP POP JUMP JUMPDEST PUSH1 0x0 PUSH1 0x80 DUP3 ADD SWAP1 POP PUSH2 0x729E PUSH1 0x0 DUP4 ADD DUP8 PUSH2 0x3EE7 JUMP JUMPDEST PUSH2 0x72AB PUSH1 0x20 DUP4 ADD DUP7 PUSH2 0x3EE7 JUMP JUMPDEST PUSH2 0x72B8 PUSH1 0x40 DUP4 ADD DUP6 PUSH2 0x3FA4 JUMP JUMPDEST DUP2 DUP2 SUB PUSH1 0x60 DUP4 ADD MSTORE PUSH2 0x72CA DUP2 DUP5 PUSH2 0x7250 JUMP JUMPDEST SWAP1 POP SWAP6 SWAP5 POP POP POP POP POP JUMP JUMPDEST PUSH1 0x0 DUP2 MLOAD SWAP1 POP PUSH2 0x72E4 DUP2 PUSH2 0x3CB8 JUMP JUMPDEST SWAP3 SWAP2 POP POP JUMP JUMPDEST PUSH1 0x0 PUSH1 0x20 DUP3 DUP5 SUB SLT ISZERO PUSH2 0x7300 JUMPI PUSH2 0x72FF PUSH2 0x3C82 JUMP JUMPDEST JUMPDEST PUSH1 0x0 PUSH2 0x730E DUP5 DUP3 DUP6 ADD PUSH2 0x72D5 JUMP JUMPDEST SWAP2 POP POP SWAP3 SWAP2 POP POP JUMP JUMPDEST PUSH1 0x0 PUSH1 0xA0 DUP3 ADD SWAP1 POP PUSH2 0x732C PUSH1 0x0 DUP4 ADD DUP9 PUSH2 0x40F3 JUMP JUMPDEST PUSH2 0x7339 PUSH1 0x20 DUP4 ADD DUP8 PUSH2 0x40F3 JUMP JUMPDEST PUSH2 0x7346 PUSH1 0x40 DUP4 ADD DUP7 PUSH2 0x40F3 JUMP JUMPDEST PUSH2 0x7353 PUSH1 0x60 DUP4 ADD DUP6 PUSH2 0x3FA4 JUMP JUMPDEST PUSH2 0x7360 PUSH1 0x80 DUP4 ADD DUP5 PUSH2 0x3EE7 JUMP JUMPDEST SWAP7 SWAP6 POP POP POP POP POP POP JUMP JUMPDEST PUSH1 0x0 PUSH1 0xFF DUP3 AND SWAP1 POP SWAP2 SWAP1 POP JUMP JUMPDEST PUSH2 0x7380 DUP2 PUSH2 0x736A JUMP JUMPDEST DUP3 MSTORE POP POP JUMP JUMPDEST PUSH1 0x0 PUSH1 0x80 DUP3 ADD SWAP1 POP PUSH2 0x739B PUSH1 0x0 DUP4 ADD DUP8 PUSH2 0x40F3 JUMP JUMPDEST PUSH2 0x73A8 PUSH1 0x20 DUP4 ADD DUP7 PUSH2 0x7377 JUMP JUMPDEST PUSH2 0x73B5 PUSH1 0x40 DUP4 ADD DUP6 PUSH2 0x40F3 JUMP JUMPDEST PUSH2 0x73C2 PUSH1 0x60 DUP4 ADD DUP5 PUSH2 0x40F3 JUMP JUMPDEST SWAP6 SWAP5 POP POP POP POP POP JUMP INVALID COINBASE TIMESTAMP NUMBER PREVRANDAO GASLIMIT CHAINID SELFBALANCE BASEFEE BLOBHASH BLOBBASEFEE 0x4B 0x4C 0x4D 0x4E 0x4F POP MLOAD MSTORE MSTORE8 SLOAD SSTORE JUMP JUMPI PC MSIZE GAS PUSH2 0x6263 PUSH5 0x6566676869 PUSH11 0x6B6C6D6E6F707172737475 PUSH23 0x7778797A303132333435363738392B2FA2646970667358 0x22 SLT KECCAK256 BLOBBASEFEE 0xD7 LOG2 0x26 MUL MLOAD 0xB1 PUSH13 0xBF7B9F14E0F8B28481567AA07A 0xDB PUSH7 0x9BE14D936560A 0xAC CODESIZE PUSH5 0x736F6C6343 STOP ADDMOD XOR STOP CALLER "},"methodIdentifiers":{"MINT_PRICE()":"c002d23d","MINT_TYPEHASH()":"f76fc35e","approve(address,uint256)":"095ea7b3","balanceOf(address)":"70a08231","determineRank(uint256)":"8199da67","eip712Domain()":"84b0196e","gameAddress()":"a168d873","getApproved(uint256)":"081812fc","getTokenScore(uint256)":"490c68d7","getTokensByUser(address)":"80370075","isApprovedForAll(address,address)":"e985e9c5","mintWithSignature(address,uint256,uint256,uint256,bytes)":"9983258d","name()":"06fdde03","owner()":"8da5cb5b","ownerOf(uint256)":"6352211e","rankThresholds(uint256)":"43e0ac89","ranks(uint256)":"df927bbe","renounceOwnership()":"715018a6","safeTransferFrom(address,address,uint256)":"42842e0e","safeTransferFrom(address,address,uint256,bytes)":"b88d4fde","setApprovalForAll(address,bool)":"a22cb465","setGameAddress(address)":"711953ef","setRankSettings(string[],uint256[])":"b37b7b7d","setSignerAddress(address)":"046dc166","signerAddress()":"5b7633d0","supportsInterface(bytes4)":"01ffc9a7","symbol()":"95d89b41","tokenScores(uint256)":"8f406849","tokenURI(uint256)":"c87b56dd","transferFrom(address,address,uint256)":"23b872dd","transferOwnership(address)":"f2fde38b","usedNonces(uint256)":"6717e41c","userTokens(address,uint256)":"f9f411d8","withdraw()":"3ccfd60b"}}}}}