{"contracts/VRFReflexBlitz.sol":{"VRFReflexBlitz":{"abi":[{"inputs":[{"internalType":"uint256","name":"_initialPlayPrice","type":"uint256"},{"internalType":"uint256","name":"_initialFreePlayInterval","type":"uint256"},{"internalType":"uint256","name":"_initialPlaysPerSession","type":"uint256"}],"stateMutability":"nonpayable","type":"constructor"},{"anonymous":false,"inputs":[{"indexed":true,"internalType":"address","name":"player","type":"address"},{"indexed":false,"internalType":"uint256","name":"requestTimestamp","type":"uint256"},{"indexed":false,"internalType":"bool","name":"newSessionStartedAsFree","type":"bool"},{"indexed":false,"internalType":"uint256","name":"playsLeftInSession","type":"uint256"}],"name":"FlashRequested","type":"event"},{"anonymous":false,"inputs":[{"indexed":false,"internalType":"uint256","name":"oldInterval","type":"uint256"},{"indexed":false,"internalType":"uint256","name":"newInterval","type":"uint256"}],"name":"FreePlayIntervalUpdated","type":"event"},{"anonymous":false,"inputs":[{"indexed":true,"internalType":"address","name":"owner","type":"address"},{"indexed":false,"internalType":"uint256","name":"amount","type":"uint256"}],"name":"FundsWithdrawn","type":"event"},{"anonymous":false,"inputs":[{"indexed":true,"internalType":"address","name":"previousOwner","type":"address"},{"indexed":true,"internalType":"address","name":"newOwner","type":"address"}],"name":"OwnershipTransferred","type":"event"},{"anonymous":false,"inputs":[{"indexed":false,"internalType":"uint256","name":"oldPrice","type":"uint256"},{"indexed":false,"internalType":"uint256","name":"newPrice","type":"uint256"}],"name":"PlayPriceUpdated","type":"event"},{"anonymous":false,"inputs":[{"indexed":false,"internalType":"uint256","name":"oldPlays","type":"uint256"},{"indexed":false,"internalType":"uint256","name":"newPlays","type":"uint256"}],"name":"PlaysPerSessionUpdated","type":"event"},{"stateMutability":"payable","type":"fallback"},{"inputs":[],"name":"freePlayInterval","outputs":[{"internalType":"uint256","name":"","type":"uint256"}],"stateMutability":"view","type":"function"},{"inputs":[{"internalType":"address","name":"player","type":"address"}],"name":"getRemainingFreePlayCooldown","outputs":[{"internalType":"uint256","name":"","type":"uint256"}],"stateMutability":"view","type":"function"},{"inputs":[{"internalType":"address","name":"player","type":"address"}],"name":"getRemainingPlaysInCurrentSession","outputs":[{"internalType":"uint256","name":"","type":"uint256"}],"stateMutability":"view","type":"function"},{"inputs":[{"internalType":"address","name":"","type":"address"}],"name":"lastPlayTime","outputs":[{"internalType":"uint256","name":"","type":"uint256"}],"stateMutability":"view","type":"function"},{"inputs":[],"name":"owner","outputs":[{"internalType":"address","name":"","type":"address"}],"stateMutability":"view","type":"function"},{"inputs":[],"name":"playPrice","outputs":[{"internalType":"uint256","name":"","type":"uint256"}],"stateMutability":"view","type":"function"},{"inputs":[],"name":"playsPerSession","outputs":[{"internalType":"uint256","name":"","type":"uint256"}],"stateMutability":"view","type":"function"},{"inputs":[{"internalType":"address","name":"","type":"address"}],"name":"remainingPlaysInSession","outputs":[{"internalType":"uint256","name":"","type":"uint256"}],"stateMutability":"view","type":"function"},{"inputs":[],"name":"renounceOwnership","outputs":[],"stateMutability":"nonpayable","type":"function"},{"inputs":[],"name":"requestFlash","outputs":[],"stateMutability":"payable","type":"function"},{"inputs":[{"internalType":"uint256","name":"_newFreePlayInterval","type":"uint256"}],"name":"setFreePlayInterval","outputs":[],"stateMutability":"nonpayable","type":"function"},{"inputs":[{"internalType":"uint256","name":"_newPlayPrice","type":"uint256"}],"name":"setPlayPrice","outputs":[],"stateMutability":"nonpayable","type":"function"},{"inputs":[{"internalType":"uint256","name":"_newPlaysPerSession","type":"uint256"}],"name":"setPlaysPerSession","outputs":[],"stateMutability":"nonpayable","type":"function"},{"inputs":[{"internalType":"address","name":"newOwner","type":"address"}],"name":"transferOwnership","outputs":[],"stateMutability":"nonpayable","type":"function"},{"inputs":[],"name":"withdraw","outputs":[],"stateMutability":"nonpayable","type":"function"},{"stateMutability":"payable","type":"receive"}],"evm":{"bytecode":{"linkReferences":{},"object":"60806040523480156200001157600080fd5b50604051620016ca380380620016ca83398181016040528101906200003791906200027b565b620000576200004b6200016f60201b60201c565b6200017760201b60201c565b600081116200009d576040517f08c379a0000000000000000000000000000000000000000000000000000000008152600401620000949062000338565b60405180910390fd5b8260018190555081600281905550806003819055507f7f00a89280a0ae1f23540ebef3770800a932622926732a30abcd2cacc3cb1eb3600084604051620000e6929190620003b8565b60405180910390a17f8b4aaa3408131ddd8429038dad23291851161540fc9bde082a80fc23af66996860008360405162000122929190620003b8565b60405180910390a17fdb6350d67c3b59bd039f60cb131d307f91ef41c17dc1482174815db986d85e696000826040516200015e929190620003b8565b60405180910390a1505050620003e5565b600033905090565b60008060009054906101000a900473ffffffffffffffffffffffffffffffffffffffff169050816000806101000a81548173ffffffffffffffffffffffffffffffffffffffff021916908373ffffffffffffffffffffffffffffffffffffffff1602179055508173ffffffffffffffffffffffffffffffffffffffff168173ffffffffffffffffffffffffffffffffffffffff167f8be0079c531659141344cd1fd0a4f28419497f9722a3daafe3b4186f6b6457e060405160405180910390a35050565b600080fd5b6000819050919050565b620002558162000240565b81146200026157600080fd5b50565b60008151905062000275816200024a565b92915050565b6000806000606084860312156200029757620002966200023b565b5b6000620002a78682870162000264565b9350506020620002ba8682870162000264565b9250506040620002cd8682870162000264565b9150509250925092565b600082825260208201905092915050565b7f506c617973207065722073657373696f6e206d757374206265203e2030000000600082015250565b600062000320601d83620002d7565b91506200032d82620002e8565b602082019050919050565b60006020820190508181036000830152620003538162000311565b9050919050565b6000819050919050565b6000819050919050565b60006200038f6200038962000383846200035a565b62000364565b62000240565b9050919050565b620003a1816200036e565b82525050565b620003b28162000240565b82525050565b6000604082019050620003cf600083018562000396565b620003de6020830184620003a7565b9392505050565b6112d580620003f56000396000f3fe6080604052600436106100ec5760003560e01c8063715018a61161008a578063b205ab4e11610059578063b205ab4e146102c4578063c640c1f6146102ce578063d3eda4781461030b578063f2fde38b14610348576100f3565b8063715018a6146102085780638da5cb5b1461021f57806396d966d61461024a578063a637cd0a14610287576100f3565b8063438de909116100c6578063438de9091461016057806359a9ae11146101895780635b4011be146101b257806369c1a7ed146101dd576100f3565b8063148edacf146100f55780631e96c09e1461011e5780633ccfd60b14610149576100f3565b366100f357005b005b34801561010157600080fd5b5061011c60048036038101906101179190610c37565b610371565b005b34801561012a57600080fd5b50610133610407565b6040516101409190610c73565b60405180910390f35b34801561015557600080fd5b5061015e61040d565b005b34801561016c57600080fd5b5061018760048036038101906101829190610c37565b610503565b005b34801561019557600080fd5b506101b060048036038101906101ab9190610c37565b610556565b005b3480156101be57600080fd5b506101c76105a9565b6040516101d49190610c73565b60405180910390f35b3480156101e957600080fd5b506101f26105af565b6040516101ff9190610c73565b60405180910390f35b34801561021457600080fd5b5061021d6105b5565b005b34801561022b57600080fd5b506102346105c9565b6040516102419190610ccf565b60405180910390f35b34801561025657600080fd5b50610271600480360381019061026c9190610d16565b6105f2565b60405161027e9190610c73565b60405180910390f35b34801561029357600080fd5b506102ae60048036038101906102a99190610d16565b61066c565b6040516102bb9190610c73565b60405180910390f35b6102cc6106b5565b005b3480156102da57600080fd5b506102f560048036038101906102f09190610d16565b6109ff565b6040516103029190610c73565b60405180910390f35b34801561031757600080fd5b50610332600480360381019061032d9190610d16565b610a17565b60405161033f9190610c73565b60405180910390f35b34801561035457600080fd5b5061036f600480360381019061036a9190610d16565b610a2f565b005b610379610ab2565b600081116103bc576040517f08c379a00000000000000000000000000000000000000000000000000000000081526004016103b390610da0565b60405180910390fd5b60006003549050816003819055507fdb6350d67c3b59bd039f60cb131d307f91ef41c17dc1482174815db986d85e6981836040516103fb929190610dc0565b60405180910390a15050565b60025481565b610415610ab2565b60004790506000811161045d576040517f08c379a000000000000000000000000000000000000000000000000000000000815260040161045490610e5b565b60405180910390fd5b6104656105c9565b73ffffffffffffffffffffffffffffffffffffffff166108fc829081150290604051600060405180830381858888f193505050501580156104aa573d6000803e3d6000fd5b506104b36105c9565b73ffffffffffffffffffffffffffffffffffffffff167feaff4b37086828766ad3268786972c0cd24259d4c87a80f9d3963a3c3d999b0d826040516104f89190610c73565b60405180910390a250565b61050b610ab2565b60006002549050816002819055507f8b4aaa3408131ddd8429038dad23291851161540fc9bde082a80fc23af669968818360405161054a929190610dc0565b60405180910390a15050565b61055e610ab2565b60006001549050816001819055507f7f00a89280a0ae1f23540ebef3770800a932622926732a30abcd2cacc3cb1eb3818360405161059d929190610dc0565b60405180910390a15050565b60035481565b60015481565b6105bd610ab2565b6105c76000610b30565b565b60008060009054906101000a900473ffffffffffffffffffffffffffffffffffffffff16905090565b600080600460008473ffffffffffffffffffffffffffffffffffffffff1673ffffffffffffffffffffffffffffffffffffffff16815260200190815260200160002054426106409190610eaa565b90506002548110610655576000915050610667565b806002546106639190610eaa565b9150505b919050565b6000600560008373ffffffffffffffffffffffffffffffffffffffff1673ffffffffffffffffffffffffffffffffffffffff168152602001908152602001600020549050919050565b60008060035490506000600560003373ffffffffffffffffffffffffffffffffffffffff1673ffffffffffffffffffffffffffffffffffffffff1681526020019081526020016000205411156107a25760003414610748576040517f08c379a000000000000000000000000000000000000000000000000000000000815260040161073f90610f50565b60405180910390fd5b600560003373ffffffffffffffffffffffffffffffffffffffff1673ffffffffffffffffffffffffffffffffffffffff168152602001908152602001600020600081548092919061079890610f70565b919050555061096a565b6000600254600460003373ffffffffffffffffffffffffffffffffffffffff1673ffffffffffffffffffffffffffffffffffffffff16815260200190815260200160002054426107f29190610eaa565b101590508015610848576000341461083f576040517f08c379a00000000000000000000000000000000000000000000000000000000081526004016108369061100b565b60405180910390fd5b60019250610891565b600154341461088c576040517f08c379a00000000000000000000000000000000000000000000000000000000081526004016108839061109d565b60405180910390fd5b600092505b600082116108d4576040517f08c379a00000000000000000000000000000000000000000000000000000000081526004016108cb9061112f565b60405180910390fd5b6001826108e19190610eaa565b600560003373ffffffffffffffffffffffffffffffffffffffff1673ffffffffffffffffffffffffffffffffffffffff1681526020019081526020016000208190555042600460003373ffffffffffffffffffffffffffffffffffffffff1673ffffffffffffffffffffffffffffffffffffffff16815260200190815260200160002081905550505b3373ffffffffffffffffffffffffffffffffffffffff167f18af4f87248c5c2e1a40d6b9cf8a5d10563c1be28dcb579e76ba4addef4b416b4284600560003373ffffffffffffffffffffffffffffffffffffffff1673ffffffffffffffffffffffffffffffffffffffff168152602001908152602001600020546040516109f39392919061116a565b60405180910390a25050565b60046020528060005260406000206000915090505481565b60056020528060005260406000206000915090505481565b610a37610ab2565b600073ffffffffffffffffffffffffffffffffffffffff168173ffffffffffffffffffffffffffffffffffffffff1603610aa6576040517f08c379a0000000000000000000000000000000000000000000000000000000008152600401610a9d90611213565b60405180910390fd5b610aaf81610b30565b50565b610aba610bf4565b73ffffffffffffffffffffffffffffffffffffffff16610ad86105c9565b73ffffffffffffffffffffffffffffffffffffffff1614610b2e576040517f08c379a0000000000000000000000000000000000000000000000000000000008152600401610b259061127f565b60405180910390fd5b565b60008060009054906101000a900473ffffffffffffffffffffffffffffffffffffffff169050816000806101000a81548173ffffffffffffffffffffffffffffffffffffffff021916908373ffffffffffffffffffffffffffffffffffffffff1602179055508173ffffffffffffffffffffffffffffffffffffffff168173ffffffffffffffffffffffffffffffffffffffff167f8be0079c531659141344cd1fd0a4f28419497f9722a3daafe3b4186f6b6457e060405160405180910390a35050565b600033905090565b600080fd5b6000819050919050565b610c1481610c01565b8114610c1f57600080fd5b50565b600081359050610c3181610c0b565b92915050565b600060208284031215610c4d57610c4c610bfc565b5b6000610c5b84828501610c22565b91505092915050565b610c6d81610c01565b82525050565b6000602082019050610c886000830184610c64565b92915050565b600073ffffffffffffffffffffffffffffffffffffffff82169050919050565b6000610cb982610c8e565b9050919050565b610cc981610cae565b82525050565b6000602082019050610ce46000830184610cc0565b92915050565b610cf381610cae565b8114610cfe57600080fd5b50565b600081359050610d1081610cea565b92915050565b600060208284031215610d2c57610d2b610bfc565b5b6000610d3a84828501610d01565b91505092915050565b600082825260208201905092915050565b7f506c617973207065722073657373696f6e206d757374206265203e2030000000600082015250565b6000610d8a601d83610d43565b9150610d9582610d54565b602082019050919050565b60006020820190508181036000830152610db981610d7d565b9050919050565b6000604082019050610dd56000830185610c64565b610de26020830184610c64565b9392505050565b7f5652465265666c6578426c69747a3a204e6f2062616c616e636520746f20776960008201527f7468647261770000000000000000000000000000000000000000000000000000602082015250565b6000610e45602683610d43565b9150610e5082610de9565b604082019050919050565b60006020820190508181036000830152610e7481610e38565b9050919050565b7f4e487b7100000000000000000000000000000000000000000000000000000000600052601160045260246000fd5b6000610eb582610c01565b9150610ec083610c01565b9250828203905081811115610ed857610ed7610e7b565b5b92915050565b7f5652465265666c6578426c69747a3a2056616c75652073656e7420666f72206160008201527f20706c61792077697468696e20616e206163746976652073657373696f6e2e00602082015250565b6000610f3a603f83610d43565b9150610f4582610ede565b604082019050919050565b60006020820190508181036000830152610f6981610f2d565b9050919050565b6000610f7b82610c01565b915060008203610f8e57610f8d610e7b565b5b600182039050919050565b7f5652465265666c6578426c69747a3a2056616c75652073656e7420666f72206160008201527f206672656520706c61792073657373696f6e2e00000000000000000000000000602082015250565b6000610ff5603383610d43565b915061100082610f99565b604082019050919050565b6000602082019050818103600083015261102481610fe8565b9050919050565b7f5652465265666c6578426c69747a3a20496e636f727265637420706c6179207060008201527f7269636520666f72206e65772073657373696f6e2e0000000000000000000000602082015250565b6000611087603583610d43565b91506110928261102b565b604082019050919050565b600060208201905081810360008301526110b68161107a565b9050919050565b7f506c617973207065722073657373696f6e206e6f7420736574206f72207a657260008201527f6f00000000000000000000000000000000000000000000000000000000000000602082015250565b6000611119602183610d43565b9150611124826110bd565b604082019050919050565b600060208201905081810360008301526111488161110c565b9050919050565b60008115159050919050565b6111648161114f565b82525050565b600060608201905061117f6000830186610c64565b61118c602083018561115b565b6111996040830184610c64565b949350505050565b7f4f776e61626c653a206e6577206f776e657220697320746865207a65726f206160008201527f6464726573730000000000000000000000000000000000000000000000000000602082015250565b60006111fd602683610d43565b9150611208826111a1565b604082019050919050565b6000602082019050818103600083015261122c816111f0565b9050919050565b7f4f776e61626c653a2063616c6c6572206973206e6f7420746865206f776e6572600082015250565b6000611269602083610d43565b915061127482611233565b602082019050919050565b600060208201905081810360008301526112988161125c565b905091905056fea26469706673582212200fb824d1d177e6a60ef4fc85bb7893f24ff4af66dcc65b191ce8de984815f74864736f6c63430008180033","opcodes":"PUSH1 0x80 PUSH1 0x40 MSTORE CALLVALUE DUP1 ISZERO PUSH3 0x11 JUMPI PUSH1 0x0 DUP1 REVERT JUMPDEST POP PUSH1 0x40 MLOAD PUSH3 0x16CA CODESIZE SUB DUP1 PUSH3 0x16CA DUP4 CODECOPY DUP2 DUP2 ADD PUSH1 0x40 MSTORE DUP2 ADD SWAP1 PUSH3 0x37 SWAP2 SWAP1 PUSH3 0x27B JUMP JUMPDEST PUSH3 0x57 PUSH3 0x4B PUSH3 0x16F PUSH1 0x20 SHL PUSH1 0x20 SHR JUMP JUMPDEST PUSH3 0x177 PUSH1 0x20 SHL PUSH1 0x20 SHR JUMP JUMPDEST PUSH1 0x0 DUP2 GT PUSH3 0x9D JUMPI PUSH1 0x40 MLOAD PUSH32 0x8C379A000000000000000000000000000000000000000000000000000000000 DUP2 MSTORE PUSH1 0x4 ADD PUSH3 0x94 SWAP1 PUSH3 0x338 JUMP JUMPDEST PUSH1 0x40 MLOAD DUP1 SWAP2 SUB SWAP1 REVERT JUMPDEST DUP3 PUSH1 0x1 DUP2 SWAP1 SSTORE POP DUP2 PUSH1 0x2 DUP2 SWAP1 SSTORE POP DUP1 PUSH1 0x3 DUP2 SWAP1 SSTORE POP PUSH32 0x7F00A89280A0AE1F23540EBEF3770800A932622926732A30ABCD2CACC3CB1EB3 PUSH1 0x0 DUP5 PUSH1 0x40 MLOAD PUSH3 0xE6 SWAP3 SWAP2 SWAP1 PUSH3 0x3B8 JUMP JUMPDEST PUSH1 0x40 MLOAD DUP1 SWAP2 SUB SWAP1 LOG1 PUSH32 0x8B4AAA3408131DDD8429038DAD23291851161540FC9BDE082A80FC23AF669968 PUSH1 0x0 DUP4 PUSH1 0x40 MLOAD PUSH3 0x122 SWAP3 SWAP2 SWAP1 PUSH3 0x3B8 JUMP JUMPDEST PUSH1 0x40 MLOAD DUP1 SWAP2 SUB SWAP1 LOG1 PUSH32 0xDB6350D67C3B59BD039F60CB131D307F91EF41C17DC1482174815DB986D85E69 PUSH1 0x0 DUP3 PUSH1 0x40 MLOAD PUSH3 0x15E SWAP3 SWAP2 SWAP1 PUSH3 0x3B8 JUMP JUMPDEST PUSH1 0x40 MLOAD DUP1 SWAP2 SUB SWAP1 LOG1 POP POP POP PUSH3 0x3E5 JUMP JUMPDEST PUSH1 0x0 CALLER SWAP1 POP SWAP1 JUMP JUMPDEST PUSH1 0x0 DUP1 PUSH1 0x0 SWAP1 SLOAD SWAP1 PUSH2 0x100 EXP SWAP1 DIV PUSH20 0xFFFFFFFFFFFFFFFFFFFFFFFFFFFFFFFFFFFFFFFF AND SWAP1 POP DUP2 PUSH1 0x0 DUP1 PUSH2 0x100 EXP DUP2 SLOAD DUP2 PUSH20 0xFFFFFFFFFFFFFFFFFFFFFFFFFFFFFFFFFFFFFFFF MUL NOT AND SWAP1 DUP4 PUSH20 0xFFFFFFFFFFFFFFFFFFFFFFFFFFFFFFFFFFFFFFFF AND MUL OR SWAP1 SSTORE POP DUP2 PUSH20 0xFFFFFFFFFFFFFFFFFFFFFFFFFFFFFFFFFFFFFFFF AND DUP2 PUSH20 0xFFFFFFFFFFFFFFFFFFFFFFFFFFFFFFFFFFFFFFFF AND PUSH32 0x8BE0079C531659141344CD1FD0A4F28419497F9722A3DAAFE3B4186F6B6457E0 PUSH1 0x40 MLOAD PUSH1 0x40 MLOAD DUP1 SWAP2 SUB SWAP1 LOG3 POP POP JUMP JUMPDEST PUSH1 0x0 DUP1 REVERT JUMPDEST PUSH1 0x0 DUP2 SWAP1 POP SWAP2 SWAP1 POP JUMP JUMPDEST PUSH3 0x255 DUP2 PUSH3 0x240 JUMP JUMPDEST DUP2 EQ PUSH3 0x261 JUMPI PUSH1 0x0 DUP1 REVERT JUMPDEST POP JUMP JUMPDEST PUSH1 0x0 DUP2 MLOAD SWAP1 POP PUSH3 0x275 DUP2 PUSH3 0x24A JUMP JUMPDEST SWAP3 SWAP2 POP POP JUMP JUMPDEST PUSH1 0x0 DUP1 PUSH1 0x0 PUSH1 0x60 DUP5 DUP7 SUB SLT ISZERO PUSH3 0x297 JUMPI PUSH3 0x296 PUSH3 0x23B JUMP JUMPDEST JUMPDEST PUSH1 0x0 PUSH3 0x2A7 DUP7 DUP3 DUP8 ADD PUSH3 0x264 JUMP JUMPDEST SWAP4 POP POP PUSH1 0x20 PUSH3 0x2BA DUP7 DUP3 DUP8 ADD PUSH3 0x264 JUMP JUMPDEST SWAP3 POP POP PUSH1 0x40 PUSH3 0x2CD DUP7 DUP3 DUP8 ADD PUSH3 0x264 JUMP JUMPDEST SWAP2 POP POP SWAP3 POP SWAP3 POP SWAP3 JUMP JUMPDEST PUSH1 0x0 DUP3 DUP3 MSTORE PUSH1 0x20 DUP3 ADD SWAP1 POP SWAP3 SWAP2 POP POP JUMP JUMPDEST PUSH32 0x506C617973207065722073657373696F6E206D757374206265203E2030000000 PUSH1 0x0 DUP3 ADD MSTORE POP JUMP JUMPDEST PUSH1 0x0 PUSH3 0x320 PUSH1 0x1D DUP4 PUSH3 0x2D7 JUMP JUMPDEST SWAP2 POP PUSH3 0x32D DUP3 PUSH3 0x2E8 JUMP JUMPDEST PUSH1 0x20 DUP3 ADD SWAP1 POP SWAP2 SWAP1 POP JUMP JUMPDEST PUSH1 0x0 PUSH1 0x20 DUP3 ADD SWAP1 POP DUP2 DUP2 SUB PUSH1 0x0 DUP4 ADD MSTORE PUSH3 0x353 DUP2 PUSH3 0x311 JUMP JUMPDEST SWAP1 POP SWAP2 SWAP1 POP JUMP JUMPDEST PUSH1 0x0 DUP2 SWAP1 POP SWAP2 SWAP1 POP JUMP JUMPDEST PUSH1 0x0 DUP2 SWAP1 POP SWAP2 SWAP1 POP JUMP JUMPDEST PUSH1 0x0 PUSH3 0x38F PUSH3 0x389 PUSH3 0x383 DUP5 PUSH3 0x35A JUMP JUMPDEST PUSH3 0x364 JUMP JUMPDEST PUSH3 0x240 JUMP JUMPDEST SWAP1 POP SWAP2 SWAP1 POP JUMP JUMPDEST PUSH3 0x3A1 DUP2 PUSH3 0x36E JUMP JUMPDEST DUP3 MSTORE POP POP JUMP JUMPDEST PUSH3 0x3B2 DUP2 PUSH3 0x240 JUMP JUMPDEST DUP3 MSTORE POP POP JUMP JUMPDEST PUSH1 0x0 PUSH1 0x40 DUP3 ADD SWAP1 POP PUSH3 0x3CF PUSH1 0x0 DUP4 ADD DUP6 PUSH3 0x396 JUMP JUMPDEST PUSH3 0x3DE PUSH1 0x20 DUP4 ADD DUP5 PUSH3 0x3A7 JUMP JUMPDEST SWAP4 SWAP3 POP POP POP JUMP JUMPDEST PUSH2 0x12D5 DUP1 PUSH3 0x3F5 PUSH1 0x0 CODECOPY PUSH1 0x0 RETURN INVALID PUSH1 0x80 PUSH1 0x40 MSTORE PUSH1 0x4 CALLDATASIZE LT PUSH2 0xEC JUMPI PUSH1 0x0 CALLDATALOAD PUSH1 0xE0 SHR DUP1 PUSH4 0x715018A6 GT PUSH2 0x8A JUMPI DUP1 PUSH4 0xB205AB4E GT PUSH2 0x59 JUMPI DUP1 PUSH4 0xB205AB4E EQ PUSH2 0x2C4 JUMPI DUP1 PUSH4 0xC640C1F6 EQ PUSH2 0x2CE JUMPI DUP1 PUSH4 0xD3EDA478 EQ PUSH2 0x30B JUMPI DUP1 PUSH4 0xF2FDE38B EQ PUSH2 0x348 JUMPI PUSH2 0xF3 JUMP JUMPDEST DUP1 PUSH4 0x715018A6 EQ PUSH2 0x208 JUMPI DUP1 PUSH4 0x8DA5CB5B EQ PUSH2 0x21F JUMPI DUP1 PUSH4 0x96D966D6 EQ PUSH2 0x24A JUMPI DUP1 PUSH4 0xA637CD0A EQ PUSH2 0x287 JUMPI PUSH2 0xF3 JUMP JUMPDEST DUP1 PUSH4 0x438DE909 GT PUSH2 0xC6 JUMPI DUP1 PUSH4 0x438DE909 EQ PUSH2 0x160 JUMPI DUP1 PUSH4 0x59A9AE11 EQ PUSH2 0x189 JUMPI DUP1 PUSH4 0x5B4011BE EQ PUSH2 0x1B2 JUMPI DUP1 PUSH4 0x69C1A7ED EQ PUSH2 0x1DD JUMPI PUSH2 0xF3 JUMP JUMPDEST DUP1 PUSH4 0x148EDACF EQ PUSH2 0xF5 JUMPI DUP1 PUSH4 0x1E96C09E EQ PUSH2 0x11E JUMPI DUP1 PUSH4 0x3CCFD60B EQ PUSH2 0x149 JUMPI PUSH2 0xF3 JUMP JUMPDEST CALLDATASIZE PUSH2 0xF3 JUMPI STOP JUMPDEST STOP JUMPDEST CALLVALUE DUP1 ISZERO PUSH2 0x101 JUMPI PUSH1 0x0 DUP1 REVERT JUMPDEST POP PUSH2 0x11C PUSH1 0x4 DUP1 CALLDATASIZE SUB DUP2 ADD SWAP1 PUSH2 0x117 SWAP2 SWAP1 PUSH2 0xC37 JUMP JUMPDEST PUSH2 0x371 JUMP JUMPDEST STOP JUMPDEST CALLVALUE DUP1 ISZERO PUSH2 0x12A JUMPI PUSH1 0x0 DUP1 REVERT JUMPDEST POP PUSH2 0x133 PUSH2 0x407 JUMP JUMPDEST PUSH1 0x40 MLOAD PUSH2 0x140 SWAP2 SWAP1 PUSH2 0xC73 JUMP JUMPDEST PUSH1 0x40 MLOAD DUP1 SWAP2 SUB SWAP1 RETURN JUMPDEST CALLVALUE DUP1 ISZERO PUSH2 0x155 JUMPI PUSH1 0x0 DUP1 REVERT JUMPDEST POP PUSH2 0x15E PUSH2 0x40D JUMP JUMPDEST STOP JUMPDEST CALLVALUE DUP1 ISZERO PUSH2 0x16C JUMPI PUSH1 0x0 DUP1 REVERT JUMPDEST POP PUSH2 0x187 PUSH1 0x4 DUP1 CALLDATASIZE SUB DUP2 ADD SWAP1 PUSH2 0x182 SWAP2 SWAP1 PUSH2 0xC37 JUMP JUMPDEST PUSH2 0x503 JUMP JUMPDEST STOP JUMPDEST CALLVALUE DUP1 ISZERO PUSH2 0x195 JUMPI PUSH1 0x0 DUP1 REVERT JUMPDEST POP PUSH2 0x1B0 PUSH1 0x4 DUP1 CALLDATASIZE SUB DUP2 ADD SWAP1 PUSH2 0x1AB SWAP2 SWAP1 PUSH2 0xC37 JUMP JUMPDEST PUSH2 0x556 JUMP JUMPDEST STOP JUMPDEST CALLVALUE DUP1 ISZERO PUSH2 0x1BE JUMPI PUSH1 0x0 DUP1 REVERT JUMPDEST POP PUSH2 0x1C7 PUSH2 0x5A9 JUMP JUMPDEST PUSH1 0x40 MLOAD PUSH2 0x1D4 SWAP2 SWAP1 PUSH2 0xC73 JUMP JUMPDEST PUSH1 0x40 MLOAD DUP1 SWAP2 SUB SWAP1 RETURN JUMPDEST CALLVALUE DUP1 ISZERO PUSH2 0x1E9 JUMPI PUSH1 0x0 DUP1 REVERT JUMPDEST POP PUSH2 0x1F2 PUSH2 0x5AF JUMP JUMPDEST PUSH1 0x40 MLOAD PUSH2 0x1FF SWAP2 SWAP1 PUSH2 0xC73 JUMP JUMPDEST PUSH1 0x40 MLOAD DUP1 SWAP2 SUB SWAP1 RETURN JUMPDEST CALLVALUE DUP1 ISZERO PUSH2 0x214 JUMPI PUSH1 0x0 DUP1 REVERT JUMPDEST POP PUSH2 0x21D PUSH2 0x5B5 JUMP JUMPDEST STOP JUMPDEST CALLVALUE DUP1 ISZERO PUSH2 0x22B JUMPI PUSH1 0x0 DUP1 REVERT JUMPDEST POP PUSH2 0x234 PUSH2 0x5C9 JUMP JUMPDEST PUSH1 0x40 MLOAD PUSH2 0x241 SWAP2 SWAP1 PUSH2 0xCCF JUMP JUMPDEST PUSH1 0x40 MLOAD DUP1 SWAP2 SUB SWAP1 RETURN JUMPDEST CALLVALUE DUP1 ISZERO PUSH2 0x256 JUMPI PUSH1 0x0 DUP1 REVERT JUMPDEST POP PUSH2 0x271 PUSH1 0x4 DUP1 CALLDATASIZE SUB DUP2 ADD SWAP1 PUSH2 0x26C SWAP2 SWAP1 PUSH2 0xD16 JUMP JUMPDEST PUSH2 0x5F2 JUMP JUMPDEST PUSH1 0x40 MLOAD PUSH2 0x27E SWAP2 SWAP1 PUSH2 0xC73 JUMP JUMPDEST PUSH1 0x40 MLOAD DUP1 SWAP2 SUB SWAP1 RETURN JUMPDEST CALLVALUE DUP1 ISZERO PUSH2 0x293 JUMPI PUSH1 0x0 DUP1 REVERT JUMPDEST POP PUSH2 0x2AE PUSH1 0x4 DUP1 CALLDATASIZE SUB DUP2 ADD SWAP1 PUSH2 0x2A9 SWAP2 SWAP1 PUSH2 0xD16 JUMP JUMPDEST PUSH2 0x66C JUMP JUMPDEST PUSH1 0x40 MLOAD PUSH2 0x2BB SWAP2 SWAP1 PUSH2 0xC73 JUMP JUMPDEST PUSH1 0x40 MLOAD DUP1 SWAP2 SUB SWAP1 RETURN JUMPDEST PUSH2 0x2CC PUSH2 0x6B5 JUMP JUMPDEST STOP JUMPDEST CALLVALUE DUP1 ISZERO PUSH2 0x2DA JUMPI PUSH1 0x0 DUP1 REVERT JUMPDEST POP PUSH2 0x2F5 PUSH1 0x4 DUP1 CALLDATASIZE SUB DUP2 ADD SWAP1 PUSH2 0x2F0 SWAP2 SWAP1 PUSH2 0xD16 JUMP JUMPDEST PUSH2 0x9FF JUMP JUMPDEST PUSH1 0x40 MLOAD PUSH2 0x302 SWAP2 SWAP1 PUSH2 0xC73 JUMP JUMPDEST PUSH1 0x40 MLOAD DUP1 SWAP2 SUB SWAP1 RETURN JUMPDEST CALLVALUE DUP1 ISZERO PUSH2 0x317 JUMPI PUSH1 0x0 DUP1 REVERT JUMPDEST POP PUSH2 0x332 PUSH1 0x4 DUP1 CALLDATASIZE SUB DUP2 ADD SWAP1 PUSH2 0x32D SWAP2 SWAP1 PUSH2 0xD16 JUMP JUMPDEST PUSH2 0xA17 JUMP JUMPDEST PUSH1 0x40 MLOAD PUSH2 0x33F SWAP2 SWAP1 PUSH2 0xC73 JUMP JUMPDEST PUSH1 0x40 MLOAD DUP1 SWAP2 SUB SWAP1 RETURN JUMPDEST CALLVALUE DUP1 ISZERO PUSH2 0x354 JUMPI PUSH1 0x0 DUP1 REVERT JUMPDEST POP PUSH2 0x36F PUSH1 0x4 DUP1 CALLDATASIZE SUB DUP2 ADD SWAP1 PUSH2 0x36A SWAP2 SWAP1 PUSH2 0xD16 JUMP JUMPDEST PUSH2 0xA2F JUMP JUMPDEST STOP JUMPDEST PUSH2 0x379 PUSH2 0xAB2 JUMP JUMPDEST PUSH1 0x0 DUP2 GT PUSH2 0x3BC JUMPI PUSH1 0x40 MLOAD PUSH32 0x8C379A000000000000000000000000000000000000000000000000000000000 DUP2 MSTORE PUSH1 0x4 ADD PUSH2 0x3B3 SWAP1 PUSH2 0xDA0 JUMP JUMPDEST PUSH1 0x40 MLOAD DUP1 SWAP2 SUB SWAP1 REVERT JUMPDEST PUSH1 0x0 PUSH1 0x3 SLOAD SWAP1 POP DUP2 PUSH1 0x3 DUP2 SWAP1 SSTORE POP PUSH32 0xDB6350D67C3B59BD039F60CB131D307F91EF41C17DC1482174815DB986D85E69 DUP2 DUP4 PUSH1 0x40 MLOAD PUSH2 0x3FB SWAP3 SWAP2 SWAP1 PUSH2 0xDC0 JUMP JUMPDEST PUSH1 0x40 MLOAD DUP1 SWAP2 SUB SWAP1 LOG1 POP POP JUMP JUMPDEST PUSH1 0x2 SLOAD DUP2 JUMP JUMPDEST PUSH2 0x415 PUSH2 0xAB2 JUMP JUMPDEST PUSH1 0x0 SELFBALANCE SWAP1 POP PUSH1 0x0 DUP2 GT PUSH2 0x45D JUMPI PUSH1 0x40 MLOAD PUSH32 0x8C379A000000000000000000000000000000000000000000000000000000000 DUP2 MSTORE PUSH1 0x4 ADD PUSH2 0x454 SWAP1 PUSH2 0xE5B JUMP JUMPDEST PUSH1 0x40 MLOAD DUP1 SWAP2 SUB SWAP1 REVERT JUMPDEST PUSH2 0x465 PUSH2 0x5C9 JUMP JUMPDEST PUSH20 0xFFFFFFFFFFFFFFFFFFFFFFFFFFFFFFFFFFFFFFFF AND PUSH2 0x8FC DUP3 SWAP1 DUP2 ISZERO MUL SWAP1 PUSH1 0x40 MLOAD PUSH1 0x0 PUSH1 0x40 MLOAD DUP1 DUP4 SUB DUP2 DUP6 DUP9 DUP9 CALL SWAP4 POP POP POP POP ISZERO DUP1 ISZERO PUSH2 0x4AA JUMPI RETURNDATASIZE PUSH1 0x0 DUP1 RETURNDATACOPY RETURNDATASIZE PUSH1 0x0 REVERT JUMPDEST POP PUSH2 0x4B3 PUSH2 0x5C9 JUMP JUMPDEST PUSH20 0xFFFFFFFFFFFFFFFFFFFFFFFFFFFFFFFFFFFFFFFF AND PUSH32 0xEAFF4B37086828766AD3268786972C0CD24259D4C87A80F9D3963A3C3D999B0D DUP3 PUSH1 0x40 MLOAD PUSH2 0x4F8 SWAP2 SWAP1 PUSH2 0xC73 JUMP JUMPDEST PUSH1 0x40 MLOAD DUP1 SWAP2 SUB SWAP1 LOG2 POP JUMP JUMPDEST PUSH2 0x50B PUSH2 0xAB2 JUMP JUMPDEST PUSH1 0x0 PUSH1 0x2 SLOAD SWAP1 POP DUP2 PUSH1 0x2 DUP2 SWAP1 SSTORE POP PUSH32 0x8B4AAA3408131DDD8429038DAD23291851161540FC9BDE082A80FC23AF669968 DUP2 DUP4 PUSH1 0x40 MLOAD PUSH2 0x54A SWAP3 SWAP2 SWAP1 PUSH2 0xDC0 JUMP JUMPDEST PUSH1 0x40 MLOAD DUP1 SWAP2 SUB SWAP1 LOG1 POP POP JUMP JUMPDEST PUSH2 0x55E PUSH2 0xAB2 JUMP JUMPDEST PUSH1 0x0 PUSH1 0x1 SLOAD SWAP1 POP DUP2 PUSH1 0x1 DUP2 SWAP1 SSTORE POP PUSH32 0x7F00A89280A0AE1F23540EBEF3770800A932622926732A30ABCD2CACC3CB1EB3 DUP2 DUP4 PUSH1 0x40 MLOAD PUSH2 0x59D SWAP3 SWAP2 SWAP1 PUSH2 0xDC0 JUMP JUMPDEST PUSH1 0x40 MLOAD DUP1 SWAP2 SUB SWAP1 LOG1 POP POP JUMP JUMPDEST PUSH1 0x3 SLOAD DUP2 JUMP JUMPDEST PUSH1 0x1 SLOAD DUP2 JUMP JUMPDEST PUSH2 0x5BD PUSH2 0xAB2 JUMP JUMPDEST PUSH2 0x5C7 PUSH1 0x0 PUSH2 0xB30 JUMP JUMPDEST JUMP JUMPDEST PUSH1 0x0 DUP1 PUSH1 0x0 SWAP1 SLOAD SWAP1 PUSH2 0x100 EXP SWAP1 DIV PUSH20 0xFFFFFFFFFFFFFFFFFFFFFFFFFFFFFFFFFFFFFFFF AND SWAP1 POP SWAP1 JUMP JUMPDEST PUSH1 0x0 DUP1 PUSH1 0x4 PUSH1 0x0 DUP5 PUSH20 0xFFFFFFFFFFFFFFFFFFFFFFFFFFFFFFFFFFFFFFFF AND PUSH20 0xFFFFFFFFFFFFFFFFFFFFFFFFFFFFFFFFFFFFFFFF AND DUP2 MSTORE PUSH1 0x20 ADD SWAP1 DUP2 MSTORE PUSH1 0x20 ADD PUSH1 0x0 KECCAK256 SLOAD TIMESTAMP PUSH2 0x640 SWAP2 SWAP1 PUSH2 0xEAA JUMP JUMPDEST SWAP1 POP PUSH1 0x2 SLOAD DUP2 LT PUSH2 0x655 JUMPI PUSH1 0x0 SWAP2 POP POP PUSH2 0x667 JUMP JUMPDEST DUP1 PUSH1 0x2 SLOAD PUSH2 0x663 SWAP2 SWAP1 PUSH2 0xEAA JUMP JUMPDEST SWAP2 POP POP JUMPDEST SWAP2 SWAP1 POP JUMP JUMPDEST PUSH1 0x0 PUSH1 0x5 PUSH1 0x0 DUP4 PUSH20 0xFFFFFFFFFFFFFFFFFFFFFFFFFFFFFFFFFFFFFFFF AND PUSH20 0xFFFFFFFFFFFFFFFFFFFFFFFFFFFFFFFFFFFFFFFF AND DUP2 MSTORE PUSH1 0x20 ADD SWAP1 DUP2 MSTORE PUSH1 0x20 ADD PUSH1 0x0 KECCAK256 SLOAD SWAP1 POP SWAP2 SWAP1 POP JUMP JUMPDEST PUSH1 0x0 DUP1 PUSH1 0x3 SLOAD SWAP1 POP PUSH1 0x0 PUSH1 0x5 PUSH1 0x0 CALLER PUSH20 0xFFFFFFFFFFFFFFFFFFFFFFFFFFFFFFFFFFFFFFFF AND PUSH20 0xFFFFFFFFFFFFFFFFFFFFFFFFFFFFFFFFFFFFFFFF AND DUP2 MSTORE PUSH1 0x20 ADD SWAP1 DUP2 MSTORE PUSH1 0x20 ADD PUSH1 0x0 KECCAK256 SLOAD GT ISZERO PUSH2 0x7A2 JUMPI PUSH1 0x0 CALLVALUE EQ PUSH2 0x748 JUMPI PUSH1 0x40 MLOAD PUSH32 0x8C379A000000000000000000000000000000000000000000000000000000000 DUP2 MSTORE PUSH1 0x4 ADD PUSH2 0x73F SWAP1 PUSH2 0xF50 JUMP JUMPDEST PUSH1 0x40 MLOAD DUP1 SWAP2 SUB SWAP1 REVERT JUMPDEST PUSH1 0x5 PUSH1 0x0 CALLER PUSH20 0xFFFFFFFFFFFFFFFFFFFFFFFFFFFFFFFFFFFFFFFF AND PUSH20 0xFFFFFFFFFFFFFFFFFFFFFFFFFFFFFFFFFFFFFFFF AND DUP2 MSTORE PUSH1 0x20 ADD SWAP1 DUP2 MSTORE PUSH1 0x20 ADD PUSH1 0x0 KECCAK256 PUSH1 0x0 DUP2 SLOAD DUP1 SWAP3 SWAP2 SWAP1 PUSH2 0x798 SWAP1 PUSH2 0xF70 JUMP JUMPDEST SWAP2 SWAP1 POP SSTORE POP PUSH2 0x96A JUMP JUMPDEST PUSH1 0x0 PUSH1 0x2 SLOAD PUSH1 0x4 PUSH1 0x0 CALLER PUSH20 0xFFFFFFFFFFFFFFFFFFFFFFFFFFFFFFFFFFFFFFFF AND PUSH20 0xFFFFFFFFFFFFFFFFFFFFFFFFFFFFFFFFFFFFFFFF AND DUP2 MSTORE PUSH1 0x20 ADD SWAP1 DUP2 MSTORE PUSH1 0x20 ADD PUSH1 0x0 KECCAK256 SLOAD TIMESTAMP PUSH2 0x7F2 SWAP2 SWAP1 PUSH2 0xEAA JUMP JUMPDEST LT ISZERO SWAP1 POP DUP1 ISZERO PUSH2 0x848 JUMPI PUSH1 0x0 CALLVALUE EQ PUSH2 0x83F JUMPI PUSH1 0x40 MLOAD PUSH32 0x8C379A000000000000000000000000000000000000000000000000000000000 DUP2 MSTORE PUSH1 0x4 ADD PUSH2 0x836 SWAP1 PUSH2 0x100B JUMP JUMPDEST PUSH1 0x40 MLOAD DUP1 SWAP2 SUB SWAP1 REVERT JUMPDEST PUSH1 0x1 SWAP3 POP PUSH2 0x891 JUMP JUMPDEST PUSH1 0x1 SLOAD CALLVALUE EQ PUSH2 0x88C JUMPI PUSH1 0x40 MLOAD PUSH32 0x8C379A000000000000000000000000000000000000000000000000000000000 DUP2 MSTORE PUSH1 0x4 ADD PUSH2 0x883 SWAP1 PUSH2 0x109D JUMP JUMPDEST PUSH1 0x40 MLOAD DUP1 SWAP2 SUB SWAP1 REVERT JUMPDEST PUSH1 0x0 SWAP3 POP JUMPDEST PUSH1 0x0 DUP3 GT PUSH2 0x8D4 JUMPI PUSH1 0x40 MLOAD PUSH32 0x8C379A000000000000000000000000000000000000000000000000000000000 DUP2 MSTORE PUSH1 0x4 ADD PUSH2 0x8CB SWAP1 PUSH2 0x112F JUMP JUMPDEST PUSH1 0x40 MLOAD DUP1 SWAP2 SUB SWAP1 REVERT JUMPDEST PUSH1 0x1 DUP3 PUSH2 0x8E1 SWAP2 SWAP1 PUSH2 0xEAA JUMP JUMPDEST PUSH1 0x5 PUSH1 0x0 CALLER PUSH20 0xFFFFFFFFFFFFFFFFFFFFFFFFFFFFFFFFFFFFFFFF AND PUSH20 0xFFFFFFFFFFFFFFFFFFFFFFFFFFFFFFFFFFFFFFFF AND DUP2 MSTORE PUSH1 0x20 ADD SWAP1 DUP2 MSTORE PUSH1 0x20 ADD PUSH1 0x0 KECCAK256 DUP2 SWAP1 SSTORE POP TIMESTAMP PUSH1 0x4 PUSH1 0x0 CALLER PUSH20 0xFFFFFFFFFFFFFFFFFFFFFFFFFFFFFFFFFFFFFFFF AND PUSH20 0xFFFFFFFFFFFFFFFFFFFFFFFFFFFFFFFFFFFFFFFF AND DUP2 MSTORE PUSH1 0x20 ADD SWAP1 DUP2 MSTORE PUSH1 0x20 ADD PUSH1 0x0 KECCAK256 DUP2 SWAP1 SSTORE POP POP JUMPDEST CALLER PUSH20 0xFFFFFFFFFFFFFFFFFFFFFFFFFFFFFFFFFFFFFFFF AND PUSH32 0x18AF4F87248C5C2E1A40D6B9CF8A5D10563C1BE28DCB579E76BA4ADDEF4B416B TIMESTAMP DUP5 PUSH1 0x5 PUSH1 0x0 CALLER PUSH20 0xFFFFFFFFFFFFFFFFFFFFFFFFFFFFFFFFFFFFFFFF AND PUSH20 0xFFFFFFFFFFFFFFFFFFFFFFFFFFFFFFFFFFFFFFFF AND DUP2 MSTORE PUSH1 0x20 ADD SWAP1 DUP2 MSTORE PUSH1 0x20 ADD PUSH1 0x0 KECCAK256 SLOAD PUSH1 0x40 MLOAD PUSH2 0x9F3 SWAP4 SWAP3 SWAP2 SWAP1 PUSH2 0x116A JUMP JUMPDEST PUSH1 0x40 MLOAD DUP1 SWAP2 SUB SWAP1 LOG2 POP POP JUMP JUMPDEST PUSH1 0x4 PUSH1 0x20 MSTORE DUP1 PUSH1 0x0 MSTORE PUSH1 0x40 PUSH1 0x0 KECCAK256 PUSH1 0x0 SWAP2 POP SWAP1 POP SLOAD DUP2 JUMP JUMPDEST PUSH1 0x5 PUSH1 0x20 MSTORE DUP1 PUSH1 0x0 MSTORE PUSH1 0x40 PUSH1 0x0 KECCAK256 PUSH1 0x0 SWAP2 POP SWAP1 POP SLOAD DUP2 JUMP JUMPDEST PUSH2 0xA37 PUSH2 0xAB2 JUMP JUMPDEST PUSH1 0x0 PUSH20 0xFFFFFFFFFFFFFFFFFFFFFFFFFFFFFFFFFFFFFFFF AND DUP2 PUSH20 0xFFFFFFFFFFFFFFFFFFFFFFFFFFFFFFFFFFFFFFFF AND SUB PUSH2 0xAA6 JUMPI PUSH1 0x40 MLOAD PUSH32 0x8C379A000000000000000000000000000000000000000000000000000000000 DUP2 MSTORE PUSH1 0x4 ADD PUSH2 0xA9D SWAP1 PUSH2 0x1213 JUMP JUMPDEST PUSH1 0x40 MLOAD DUP1 SWAP2 SUB SWAP1 REVERT JUMPDEST PUSH2 0xAAF DUP2 PUSH2 0xB30 JUMP JUMPDEST POP JUMP JUMPDEST PUSH2 0xABA PUSH2 0xBF4 JUMP JUMPDEST PUSH20 0xFFFFFFFFFFFFFFFFFFFFFFFFFFFFFFFFFFFFFFFF AND PUSH2 0xAD8 PUSH2 0x5C9 JUMP JUMPDEST PUSH20 0xFFFFFFFFFFFFFFFFFFFFFFFFFFFFFFFFFFFFFFFF AND EQ PUSH2 0xB2E JUMPI PUSH1 0x40 MLOAD PUSH32 0x8C379A000000000000000000000000000000000000000000000000000000000 DUP2 MSTORE PUSH1 0x4 ADD PUSH2 0xB25 SWAP1 PUSH2 0x127F JUMP JUMPDEST PUSH1 0x40 MLOAD DUP1 SWAP2 SUB SWAP1 REVERT JUMPDEST JUMP JUMPDEST PUSH1 0x0 DUP1 PUSH1 0x0 SWAP1 SLOAD SWAP1 PUSH2 0x100 EXP SWAP1 DIV PUSH20 0xFFFFFFFFFFFFFFFFFFFFFFFFFFFFFFFFFFFFFFFF AND SWAP1 POP DUP2 PUSH1 0x0 DUP1 PUSH2 0x100 EXP DUP2 SLOAD DUP2 PUSH20 0xFFFFFFFFFFFFFFFFFFFFFFFFFFFFFFFFFFFFFFFF MUL NOT AND SWAP1 DUP4 PUSH20 0xFFFFFFFFFFFFFFFFFFFFFFFFFFFFFFFFFFFFFFFF AND MUL OR SWAP1 SSTORE POP DUP2 PUSH20 0xFFFFFFFFFFFFFFFFFFFFFFFFFFFFFFFFFFFFFFFF AND DUP2 PUSH20 0xFFFFFFFFFFFFFFFFFFFFFFFFFFFFFFFFFFFFFFFF AND PUSH32 0x8BE0079C531659141344CD1FD0A4F28419497F9722A3DAAFE3B4186F6B6457E0 PUSH1 0x40 MLOAD PUSH1 0x40 MLOAD DUP1 SWAP2 SUB SWAP1 LOG3 POP POP JUMP JUMPDEST PUSH1 0x0 CALLER SWAP1 POP SWAP1 JUMP JUMPDEST PUSH1 0x0 DUP1 REVERT JUMPDEST PUSH1 0x0 DUP2 SWAP1 POP SWAP2 SWAP1 POP JUMP JUMPDEST PUSH2 0xC14 DUP2 PUSH2 0xC01 JUMP JUMPDEST DUP2 EQ PUSH2 0xC1F JUMPI PUSH1 0x0 DUP1 REVERT JUMPDEST POP JUMP JUMPDEST PUSH1 0x0 DUP2 CALLDATALOAD SWAP1 POP PUSH2 0xC31 DUP2 PUSH2 0xC0B JUMP JUMPDEST SWAP3 SWAP2 POP POP JUMP JUMPDEST PUSH1 0x0 PUSH1 0x20 DUP3 DUP5 SUB SLT ISZERO PUSH2 0xC4D JUMPI PUSH2 0xC4C PUSH2 0xBFC JUMP JUMPDEST JUMPDEST PUSH1 0x0 PUSH2 0xC5B DUP5 DUP3 DUP6 ADD PUSH2 0xC22 JUMP JUMPDEST SWAP2 POP POP SWAP3 SWAP2 POP POP JUMP JUMPDEST PUSH2 0xC6D DUP2 PUSH2 0xC01 JUMP JUMPDEST DUP3 MSTORE POP POP JUMP JUMPDEST PUSH1 0x0 PUSH1 0x20 DUP3 ADD SWAP1 POP PUSH2 0xC88 PUSH1 0x0 DUP4 ADD DUP5 PUSH2 0xC64 JUMP JUMPDEST SWAP3 SWAP2 POP POP JUMP JUMPDEST PUSH1 0x0 PUSH20 0xFFFFFFFFFFFFFFFFFFFFFFFFFFFFFFFFFFFFFFFF DUP3 AND SWAP1 POP SWAP2 SWAP1 POP JUMP JUMPDEST PUSH1 0x0 PUSH2 0xCB9 DUP3 PUSH2 0xC8E JUMP JUMPDEST SWAP1 POP SWAP2 SWAP1 POP JUMP JUMPDEST PUSH2 0xCC9 DUP2 PUSH2 0xCAE JUMP JUMPDEST DUP3 MSTORE POP POP JUMP JUMPDEST PUSH1 0x0 PUSH1 0x20 DUP3 ADD SWAP1 POP PUSH2 0xCE4 PUSH1 0x0 DUP4 ADD DUP5 PUSH2 0xCC0 JUMP JUMPDEST SWAP3 SWAP2 POP POP JUMP JUMPDEST PUSH2 0xCF3 DUP2 PUSH2 0xCAE JUMP JUMPDEST DUP2 EQ PUSH2 0xCFE JUMPI PUSH1 0x0 DUP1 REVERT JUMPDEST POP JUMP JUMPDEST PUSH1 0x0 DUP2 CALLDATALOAD SWAP1 POP PUSH2 0xD10 DUP2 PUSH2 0xCEA JUMP JUMPDEST SWAP3 SWAP2 POP POP JUMP JUMPDEST PUSH1 0x0 PUSH1 0x20 DUP3 DUP5 SUB SLT ISZERO PUSH2 0xD2C JUMPI PUSH2 0xD2B PUSH2 0xBFC JUMP JUMPDEST JUMPDEST PUSH1 0x0 PUSH2 0xD3A DUP5 DUP3 DUP6 ADD PUSH2 0xD01 JUMP JUMPDEST SWAP2 POP POP SWAP3 SWAP2 POP POP JUMP JUMPDEST PUSH1 0x0 DUP3 DUP3 MSTORE PUSH1 0x20 DUP3 ADD SWAP1 POP SWAP3 SWAP2 POP POP JUMP JUMPDEST PUSH32 0x506C617973207065722073657373696F6E206D757374206265203E2030000000 PUSH1 0x0 DUP3 ADD MSTORE POP JUMP JUMPDEST PUSH1 0x0 PUSH2 0xD8A PUSH1 0x1D DUP4 PUSH2 0xD43 JUMP JUMPDEST SWAP2 POP PUSH2 0xD95 DUP3 PUSH2 0xD54 JUMP JUMPDEST PUSH1 0x20 DUP3 ADD SWAP1 POP SWAP2 SWAP1 POP JUMP JUMPDEST PUSH1 0x0 PUSH1 0x20 DUP3 ADD SWAP1 POP DUP2 DUP2 SUB PUSH1 0x0 DUP4 ADD MSTORE PUSH2 0xDB9 DUP2 PUSH2 0xD7D JUMP JUMPDEST SWAP1 POP SWAP2 SWAP1 POP JUMP JUMPDEST PUSH1 0x0 PUSH1 0x40 DUP3 ADD SWAP1 POP PUSH2 0xDD5 PUSH1 0x0 DUP4 ADD DUP6 PUSH2 0xC64 JUMP JUMPDEST PUSH2 0xDE2 PUSH1 0x20 DUP4 ADD DUP5 PUSH2 0xC64 JUMP JUMPDEST SWAP4 SWAP3 POP POP POP JUMP JUMPDEST PUSH32 0x5652465265666C6578426C69747A3A204E6F2062616C616E636520746F207769 PUSH1 0x0 DUP3 ADD MSTORE PUSH32 0x7468647261770000000000000000000000000000000000000000000000000000 PUSH1 0x20 DUP3 ADD MSTORE POP JUMP JUMPDEST PUSH1 0x0 PUSH2 0xE45 PUSH1 0x26 DUP4 PUSH2 0xD43 JUMP JUMPDEST SWAP2 POP PUSH2 0xE50 DUP3 PUSH2 0xDE9 JUMP JUMPDEST PUSH1 0x40 DUP3 ADD SWAP1 POP SWAP2 SWAP1 POP JUMP JUMPDEST PUSH1 0x0 PUSH1 0x20 DUP3 ADD SWAP1 POP DUP2 DUP2 SUB PUSH1 0x0 DUP4 ADD MSTORE PUSH2 0xE74 DUP2 PUSH2 0xE38 JUMP JUMPDEST SWAP1 POP SWAP2 SWAP1 POP JUMP JUMPDEST PUSH32 0x4E487B7100000000000000000000000000000000000000000000000000000000 PUSH1 0x0 MSTORE PUSH1 0x11 PUSH1 0x4 MSTORE PUSH1 0x24 PUSH1 0x0 REVERT JUMPDEST PUSH1 0x0 PUSH2 0xEB5 DUP3 PUSH2 0xC01 JUMP JUMPDEST SWAP2 POP PUSH2 0xEC0 DUP4 PUSH2 0xC01 JUMP JUMPDEST SWAP3 POP DUP3 DUP3 SUB SWAP1 POP DUP2 DUP2 GT ISZERO PUSH2 0xED8 JUMPI PUSH2 0xED7 PUSH2 0xE7B JUMP JUMPDEST JUMPDEST SWAP3 SWAP2 POP POP JUMP JUMPDEST PUSH32 0x5652465265666C6578426C69747A3A2056616C75652073656E7420666F722061 PUSH1 0x0 DUP3 ADD MSTORE PUSH32 0x20706C61792077697468696E20616E206163746976652073657373696F6E2E00 PUSH1 0x20 DUP3 ADD MSTORE POP JUMP JUMPDEST PUSH1 0x0 PUSH2 0xF3A PUSH1 0x3F DUP4 PUSH2 0xD43 JUMP JUMPDEST SWAP2 POP PUSH2 0xF45 DUP3 PUSH2 0xEDE JUMP JUMPDEST PUSH1 0x40 DUP3 ADD SWAP1 POP SWAP2 SWAP1 POP JUMP JUMPDEST PUSH1 0x0 PUSH1 0x20 DUP3 ADD SWAP1 POP DUP2 DUP2 SUB PUSH1 0x0 DUP4 ADD MSTORE PUSH2 0xF69 DUP2 PUSH2 0xF2D JUMP JUMPDEST SWAP1 POP SWAP2 SWAP1 POP JUMP JUMPDEST PUSH1 0x0 PUSH2 0xF7B DUP3 PUSH2 0xC01 JUMP JUMPDEST SWAP2 POP PUSH1 0x0 DUP3 SUB PUSH2 0xF8E JUMPI PUSH2 0xF8D PUSH2 0xE7B JUMP JUMPDEST JUMPDEST PUSH1 0x1 DUP3 SUB SWAP1 POP SWAP2 SWAP1 POP JUMP JUMPDEST PUSH32 0x5652465265666C6578426C69747A3A2056616C75652073656E7420666F722061 PUSH1 0x0 DUP3 ADD MSTORE PUSH32 0x206672656520706C61792073657373696F6E2E00000000000000000000000000 PUSH1 0x20 DUP3 ADD MSTORE POP JUMP JUMPDEST PUSH1 0x0 PUSH2 0xFF5 PUSH1 0x33 DUP4 PUSH2 0xD43 JUMP JUMPDEST SWAP2 POP PUSH2 0x1000 DUP3 PUSH2 0xF99 JUMP JUMPDEST PUSH1 0x40 DUP3 ADD SWAP1 POP SWAP2 SWAP1 POP JUMP JUMPDEST PUSH1 0x0 PUSH1 0x20 DUP3 ADD SWAP1 POP DUP2 DUP2 SUB PUSH1 0x0 DUP4 ADD MSTORE PUSH2 0x1024 DUP2 PUSH2 0xFE8 JUMP JUMPDEST SWAP1 POP SWAP2 SWAP1 POP JUMP JUMPDEST PUSH32 0x5652465265666C6578426C69747A3A20496E636F727265637420706C61792070 PUSH1 0x0 DUP3 ADD MSTORE PUSH32 0x7269636520666F72206E65772073657373696F6E2E0000000000000000000000 PUSH1 0x20 DUP3 ADD MSTORE POP JUMP JUMPDEST PUSH1 0x0 PUSH2 0x1087 PUSH1 0x35 DUP4 PUSH2 0xD43 JUMP JUMPDEST SWAP2 POP PUSH2 0x1092 DUP3 PUSH2 0x102B JUMP JUMPDEST PUSH1 0x40 DUP3 ADD SWAP1 POP SWAP2 SWAP1 POP JUMP JUMPDEST PUSH1 0x0 PUSH1 0x20 DUP3 ADD SWAP1 POP DUP2 DUP2 SUB PUSH1 0x0 DUP4 ADD MSTORE PUSH2 0x10B6 DUP2 PUSH2 0x107A JUMP JUMPDEST SWAP1 POP SWAP2 SWAP1 POP JUMP JUMPDEST PUSH32 0x506C617973207065722073657373696F6E206E6F7420736574206F72207A6572 PUSH1 0x0 DUP3 ADD MSTORE PUSH32 0x6F00000000000000000000000000000000000000000000000000000000000000 PUSH1 0x20 DUP3 ADD MSTORE POP JUMP JUMPDEST PUSH1 0x0 PUSH2 0x1119 PUSH1 0x21 DUP4 PUSH2 0xD43 JUMP JUMPDEST SWAP2 POP PUSH2 0x1124 DUP3 PUSH2 0x10BD JUMP JUMPDEST PUSH1 0x40 DUP3 ADD SWAP1 POP SWAP2 SWAP1 POP JUMP JUMPDEST PUSH1 0x0 PUSH1 0x20 DUP3 ADD SWAP1 POP DUP2 DUP2 SUB PUSH1 0x0 DUP4 ADD MSTORE PUSH2 0x1148 DUP2 PUSH2 0x110C JUMP JUMPDEST SWAP1 POP SWAP2 SWAP1 POP JUMP JUMPDEST PUSH1 0x0 DUP2 ISZERO ISZERO SWAP1 POP SWAP2 SWAP1 POP JUMP JUMPDEST PUSH2 0x1164 DUP2 PUSH2 0x114F JUMP JUMPDEST DUP3 MSTORE POP POP JUMP JUMPDEST PUSH1 0x0 PUSH1 0x60 DUP3 ADD SWAP1 POP PUSH2 0x117F PUSH1 0x0 DUP4 ADD DUP7 PUSH2 0xC64 JUMP JUMPDEST PUSH2 0x118C PUSH1 0x20 DUP4 ADD DUP6 PUSH2 0x115B JUMP JUMPDEST PUSH2 0x1199 PUSH1 0x40 DUP4 ADD DUP5 PUSH2 0xC64 JUMP JUMPDEST SWAP5 SWAP4 POP POP POP POP JUMP JUMPDEST PUSH32 0x4F776E61626C653A206E6577206F776E657220697320746865207A65726F2061 PUSH1 0x0 DUP3 ADD MSTORE PUSH32 0x6464726573730000000000000000000000000000000000000000000000000000 PUSH1 0x20 DUP3 ADD MSTORE POP JUMP JUMPDEST PUSH1 0x0 PUSH2 0x11FD PUSH1 0x26 DUP4 PUSH2 0xD43 JUMP JUMPDEST SWAP2 POP PUSH2 0x1208 DUP3 PUSH2 0x11A1 JUMP JUMPDEST PUSH1 0x40 DUP3 ADD SWAP1 POP SWAP2 SWAP1 POP JUMP JUMPDEST PUSH1 0x0 PUSH1 0x20 DUP3 ADD SWAP1 POP DUP2 DUP2 SUB PUSH1 0x0 DUP4 ADD MSTORE PUSH2 0x122C DUP2 PUSH2 0x11F0 JUMP JUMPDEST SWAP1 POP SWAP2 SWAP1 POP JUMP JUMPDEST PUSH32 0x4F776E61626C653A2063616C6C6572206973206E6F7420746865206F776E6572 PUSH1 0x0 DUP3 ADD MSTORE POP JUMP JUMPDEST PUSH1 0x0 PUSH2 0x1269 PUSH1 0x20 DUP4 PUSH2 0xD43 JUMP JUMPDEST SWAP2 POP PUSH2 0x1274 DUP3 PUSH2 0x1233 JUMP JUMPDEST PUSH1 0x20 DUP3 ADD SWAP1 POP SWAP2 SWAP1 POP JUMP JUMPDEST PUSH1 0x0 PUSH1 0x20 DUP3 ADD SWAP1 POP DUP2 DUP2 SUB PUSH1 0x0 DUP4 ADD MSTORE PUSH2 0x1298 DUP2 PUSH2 0x125C JUMP JUMPDEST SWAP1 POP SWAP2 SWAP1 POP JUMP INVALID LOG2 PUSH5 0x6970667358 0x22 SLT KECCAK256 0xF 0xB8 0x24 0xD1 0xD1 PUSH24 0xE6A60EF4FC85BB7893F24FF4AF66DCC65B191CE8DE984815 0xF7 BASEFEE PUSH5 0x736F6C6343 STOP ADDMOD XOR STOP CALLER "},"methodIdentifiers":{"freePlayInterval()":"1e96c09e","getRemainingFreePlayCooldown(address)":"96d966d6","getRemainingPlaysInCurrentSession(address)":"a637cd0a","lastPlayTime(address)":"c640c1f6","owner()":"8da5cb5b","playPrice()":"69c1a7ed","playsPerSession()":"5b4011be","remainingPlaysInSession(address)":"d3eda478","renounceOwnership()":"715018a6","requestFlash()":"b205ab4e","setFreePlayInterval(uint256)":"438de909","setPlayPrice(uint256)":"59a9ae11","setPlaysPerSession(uint256)":"148edacf","transferOwnership(address)":"f2fde38b","withdraw()":"3ccfd60b"}}}}}