{
  "_format": "hh-sol-artifact-1",
  "contractName": "ReflexBlitzNFT",
  "sourceName": "contracts/ReflexBlitzNFT.sol",
  "abi": [
    {
      "inputs": [],
      "stateMutability": "nonpayable",
      "type": "constructor"
    },
    {
      "inputs": [],
      "name": "InvalidShortString",
      "type": "error"
    },
    {
      "inputs": [
        {
          "internalType": "string",
          "name": "str",
          "type": "string"
        }
      ],
      "name": "StringTooLong",
      "type": "error"
    },
    {
      "anonymous": false,
      "inputs": [
        {
          "indexed": true,
          "internalType": "address",
          "name": "owner",
          "type": "address"
        },
        {
          "indexed": true,
          "internalType": "address",
          "name": "approved",
          "type": "address"
        },
        {
          "indexed": true,
          "internalType": "uint256",
          "name": "tokenId",
          "type": "uint256"
        }
      ],
      "name": "Approval",
      "type": "event"
    },
    {
      "anonymous": false,
      "inputs": [
        {
          "indexed": true,
          "internalType": "address",
          "name": "owner",
          "type": "address"
        },
        {
          "indexed": true,
          "internalType": "address",
          "name": "operator",
          "type": "address"
        },
        {
          "indexed": false,
          "internalType": "bool",
          "name": "approved",
          "type": "bool"
        }
      ],
      "name": "ApprovalForAll",
      "type": "event"
    },
    {
      "anonymous": false,
      "inputs": [
        {
          "indexed": false,
          "internalType": "uint256",
          "name": "_fromTokenId",
          "type": "uint256"
        },
        {
          "indexed": false,
          "internalType": "uint256",
          "name": "_toTokenId",
          "type": "uint256"
        }
      ],
      "name": "BatchMetadataUpdate",
      "type": "event"
    },
    {
      "anonymous": false,
      "inputs": [],
      "name": "EIP712DomainChanged",
      "type": "event"
    },
    {
      "anonymous": false,
      "inputs": [
        {
          "indexed": false,
          "internalType": "uint256",
          "name": "_tokenId",
          "type": "uint256"
        }
      ],
      "name": "MetadataUpdate",
      "type": "event"
    },
    {
      "anonymous": false,
      "inputs": [
        {
          "indexed": true,
          "internalType": "address",
          "name": "player",
          "type": "address"
        },
        {
          "indexed": true,
          "internalType": "uint256",
          "name": "tokenId",
          "type": "uint256"
        },
        {
          "indexed": false,
          "internalType": "uint256",
          "name": "score",
          "type": "uint256"
        },
        {
          "indexed": false,
          "internalType": "string",
          "name": "rank",
          "type": "string"
        },
        {
          "indexed": false,
          "internalType": "uint256",
          "name": "nonce",
          "type": "uint256"
        }
      ],
      "name": "NFTMintedWithSignature",
      "type": "event"
    },
    {
      "anonymous": false,
      "inputs": [
        {
          "indexed": true,
          "internalType": "address",
          "name": "previousOwner",
          "type": "address"
        },
        {
          "indexed": true,
          "internalType": "address",
          "name": "newOwner",
          "type": "address"
        }
      ],
      "name": "OwnershipTransferred",
      "type": "event"
    },
    {
      "anonymous": false,
      "inputs": [
        {
          "indexed": false,
          "internalType": "string[]",
          "name": "newRanks",
          "type": "string[]"
        },
        {
          "indexed": false,
          "internalType": "uint256[]",
          "name": "newThresholds",
          "type": "uint256[]"
        }
      ],
      "name": "RankSettingsUpdated",
      "type": "event"
    },
    {
      "anonymous": false,
      "inputs": [
        {
          "indexed": true,
          "internalType": "address",
          "name": "newSignerAddress",
          "type": "address"
        }
      ],
      "name": "SignerAddressUpdated",
      "type": "event"
    },
    {
      "anonymous": false,
      "inputs": [
        {
          "indexed": true,
          "internalType": "address",
          "name": "from",
          "type": "address"
        },
        {
          "indexed": true,
          "internalType": "address",
          "name": "to",
          "type": "address"
        },
        {
          "indexed": true,
          "internalType": "uint256",
          "name": "tokenId",
          "type": "uint256"
        }
      ],
      "name": "Transfer",
      "type": "event"
    },
    {
      "stateMutability": "payable",
      "type": "fallback"
    },
    {
      "inputs": [],
      "name": "MINT_PRICE",
      "outputs": [
        {
          "internalType": "uint256",
          "name": "",
          "type": "uint256"
        }
      ],
      "stateMutability": "view",
      "type": "function"
    },
    {
      "inputs": [],
      "name": "MINT_TYPEHASH",
      "outputs": [
        {
          "internalType": "bytes32",
          "name": "",
          "type": "bytes32"
        }
      ],
      "stateMutability": "view",
      "type": "function"
    },
    {
      "inputs": [
        {
          "internalType": "address",
          "name": "to",
          "type": "address"
        },
        {
          "internalType": "uint256",
          "name": "tokenId",
          "type": "uint256"
        }
      ],
      "name": "approve",
      "outputs": [],
      "stateMutability": "nonpayable",
      "type": "function"
    },
    {
      "inputs": [
        {
          "internalType": "address",
          "name": "owner",
          "type": "address"
        }
      ],
      "name": "balanceOf",
      "outputs": [
        {
          "internalType": "uint256",
          "name": "",
          "type": "uint256"
        }
      ],
      "stateMutability": "view",
      "type": "function"
    },
    {
      "inputs": [
        {
          "internalType": "uint256",
          "name": "score",
          "type": "uint256"
        }
      ],
      "name": "determineRank",
      "outputs": [
        {
          "internalType": "string",
          "name": "",
          "type": "string"
        }
      ],
      "stateMutability": "view",
      "type": "function"
    },
    {
      "inputs": [],
      "name": "eip712Domain",
      "outputs": [
        {
          "internalType": "bytes1",
          "name": "fields",
          "type": "bytes1"
        },
        {
          "internalType": "string",
          "name": "name",
          "type": "string"
        },
        {
          "internalType": "string",
          "name": "version",
          "type": "string"
        },
        {
          "internalType": "uint256",
          "name": "chainId",
          "type": "uint256"
        },
        {
          "internalType": "address",
          "name": "verifyingContract",
          "type": "address"
        },
        {
          "internalType": "bytes32",
          "name": "salt",
          "type": "bytes32"
        },
        {
          "internalType": "uint256[]",
          "name": "extensions",
          "type": "uint256[]"
        }
      ],
      "stateMutability": "view",
      "type": "function"
    },
    {
      "inputs": [],
      "name": "gameAddress",
      "outputs": [
        {
          "internalType": "address",
          "name": "",
          "type": "address"
        }
      ],
      "stateMutability": "view",
      "type": "function"
    },
    {
      "inputs": [
        {
          "internalType": "uint256",
          "name": "tokenId",
          "type": "uint256"
        }
      ],
      "name": "getApproved",
      "outputs": [
        {
          "internalType": "address",
          "name": "",
          "type": "address"
        }
      ],
      "stateMutability": "view",
      "type": "function"
    },
    {
      "inputs": [
        {
          "internalType": "uint256",
          "name": "tokenId",
          "type": "uint256"
        }
      ],
      "name": "getTokenScore",
      "outputs": [
        {
          "internalType": "uint256",
          "name": "",
          "type": "uint256"
        }
      ],
      "stateMutability": "view",
      "type": "function"
    },
    {
      "inputs": [
        {
          "internalType": "address",
          "name": "user",
          "type": "address"
        }
      ],
      "name": "getTokensByUser",
      "outputs": [
        {
          "internalType": "uint256[]",
          "name": "",
          "type": "uint256[]"
        }
      ],
      "stateMutability": "view",
      "type": "function"
    },
    {
      "inputs": [
        {
          "internalType": "address",
          "name": "owner",
          "type": "address"
        },
        {
          "internalType": "address",
          "name": "operator",
          "type": "address"
        }
      ],
      "name": "isApprovedForAll",
      "outputs": [
        {
          "internalType": "bool",
          "name": "",
          "type": "bool"
        }
      ],
      "stateMutability": "view",
      "type": "function"
    },
    {
      "inputs": [
        {
          "internalType": "address",
          "name": "player",
          "type": "address"
        },
        {
          "internalType": "uint256",
          "name": "score",
          "type": "uint256"
        },
        {
          "internalType": "uint256",
          "name": "nonce",
          "type": "uint256"
        },
        {
          "internalType": "uint256",
          "name": "expiry",
          "type": "uint256"
        },
        {
          "internalType": "bytes",
          "name": "signature",
          "type": "bytes"
        }
      ],
      "name": "mintWithSignature",
      "outputs": [
        {
          "internalType": "uint256",
          "name": "",
          "type": "uint256"
        }
      ],
      "stateMutability": "payable",
      "type": "function"
    },
    {
      "inputs": [],
      "name": "name",
      "outputs": [
        {
          "internalType": "string",
          "name": "",
          "type": "string"
        }
      ],
      "stateMutability": "view",
      "type": "function"
    },
    {
      "inputs": [],
      "name": "owner",
      "outputs": [
        {
          "internalType": "address",
          "name": "",
          "type": "address"
        }
      ],
      "stateMutability": "view",
      "type": "function"
    },
    {
      "inputs": [
        {
          "internalType": "uint256",
          "name": "tokenId",
          "type": "uint256"
        }
      ],
      "name": "ownerOf",
      "outputs": [
        {
          "internalType": "address",
          "name": "",
          "type": "address"
        }
      ],
      "stateMutability": "view",
      "type": "function"
    },
    {
      "inputs": [
        {
          "internalType": "uint256",
          "name": "",
          "type": "uint256"
        }
      ],
      "name": "rankThresholds",
      "outputs": [
        {
          "internalType": "uint256",
          "name": "",
          "type": "uint256"
        }
      ],
      "stateMutability": "view",
      "type": "function"
    },
    {
      "inputs": [
        {
          "internalType": "uint256",
          "name": "",
          "type": "uint256"
        }
      ],
      "name": "ranks",
      "outputs": [
        {
          "internalType": "string",
          "name": "",
          "type": "string"
        }
      ],
      "stateMutability": "view",
      "type": "function"
    },
    {
      "inputs": [],
      "name": "renounceOwnership",
      "outputs": [],
      "stateMutability": "nonpayable",
      "type": "function"
    },
    {
      "inputs": [
        {
          "internalType": "address",
          "name": "from",
          "type": "address"
        },
        {
          "internalType": "address",
          "name": "to",
          "type": "address"
        },
        {
          "internalType": "uint256",
          "name": "tokenId",
          "type": "uint256"
        }
      ],
      "name": "safeTransferFrom",
      "outputs": [],
      "stateMutability": "nonpayable",
      "type": "function"
    },
    {
      "inputs": [
        {
          "internalType": "address",
          "name": "from",
          "type": "address"
        },
        {
          "internalType": "address",
          "name": "to",
          "type": "address"
        },
        {
          "internalType": "uint256",
          "name": "tokenId",
          "type": "uint256"
        },
        {
          "internalType": "bytes",
          "name": "data",
          "type": "bytes"
        }
      ],
      "name": "safeTransferFrom",
      "outputs": [],
      "stateMutability": "nonpayable",
      "type": "function"
    },
    {
      "inputs": [
        {
          "internalType": "address",
          "name": "operator",
          "type": "address"
        },
        {
          "internalType": "bool",
          "name": "approved",
          "type": "bool"
        }
      ],
      "name": "setApprovalForAll",
      "outputs": [],
      "stateMutability": "nonpayable",
      "type": "function"
    },
    {
      "inputs": [
        {
          "internalType": "address",
          "name": "_gameAddress",
          "type": "address"
        }
      ],
      "name": "setGameAddress",
      "outputs": [],
      "stateMutability": "nonpayable",
      "type": "function"
    },
    {
      "inputs": [
        {
          "internalType": "string[]",
          "name": "_newRanks",
          "type": "string[]"
        },
        {
          "internalType": "uint256[]",
          "name": "_newThresholds",
          "type": "uint256[]"
        }
      ],
      "name": "setRankSettings",
      "outputs": [],
      "stateMutability": "nonpayable",
      "type": "function"
    },
    {
      "inputs": [
        {
          "internalType": "address",
          "name": "_signerAddress",
          "type": "address"
        }
      ],
      "name": "setSignerAddress",
      "outputs": [],
      "stateMutability": "nonpayable",
      "type": "function"
    },
    {
      "inputs": [],
      "name": "signerAddress",
      "outputs": [
        {
          "internalType": "address",
          "name": "",
          "type": "address"
        }
      ],
      "stateMutability": "view",
      "type": "function"
    },
    {
      "inputs": [
        {
          "internalType": "bytes4",
          "name": "interfaceId",
          "type": "bytes4"
        }
      ],
      "name": "supportsInterface",
      "outputs": [
        {
          "internalType": "bool",
          "name": "",
          "type": "bool"
        }
      ],
      "stateMutability": "view",
      "type": "function"
    },
    {
      "inputs": [],
      "name": "symbol",
      "outputs": [
        {
          "internalType": "string",
          "name": "",
          "type": "string"
        }
      ],
      "stateMutability": "view",
      "type": "function"
    },
    {
      "inputs": [
        {
          "internalType": "uint256",
          "name": "",
          "type": "uint256"
        }
      ],
      "name": "tokenScores",
      "outputs": [
        {
          "internalType": "uint256",
          "name": "",
          "type": "uint256"
        }
      ],
      "stateMutability": "view",
      "type": "function"
    },
    {
      "inputs": [
        {
          "internalType": "uint256",
          "name": "tokenId",
          "type": "uint256"
        }
      ],
      "name": "tokenURI",
      "outputs": [
        {
          "internalType": "string",
          "name": "",
          "type": "string"
        }
      ],
      "stateMutability": "view",
      "type": "function"
    },
    {
      "inputs": [
        {
          "internalType": "address",
          "name": "from",
          "type": "address"
        },
        {
          "internalType": "address",
          "name": "to",
          "type": "address"
        },
        {
          "internalType": "uint256",
          "name": "tokenId",
          "type": "uint256"
        }
      ],
      "name": "transferFrom",
      "outputs": [],
      "stateMutability": "nonpayable",
      "type": "function"
    },
    {
      "inputs": [
        {
          "internalType": "address",
          "name": "newOwner",
          "type": "address"
        }
      ],
      "name": "transferOwnership",
      "outputs": [],
      "stateMutability": "nonpayable",
      "type": "function"
    },
    {
      "inputs": [
        {
          "internalType": "uint256",
          "name": "",
          "type": "uint256"
        }
      ],
      "name": "usedNonces",
      "outputs": [
        {
          "internalType": "bool",
          "name": "",
          "type": "bool"
        }
      ],
      "stateMutability": "view",
      "type": "function"
    },
    {
      "inputs": [
        {
          "internalType": "address",
          "name": "",
          "type": "address"
        },
        {
          "internalType": "uint256",
          "name": "",
          "type": "uint256"
        }
      ],
      "name": "userTokens",
      "outputs": [
        {
          "internalType": "uint256",
          "name": "",
          "type": "uint256"
        }
      ],
      "stateMutability": "view",
      "type": "function"
    },
    {
      "inputs": [],
      "name": "withdraw",
      "outputs": [],
      "stateMutability": "nonpayable",
      "type": "function"
    },
    {
      "stateMutability": "payable",
      "type": "receive"
    }
  ],
  "bytecode": "0x6101606040526040518060c001604052806040518060400160405280600281526020017f532b00000000000000000000000000000000000000000000000000000000000081525081526020016040518060400160405280600181526020017f530000000000000000000000000000000000000000000000000000000000000081525081526020016040518060400160405280600181526020017f410000000000000000000000000000000000000000000000000000000000000081525081526020016040518060400160405280600181526020017f420000000000000000000000000000000000000000000000000000000000000081525081526020016040518060400160405280600181526020017f430000000000000000000000000000000000000000000000000000000000000081525081526020016040518060400160405280600181526020017f4400000000000000000000000000000000000000000000000000000000000000815250815250600b90600662000182929190620005cf565b506040518060c0016040528062030d4062ffffff1681526020016203d09062ffffff168152602001620493e062ffffff1681526020016205573062ffffff16815260200162061a8062ffffff1681526020016298968062ffffff16815250600c906006620001f29291906200062f565b503480156200020057600080fd5b506040518060400160405280601b81526020017f5265666c6578426c69747a20416368696576656d656e74204e465400000000008152506040518060400160405280600181526020017f31000000000000000000000000000000000000000000000000000000000000008152506040518060400160405280601781526020017f5265666c6578426c69747a20416368696576656d656e740000000000000000008152506040518060400160405280600381526020017f52424100000000000000000000000000000000000000000000000000000000008152508160009081620002ea91906200098f565b508060019081620002fc91906200098f565b5050506200031f62000313620003d560201b60201c565b620003dd60201b60201c565b62000335600883620004a360201b90919060201c565b610120818152505062000353600982620004a360201b90919060201c565b6101408181525050818051906020012060e08181525050808051906020012061010081815250504660a0818152505062000392620004fb60201b60201c565b608081815250503073ffffffffffffffffffffffffffffffffffffffff1660c08173ffffffffffffffffffffffffffffffffffffffff1681525050505062000c99565b600033905090565b6000600760009054906101000a900473ffffffffffffffffffffffffffffffffffffffff16905081600760006101000a81548173ffffffffffffffffffffffffffffffffffffffff021916908373ffffffffffffffffffffffffffffffffffffffff1602179055508173ffffffffffffffffffffffffffffffffffffffff168173ffffffffffffffffffffffffffffffffffffffff167f8be0079c531659141344cd1fd0a4f28419497f9722a3daafe3b4186f6b6457e060405160405180910390a35050565b6000602083511015620004c957620004c1836200055860201b60201c565b9050620004f5565b82620004db83620005c560201b60201c565b6000019081620004ec91906200098f565b5060ff60001b90505b92915050565b60007f8b73c3c69bb8fe3d512ecc4cf759cc79239f7b179b0ffacaa9a75d522b39400f60e0516101005146306040516020016200053d95949392919062000ae7565b60405160208183030381529060405280519060200120905090565b600080829050601f81511115620005a857826040517f305a27a90000000000000000000000000000000000000000000000000000000081526004016200059f919062000bd3565b60405180910390fd5b805181620005b69062000c29565b60001c1760001b915050919050565b6000819050919050565b8280548282559060005260206000209081019282156200061c579160200282015b828111156200061b5782518290816200060a91906200098f565b5091602001919060010190620005f0565b5b5090506200062b919062000688565b5090565b82805482825590600052602060002090810192821562000675579160200282015b8281111562000674578251829062ffffff1690559160200191906001019062000650565b5b509050620006849190620006b0565b5090565b5b80821115620006ac5760008181620006a29190620006cf565b5060010162000689565b5090565b5b80821115620006cb576000816000905550600101620006b1565b5090565b508054620006dd906200077e565b6000825580601f10620006f1575062000712565b601f016020900490600052602060002090810190620007119190620006b0565b5b50565b600081519050919050565b7f4e487b7100000000000000000000000000000000000000000000000000000000600052604160045260246000fd5b7f4e487b7100000000000000000000000000000000000000000000000000000000600052602260045260246000fd5b600060028204905060018216806200079757607f821691505b602082108103620007ad57620007ac6200074f565b5b50919050565b60008190508160005260206000209050919050565b60006020601f8301049050919050565b600082821b905092915050565b600060088302620008177fffffffffffffffffffffffffffffffffffffffffffffffffffffffffffffffff82620007d8565b620008238683620007d8565b95508019841693508086168417925050509392505050565b6000819050919050565b6000819050919050565b6000620008706200086a62000864846200083b565b62000845565b6200083b565b9050919050565b6000819050919050565b6200088c836200084f565b620008a46200089b8262000877565b848454620007e5565b825550505050565b600090565b620008bb620008ac565b620008c881848462000881565b505050565b5b81811015620008f057620008e4600082620008b1565b600181019050620008ce565b5050565b601f8211156200093f576200090981620007b3565b6200091484620007c8565b8101602085101562000924578190505b6200093c6200093385620007c8565b830182620008cd565b50505b505050565b600082821c905092915050565b6000620009646000198460080262000944565b1980831691505092915050565b60006200097f838362000951565b9150826002028217905092915050565b6200099a8262000715565b67ffffffffffffffff811115620009b657620009b562000720565b5b620009c282546200077e565b620009cf828285620008f4565b600060209050601f83116001811462000a075760008415620009f2578287015190505b620009fe858262000971565b86555062000a6e565b601f19841662000a1786620007b3565b60005b8281101562000a415784890151825560018201915060208501945060208101905062000a1a565b8683101562000a61578489015162000a5d601f89168262000951565b8355505b6001600288020188555050505b505050505050565b6000819050919050565b62000a8b8162000a76565b82525050565b62000a9c816200083b565b82525050565b600073ffffffffffffffffffffffffffffffffffffffff82169050919050565b600062000acf8262000aa2565b9050919050565b62000ae18162000ac2565b82525050565b600060a08201905062000afe600083018862000a80565b62000b0d602083018762000a80565b62000b1c604083018662000a80565b62000b2b606083018562000a91565b62000b3a608083018462000ad6565b9695505050505050565b600082825260208201905092915050565b60005b8381101562000b7557808201518184015260208101905062000b58565b60008484015250505050565b6000601f19601f8301169050919050565b600062000b9f8262000715565b62000bab818562000b44565b935062000bbd81856020860162000b55565b62000bc88162000b81565b840191505092915050565b6000602082019050818103600083015262000bef818462000b92565b905092915050565b600081519050919050565b6000819050602082019050919050565b600062000c20825162000a76565b80915050919050565b600062000c368262000bf7565b8262000c428462000c02565b905062000c4f8162000c12565b9250602082101562000c925762000c8d7fffffffffffffffffffffffffffffffffffffffffffffffffffffffffffffffff83602003600802620007d8565b831692505b5050919050565b60805160a05160c05160e05161010051610120516101405161744162000cf4600039600061125501526000611221015260006138cc015260006138ab01526000612cdf01526000612d3501526000612d5e01526174416000f3fe6080604052600436106101fd5760003560e01c80638199da671161010d578063b37b7b7d116100a0578063df927bbe1161006f578063df927bbe1461077e578063e985e9c5146107bb578063f2fde38b146107f8578063f76fc35e14610821578063f9f411d81461084c57610204565b8063b37b7b7d146106c4578063b88d4fde146106ed578063c002d23d14610716578063c87b56dd1461074157610204565b806395d89b41116100dc57806395d89b41146106155780639983258d14610640578063a168d87314610670578063a22cb4651461069b57610204565b80638199da671461053f57806384b0196e1461057c5780638da5cb5b146105ad5780638f406849146105d857610204565b806343e0ac89116101905780636717e41c1161015f5780636717e41c1461044857806370a0823114610485578063711953ef146104c2578063715018a6146104eb578063803700751461050257610204565b806343e0ac8914610366578063490c68d7146103a35780635b7633d0146103e05780636352211e1461040b57610204565b8063095ea7b3116101cc578063095ea7b3146102d457806323b872dd146102fd5780633ccfd60b1461032657806342842e0e1461033d57610204565b806301ffc9a714610206578063046dc1661461024357806306fdde031461026c578063081812fc1461029757610204565b3661020457005b005b34801561021257600080fd5b5061022d60048036038101906102289190613ce4565b610889565b60405161023a9190613d2c565b60405180910390f35b34801561024f57600080fd5b5061026a60048036038101906102659190613da5565b6108ea565b005b34801561027857600080fd5b50610281610a47565b60405161028e9190613e62565b60405180910390f35b3480156102a357600080fd5b506102be60048036038101906102b99190613eba565b610ad9565b6040516102cb9190613ef6565b60405180910390f35b3480156102e057600080fd5b506102fb60048036038101906102f69190613f11565b610b1f565b005b34801561030957600080fd5b50610324600480360381019061031f9190613f51565b610c36565b005b34801561033257600080fd5b5061033b610c96565b005b34801561034957600080fd5b50610364600480360381019061035f9190613f51565b610d37565b005b34801561037257600080fd5b5061038d60048036038101906103889190613eba565b610d57565b60405161039a9190613fb3565b60405180910390f35b3480156103af57600080fd5b506103ca60048036038101906103c59190613eba565b610d7b565b6040516103d79190613fb3565b60405180910390f35b3480156103ec57600080fd5b506103f5610de0565b6040516104029190613ef6565b60405180910390f35b34801561041757600080fd5b50610432600480360381019061042d9190613eba565b610e06565b60405161043f9190613ef6565b60405180910390f35b34801561045457600080fd5b5061046f600480360381019061046a9190613eba565b610e8c565b60405161047c9190613d2c565b60405180910390f35b34801561049157600080fd5b506104ac60048036038101906104a79190613da5565b610eac565b6040516104b99190613fb3565b60405180910390f35b3480156104ce57600080fd5b506104e960048036038101906104e49190613da5565b610f63565b005b3480156104f757600080fd5b50610500610faf565b005b34801561050e57600080fd5b5061052960048036038101906105249190613da5565b610fc3565b604051610536919061408c565b60405180910390f35b34801561054b57600080fd5b5061056660048036038101906105619190613eba565b61105a565b6040516105739190613e62565b60405180910390f35b34801561058857600080fd5b5061059161120e565b6040516105a49796959493929190614102565b60405180910390f35b3480156105b957600080fd5b506105c2611310565b6040516105cf9190613ef6565b60405180910390f35b3480156105e457600080fd5b506105ff60048036038101906105fa9190613eba565b61133a565b60405161060c9190613fb3565b60405180910390f35b34801561062157600080fd5b5061062a611352565b6040516106379190613e62565b60405180910390f35b61065a600480360381019061065591906142bb565b6113e4565b6040516106679190613fb3565b60405180910390f35b34801561067c57600080fd5b506106856117bb565b6040516106929190613ef6565b60405180910390f35b3480156106a757600080fd5b506106c260048036038101906106bd919061437e565b6117e1565b005b3480156106d057600080fd5b506106eb60048036038101906106e69190614608565b6117f7565b005b3480156106f957600080fd5b50610714600480360381019061070f9190614680565b61199a565b005b34801561072257600080fd5b5061072b6119fc565b6040516107389190613fb3565b60405180910390f35b34801561074d57600080fd5b5061076860048036038101906107639190613eba565b611a08565b6040516107759190613e62565b60405180910390f35b34801561078a57600080fd5b506107a560048036038101906107a09190613eba565b611b1a565b6040516107b29190613e62565b60405180910390f35b3480156107c757600080fd5b506107e260048036038101906107dd9190614703565b611bc6565b6040516107ef9190613d2c565b60405180910390f35b34801561080457600080fd5b5061081f600480360381019061081a9190613da5565b611c5a565b005b34801561082d57600080fd5b50610836611cdd565b6040516108439190614743565b60405180910390f35b34801561085857600080fd5b50610873600480360381019061086e9190613f11565b611d01565b6040516108809190613fb3565b60405180910390f35b6000634906490660e01b7bffffffffffffffffffffffffffffffffffffffffffffffffffffffff1916827bffffffffffffffffffffffffffffffffffffffffffffffffffffffff191614806108e357506108e282611d32565b5b9050919050565b6108f2611e14565b600073ffffffffffffffffffffffffffffffffffffffff168173ffffffffffffffffffffffffffffffffffffffff1603610961576040517f08c379a0000000000000000000000000000000000000000000000000000000008152600401610958906147aa565b60405180910390fd5b6109808173ffffffffffffffffffffffffffffffffffffffff16611e92565b156109c0576040517f08c379a00000000000000000000000000000000000000000000000000000000081526004016109b79061483c565b60405180910390fd5b80601060006101000a81548173ffffffffffffffffffffffffffffffffffffffff021916908373ffffffffffffffffffffffffffffffffffffffff1602179055508073ffffffffffffffffffffffffffffffffffffffff167f67b0833b261bf8dee41032afa09cb41cf516d84e7ade2bd54dad0aa53ae956b760405160405180910390a250565b606060008054610a569061488b565b80601f0160208091040260200160405190810160405280929190818152602001828054610a829061488b565b8015610acf5780601f10610aa457610100808354040283529160200191610acf565b820191906000526020600020905b815481529060010190602001808311610ab257829003601f168201915b5050505050905090565b6000610ae482611eb5565b6004600083815260200190815260200160002060009054906101000a900473ffffffffffffffffffffffffffffffffffffffff169050919050565b6000610b2a82610e06565b90508073ffffffffffffffffffffffffffffffffffffffff168373ffffffffffffffffffffffffffffffffffffffff1603610b9a576040517f08c379a0000000000000000000000000000000000000000000000000000000008152600401610b919061492e565b60405180910390fd5b8073ffffffffffffffffffffffffffffffffffffffff16610bb9611f00565b73ffffffffffffffffffffffffffffffffffffffff161480610be85750610be781610be2611f00565b611bc6565b5b610c27576040517f08c379a0000000000000000000000000000000000000000000000000000000008152600401610c1e906149c0565b60405180910390fd5b610c318383611f08565b505050565b610c47610c41611f00565b82611fc1565b610c86576040517f08c379a0000000000000000000000000000000000000000000000000000000008152600401610c7d90614a52565b60405180910390fd5b610c91838383612056565b505050565b610c9e611e14565b600047905060008111610ce6576040517f08c379a0000000000000000000000000000000000000000000000000000000008152600401610cdd90614abe565b60405180910390fd5b610cee611310565b73ffffffffffffffffffffffffffffffffffffffff166108fc829081150290604051600060405180830381858888f19350505050158015610d33573d6000803e3d6000fd5b5050565b610d528383836040518060200160405280600081525061199a565b505050565b600c8181548110610d6757600080fd5b906000526020600020016000915090505481565b6000610d868261234f565b610dc5576040517f08c379a0000000000000000000000000000000000000000000000000000000008152600401610dbc90614b2a565b60405180910390fd5b600f6000838152602001908152602001600020549050919050565b601060009054906101000a900473ffffffffffffffffffffffffffffffffffffffff1681565b600080610e1283612390565b9050600073ffffffffffffffffffffffffffffffffffffffff168173ffffffffffffffffffffffffffffffffffffffff1603610e83576040517f08c379a0000000000000000000000000000000000000000000000000000000008152600401610e7a90614b96565b60405180910390fd5b80915050919050565b60116020528060005260406000206000915054906101000a900460ff1681565b60008073ffffffffffffffffffffffffffffffffffffffff168273ffffffffffffffffffffffffffffffffffffffff1603610f1c576040517f08c379a0000000000000000000000000000000000000000000000000000000008152600401610f1390614c28565b60405180910390fd5b600360008373ffffffffffffffffffffffffffffffffffffffff1673ffffffffffffffffffffffffffffffffffffffff168152602001908152602001600020549050919050565b610f6b611e14565b80600d60006101000a81548173ffffffffffffffffffffffffffffffffffffffff021916908373ffffffffffffffffffffffffffffffffffffffff16021790555050565b610fb7611e14565b610fc160006123cd565b565b6060600e60008373ffffffffffffffffffffffffffffffffffffffff1673ffffffffffffffffffffffffffffffffffffffff16815260200190815260200160002080548060200260200160405190810160405280929190818152602001828054801561104e57602002820191906000526020600020905b81548152602001906001019080831161103a575b50505050509050919050565b606060005b600c8054905081101561114d57600c81815481106110805761107f614c48565b5b9060005260206000200154831161114057600b81815481106110a5576110a4614c48565b5b9060005260206000200180546110ba9061488b565b80601f01602080910402602001604051908101604052809291908181526020018280546110e69061488b565b80156111335780601f1061110857610100808354040283529160200191611133565b820191906000526020600020905b81548152906001019060200180831161111657829003601f168201915b5050505050915050611209565b808060010191505061105f565b50600b6001600b805490506111629190614ca6565b8154811061117357611172614c48565b5b9060005260206000200180546111889061488b565b80601f01602080910402602001604051908101604052809291908181526020018280546111b49061488b565b80156112015780601f106111d657610100808354040283529160200191611201565b820191906000526020600020905b8154815290600101906020018083116111e457829003601f168201915b505050505090505b919050565b60006060806000806000606061124e60087f000000000000000000000000000000000000000000000000000000000000000061249390919063ffffffff16565b61128260097f000000000000000000000000000000000000000000000000000000000000000061249390919063ffffffff16565b46306000801b600067ffffffffffffffff8111156112a3576112a2614190565b5b6040519080825280602002602001820160405280156112d15781602001602082028036833780820191505090505b507f0f00000000000000000000000000000000000000000000000000000000000000959493929190965096509650965096509650965090919293949596565b6000600760009054906101000a900473ffffffffffffffffffffffffffffffffffffffff16905090565b600f6020528060005260406000206000915090505481565b6060600180546113619061488b565b80601f016020809104026020016040519081016040528092919081815260200182805461138d9061488b565b80156113da5780601f106113af576101008083540402835291602001916113da565b820191906000526020600020905b8154815290600101906020018083116113bd57829003601f168201915b5050505050905090565b600067016345785d8a00003414611430576040517f08c379a000000000000000000000000000000000000000000000000000000000815260040161142790614d4c565b60405180910390fd5b6011600085815260200190815260200160002060009054906101000a900460ff1615611491576040517f08c379a000000000000000000000000000000000000000000000000000000000815260040161148890614dde565b60405180910390fd5b824211156114d4576040517f08c379a00000000000000000000000000000000000000000000000000000000081526004016114cb90614e70565b60405180910390fd5b600073ffffffffffffffffffffffffffffffffffffffff16601060009054906101000a900473ffffffffffffffffffffffffffffffffffffffff1673ffffffffffffffffffffffffffffffffffffffff1603611565576040517f08c379a000000000000000000000000000000000000000000000000000000000815260040161155c90614f02565b60405180910390fd5b60007fdae91518613992eb9e3c834be8549c9ae0e18f5a5df012fca6a52d21037e1cce87878787306040516020016115a296959493929190614f22565b60405160208183030381529060405280519060200120905060006115c582612543565b905060006115d3828661255d565b9050601060009054906101000a900473ffffffffffffffffffffffffffffffffffffffff1673ffffffffffffffffffffffffffffffffffffffff168173ffffffffffffffffffffffffffffffffffffffff1614611665576040517f08c379a000000000000000000000000000000000000000000000000000000000815260040161165c90614ff5565b60405180910390fd5b60016011600089815260200190815260200160002060006101000a81548160ff02191690831515021790555061169b600a612584565b60006116a7600a61259a565b90506116b38a826125a8565b88600f600083815260200190815260200160002081905550600e60008b73ffffffffffffffffffffffffffffffffffffffff1673ffffffffffffffffffffffffffffffffffffffff168152602001908152602001600020819080600181540180825580915050600190039060005260206000200160009091909190915055600061173d828b6127c5565b90506117498282612906565b60006117548b61105a565b9050828c73ffffffffffffffffffffffffffffffffffffffff167fafdfb2ef08fdda205ce9e4173a5a15381d9f9187ec2122b9c46e53b253ee2e398d848e6040516117a193929190615015565b60405180910390a382965050505050505095945050505050565b600d60009054906101000a900473ffffffffffffffffffffffffffffffffffffffff1681565b6117f36117ec611f00565b83836129aa565b5050565b6117ff611e14565b8051825114611843576040517f08c379a000000000000000000000000000000000000000000000000000000000815260040161183a906150c5565b60405180910390fd5b6000825111611887576040517f08c379a000000000000000000000000000000000000000000000000000000000815260040161187e90615131565b60405180910390fd5b60005b600182516118989190614ca6565b81101561192e57816001826118ad9190615151565b815181106118be576118bd614c48565b5b60200260200101518282815181106118d9576118d8614c48565b5b602002602001015110611921576040517f08c379a0000000000000000000000000000000000000000000000000000000008152600401611918906151f7565b60405180910390fd5b808060010191505061188a565b5081600b9080519060200190611945929190613b51565b5080600c908051906020019061195c929190613baa565b507fab994c28c46c4e2d7156bc29c3ce682eb77b03728871a6e80f81b5a734558fb3828260405161198e929190615323565b60405180910390a15050565b6119ab6119a5611f00565b83611fc1565b6119ea576040517f08c379a00000000000000000000000000000000000000000000000000000000081526004016119e190614a52565b60405180910390fd5b6119f684848484612b16565b50505050565b67016345785d8a000081565b6060611a1382611eb5565b6000600660008481526020019081526020016000208054611a339061488b565b80601f0160208091040260200160405190810160405280929190818152602001828054611a5f9061488b565b8015611aac5780601f10611a8157610100808354040283529160200191611aac565b820191906000526020600020905b815481529060010190602001808311611a8f57829003601f168201915b505050505090506000611abd612b72565b90506000815103611ad2578192505050611b15565b600082511115611b07578082604051602001611aef929190615396565b60405160208183030381529060405292505050611b15565b611b1084612b89565b925050505b919050565b600b8181548110611b2a57600080fd5b906000526020600020016000915090508054611b459061488b565b80601f0160208091040260200160405190810160405280929190818152602001828054611b719061488b565b8015611bbe5780601f10611b9357610100808354040283529160200191611bbe565b820191906000526020600020905b815481529060010190602001808311611ba157829003601f168201915b505050505081565b6000600560008473ffffffffffffffffffffffffffffffffffffffff1673ffffffffffffffffffffffffffffffffffffffff16815260200190815260200160002060008373ffffffffffffffffffffffffffffffffffffffff1673ffffffffffffffffffffffffffffffffffffffff16815260200190815260200160002060009054906101000a900460ff16905092915050565b611c62611e14565b600073ffffffffffffffffffffffffffffffffffffffff168173ffffffffffffffffffffffffffffffffffffffff1603611cd1576040517f08c379a0000000000000000000000000000000000000000000000000000000008152600401611cc89061542c565b60405180910390fd5b611cda816123cd565b50565b7fdae91518613992eb9e3c834be8549c9ae0e18f5a5df012fca6a52d21037e1cce81565b600e6020528160005260406000208181548110611d1d57600080fd5b90600052602060002001600091509150505481565b60007f80ac58cd000000000000000000000000000000000000000000000000000000007bffffffffffffffffffffffffffffffffffffffffffffffffffffffff1916827bffffffffffffffffffffffffffffffffffffffffffffffffffffffff19161480611dfd57507f5b5e139f000000000000000000000000000000000000000000000000000000007bffffffffffffffffffffffffffffffffffffffffffffffffffffffff1916827bffffffffffffffffffffffffffffffffffffffffffffffffffffffff1916145b80611e0d5750611e0c82612bf1565b5b9050919050565b611e1c611f00565b73ffffffffffffffffffffffffffffffffffffffff16611e3a611310565b73ffffffffffffffffffffffffffffffffffffffff1614611e90576040517f08c379a0000000000000000000000000000000000000000000000000000000008152600401611e8790615498565b60405180910390fd5b565b6000808273ffffffffffffffffffffffffffffffffffffffff163b119050919050565b611ebe8161234f565b611efd576040517f08c379a0000000000000000000000000000000000000000000000000000000008152600401611ef490614b96565b60405180910390fd5b50565b600033905090565b816004600083815260200190815260200160002060006101000a81548173ffffffffffffffffffffffffffffffffffffffff021916908373ffffffffffffffffffffffffffffffffffffffff160217905550808273ffffffffffffffffffffffffffffffffffffffff16611f7b83610e06565b73ffffffffffffffffffffffffffffffffffffffff167f8c5be1e5ebec7d5bd14f71427d1e84f3dd0314c0f7b2291e5b200ac8c7c3b92560405160405180910390a45050565b600080611fcd83610e06565b90508073ffffffffffffffffffffffffffffffffffffffff168473ffffffffffffffffffffffffffffffffffffffff16148061200f575061200e8185611bc6565b5b8061204d57508373ffffffffffffffffffffffffffffffffffffffff1661203584610ad9565b73ffffffffffffffffffffffffffffffffffffffff16145b91505092915050565b8273ffffffffffffffffffffffffffffffffffffffff1661207682610e06565b73ffffffffffffffffffffffffffffffffffffffff16146120cc576040517f08c379a00000000000000000000000000000000000000000000000000000000081526004016120c39061552a565b60405180910390fd5b600073ffffffffffffffffffffffffffffffffffffffff168273ffffffffffffffffffffffffffffffffffffffff160361213b576040517f08c379a0000000000000000000000000000000000000000000000000000000008152600401612132906155bc565b60405180910390fd5b6121488383836001612c5b565b8273ffffffffffffffffffffffffffffffffffffffff1661216882610e06565b73ffffffffffffffffffffffffffffffffffffffff16146121be576040517f08c379a00000000000000000000000000000000000000000000000000000000081526004016121b59061552a565b60405180910390fd5b6004600082815260200190815260200160002060006101000a81549073ffffffffffffffffffffffffffffffffffffffff02191690556001600360008573ffffffffffffffffffffffffffffffffffffffff1673ffffffffffffffffffffffffffffffffffffffff168152602001908152602001600020600082825403925050819055506001600360008473ffffffffffffffffffffffffffffffffffffffff1673ffffffffffffffffffffffffffffffffffffffff16815260200190815260200160002060008282540192505081905550816002600083815260200190815260200160002060006101000a81548173ffffffffffffffffffffffffffffffffffffffff021916908373ffffffffffffffffffffffffffffffffffffffff160217905550808273ffffffffffffffffffffffffffffffffffffffff168473ffffffffffffffffffffffffffffffffffffffff167fddf252ad1be2c89b69c2b068fc378daa952ba7f163c4a11628f55a4df523b3ef60405160405180910390a461234a8383836001612c61565b505050565b60008073ffffffffffffffffffffffffffffffffffffffff1661237183612390565b73ffffffffffffffffffffffffffffffffffffffff1614159050919050565b60006002600083815260200190815260200160002060009054906101000a900473ffffffffffffffffffffffffffffffffffffffff169050919050565b6000600760009054906101000a900473ffffffffffffffffffffffffffffffffffffffff16905081600760006101000a81548173ffffffffffffffffffffffffffffffffffffffff021916908373ffffffffffffffffffffffffffffffffffffffff1602179055508173ffffffffffffffffffffffffffffffffffffffff168173ffffffffffffffffffffffffffffffffffffffff167f8be0079c531659141344cd1fd0a4f28419497f9722a3daafe3b4186f6b6457e060405160405180910390a35050565b606060ff60001b83146124b0576124a983612c67565b905061253d565b8180546124bc9061488b565b80601f01602080910402602001604051908101604052809291908181526020018280546124e89061488b565b80156125355780601f1061250a57610100808354040283529160200191612535565b820191906000526020600020905b81548152906001019060200180831161251857829003601f168201915b505050505090505b92915050565b6000612556612550612cdb565b83612d92565b9050919050565b600080600061256c8585612dd3565b9150915061257981612e24565b819250505092915050565b6001816000016000828254019250508190555050565b600081600001549050919050565b600073ffffffffffffffffffffffffffffffffffffffff168273ffffffffffffffffffffffffffffffffffffffff1603612617576040517f08c379a000000000000000000000000000000000000000000000000000000000815260040161260e90615628565b60405180910390fd5b6126208161234f565b15612660576040517f08c379a000000000000000000000000000000000000000000000000000000000815260040161265790615694565b60405180910390fd5b61266e600083836001612c5b565b6126778161234f565b156126b7576040517f08c379a00000000000000000000000000000000000000000000000000000000081526004016126ae90615694565b60405180910390fd5b6001600360008473ffffffffffffffffffffffffffffffffffffffff1673ffffffffffffffffffffffffffffffffffffffff16815260200190815260200160002060008282540192505081905550816002600083815260200190815260200160002060006101000a81548173ffffffffffffffffffffffffffffffffffffffff021916908373ffffffffffffffffffffffffffffffffffffffff160217905550808273ffffffffffffffffffffffffffffffffffffffff16600073ffffffffffffffffffffffffffffffffffffffff167fddf252ad1be2c89b69c2b068fc378daa952ba7f163c4a11628f55a4df523b3ef60405160405180910390a46127c1600083836001612c61565b5050565b606060006127d38484612f8a565b905060006127ed6103e8856127e891906156e3565b61346f565b905060006128076103e8866128029190615714565b61346f565b9050600a6103e8866128199190615714565b101561284657806040516020016128309190615791565b6040516020818303038152906040529050612880565b60646103e8866128569190615714565b101561287f578060405160200161286d91906157ff565b60405160208183030381529060405290505b5b60006128d861288e8861346f565b84846128998a61105a565b6128a28961353d565b88886128ad8e61105a565b6040516020016128c4989796959493929190615c49565b60405160208183030381529060405261353d565b9050806040516020016128eb9190615da1565b60405160208183030381529060405294505050505092915050565b61290f8261234f565b61294e576040517f08c379a000000000000000000000000000000000000000000000000000000000815260040161294590615e35565b60405180910390fd5b8060066000848152602001908152602001600020908161296e9190616001565b507ff8e1a15aba9398e019f0b49df1a4fde98ee17ae345cb5f6b5e2c27f5033e8ce78260405161299e9190613fb3565b60405180910390a15050565b8173ffffffffffffffffffffffffffffffffffffffff168373ffffffffffffffffffffffffffffffffffffffff1603612a18576040517f08c379a0000000000000000000000000000000000000000000000000000000008152600401612a0f9061611f565b60405180910390fd5b80600560008573ffffffffffffffffffffffffffffffffffffffff1673ffffffffffffffffffffffffffffffffffffffff16815260200190815260200160002060008473ffffffffffffffffffffffffffffffffffffffff1673ffffffffffffffffffffffffffffffffffffffff16815260200190815260200160002060006101000a81548160ff0219169083151502179055508173ffffffffffffffffffffffffffffffffffffffff168373ffffffffffffffffffffffffffffffffffffffff167f17307eab39ab6107e8899845ad3d59bd9653f200f220920489ca2b5937696c3183604051612b099190613d2c565b60405180910390a3505050565b612b21848484612056565b612b2d848484846136af565b612b6c576040517f08c379a0000000000000000000000000000000000000000000000000000000008152600401612b63906161b1565b60405180910390fd5b50505050565b606060405180602001604052806000815250905090565b6060612b9482611eb5565b6000612b9e612b72565b90506000815111612bbe5760405180602001604052806000815250612be9565b80612bc88461346f565b604051602001612bd9929190615396565b6040516020818303038152906040525b915050919050565b60007f01ffc9a7000000000000000000000000000000000000000000000000000000007bffffffffffffffffffffffffffffffffffffffffffffffffffffffff1916827bffffffffffffffffffffffffffffffffffffffffffffffffffffffff1916149050919050565b50505050565b50505050565b60606000612c7483613836565b90506000602067ffffffffffffffff811115612c9357612c92614190565b5b6040519080825280601f01601f191660200182016040528015612cc55781602001600182028036833780820191505090505b5090508181528360208201528092505050919050565b60007f000000000000000000000000000000000000000000000000000000000000000073ffffffffffffffffffffffffffffffffffffffff163073ffffffffffffffffffffffffffffffffffffffff16148015612d5757507f000000000000000000000000000000000000000000000000000000000000000046145b15612d84577f00000000000000000000000000000000000000000000000000000000000000009050612d8f565b612d8c613886565b90505b90565b60006040517f190100000000000000000000000000000000000000000000000000000000000081528360028201528260228201526042812091505092915050565b6000806041835103612e145760008060006020860151925060408601519150606086015160001a9050612e088782858561391c565b94509450505050612e1d565b60006002915091505b9250929050565b60006004811115612e3857612e376161d1565b5b816004811115612e4b57612e4a6161d1565b5b0315612f875760016004811115612e6557612e646161d1565b5b816004811115612e7857612e776161d1565b5b03612eb8576040517f08c379a0000000000000000000000000000000000000000000000000000000008152600401612eaf9061624c565b60405180910390fd5b60026004811115612ecc57612ecb6161d1565b5b816004811115612edf57612ede6161d1565b5b03612f1f576040517f08c379a0000000000000000000000000000000000000000000000000000000008152600401612f16906162b8565b60405180910390fd5b60036004811115612f3357612f326161d1565b5b816004811115612f4657612f456161d1565b5b03612f86576040517f08c379a0000000000000000000000000000000000000000000000000000000008152600401612f7d9061634a565b60405180910390fd5b5b50565b60608060006103e884612f9d91906156e3565b905060006103e885612faf9190615714565b905060008103612fe857612fc28261346f565b604051602001612fd291906163b6565b60405160208183030381529060405292506130a3565b600a81101561302a57612ffa8261346f565b6130038261346f565b604051602001613014929190616424565b60405160208183030381529060405292506130a2565b606481101561306c5761303c8261346f565b6130458261346f565b60405160200161305692919061649f565b60405160208183030381529060405292506130a1565b6130758261346f565b61307e8261346f565b60405160200161308f9291906164ce565b60405160208183030381529060405292505b5b5b60006130ae8661105a565b905060606040516020016130c190616549565b60405160208183030381529060405280519060200120826040516020016130e8919061655e565b6040516020818303038152906040528051906020012003613140576040518060400160405280600781526020017f234646443730300000000000000000000000000000000000000000000000000081525090506133b5565b60405160200161314f906165c1565b6040516020818303038152906040528051906020012082604051602001613176919061655e565b60405160208183030381529060405280519060200120036131ce576040518060400160405280600781526020017f234330433043300000000000000000000000000000000000000000000000000081525090506133b4565b6040516020016131dd90616622565b6040516020818303038152906040528051906020012082604051602001613204919061655e565b604051602081830303815290604052805190602001200361325c576040518060400160405280600781526020017f234344374633320000000000000000000000000000000000000000000000000081525090506133b3565b60405160200161326b90616683565b6040516020818303038152906040528051906020012082604051602001613292919061655e565b60405160208183030381529060405280519060200120036132ea576040518060400160405280600781526020017f233837434545420000000000000000000000000000000000000000000000000081525090506133b2565b6040516020016132f9906166e4565b6040516020818303038152906040528051906020012082604051602001613320919061655e565b6040516020818303038152906040528051906020012003613378576040518060400160405280600781526020017f233930454539300000000000000000000000000000000000000000000000000081525090506133b1565b6040518060400160405280600781526020017f234444413044440000000000000000000000000000000000000000000000000081525090505b5b5b5b5b60006040518060400160405280600381526020017f313430000000000000000000000000000000000000000000000000000000000081525090506001835103613431576040518060400160405280600381526020017f313430000000000000000000000000000000000000000000000000000000000081525090505b8181848861343e8d61346f565b60405160200161345295949392919061709f565b604051602081830303815290604052965050505050505092915050565b60606000600161347e846139fe565b01905060008167ffffffffffffffff81111561349d5761349c614190565b5b6040519080825280601f01601f1916602001820160405280156134cf5781602001600182028036833780820191505090505b509050600082602001820190505b600115613532578080600190039150507f3031323334353637383961626364656600000000000000000000000000000000600a86061a8153600a8581613526576135256156b4565b5b049450600085036134dd575b819350505050919050565b6060600082510361355f576040518060200160405280600081525090506136aa565b60006040518060600160405280604081526020016173cc604091399050600060036002855161358e9190615151565b61359891906156e3565b60046135a491906171f2565b67ffffffffffffffff8111156135bd576135bc614190565b5b6040519080825280601f01601f1916602001820160405280156135ef5781602001600182028036833780820191505090505b50905060018201602082018586518701602081018051600082525b82841015613665576003840193508351603f8160121c168701518653600186019550603f81600c1c168701518653600186019550603f8160061c168701518653600186019550603f811687015186536001860195505061360a565b80825260038a51066001811461368257600281146136955761369d565b603d6001870353603d600287035361369d565b603d60018703535b5050505050505080925050505b919050565b60006136d08473ffffffffffffffffffffffffffffffffffffffff16611e92565b15613829578373ffffffffffffffffffffffffffffffffffffffff1663150b7a026136f9611f00565b8786866040518563ffffffff1660e01b815260040161371b9493929190617289565b6020604051808303816000875af192505050801561375757506040513d601f19601f8201168201806040525081019061375491906172ea565b60015b6137d9573d8060008114613787576040519150601f19603f3d011682016040523d82523d6000602084013e61378c565b606091505b5060008151036137d1576040517f08c379a00000000000000000000000000000000000000000000000000000000081526004016137c8906161b1565b60405180910390fd5b805181602001fd5b63150b7a0260e01b7bffffffffffffffffffffffffffffffffffffffffffffffffffffffff1916817bffffffffffffffffffffffffffffffffffffffffffffffffffffffff19161491505061382e565b600190505b949350505050565b60008060ff8360001c169050601f81111561387d576040517fb3512b0c00000000000000000000000000000000000000000000000000000000815260040160405180910390fd5b80915050919050565b60007f8b73c3c69bb8fe3d512ecc4cf759cc79239f7b179b0ffacaa9a75d522b39400f7f00000000000000000000000000000000000000000000000000000000000000007f00000000000000000000000000000000000000000000000000000000000000004630604051602001613901959493929190617317565b60405160208183030381529060405280519060200120905090565b6000807f7fffffffffffffffffffffffffffffff5d576e7357a4501ddfe92f46681b20a08360001c11156139575760006003915091506139f5565b60006001878787876040516000815260200160405260405161397c9493929190617386565b6020604051602081039080840390855afa15801561399e573d6000803e3d6000fd5b505050602060405103519050600073ffffffffffffffffffffffffffffffffffffffff168173ffffffffffffffffffffffffffffffffffffffff16036139ec576000600192509250506139f5565b80600092509250505b94509492505050565b600080600090507a184f03e93ff9f4daa797ed6e38ed64bf6a1f0100000000000000008310613a5c577a184f03e93ff9f4daa797ed6e38ed64bf6a1f0100000000000000008381613a5257613a516156b4565b5b0492506040810190505b6d04ee2d6d415b85acef81000000008310613a99576d04ee2d6d415b85acef81000000008381613a8f57613a8e6156b4565b5b0492506020810190505b662386f26fc100008310613ac857662386f26fc100008381613abe57613abd6156b4565b5b0492506010810190505b6305f5e1008310613af1576305f5e1008381613ae757613ae66156b4565b5b0492506008810190505b6127108310613b16576127108381613b0c57613b0b6156b4565b5b0492506004810190505b60648310613b395760648381613b2f57613b2e6156b4565b5b0492506002810190505b600a8310613b48576001810190505b80915050919050565b828054828255906000526020600020908101928215613b99579160200282015b82811115613b98578251829081613b889190616001565b5091602001919060010190613b71565b5b509050613ba69190613bf7565b5090565b828054828255906000526020600020908101928215613be6579160200282015b82811115613be5578251825591602001919060010190613bca565b5b509050613bf39190613c1b565b5090565b5b80821115613c175760008181613c0e9190613c38565b50600101613bf8565b5090565b5b80821115613c34576000816000905550600101613c1c565b5090565b508054613c449061488b565b6000825580601f10613c565750613c75565b601f016020900490600052602060002090810190613c749190613c1b565b5b50565b6000604051905090565b600080fd5b600080fd5b60007fffffffff0000000000000000000000000000000000000000000000000000000082169050919050565b613cc181613c8c565b8114613ccc57600080fd5b50565b600081359050613cde81613cb8565b92915050565b600060208284031215613cfa57613cf9613c82565b5b6000613d0884828501613ccf565b91505092915050565b60008115159050919050565b613d2681613d11565b82525050565b6000602082019050613d416000830184613d1d565b92915050565b600073ffffffffffffffffffffffffffffffffffffffff82169050919050565b6000613d7282613d47565b9050919050565b613d8281613d67565b8114613d8d57600080fd5b50565b600081359050613d9f81613d79565b92915050565b600060208284031215613dbb57613dba613c82565b5b6000613dc984828501613d90565b91505092915050565b600081519050919050565b600082825260208201905092915050565b60005b83811015613e0c578082015181840152602081019050613df1565b60008484015250505050565b6000601f19601f8301169050919050565b6000613e3482613dd2565b613e3e8185613ddd565b9350613e4e818560208601613dee565b613e5781613e18565b840191505092915050565b60006020820190508181036000830152613e7c8184613e29565b905092915050565b6000819050919050565b613e9781613e84565b8114613ea257600080fd5b50565b600081359050613eb481613e8e565b92915050565b600060208284031215613ed057613ecf613c82565b5b6000613ede84828501613ea5565b91505092915050565b613ef081613d67565b82525050565b6000602082019050613f0b6000830184613ee7565b92915050565b60008060408385031215613f2857613f27613c82565b5b6000613f3685828601613d90565b9250506020613f4785828601613ea5565b9150509250929050565b600080600060608486031215613f6a57613f69613c82565b5b6000613f7886828701613d90565b9350506020613f8986828701613d90565b9250506040613f9a86828701613ea5565b9150509250925092565b613fad81613e84565b82525050565b6000602082019050613fc86000830184613fa4565b92915050565b600081519050919050565b600082825260208201905092915050565b6000819050602082019050919050565b61400381613e84565b82525050565b60006140158383613ffa565b60208301905092915050565b6000602082019050919050565b600061403982613fce565b6140438185613fd9565b935061404e83613fea565b8060005b8381101561407f5781516140668882614009565b975061407183614021565b925050600181019050614052565b5085935050505092915050565b600060208201905081810360008301526140a6818461402e565b905092915050565b60007fff0000000000000000000000000000000000000000000000000000000000000082169050919050565b6140e3816140ae565b82525050565b6000819050919050565b6140fc816140e9565b82525050565b600060e082019050614117600083018a6140da565b81810360208301526141298189613e29565b9050818103604083015261413d8188613e29565b905061414c6060830187613fa4565b6141596080830186613ee7565b61416660a08301856140f3565b81810360c0830152614178818461402e565b905098975050505050505050565b600080fd5b600080fd5b7f4e487b7100000000000000000000000000000000000000000000000000000000600052604160045260246000fd5b6141c882613e18565b810181811067ffffffffffffffff821117156141e7576141e6614190565b5b80604052505050565b60006141fa613c78565b905061420682826141bf565b919050565b600067ffffffffffffffff82111561422657614225614190565b5b61422f82613e18565b9050602081019050919050565b82818337600083830152505050565b600061425e6142598461420b565b6141f0565b90508281526020810184848401111561427a5761427961418b565b5b61428584828561423c565b509392505050565b600082601f8301126142a2576142a1614186565b5b81356142b284826020860161424b565b91505092915050565b600080600080600060a086880312156142d7576142d6613c82565b5b60006142e588828901613d90565b95505060206142f688828901613ea5565b945050604061430788828901613ea5565b935050606061431888828901613ea5565b925050608086013567ffffffffffffffff81111561433957614338613c87565b5b6143458882890161428d565b9150509295509295909350565b61435b81613d11565b811461436657600080fd5b50565b60008135905061437881614352565b92915050565b6000806040838503121561439557614394613c82565b5b60006143a385828601613d90565b92505060206143b485828601614369565b9150509250929050565b600067ffffffffffffffff8211156143d9576143d8614190565b5b602082029050602081019050919050565b600080fd5b600067ffffffffffffffff82111561440a57614409614190565b5b61441382613e18565b9050602081019050919050565b600061443361442e846143ef565b6141f0565b90508281526020810184848401111561444f5761444e61418b565b5b61445a84828561423c565b509392505050565b600082601f83011261447757614476614186565b5b8135614487848260208601614420565b91505092915050565b60006144a361449e846143be565b6141f0565b905080838252602082019050602084028301858111156144c6576144c56143ea565b5b835b8181101561450d57803567ffffffffffffffff8111156144eb576144ea614186565b5b8086016144f88982614462565b855260208501945050506020810190506144c8565b5050509392505050565b600082601f83011261452c5761452b614186565b5b813561453c848260208601614490565b91505092915050565b600067ffffffffffffffff8211156145605761455f614190565b5b602082029050602081019050919050565b600061458461457f84614545565b6141f0565b905080838252602082019050602084028301858111156145a7576145a66143ea565b5b835b818110156145d057806145bc8882613ea5565b8452602084019350506020810190506145a9565b5050509392505050565b600082601f8301126145ef576145ee614186565b5b81356145ff848260208601614571565b91505092915050565b6000806040838503121561461f5761461e613c82565b5b600083013567ffffffffffffffff81111561463d5761463c613c87565b5b61464985828601614517565b925050602083013567ffffffffffffffff81111561466a57614669613c87565b5b614676858286016145da565b9150509250929050565b6000806000806080858703121561469a57614699613c82565b5b60006146a887828801613d90565b94505060206146b987828801613d90565b93505060406146ca87828801613ea5565b925050606085013567ffffffffffffffff8111156146eb576146ea613c87565b5b6146f78782880161428d565b91505092959194509250565b6000806040838503121561471a57614719613c82565b5b600061472885828601613d90565b925050602061473985828601613d90565b9150509250929050565b600060208201905061475860008301846140f3565b92915050565b7f5369676e657220616464726573732063616e6e6f74206265207a65726f000000600082015250565b6000614794601d83613ddd565b915061479f8261475e565b602082019050919050565b600060208201905081810360008301526147c381614787565b9050919050565b7f5369676e657220616464726573732063616e6e6f74206265206120636f6e747260008201527f6163740000000000000000000000000000000000000000000000000000000000602082015250565b6000614826602383613ddd565b9150614831826147ca565b604082019050919050565b6000602082019050818103600083015261485581614819565b9050919050565b7f4e487b7100000000000000000000000000000000000000000000000000000000600052602260045260246000fd5b600060028204905060018216806148a357607f821691505b6020821081036148b6576148b561485c565b5b50919050565b7f4552433732313a20617070726f76616c20746f2063757272656e74206f776e6560008201527f7200000000000000000000000000000000000000000000000000000000000000602082015250565b6000614918602183613ddd565b9150614923826148bc565b604082019050919050565b600060208201905081810360008301526149478161490b565b9050919050565b7f4552433732313a20617070726f76652063616c6c6572206973206e6f7420746f60008201527f6b656e206f776e6572206f7220617070726f76656420666f7220616c6c000000602082015250565b60006149aa603d83613ddd565b91506149b58261494e565b604082019050919050565b600060208201905081810360008301526149d98161499d565b9050919050565b7f4552433732313a2063616c6c6572206973206e6f7420746f6b656e206f776e6560008201527f72206f7220617070726f76656400000000000000000000000000000000000000602082015250565b6000614a3c602d83613ddd565b9150614a47826149e0565b604082019050919050565b60006020820190508181036000830152614a6b81614a2f565b9050919050565b7f4e6f2062616c616e636520746f20776974686472617700000000000000000000600082015250565b6000614aa8601683613ddd565b9150614ab382614a72565b602082019050919050565b60006020820190508181036000830152614ad781614a9b565b9050919050565b7f546f6b656e20646f6573206e6f74206578697374000000000000000000000000600082015250565b6000614b14601483613ddd565b9150614b1f82614ade565b602082019050919050565b60006020820190508181036000830152614b4381614b07565b9050919050565b7f4552433732313a20696e76616c696420746f6b656e2049440000000000000000600082015250565b6000614b80601883613ddd565b9150614b8b82614b4a565b602082019050919050565b60006020820190508181036000830152614baf81614b73565b9050919050565b7f4552433732313a2061646472657373207a65726f206973206e6f74206120766160008201527f6c6964206f776e65720000000000000000000000000000000000000000000000602082015250565b6000614c12602983613ddd565b9150614c1d82614bb6565b604082019050919050565b60006020820190508181036000830152614c4181614c05565b9050919050565b7f4e487b7100000000000000000000000000000000000000000000000000000000600052603260045260246000fd5b7f4e487b7100000000000000000000000000000000000000000000000000000000600052601160045260246000fd5b6000614cb182613e84565b9150614cbc83613e84565b9250828203905081811115614cd457614cd3614c77565b5b92915050565b7f5265666c6578426c69747a4e46543a20496e636f7272656374206d696e74207060008201527f7269636500000000000000000000000000000000000000000000000000000000602082015250565b6000614d36602483613ddd565b9150614d4182614cda565b604082019050919050565b60006020820190508181036000830152614d6581614d29565b9050919050565b7f5265666c6578426c69747a4e46543a204e6f6e636520616c726561647920757360008201527f6564000000000000000000000000000000000000000000000000000000000000602082015250565b6000614dc8602283613ddd565b9150614dd382614d6c565b604082019050919050565b60006020820190508181036000830152614df781614dbb565b9050919050565b7f5265666c6578426c69747a4e46543a205369676e61747572652065787069726560008201527f6400000000000000000000000000000000000000000000000000000000000000602082015250565b6000614e5a602183613ddd565b9150614e6582614dfe565b604082019050919050565b60006020820190508181036000830152614e8981614e4d565b9050919050565b7f5265666c6578426c69747a4e46543a205369676e65722061646472657373206e60008201527f6f7420736574206279206f776e65720000000000000000000000000000000000602082015250565b6000614eec602f83613ddd565b9150614ef782614e90565b604082019050919050565b60006020820190508181036000830152614f1b81614edf565b9050919050565b600060c082019050614f3760008301896140f3565b614f446020830188613ee7565b614f516040830187613fa4565b614f5e6060830186613fa4565b614f6b6080830185613fa4565b614f7860a0830184613ee7565b979650505050505050565b7f5265666c6578426c69747a4e46543a20496e76616c6964207369676e6174757260008201527f6500000000000000000000000000000000000000000000000000000000000000602082015250565b6000614fdf602183613ddd565b9150614fea82614f83565b604082019050919050565b6000602082019050818103600083015261500e81614fd2565b9050919050565b600060608201905061502a6000830186613fa4565b818103602083015261503c8185613e29565b905061504b6040830184613fa4565b949350505050565b7f52616e6b7320616e64207468726573686f6c6473206c656e677468206d69736d60008201527f6174636800000000000000000000000000000000000000000000000000000000602082015250565b60006150af602483613ddd565b91506150ba82615053565b604082019050919050565b600060208201905081810360008301526150de816150a2565b9050919050565b7f43616e6e6f742073657420656d7074792072616e6b7300000000000000000000600082015250565b600061511b601683613ddd565b9150615126826150e5565b602082019050919050565b6000602082019050818103600083015261514a8161510e565b9050919050565b600061515c82613e84565b915061516783613e84565b925082820190508082111561517f5761517e614c77565b5b92915050565b7f5468726573686f6c6473206d75737420626520696e20617363656e64696e672060008201527f6f72646572000000000000000000000000000000000000000000000000000000602082015250565b60006151e1602583613ddd565b91506151ec82615185565b604082019050919050565b60006020820190508181036000830152615210816151d4565b9050919050565b600081519050919050565b600082825260208201905092915050565b6000819050602082019050919050565b600082825260208201905092915050565b600061525f82613dd2565b6152698185615243565b9350615279818560208601613dee565b61528281613e18565b840191505092915050565b60006152998383615254565b905092915050565b6000602082019050919050565b60006152b982615217565b6152c38185615222565b9350836020820285016152d585615233565b8060005b8581101561531157848403895281516152f2858261528d565b94506152fd836152a1565b925060208a019950506001810190506152d9565b50829750879550505050505092915050565b6000604082019050818103600083015261533d81856152ae565b90508181036020830152615351818461402e565b90509392505050565b600081905092915050565b600061537082613dd2565b61537a818561535a565b935061538a818560208601613dee565b80840191505092915050565b60006153a28285615365565b91506153ae8284615365565b91508190509392505050565b7f4f776e61626c653a206e6577206f776e657220697320746865207a65726f206160008201527f6464726573730000000000000000000000000000000000000000000000000000602082015250565b6000615416602683613ddd565b9150615421826153ba565b604082019050919050565b6000602082019050818103600083015261544581615409565b9050919050565b7f4f776e61626c653a2063616c6c6572206973206e6f7420746865206f776e6572600082015250565b6000615482602083613ddd565b915061548d8261544c565b602082019050919050565b600060208201905081810360008301526154b181615475565b9050919050565b7f4552433732313a207472616e736665722066726f6d20696e636f72726563742060008201527f6f776e6572000000000000000000000000000000000000000000000000000000602082015250565b6000615514602583613ddd565b915061551f826154b8565b604082019050919050565b6000602082019050818103600083015261554381615507565b9050919050565b7f4552433732313a207472616e7366657220746f20746865207a65726f2061646460008201527f7265737300000000000000000000000000000000000000000000000000000000602082015250565b60006155a6602483613ddd565b91506155b18261554a565b604082019050919050565b600060208201905081810360008301526155d581615599565b9050919050565b7f4552433732313a206d696e7420746f20746865207a65726f2061646472657373600082015250565b6000615612602083613ddd565b915061561d826155dc565b602082019050919050565b6000602082019050818103600083015261564181615605565b9050919050565b7f4552433732313a20746f6b656e20616c7265616479206d696e74656400000000600082015250565b600061567e601c83613ddd565b915061568982615648565b602082019050919050565b600060208201905081810360008301526156ad81615671565b9050919050565b7f4e487b7100000000000000000000000000000000000000000000000000000000600052601260045260246000fd5b60006156ee82613e84565b91506156f983613e84565b925082615709576157086156b4565b5b828204905092915050565b600061571f82613e84565b915061572a83613e84565b92508261573a576157396156b4565b5b828206905092915050565b7f3030000000000000000000000000000000000000000000000000000000000000600082015250565b600061577b60028361535a565b915061578682615745565b600282019050919050565b600061579c8261576e565b91506157a88284615365565b915081905092915050565b7f3000000000000000000000000000000000000000000000000000000000000000600082015250565b60006157e960018361535a565b91506157f4826157b3565b600182019050919050565b600061580a826157dc565b91506158168284615365565b915081905092915050565b7f7b226e616d65223a20225265666c6578426c69747a2052424120230000000000600082015250565b6000615857601b8361535a565b915061586282615821565b601b82019050919050565b7f222c200000000000000000000000000000000000000000000000000000000000600082015250565b60006158a360038361535a565b91506158ae8261586d565b600382019050919050565b7f226465736372697074696f6e223a20225265666c6578426c69747a206163686960008201527f6576656d656e74204e46542e205265616374696f6e2054696d653a2000000000602082015250565b6000615915603c8361535a565b9150615920826158b9565b603c82019050919050565b7f2e00000000000000000000000000000000000000000000000000000000000000600082015250565b600061596160018361535a565b915061596c8261592b565b600182019050919050565b7f206d732e2052616e6b3a20000000000000000000000000000000000000000000600082015250565b60006159ad600b8361535a565b91506159b882615977565b600b82019050919050565b7f2e222c2000000000000000000000000000000000000000000000000000000000600082015250565b60006159f960048361535a565b9150615a04826159c3565b600482019050919050565b7f22696d616765223a2022646174613a696d6167652f7376672b786d6c3b62617360008201527f6536342c00000000000000000000000000000000000000000000000000000000602082015250565b6000615a6b60248361535a565b9150615a7682615a0f565b602482019050919050565b7f2261747472696275746573223a205b0000000000000000000000000000000000600082015250565b6000615ab7600f8361535a565b9150615ac282615a81565b600f82019050919050565b7f7b2274726169745f74797065223a20225265616374696f6e2054696d6520286d60008201527f7329222c202276616c7565223a20220000000000000000000000000000000000602082015250565b6000615b29602f8361535a565b9150615b3482615acd565b602f82019050919050565b7f227d2c2000000000000000000000000000000000000000000000000000000000600082015250565b6000615b7560048361535a565b9150615b8082615b3f565b600482019050919050565b7f7b2274726169745f74797065223a202252616e6b222c202276616c7565223a2060008201527f2200000000000000000000000000000000000000000000000000000000000000602082015250565b6000615be760218361535a565b9150615bf282615b8b565b602182019050919050565b7f227d5d7d00000000000000000000000000000000000000000000000000000000600082015250565b6000615c3360048361535a565b9150615c3e82615bfd565b600482019050919050565b6000615c548261584a565b9150615c60828b615365565b9150615c6b82615896565b9150615c7682615908565b9150615c82828a615365565b9150615c8d82615954565b9150615c998289615365565b9150615ca4826159a0565b9150615cb08288615365565b9150615cbb826159ec565b9150615cc682615a5e565b9150615cd28287615365565b9150615cdd82615896565b9150615ce882615aaa565b9150615cf382615b1c565b9150615cff8286615365565b9150615d0a82615954565b9150615d168285615365565b9150615d2182615b68565b9150615d2c82615bda565b9150615d388284615365565b9150615d4382615c26565b91508190509998505050505050505050565b7f646174613a6170706c69636174696f6e2f6a736f6e3b6261736536342c000000600082015250565b6000615d8b601d8361535a565b9150615d9682615d55565b601d82019050919050565b6000615dac82615d7e565b9150615db88284615365565b915081905092915050565b7f45524337323155524953746f726167653a2055524920736574206f66206e6f6e60008201527f6578697374656e7420746f6b656e000000000000000000000000000000000000602082015250565b6000615e1f602e83613ddd565b9150615e2a82615dc3565b604082019050919050565b60006020820190508181036000830152615e4e81615e12565b9050919050565b60008190508160005260206000209050919050565b60006020601f8301049050919050565b600082821b905092915050565b600060088302615eb77fffffffffffffffffffffffffffffffffffffffffffffffffffffffffffffffff82615e7a565b615ec18683615e7a565b95508019841693508086168417925050509392505050565b6000819050919050565b6000615efe615ef9615ef484613e84565b615ed9565b613e84565b9050919050565b6000819050919050565b615f1883615ee3565b615f2c615f2482615f05565b848454615e87565b825550505050565b600090565b615f41615f34565b615f4c818484615f0f565b505050565b5b81811015615f7057615f65600082615f39565b600181019050615f52565b5050565b601f821115615fb557615f8681615e55565b615f8f84615e6a565b81016020851015615f9e578190505b615fb2615faa85615e6a565b830182615f51565b50505b505050565b600082821c905092915050565b6000615fd860001984600802615fba565b1980831691505092915050565b6000615ff18383615fc7565b9150826002028217905092915050565b61600a82613dd2565b67ffffffffffffffff81111561602357616022614190565b5b61602d825461488b565b616038828285615f74565b600060209050601f83116001811461606b5760008415616059578287015190505b6160638582615fe5565b8655506160cb565b601f19841661607986615e55565b60005b828110156160a15784890151825560018201915060208501945060208101905061607c565b868310156160be57848901516160ba601f891682615fc7565b8355505b6001600288020188555050505b505050505050565b7f4552433732313a20617070726f766520746f2063616c6c657200000000000000600082015250565b6000616109601983613ddd565b9150616114826160d3565b602082019050919050565b60006020820190508181036000830152616138816160fc565b9050919050565b7f4552433732313a207472616e7366657220746f206e6f6e20455243373231526560008201527f63656976657220696d706c656d656e7465720000000000000000000000000000602082015250565b600061619b603283613ddd565b91506161a68261613f565b604082019050919050565b600060208201905081810360008301526161ca8161618e565b9050919050565b7f4e487b7100000000000000000000000000000000000000000000000000000000600052602160045260246000fd5b7f45434453413a20696e76616c6964207369676e61747572650000000000000000600082015250565b6000616236601883613ddd565b915061624182616200565b602082019050919050565b6000602082019050818103600083015261626581616229565b9050919050565b7f45434453413a20696e76616c6964207369676e6174757265206c656e67746800600082015250565b60006162a2601f83613ddd565b91506162ad8261626c565b602082019050919050565b600060208201905081810360008301526162d181616295565b9050919050565b7f45434453413a20696e76616c6964207369676e6174757265202773272076616c60008201527f7565000000000000000000000000000000000000000000000000000000000000602082015250565b6000616334602283613ddd565b915061633f826162d8565b604082019050919050565b6000602082019050818103600083015261636381616327565b9050919050565b7f2e30303000000000000000000000000000000000000000000000000000000000600082015250565b60006163a060048361535a565b91506163ab8261636a565b600482019050919050565b60006163c28284615365565b91506163cd82616393565b915081905092915050565b7f2e30300000000000000000000000000000000000000000000000000000000000600082015250565b600061640e60038361535a565b9150616419826163d8565b600382019050919050565b60006164308285615365565b915061643b82616401565b91506164478284615365565b91508190509392505050565b7f2e30000000000000000000000000000000000000000000000000000000000000600082015250565b600061648960028361535a565b915061649482616453565b600282019050919050565b60006164ab8285615365565b91506164b68261647c565b91506164c28284615365565b91508190509392505050565b60006164da8285615365565b91506164e582615954565b91506164f18284615365565b91508190509392505050565b7f532b000000000000000000000000000000000000000000000000000000000000600082015250565b600061653360028361535a565b915061653e826164fd565b600282019050919050565b600061655482616526565b9150819050919050565b600061656a8284615365565b915081905092915050565b7f5300000000000000000000000000000000000000000000000000000000000000600082015250565b60006165ab60018361535a565b91506165b682616575565b600182019050919050565b60006165cc8261659e565b9150819050919050565b7f4100000000000000000000000000000000000000000000000000000000000000600082015250565b600061660c60018361535a565b9150616617826165d6565b600182019050919050565b600061662d826165ff565b9150819050919050565b7f4200000000000000000000000000000000000000000000000000000000000000600082015250565b600061666d60018361535a565b915061667882616637565b600182019050919050565b600061668e82616660565b9150819050919050565b7f4300000000000000000000000000000000000000000000000000000000000000600082015250565b60006166ce60018361535a565b91506166d982616698565b600182019050919050565b60006166ef826166c1565b9150819050919050565b7f3c73766720786d6c6e733d22687474703a2f2f7777772e77332e6f72672f323060008201527f30302f737667222077696474683d2233353022206865696768743d223335302260208201527f2076696577426f783d223020302033353020333530223e000000000000000000604082015250565b600061677b60578361535a565b9150616786826166f9565b605782019050919050565b7f3c7374796c653e00000000000000000000000000000000000000000000000000600082015250565b60006167c760078361535a565b91506167d282616791565b600782019050919050565b7f2e626173652d74657874207b20666f6e742d66616d696c793a20417269616c2c60008201527f2073616e732d73657269663b20746578742d616e63686f723a206d6964646c6560208201527f3b2066696c6c3a2077686974653b207d00000000000000000000000000000000604082015250565b600061685f60508361535a565b915061686a826167dd565b605082019050919050565b7f2e7469746c652d74657874207b20666f6e742d73697a653a20323070783b207d600082015250565b60006168ab60208361535a565b91506168b682616875565b602082019050919050565b7f2e72616e6b2d74657874207b20666f6e742d73697a653a20343070783b20666f60008201527f6e742d7765696768743a20626f6c643b20646f6d696e616e742d626173656c6960208201527f6e653a2063656e7472616c3b207d000000000000000000000000000000000000604082015250565b6000616943604e8361535a565b915061694e826168c1565b604e82019050919050565b7f2e6c6162656c2d74657874207b20666f6e742d73697a653a20313670783b207d600082015250565b600061698f60208361535a565b915061699a82616959565b602082019050919050565b7f2e76616c75652d74657874207b20666f6e742d73697a653a20333070783b206660008201527f6f6e742d7765696768743a20626f6c643b207d00000000000000000000000000602082015250565b6000616a0160338361535a565b9150616a0c826169a5565b603382019050919050565b7f2e746f6b656e69642d74657874207b20666f6e742d73697a653a20313470783b60008201527f207d000000000000000000000000000000000000000000000000000000000000602082015250565b6000616a7360228361535a565b9150616a7e82616a17565b602282019050919050565b7f2e666f6f7465722d74657874207b20666f6e742d73697a653a20313270783b2060008201527f66696c6c3a20236130616563303b207d00000000000000000000000000000000602082015250565b6000616ae560308361535a565b9150616af082616a89565b603082019050919050565b7f3c2f7374796c653e000000000000000000000000000000000000000000000000600082015250565b6000616b3160088361535a565b9150616b3c82616afb565b600882019050919050565b7f3c726563742077696474683d223130302522206865696768743d22313030252260008201527f2066696c6c3d222331663239333722202f3e0000000000000000000000000000602082015250565b6000616ba360328361535a565b9150616bae82616b47565b603282019050919050565b7f3c7465787420783d223137352220793d2235302220636c6173733d226261736560008201527f2d74657874207469746c652d74657874223e5265666c657820426c69747a204160208201527f6368696576656d656e743c2f746578743e000000000000000000000000000000604082015250565b6000616c3b60518361535a565b9150616c4682616bb9565b605182019050919050565b7f3c636972636c652063783d22313735222063793d223134302220723d2235302260008201527f2066696c6c3d2200000000000000000000000000000000000000000000000000602082015250565b6000616cad60278361535a565b9150616cb882616c51565b602782019050919050565b7f22202f3e00000000000000000000000000000000000000000000000000000000600082015250565b6000616cf960048361535a565b9150616d0482616cc3565b600482019050919050565b7f3c7465787420783d223137352220793d22000000000000000000000000000000600082015250565b6000616d4560118361535a565b9150616d5082616d0f565b601182019050919050565b7f2220636c6173733d22626173652d746578742072616e6b2d74657874223e0000600082015250565b6000616d91601e8361535a565b9150616d9c82616d5b565b601e82019050919050565b7f3c2f746578743e00000000000000000000000000000000000000000000000000600082015250565b6000616ddd60078361535a565b9150616de882616da7565b600782019050919050565b7f3c7465787420783d223137352220793d223231352220636c6173733d2262617360008201527f652d74657874206c6162656c2d74657874223e5265616374696f6e2054696d6560208201527f3c2f746578743e00000000000000000000000000000000000000000000000000604082015250565b6000616e7560478361535a565b9150616e8082616df3565b604782019050919050565b7f3c7465787420783d223137352220793d223234352220636c6173733d2262617360008201527f652d746578742076616c75652d74657874223e00000000000000000000000000602082015250565b6000616ee760338361535a565b9150616ef282616e8b565b603382019050919050565b7f206d733c2f746578743e00000000000000000000000000000000000000000000600082015250565b6000616f33600a8361535a565b9150616f3e82616efd565b600a82019050919050565b7f3c7465787420783d223137352220793d223238352220636c6173733d2262617360008201527f652d7465787420746f6b656e69642d74657874223e546f6b656e202300000000602082015250565b6000616fa5603c8361535a565b9150616fb082616f49565b603c82019050919050565b7f3c7465787420783d223137352220793d223332302220636c6173733d2262617360008201527f652d7465787420666f6f7465722d74657874223e4d696e746564206f6e204d6f60208201527f6e616420546573746e65743c2f746578743e0000000000000000000000000000604082015250565b600061703d60528361535a565b915061704882616fbb565b605282019050919050565b7f3c2f7376673e0000000000000000000000000000000000000000000000000000600082015250565b600061708960068361535a565b915061709482617053565b600682019050919050565b60006170aa8261676e565b91506170b5826167ba565b91506170c082616852565b91506170cb8261689e565b91506170d682616936565b91506170e182616982565b91506170ec826169f4565b91506170f782616a66565b915061710282616ad8565b915061710d82616b24565b915061711882616b96565b915061712382616c2e565b915061712e82616ca0565b915061713a8288615365565b915061714582616cec565b915061715082616d38565b915061715c8287615365565b915061716782616d84565b91506171738286615365565b915061717e82616dd0565b915061718982616e68565b915061719482616eda565b91506171a08285615365565b91506171ab82616f26565b91506171b682616f98565b91506171c28284615365565b91506171cd82616dd0565b91506171d882617030565b91506171e38261707c565b91508190509695505050505050565b60006171fd82613e84565b915061720883613e84565b925082820261721681613e84565b9150828204841483151761722d5761722c614c77565b5b5092915050565b600081519050919050565b600082825260208201905092915050565b600061725b82617234565b617265818561723f565b9350617275818560208601613dee565b61727e81613e18565b840191505092915050565b600060808201905061729e6000830187613ee7565b6172ab6020830186613ee7565b6172b86040830185613fa4565b81810360608301526172ca8184617250565b905095945050505050565b6000815190506172e481613cb8565b92915050565b600060208284031215617300576172ff613c82565b5b600061730e848285016172d5565b91505092915050565b600060a08201905061732c60008301886140f3565b61733960208301876140f3565b61734660408301866140f3565b6173536060830185613fa4565b6173606080830184613ee7565b9695505050505050565b600060ff82169050919050565b6173808161736a565b82525050565b600060808201905061739b60008301876140f3565b6173a86020830186617377565b6173b560408301856140f3565b6173c260608301846140f3565b9594505050505056fe4142434445464748494a4b4c4d4e4f505152535455565758595a6162636465666768696a6b6c6d6e6f707172737475767778797a303132333435363738392b2fa2646970667358221220d19fc768b3a21864a426ffdaa6adb639270066149fcfc10673af8f61896627fd64736f6c63430008180033",
  "linkReferences": {},
  "deployedLinkReferences": {}
}