{
  "_format": "hh-sol-artifact-1",
  "contractName": "VRFReflexBlitz",
  "sourceName": "contracts/VRFReflexBlitz.sol",
  "abi": [
    {
      "inputs": [
        {
          "internalType": "uint256",
          "name": "_initialPlayPrice",
          "type": "uint256"
        },
        {
          "internalType": "uint256",
          "name": "_initialFreePlayInterval",
          "type": "uint256"
        },
        {
          "internalType": "uint256",
          "name": "_initialPlaysPerSession",
          "type": "uint256"
        }
      ],
      "stateMutability": "nonpayable",
      "type": "constructor"
    },
    {
      "anonymous": false,
      "inputs": [
        {
          "indexed": true,
          "internalType": "address",
          "name": "player",
          "type": "address"
        },
        {
          "indexed": false,
          "internalType": "uint256",
          "name": "requestTimestamp",
          "type": "uint256"
        },
        {
          "indexed": false,
          "internalType": "bool",
          "name": "newSessionStartedAsFree",
          "type": "bool"
        },
        {
          "indexed": false,
          "internalType": "uint256",
          "name": "playsLeftInSession",
          "type": "uint256"
        }
      ],
      "name": "FlashRequested",
      "type": "event"
    },
    {
      "anonymous": false,
      "inputs": [
        {
          "indexed": false,
          "internalType": "uint256",
          "name": "oldInterval",
          "type": "uint256"
        },
        {
          "indexed": false,
          "internalType": "uint256",
          "name": "newInterval",
          "type": "uint256"
        }
      ],
      "name": "FreePlayIntervalUpdated",
      "type": "event"
    },
    {
      "anonymous": false,
      "inputs": [
        {
          "indexed": true,
          "internalType": "address",
          "name": "owner",
          "type": "address"
        },
        {
          "indexed": false,
          "internalType": "uint256",
          "name": "amount",
          "type": "uint256"
        }
      ],
      "name": "FundsWithdrawn",
      "type": "event"
    },
    {
      "anonymous": false,
      "inputs": [
        {
          "indexed": true,
          "internalType": "address",
          "name": "previousOwner",
          "type": "address"
        },
        {
          "indexed": true,
          "internalType": "address",
          "name": "newOwner",
          "type": "address"
        }
      ],
      "name": "OwnershipTransferred",
      "type": "event"
    },
    {
      "anonymous": false,
      "inputs": [
        {
          "indexed": false,
          "internalType": "uint256",
          "name": "oldPrice",
          "type": "uint256"
        },
        {
          "indexed": false,
          "internalType": "uint256",
          "name": "newPrice",
          "type": "uint256"
        }
      ],
      "name": "PlayPriceUpdated",
      "type": "event"
    },
    {
      "anonymous": false,
      "inputs": [
        {
          "indexed": false,
          "internalType": "uint256",
          "name": "oldPlays",
          "type": "uint256"
        },
        {
          "indexed": false,
          "internalType": "uint256",
          "name": "newPlays",
          "type": "uint256"
        }
      ],
      "name": "PlaysPerSessionUpdated",
      "type": "event"
    },
    {
      "stateMutability": "payable",
      "type": "fallback"
    },
    {
      "inputs": [],
      "name": "freePlayInterval",
      "outputs": [
        {
          "internalType": "uint256",
          "name": "",
          "type": "uint256"
        }
      ],
      "stateMutability": "view",
      "type": "function"
    },
    {
      "inputs": [
        {
          "internalType": "address",
          "name": "player",
          "type": "address"
        }
      ],
      "name": "getRemainingFreePlayCooldown",
      "outputs": [
        {
          "internalType": "uint256",
          "name": "",
          "type": "uint256"
        }
      ],
      "stateMutability": "view",
      "type": "function"
    },
    {
      "inputs": [
        {
          "internalType": "address",
          "name": "player",
          "type": "address"
        }
      ],
      "name": "getRemainingPlaysInCurrentSession",
      "outputs": [
        {
          "internalType": "uint256",
          "name": "",
          "type": "uint256"
        }
      ],
      "stateMutability": "view",
      "type": "function"
    },
    {
      "inputs": [
        {
          "internalType": "address",
          "name": "",
          "type": "address"
        }
      ],
      "name": "lastPlayTime",
      "outputs": [
        {
          "internalType": "uint256",
          "name": "",
          "type": "uint256"
        }
      ],
      "stateMutability": "view",
      "type": "function"
    },
    {
      "inputs": [],
      "name": "owner",
      "outputs": [
        {
          "internalType": "address",
          "name": "",
          "type": "address"
        }
      ],
      "stateMutability": "view",
      "type": "function"
    },
    {
      "inputs": [],
      "name": "playPrice",
      "outputs": [
        {
          "internalType": "uint256",
          "name": "",
          "type": "uint256"
        }
      ],
      "stateMutability": "view",
      "type": "function"
    },
    {
      "inputs": [],
      "name": "playsPerSession",
      "outputs": [
        {
          "internalType": "uint256",
          "name": "",
          "type": "uint256"
        }
      ],
      "stateMutability": "view",
      "type": "function"
    },
    {
      "inputs": [
        {
          "internalType": "address",
          "name": "",
          "type": "address"
        }
      ],
      "name": "remainingPlaysInSession",
      "outputs": [
        {
          "internalType": "uint256",
          "name": "",
          "type": "uint256"
        }
      ],
      "stateMutability": "view",
      "type": "function"
    },
    {
      "inputs": [],
      "name": "renounceOwnership",
      "outputs": [],
      "stateMutability": "nonpayable",
      "type": "function"
    },
    {
      "inputs": [],
      "name": "requestFlash",
      "outputs": [],
      "stateMutability": "payable",
      "type": "function"
    },
    {
      "inputs": [
        {
          "internalType": "uint256",
          "name": "_newFreePlayInterval",
          "type": "uint256"
        }
      ],
      "name": "setFreePlayInterval",
      "outputs": [],
      "stateMutability": "nonpayable",
      "type": "function"
    },
    {
      "inputs": [
        {
          "internalType": "uint256",
          "name": "_newPlayPrice",
          "type": "uint256"
        }
      ],
      "name": "setPlayPrice",
      "outputs": [],
      "stateMutability": "nonpayable",
      "type": "function"
    },
    {
      "inputs": [
        {
          "internalType": "uint256",
          "name": "_newPlaysPerSession",
          "type": "uint256"
        }
      ],
      "name": "setPlaysPerSession",
      "outputs": [],
      "stateMutability": "nonpayable",
      "type": "function"
    },
    {
      "inputs": [
        {
          "internalType": "address",
          "name": "newOwner",
          "type": "address"
        }
      ],
      "name": "transferOwnership",
      "outputs": [],
      "stateMutability": "nonpayable",
      "type": "function"
    },
    {
      "inputs": [],
      "name": "withdraw",
      "outputs": [],
      "stateMutability": "nonpayable",
      "type": "function"
    },
    {
      "stateMutability": "payable",
      "type": "receive"
    }
  ],
  "bytecode": "0x60806040523480156200001157600080fd5b50604051620016ca380380620016ca83398181016040528101906200003791906200027b565b620000576200004b6200016f60201b60201c565b6200017760201b60201c565b600081116200009d576040517f08c379a0000000000000000000000000000000000000000000000000000000008152600401620000949062000338565b60405180910390fd5b8260018190555081600281905550806003819055507f7f00a89280a0ae1f23540ebef3770800a932622926732a30abcd2cacc3cb1eb3600084604051620000e6929190620003b8565b60405180910390a17f8b4aaa3408131ddd8429038dad23291851161540fc9bde082a80fc23af66996860008360405162000122929190620003b8565b60405180910390a17fdb6350d67c3b59bd039f60cb131d307f91ef41c17dc1482174815db986d85e696000826040516200015e929190620003b8565b60405180910390a1505050620003e5565b600033905090565b60008060009054906101000a900473ffffffffffffffffffffffffffffffffffffffff169050816000806101000a81548173ffffffffffffffffffffffffffffffffffffffff021916908373ffffffffffffffffffffffffffffffffffffffff1602179055508173ffffffffffffffffffffffffffffffffffffffff168173ffffffffffffffffffffffffffffffffffffffff167f8be0079c531659141344cd1fd0a4f28419497f9722a3daafe3b4186f6b6457e060405160405180910390a35050565b600080fd5b6000819050919050565b620002558162000240565b81146200026157600080fd5b50565b60008151905062000275816200024a565b92915050565b6000806000606084860312156200029757620002966200023b565b5b6000620002a78682870162000264565b9350506020620002ba8682870162000264565b9250506040620002cd8682870162000264565b9150509250925092565b600082825260208201905092915050565b7f506c617973207065722073657373696f6e206d757374206265203e2030000000600082015250565b600062000320601d83620002d7565b91506200032d82620002e8565b602082019050919050565b60006020820190508181036000830152620003538162000311565b9050919050565b6000819050919050565b6000819050919050565b60006200038f6200038962000383846200035a565b62000364565b62000240565b9050919050565b620003a1816200036e565b82525050565b620003b28162000240565b82525050565b6000604082019050620003cf600083018562000396565b620003de6020830184620003a7565b9392505050565b6112d580620003f56000396000f3fe6080604052600436106100ec5760003560e01c8063715018a61161008a578063b205ab4e11610059578063b205ab4e146102c4578063c640c1f6146102ce578063d3eda4781461030b578063f2fde38b14610348576100f3565b8063715018a6146102085780638da5cb5b1461021f57806396d966d61461024a578063a637cd0a14610287576100f3565b8063438de909116100c6578063438de9091461016057806359a9ae11146101895780635b4011be146101b257806369c1a7ed146101dd576100f3565b8063148edacf146100f55780631e96c09e1461011e5780633ccfd60b14610149576100f3565b366100f357005b005b34801561010157600080fd5b5061011c60048036038101906101179190610c37565b610371565b005b34801561012a57600080fd5b50610133610407565b6040516101409190610c73565b60405180910390f35b34801561015557600080fd5b5061015e61040d565b005b34801561016c57600080fd5b5061018760048036038101906101829190610c37565b610503565b005b34801561019557600080fd5b506101b060048036038101906101ab9190610c37565b610556565b005b3480156101be57600080fd5b506101c76105a9565b6040516101d49190610c73565b60405180910390f35b3480156101e957600080fd5b506101f26105af565b6040516101ff9190610c73565b60405180910390f35b34801561021457600080fd5b5061021d6105b5565b005b34801561022b57600080fd5b506102346105c9565b6040516102419190610ccf565b60405180910390f35b34801561025657600080fd5b50610271600480360381019061026c9190610d16565b6105f2565b60405161027e9190610c73565b60405180910390f35b34801561029357600080fd5b506102ae60048036038101906102a99190610d16565b61066c565b6040516102bb9190610c73565b60405180910390f35b6102cc6106b5565b005b3480156102da57600080fd5b506102f560048036038101906102f09190610d16565b6109ff565b6040516103029190610c73565b60405180910390f35b34801561031757600080fd5b50610332600480360381019061032d9190610d16565b610a17565b60405161033f9190610c73565b60405180910390f35b34801561035457600080fd5b5061036f600480360381019061036a9190610d16565b610a2f565b005b610379610ab2565b600081116103bc576040517f08c379a00000000000000000000000000000000000000000000000000000000081526004016103b390610da0565b60405180910390fd5b60006003549050816003819055507fdb6350d67c3b59bd039f60cb131d307f91ef41c17dc1482174815db986d85e6981836040516103fb929190610dc0565b60405180910390a15050565b60025481565b610415610ab2565b60004790506000811161045d576040517f08c379a000000000000000000000000000000000000000000000000000000000815260040161045490610e5b565b60405180910390fd5b6104656105c9565b73ffffffffffffffffffffffffffffffffffffffff166108fc829081150290604051600060405180830381858888f193505050501580156104aa573d6000803e3d6000fd5b506104b36105c9565b73ffffffffffffffffffffffffffffffffffffffff167feaff4b37086828766ad3268786972c0cd24259d4c87a80f9d3963a3c3d999b0d826040516104f89190610c73565b60405180910390a250565b61050b610ab2565b60006002549050816002819055507f8b4aaa3408131ddd8429038dad23291851161540fc9bde082a80fc23af669968818360405161054a929190610dc0565b60405180910390a15050565b61055e610ab2565b60006001549050816001819055507f7f00a89280a0ae1f23540ebef3770800a932622926732a30abcd2cacc3cb1eb3818360405161059d929190610dc0565b60405180910390a15050565b60035481565b60015481565b6105bd610ab2565b6105c76000610b30565b565b60008060009054906101000a900473ffffffffffffffffffffffffffffffffffffffff16905090565b600080600460008473ffffffffffffffffffffffffffffffffffffffff1673ffffffffffffffffffffffffffffffffffffffff16815260200190815260200160002054426106409190610eaa565b90506002548110610655576000915050610667565b806002546106639190610eaa565b9150505b919050565b6000600560008373ffffffffffffffffffffffffffffffffffffffff1673ffffffffffffffffffffffffffffffffffffffff168152602001908152602001600020549050919050565b60008060035490506000600560003373ffffffffffffffffffffffffffffffffffffffff1673ffffffffffffffffffffffffffffffffffffffff1681526020019081526020016000205411156107a25760003414610748576040517f08c379a000000000000000000000000000000000000000000000000000000000815260040161073f90610f50565b60405180910390fd5b600560003373ffffffffffffffffffffffffffffffffffffffff1673ffffffffffffffffffffffffffffffffffffffff168152602001908152602001600020600081548092919061079890610f70565b919050555061096a565b6000600254600460003373ffffffffffffffffffffffffffffffffffffffff1673ffffffffffffffffffffffffffffffffffffffff16815260200190815260200160002054426107f29190610eaa565b101590508015610848576000341461083f576040517f08c379a00000000000000000000000000000000000000000000000000000000081526004016108369061100b565b60405180910390fd5b60019250610891565b600154341461088c576040517f08c379a00000000000000000000000000000000000000000000000000000000081526004016108839061109d565b60405180910390fd5b600092505b600082116108d4576040517f08c379a00000000000000000000000000000000000000000000000000000000081526004016108cb9061112f565b60405180910390fd5b6001826108e19190610eaa565b600560003373ffffffffffffffffffffffffffffffffffffffff1673ffffffffffffffffffffffffffffffffffffffff1681526020019081526020016000208190555042600460003373ffffffffffffffffffffffffffffffffffffffff1673ffffffffffffffffffffffffffffffffffffffff16815260200190815260200160002081905550505b3373ffffffffffffffffffffffffffffffffffffffff167f18af4f87248c5c2e1a40d6b9cf8a5d10563c1be28dcb579e76ba4addef4b416b4284600560003373ffffffffffffffffffffffffffffffffffffffff1673ffffffffffffffffffffffffffffffffffffffff168152602001908152602001600020546040516109f39392919061116a565b60405180910390a25050565b60046020528060005260406000206000915090505481565b60056020528060005260406000206000915090505481565b610a37610ab2565b600073ffffffffffffffffffffffffffffffffffffffff168173ffffffffffffffffffffffffffffffffffffffff1603610aa6576040517f08c379a0000000000000000000000000000000000000000000000000000000008152600401610a9d90611213565b60405180910390fd5b610aaf81610b30565b50565b610aba610bf4565b73ffffffffffffffffffffffffffffffffffffffff16610ad86105c9565b73ffffffffffffffffffffffffffffffffffffffff1614610b2e576040517f08c379a0000000000000000000000000000000000000000000000000000000008152600401610b259061127f565b60405180910390fd5b565b60008060009054906101000a900473ffffffffffffffffffffffffffffffffffffffff169050816000806101000a81548173ffffffffffffffffffffffffffffffffffffffff021916908373ffffffffffffffffffffffffffffffffffffffff1602179055508173ffffffffffffffffffffffffffffffffffffffff168173ffffffffffffffffffffffffffffffffffffffff167f8be0079c531659141344cd1fd0a4f28419497f9722a3daafe3b4186f6b6457e060405160405180910390a35050565b600033905090565b600080fd5b6000819050919050565b610c1481610c01565b8114610c1f57600080fd5b50565b600081359050610c3181610c0b565b92915050565b600060208284031215610c4d57610c4c610bfc565b5b6000610c5b84828501610c22565b91505092915050565b610c6d81610c01565b82525050565b6000602082019050610c886000830184610c64565b92915050565b600073ffffffffffffffffffffffffffffffffffffffff82169050919050565b6000610cb982610c8e565b9050919050565b610cc981610cae565b82525050565b6000602082019050610ce46000830184610cc0565b92915050565b610cf381610cae565b8114610cfe57600080fd5b50565b600081359050610d1081610cea565b92915050565b600060208284031215610d2c57610d2b610bfc565b5b6000610d3a84828501610d01565b91505092915050565b600082825260208201905092915050565b7f506c617973207065722073657373696f6e206d757374206265203e2030000000600082015250565b6000610d8a601d83610d43565b9150610d9582610d54565b602082019050919050565b60006020820190508181036000830152610db981610d7d565b9050919050565b6000604082019050610dd56000830185610c64565b610de26020830184610c64565b9392505050565b7f5652465265666c6578426c69747a3a204e6f2062616c616e636520746f20776960008201527f7468647261770000000000000000000000000000000000000000000000000000602082015250565b6000610e45602683610d43565b9150610e5082610de9565b604082019050919050565b60006020820190508181036000830152610e7481610e38565b9050919050565b7f4e487b7100000000000000000000000000000000000000000000000000000000600052601160045260246000fd5b6000610eb582610c01565b9150610ec083610c01565b9250828203905081811115610ed857610ed7610e7b565b5b92915050565b7f5652465265666c6578426c69747a3a2056616c75652073656e7420666f72206160008201527f20706c61792077697468696e20616e206163746976652073657373696f6e2e00602082015250565b6000610f3a603f83610d43565b9150610f4582610ede565b604082019050919050565b60006020820190508181036000830152610f6981610f2d565b9050919050565b6000610f7b82610c01565b915060008203610f8e57610f8d610e7b565b5b600182039050919050565b7f5652465265666c6578426c69747a3a2056616c75652073656e7420666f72206160008201527f206672656520706c61792073657373696f6e2e00000000000000000000000000602082015250565b6000610ff5603383610d43565b915061100082610f99565b604082019050919050565b6000602082019050818103600083015261102481610fe8565b9050919050565b7f5652465265666c6578426c69747a3a20496e636f727265637420706c6179207060008201527f7269636520666f72206e65772073657373696f6e2e0000000000000000000000602082015250565b6000611087603583610d43565b91506110928261102b565b604082019050919050565b600060208201905081810360008301526110b68161107a565b9050919050565b7f506c617973207065722073657373696f6e206e6f7420736574206f72207a657260008201527f6f00000000000000000000000000000000000000000000000000000000000000602082015250565b6000611119602183610d43565b9150611124826110bd565b604082019050919050565b600060208201905081810360008301526111488161110c565b9050919050565b60008115159050919050565b6111648161114f565b82525050565b600060608201905061117f6000830186610c64565b61118c602083018561115b565b6111996040830184610c64565b949350505050565b7f4f776e61626c653a206e6577206f776e657220697320746865207a65726f206160008201527f6464726573730000000000000000000000000000000000000000000000000000602082015250565b60006111fd602683610d43565b9150611208826111a1565b604082019050919050565b6000602082019050818103600083015261122c816111f0565b9050919050565b7f4f776e61626c653a2063616c6c6572206973206e6f7420746865206f776e6572600082015250565b6000611269602083610d43565b915061127482611233565b602082019050919050565b600060208201905081810360008301526112988161125c565b905091905056fea26469706673582212200fb824d1d177e6a60ef4fc85bb7893f24ff4af66dcc65b191ce8de984815f74864736f6c63430008180033",
  "linkReferences": {},
  "deployedLinkReferences": {}
}